{
  "_format": "hh-sol-artifact-1",
  "contractName": "EvilBuyer",
  "sourceName": "contracts/test/EvilBuyer.sol",
  "abi": [
    {
      "stateMutability": "payable",
      "type": "fallback"
    },
    {
      "inputs": [
        {
          "internalType": "address",
          "name": "commission",
          "type": "address"
        }
      ],
      "name": "confirm",
      "outputs": [],
      "stateMutability": "nonpayable",
      "type": "function"
    },
    {
      "inputs": [],
      "name": "deposit",
      "outputs": [],
      "stateMutability": "payable",
      "type": "function"
    },
    {
      "inputs": [
        {
          "internalType": "address",
          "name": "commission",
          "type": "address"
        }
      ],
      "name": "fund",
      "outputs": [],
      "stateMutability": "payable",
      "type": "function"
    },
    {
      "inputs": [
        {
          "internalType": "address",
          "name": "commission",
          "type": "address"
        }
      ],
      "name": "payInFullAndRelease",
      "outputs": [],
      "stateMutability": "payable",
      "type": "function"
    },
    {
      "inputs": [
        {
          "internalType": "address payable",
          "name": "to",
          "type": "address"
        }
      ],
      "name": "sendETH",
      "outputs": [],
      "stateMutability": "payable",
      "type": "function"
    },
    {
      "stateMutability": "payable",
      "type": "receive"
    }
  ],
  "bytecode": "0x6080604052348015600f57600080fd5b506109be8061001f6000396000f3fe60806040526004361061004e5760003560e01c806321b1e5f8146100c957806323024408146100e55780632b85cbf514610101578063d0e30db01461011d578063eb4dd8f2146101275761008e565b3661008e576040517f08c379a0000000000000000000000000000000000000000000000000000000008152600401610085906105fa565b60405180910390fd5b6040517f08c379a00000000000000000000000000000000000000000000000000000000081526004016100c0906105fa565b60405180910390fd5b6100e360048036038101906100de919061067d565b610150565b005b6100ff60048036038101906100fa91906106e8565b610200565b005b61011b600480360381019061011691906106e8565b610334565b005b610125610468565b005b34801561013357600080fd5b5061014e600480360381019061014991906106e8565b61046a565b005b60008173ffffffffffffffffffffffffffffffffffffffff163460405161017690610746565b60006040518083038185875af1925050503d80600081146101b3576040519150601f19603f3d011682016040523d82523d6000602084013e6101b8565b606091505b50509050806101fc576040517f08c379a00000000000000000000000000000000000000000000000000000000081526004016101f3906107a7565b60405180910390fd5b5050565b60008173ffffffffffffffffffffffffffffffffffffffff16346040516024016040516020818303038152906040527fb60d4288000000000000000000000000000000000000000000000000000000007bffffffffffffffffffffffffffffffffffffffffffffffffffffffff19166020820180517bffffffffffffffffffffffffffffffffffffffffffffffffffffffff83818316178352505050506040516102aa919061082d565b60006040518083038185875af1925050503d80600081146102e7576040519150601f19603f3d011682016040523d82523d6000602084013e6102ec565b606091505b5050905080610330576040517f08c379a000000000000000000000000000000000000000000000000000000000815260040161032790610890565b60405180910390fd5b5050565b60008173ffffffffffffffffffffffffffffffffffffffff16346040516024016040516020818303038152906040527f4eb60c9f000000000000000000000000000000000000000000000000000000007bffffffffffffffffffffffffffffffffffffffffffffffffffffffff19166020820180517bffffffffffffffffffffffffffffffffffffffffffffffffffffffff83818316178352505050506040516103de919061082d565b60006040518083038185875af1925050503d806000811461041b576040519150601f19603f3d011682016040523d82523d6000602084013e610420565b606091505b5050905080610464576040517f08c379a000000000000000000000000000000000000000000000000000000000815260040161045b906108fc565b60405180910390fd5b5050565b565b60008173ffffffffffffffffffffffffffffffffffffffff166040516024016040516020818303038152906040527f2618810c000000000000000000000000000000000000000000000000000000007bffffffffffffffffffffffffffffffffffffffffffffffffffffffff19166020820180517bffffffffffffffffffffffffffffffffffffffffffffffffffffffff8381831617835250505050604051610513919061082d565b6000604051808303816000865af19150503d8060008114610550576040519150601f19603f3d011682016040523d82523d6000602084013e610555565b606091505b5050905080610599576040517f08c379a000000000000000000000000000000000000000000000000000000000815260040161059090610968565b60405180910390fd5b5050565b600082825260208201905092915050565b7f69276d206576696c000000000000000000000000000000000000000000000000600082015250565b60006105e460088361059d565b91506105ef826105ae565b602082019050919050565b60006020820190508181036000830152610613816105d7565b9050919050565b600080fd5b600073ffffffffffffffffffffffffffffffffffffffff82169050919050565b600061064a8261061f565b9050919050565b61065a8161063f565b811461066557600080fd5b50565b60008135905061067781610651565b92915050565b6000602082840312156106935761069261061a565b5b60006106a184828501610668565b91505092915050565b60006106b58261061f565b9050919050565b6106c5816106aa565b81146106d057600080fd5b50565b6000813590506106e2816106bc565b92915050565b6000602082840312156106fe576106fd61061a565b5b600061070c848285016106d3565b91505092915050565b600081905092915050565b50565b6000610730600083610715565b915061073b82610720565b600082019050919050565b600061075182610723565b9150819050919050565b7f53656e64206661696c6564000000000000000000000000000000000000000000600082015250565b6000610791600b8361059d565b915061079c8261075b565b602082019050919050565b600060208201905081810360008301526107c081610784565b9050919050565b600081519050919050565b60005b838110156107f05780820151818401526020810190506107d5565b60008484015250505050565b6000610807826107c7565b6108118185610715565b93506108218185602086016107d2565b80840191505092915050565b600061083982846107fc565b915081905092915050565b7f66756e64206661696c6564000000000000000000000000000000000000000000600082015250565b600061087a600b8361059d565b915061088582610844565b602082019050919050565b600060208201905081810360008301526108a98161086d565b9050919050565b7f706179206661696c656400000000000000000000000000000000000000000000600082015250565b60006108e6600a8361059d565b91506108f1826108b0565b602082019050919050565b60006020820190508181036000830152610915816108d9565b9050919050565b7f636f6e6669726d206661696c6564000000000000000000000000000000000000600082015250565b6000610952600e8361059d565b915061095d8261091c565b602082019050919050565b6000602082019050818103600083015261098181610945565b905091905056fea2646970667358221220d898d21f652ad5ec847206287e0693e7562afef9e262e02ffc5225d94a85bac664736f6c634300081c0033",
  "linkReferences": {},
  "deployedLinkReferences": {}
}