{
  "_format": "hh-sol-artifact-1",
  "contractName": "EvilBuyer",
  "sourceName": "contracts/test/EvilBuyer.sol",
  "abi": [
    {
      "stateMutability": "payable",
      "type": "fallback"
    },
    {
      "inputs": [
        {
          "internalType": "address",
          "name": "commission",
          "type": "address"
        }
      ],
      "name": "confirm",
      "outputs": [],
      "stateMutability": "nonpayable",
      "type": "function"
    },
    {
      "inputs": [],
      "name": "deposit",
      "outputs": [],
      "stateMutability": "payable",
      "type": "function"
    },
    {
      "inputs": [
        {
          "internalType": "address",
          "name": "commission",
          "type": "address"
        }
      ],
      "name": "fund",
      "outputs": [],
      "stateMutability": "payable",
      "type": "function"
    },
    {
      "inputs": [
        {
          "internalType": "address",
          "name": "commission",
          "type": "address"
        }
      ],
      "name": "payInFullAndRelease",
      "outputs": [],
      "stateMutability": "payable",
      "type": "function"
    },
    {
      "inputs": [
        {
          "internalType": "address payable",
          "name": "to",
          "type": "address"
        }
      ],
      "name": "sendETH",
      "outputs": [],
      "stateMutability": "payable",
      "type": "function"
    },
    {
      "stateMutability": "payable",
      "type": "receive"
    }
  ],
  "bytecode": "0x6080604052348015600f57600080fd5b50610c558061001f6000396000f3fe60806040526004361061004e5760003560e01c806321b1e5f81461011957806323024408146101355780632b85cbf514610151578063d0e30db01461016d578063eb4dd8f214610177576100a2565b366100a25761006767e77663c231e7aba760c01b6101a0565b6040517f08c379a000000000000000000000000000000000000000000000000000000000815260040161009990610891565b60405180910390fd5b6100b667c61460e4c222e9be60c01b6101a0565b6100ca67244d17c56dfcb18b60c01b6101a0565b6100de67e5c9edb142c9a04460c01b6101a0565b6040517f08c379a000000000000000000000000000000000000000000000000000000000815260040161011090610891565b60405180910390fd5b610133600480360381019061012e9190610914565b6101a3565b005b61014f600480360381019061014a919061097f565b6102df565b005b61016b6004803603810190610166919061097f565b61049f565b005b61017561065f565b005b34801561018357600080fd5b5061019e6004803603810190610199919061097f565b610675565b005b50565b6101b767a436c41de5cd235560c01b6101a0565b6101cb6798f7e0e05c3c8b3d60c01b6101a0565b6101df67dfa50a1a4a6cee2660c01b6101a0565b60008173ffffffffffffffffffffffffffffffffffffffff1634604051610205906109dd565b60006040518083038185875af1925050503d8060008114610242576040519150601f19603f3d011682016040523d82523d6000602084013e610247565b606091505b5050905061025f67b85934d0ab0ade8860c01b6101a0565b610273677951a13f5616bbf360c01b6101a0565b610287670f47e69f98792e4660c01b6101a0565b806102c7576040517f08c379a00000000000000000000000000000000000000000000000000000000081526004016102be90610a3e565b60405180910390fd5b6102db6799ca1ed326f4562160c01b6101a0565b5050565b6102f367a7947498e8383d7760c01b6101a0565b61030767be97dcdc5ef7c87160c01b6101a0565b61031b67c8fb1075e12a7c7760c01b6101a0565b60008173ffffffffffffffffffffffffffffffffffffffff16346040516024016040516020818303038152906040527fb60d4288000000000000000000000000000000000000000000000000000000007bffffffffffffffffffffffffffffffffffffffffffffffffffffffff19166020820180517bffffffffffffffffffffffffffffffffffffffffffffffffffffffff83818316178352505050506040516103c59190610ac4565b60006040518083038185875af1925050503d8060008114610402576040519150601f19603f3d011682016040523d82523d6000602084013e610407565b606091505b5050905061041f6766a1a74aace062fc60c01b6101a0565b6104336754ed569c4072487660c01b6101a0565b610447672e69afa1e9d1849c60c01b6101a0565b80610487576040517f08c379a000000000000000000000000000000000000000000000000000000000815260040161047e90610b27565b60405180910390fd5b61049b673f4954cbd180c6a260c01b6101a0565b5050565b6104b3678d2b72328c6cb5ce60c01b6101a0565b6104c767e99de6c0315a922c60c01b6101a0565b6104db6710a317fbd9af40fb60c01b6101a0565b60008173ffffffffffffffffffffffffffffffffffffffff16346040516024016040516020818303038152906040527f4eb60c9f000000000000000000000000000000000000000000000000000000007bffffffffffffffffffffffffffffffffffffffffffffffffffffffff19166020820180517bffffffffffffffffffffffffffffffffffffffffffffffffffffffff83818316178352505050506040516105859190610ac4565b60006040518083038185875af1925050503d80600081146105c2576040519150601f19603f3d011682016040523d82523d6000602084013e6105c7565b606091505b505090506105df674638d672653500fa60c01b6101a0565b6105f36738d0fdbe84204e1860c01b6101a0565b61060767201d85b356da3f5860c01b6101a0565b80610647576040517f08c379a000000000000000000000000000000000000000000000000000000000815260040161063e90610b93565b60405180910390fd5b61065b67e3b92f9037d1bcfd60c01b6101a0565b5050565b610673678a317a94a566c62860c01b6101a0565b565b61068967f18aa032cc78112860c01b6101a0565b61069d6713c20416fdbc287460c01b6101a0565b6106b16783fa0d3bff9df2b460c01b6101a0565b60008173ffffffffffffffffffffffffffffffffffffffff166040516024016040516020818303038152906040527f2618810c000000000000000000000000000000000000000000000000000000007bffffffffffffffffffffffffffffffffffffffffffffffffffffffff19166020820180517bffffffffffffffffffffffffffffffffffffffffffffffffffffffff838183161783525050505060405161075a9190610ac4565b6000604051808303816000865af19150503d8060008114610797576040519150601f19603f3d011682016040523d82523d6000602084013e61079c565b606091505b505090506107b4670a53ef92d9a5e07460c01b6101a0565b6107c867378db54d87742b7060c01b6101a0565b6107dc67e7f4a86928f7824b60c01b6101a0565b8061081c576040517f08c379a000000000000000000000000000000000000000000000000000000000815260040161081390610bff565b60405180910390fd5b61083067be32ba2c89d76c6160c01b6101a0565b5050565b600082825260208201905092915050565b7f69276d206576696c000000000000000000000000000000000000000000000000600082015250565b600061087b600883610834565b915061088682610845565b602082019050919050565b600060208201905081810360008301526108aa8161086e565b9050919050565b600080fd5b600073ffffffffffffffffffffffffffffffffffffffff82169050919050565b60006108e1826108b6565b9050919050565b6108f1816108d6565b81146108fc57600080fd5b50565b60008135905061090e816108e8565b92915050565b60006020828403121561092a576109296108b1565b5b6000610938848285016108ff565b91505092915050565b600061094c826108b6565b9050919050565b61095c81610941565b811461096757600080fd5b50565b60008135905061097981610953565b92915050565b600060208284031215610995576109946108b1565b5b60006109a38482850161096a565b91505092915050565b600081905092915050565b50565b60006109c76000836109ac565b91506109d2826109b7565b600082019050919050565b60006109e8826109ba565b9150819050919050565b7f53656e64206661696c6564000000000000000000000000000000000000000000600082015250565b6000610a28600b83610834565b9150610a33826109f2565b602082019050919050565b60006020820190508181036000830152610a5781610a1b565b9050919050565b600081519050919050565b60005b83811015610a87578082015181840152602081019050610a6c565b60008484015250505050565b6000610a9e82610a5e565b610aa881856109ac565b9350610ab8818560208601610a69565b80840191505092915050565b6000610ad08284610a93565b915081905092915050565b7f66756e64206661696c6564000000000000000000000000000000000000000000600082015250565b6000610b11600b83610834565b9150610b1c82610adb565b602082019050919050565b60006020820190508181036000830152610b4081610b04565b9050919050565b7f706179206661696c656400000000000000000000000000000000000000000000600082015250565b6000610b7d600a83610834565b9150610b8882610b47565b602082019050919050565b60006020820190508181036000830152610bac81610b70565b9050919050565b7f636f6e6669726d206661696c6564000000000000000000000000000000000000600082015250565b6000610be9600e83610834565b9150610bf482610bb3565b602082019050919050565b60006020820190508181036000830152610c1881610bdc565b905091905056fea2646970667358221220eb1c5aa426bc70ec9ab917bd392f7526d255c70df3d4364cb2af4eadd371b3da64736f6c634300081c0033",
  "linkReferences": {},
  "deployedLinkReferences": {}
}