{
  "_format": "hh-sol-artifact-1",
  "contractName": "EvilArtist",
  "sourceName": "contracts/test/EvilArtist.sol",
  "abi": [
    {
      "stateMutability": "payable",
      "type": "fallback"
    },
    {
      "inputs": [
        {
          "internalType": "address",
          "name": "commission",
          "type": "address"
        },
        {
          "internalType": "address",
          "name": "nft",
          "type": "address"
        },
        {
          "internalType": "uint256",
          "name": "tokenId",
          "type": "uint256"
        }
      ],
      "name": "acceptArt",
      "outputs": [],
      "stateMutability": "nonpayable",
      "type": "function"
    },
    {
      "inputs": [
        {
          "internalType": "address",
          "name": "commission",
          "type": "address"
        }
      ],
      "name": "confirm",
      "outputs": [],
      "stateMutability": "nonpayable",
      "type": "function"
    },
    {
      "inputs": [],
      "name": "deposit",
      "outputs": [],
      "stateMutability": "payable",
      "type": "function"
    },
    {
      "inputs": [
        {
          "internalType": "address",
          "name": "commission",
          "type": "address"
        }
      ],
      "name": "fund",
      "outputs": [],
      "stateMutability": "payable",
      "type": "function"
    },
    {
      "inputs": [
        {
          "internalType": "address payable",
          "name": "to",
          "type": "address"
        }
      ],
      "name": "sendETH",
      "outputs": [],
      "stateMutability": "payable",
      "type": "function"
    },
    {
      "inputs": [
        {
          "internalType": "address",
          "name": "commission",
          "type": "address"
        },
        {
          "internalType": "address",
          "name": "nft",
          "type": "address"
        },
        {
          "internalType": "uint256",
          "name": "tokenId",
          "type": "uint256"
        }
      ],
      "name": "submitArt",
      "outputs": [],
      "stateMutability": "nonpayable",
      "type": "function"
    },
    {
      "stateMutability": "payable",
      "type": "receive"
    }
  ],
  "bytecode": "0x6080604052348015600f57600080fd5b50610c298061001f6000396000f3fe6080604052600436106100595760003560e01c806321b1e5f8146100d457806323024408146100f057806334b15fb41461010c57806388d2a26114610135578063d0e30db01461015e578063eb4dd8f21461016857610099565b36610099576040517f08c379a000000000000000000000000000000000000000000000000000000000815260040161009090610795565b60405180910390fd5b6040517f08c379a00000000000000000000000000000000000000000000000000000000081526004016100cb90610795565b60405180910390fd5b6100ee60048036038101906100e99190610818565b610191565b005b61010a60048036038101906101059190610883565b610241565b005b34801561011857600080fd5b50610133600480360381019061012e91906108e6565b610375565b005b34801561014157600080fd5b5061015c600480360381019061015791906108e6565b6104b7565b005b610166610603565b005b34801561017457600080fd5b5061018f600480360381019061018a9190610883565b610605565b005b60008173ffffffffffffffffffffffffffffffffffffffff16346040516101b79061096a565b60006040518083038185875af1925050503d80600081146101f4576040519150601f19603f3d011682016040523d82523d6000602084013e6101f9565b606091505b505090508061023d576040517f08c379a0000000000000000000000000000000000000000000000000000000008152600401610234906109cb565b60405180910390fd5b5050565b60008173ffffffffffffffffffffffffffffffffffffffff16346040516024016040516020818303038152906040527fb60d4288000000000000000000000000000000000000000000000000000000007bffffffffffffffffffffffffffffffffffffffffffffffffffffffff19166020820180517bffffffffffffffffffffffffffffffffffffffffffffffffffffffff83818316178352505050506040516102eb9190610a51565b60006040518083038185875af1925050503d8060008114610328576040519150601f19603f3d011682016040523d82523d6000602084013e61032d565b606091505b5050905080610371576040517f08c379a000000000000000000000000000000000000000000000000000000000815260040161036890610ab4565b60405180910390fd5b5050565b60008373ffffffffffffffffffffffffffffffffffffffff1683836040516024016103a1929190610af2565b6040516020818303038152906040527f98ca4a05000000000000000000000000000000000000000000000000000000007bffffffffffffffffffffffffffffffffffffffffffffffffffffffff19166020820180517bffffffffffffffffffffffffffffffffffffffffffffffffffffffff838183161783525050505060405161042b9190610a51565b6000604051808303816000865af19150503d8060008114610468576040519150601f19603f3d011682016040523d82523d6000602084013e61046d565b606091505b50509050806104b1576040517f08c379a00000000000000000000000000000000000000000000000000000000081526004016104a890610b67565b60405180910390fd5b50505050565b8173ffffffffffffffffffffffffffffffffffffffff166340c10f1930836040518363ffffffff1660e01b81526004016104f2929190610af2565b600060405180830381600087803b15801561050c57600080fd5b505af1158015610520573d6000803e3d6000fd5b505050508173ffffffffffffffffffffffffffffffffffffffff1663095ea7b384836040518363ffffffff1660e01b815260040161055f929190610af2565b600060405180830381600087803b15801561057957600080fd5b505af115801561058d573d6000803e3d6000fd5b505050508273ffffffffffffffffffffffffffffffffffffffff166398ca4a0583836040518363ffffffff1660e01b81526004016105cc929190610af2565b600060405180830381600087803b1580156105e657600080fd5b505af11580156105fa573d6000803e3d6000fd5b50505050505050565b565b60008173ffffffffffffffffffffffffffffffffffffffff166040516024016040516020818303038152906040527f2618810c000000000000000000000000000000000000000000000000000000007bffffffffffffffffffffffffffffffffffffffffffffffffffffffff19166020820180517bffffffffffffffffffffffffffffffffffffffffffffffffffffffff83818316178352505050506040516106ae9190610a51565b6000604051808303816000865af19150503d80600081146106eb576040519150601f19603f3d011682016040523d82523d6000602084013e6106f0565b606091505b5050905080610734576040517f08c379a000000000000000000000000000000000000000000000000000000000815260040161072b90610bd3565b60405180910390fd5b5050565b600082825260208201905092915050565b7f69276d206576696c000000000000000000000000000000000000000000000000600082015250565b600061077f600883610738565b915061078a82610749565b602082019050919050565b600060208201905081810360008301526107ae81610772565b9050919050565b600080fd5b600073ffffffffffffffffffffffffffffffffffffffff82169050919050565b60006107e5826107ba565b9050919050565b6107f5816107da565b811461080057600080fd5b50565b600081359050610812816107ec565b92915050565b60006020828403121561082e5761082d6107b5565b5b600061083c84828501610803565b91505092915050565b6000610850826107ba565b9050919050565b61086081610845565b811461086b57600080fd5b50565b60008135905061087d81610857565b92915050565b600060208284031215610899576108986107b5565b5b60006108a78482850161086e565b91505092915050565b6000819050919050565b6108c3816108b0565b81146108ce57600080fd5b50565b6000813590506108e0816108ba565b92915050565b6000806000606084860312156108ff576108fe6107b5565b5b600061090d8682870161086e565b935050602061091e8682870161086e565b925050604061092f868287016108d1565b9150509250925092565b600081905092915050565b50565b6000610954600083610939565b915061095f82610944565b600082019050919050565b600061097582610947565b9150819050919050565b7f53656e64206661696c6564000000000000000000000000000000000000000000600082015250565b60006109b5600b83610738565b91506109c08261097f565b602082019050919050565b600060208201905081810360008301526109e4816109a8565b9050919050565b600081519050919050565b60005b83811015610a145780820151818401526020810190506109f9565b60008484015250505050565b6000610a2b826109eb565b610a358185610939565b9350610a458185602086016109f6565b80840191505092915050565b6000610a5d8284610a20565b915081905092915050565b7f66756e64206661696c6564000000000000000000000000000000000000000000600082015250565b6000610a9e600b83610738565b9150610aa982610a68565b602082019050919050565b60006020820190508181036000830152610acd81610a91565b9050919050565b610add81610845565b82525050565b610aec816108b0565b82525050565b6000604082019050610b076000830185610ad4565b610b146020830184610ae3565b9392505050565b7f616363657074206661696c656400000000000000000000000000000000000000600082015250565b6000610b51600d83610738565b9150610b5c82610b1b565b602082019050919050565b60006020820190508181036000830152610b8081610b44565b9050919050565b7f636f6e6669726d206661696c6564000000000000000000000000000000000000600082015250565b6000610bbd600e83610738565b9150610bc882610b87565b602082019050919050565b60006020820190508181036000830152610bec81610bb0565b905091905056fea2646970667358221220fdabcf14c9ce4602dc656757ca44bc34de53ea46821e384fca30820ed8a6eb9b64736f6c634300081c0033",
  "linkReferences": {},
  "deployedLinkReferences": {}
}