{
  "_format": "hh-sol-artifact-1",
  "contractName": "EvilArtist",
  "sourceName": "contracts/test/EvilArtist.sol",
  "abi": [
    {
      "stateMutability": "payable",
      "type": "fallback"
    },
    {
      "inputs": [
        {
          "internalType": "address",
          "name": "commission",
          "type": "address"
        },
        {
          "internalType": "address",
          "name": "nft",
          "type": "address"
        },
        {
          "internalType": "uint256",
          "name": "tokenId",
          "type": "uint256"
        }
      ],
      "name": "acceptArt",
      "outputs": [],
      "stateMutability": "nonpayable",
      "type": "function"
    },
    {
      "inputs": [
        {
          "internalType": "address",
          "name": "commission",
          "type": "address"
        }
      ],
      "name": "confirm",
      "outputs": [],
      "stateMutability": "nonpayable",
      "type": "function"
    },
    {
      "inputs": [],
      "name": "deposit",
      "outputs": [],
      "stateMutability": "payable",
      "type": "function"
    },
    {
      "inputs": [
        {
          "internalType": "address",
          "name": "commission",
          "type": "address"
        }
      ],
      "name": "fund",
      "outputs": [],
      "stateMutability": "payable",
      "type": "function"
    },
    {
      "inputs": [
        {
          "internalType": "address payable",
          "name": "to",
          "type": "address"
        }
      ],
      "name": "sendETH",
      "outputs": [],
      "stateMutability": "payable",
      "type": "function"
    },
    {
      "inputs": [
        {
          "internalType": "address",
          "name": "commission",
          "type": "address"
        },
        {
          "internalType": "address",
          "name": "nft",
          "type": "address"
        },
        {
          "internalType": "uint256",
          "name": "tokenId",
          "type": "uint256"
        }
      ],
      "name": "submitArt",
      "outputs": [],
      "stateMutability": "nonpayable",
      "type": "function"
    },
    {
      "stateMutability": "payable",
      "type": "receive"
    }
  ],
  "bytecode": "0x6080604052348015600f57600080fd5b50610f4b8061001f6000396000f3fe6080604052600436106100595760003560e01c806321b1e5f814610124578063230244081461014057806334b15fb41461015c57806388d2a26114610185578063d0e30db0146101ae578063eb4dd8f2146101b8576100ad565b366100ad576100726707c8116dda4f25da60c01b6101e1565b6040517f08c379a00000000000000000000000000000000000000000000000000000000081526004016100a490610ab7565b60405180910390fd5b6100c1675716456c5d55459460c01b6101e1565b6100d5678bbd89cc9c91bc1060c01b6101e1565b6100e967406baa0d0a1a028960c01b6101e1565b6040517f08c379a000000000000000000000000000000000000000000000000000000000815260040161011b90610ab7565b60405180910390fd5b61013e60048036038101906101399190610b3a565b6101e4565b005b61015a60048036038101906101559190610ba5565b610320565b005b34801561016857600080fd5b50610183600480360381019061017e9190610c08565b6104e0565b005b34801561019157600080fd5b506101ac60048036038101906101a79190610c08565b6106ae565b005b6101b6610886565b005b3480156101c457600080fd5b506101df60048036038101906101da9190610ba5565b61089c565b005b50565b6101f86790823e996cbfc67a60c01b6101e1565b61020c67ad2b5c67e448e20760c01b6101e1565b610220674c240c45f6c8c7b860c01b6101e1565b60008173ffffffffffffffffffffffffffffffffffffffff163460405161024690610c8c565b60006040518083038185875af1925050503d8060008114610283576040519150601f19603f3d011682016040523d82523d6000602084013e610288565b606091505b505090506102a0677252ce3965dee4a960c01b6101e1565b6102b46704d95c112b58f5a560c01b6101e1565b6102c8675e139e0aa2a77ff660c01b6101e1565b80610308576040517f08c379a00000000000000000000000000000000000000000000000000000000081526004016102ff90610ced565b60405180910390fd5b61031c67e0b3cb4bbd4090b560c01b6101e1565b5050565b61033467174b6322101db49b60c01b6101e1565b610348672e0095071d3131f460c01b6101e1565b61035c6737eb3569cbb7608f60c01b6101e1565b60008173ffffffffffffffffffffffffffffffffffffffff16346040516024016040516020818303038152906040527fb60d4288000000000000000000000000000000000000000000000000000000007bffffffffffffffffffffffffffffffffffffffffffffffffffffffff19166020820180517bffffffffffffffffffffffffffffffffffffffffffffffffffffffff83818316178352505050506040516104069190610d73565b60006040518083038185875af1925050503d8060008114610443576040519150601f19603f3d011682016040523d82523d6000602084013e610448565b606091505b5050905061046067ac7c6be1f832706e60c01b6101e1565b61047467836706bf983ec97860c01b6101e1565b610488678ab9805d7b1066c460c01b6101e1565b806104c8576040517f08c379a00000000000000000000000000000000000000000000000000000000081526004016104bf90610dd6565b60405180910390fd5b6104dc671df494d4211fc24f60c01b6101e1565b5050565b6104f46717993dfef1a9740560c01b6101e1565b6105086737ed252dc1ca7d1560c01b6101e1565b61051c67b9979348bacd705860c01b6101e1565b60008373ffffffffffffffffffffffffffffffffffffffff168383604051602401610548929190610e14565b6040516020818303038152906040527f98ca4a05000000000000000000000000000000000000000000000000000000007bffffffffffffffffffffffffffffffffffffffffffffffffffffffff19166020820180517bffffffffffffffffffffffffffffffffffffffffffffffffffffffff83818316178352505050506040516105d29190610d73565b6000604051808303816000865af19150503d806000811461060f576040519150601f19603f3d011682016040523d82523d6000602084013e610614565b606091505b5050905061062c67df4cf78db47072ad60c01b6101e1565b610640677c2dfaae529387bc60c01b6101e1565b61065467ebccb3980612ce3a60c01b6101e1565b80610694576040517f08c379a000000000000000000000000000000000000000000000000000000000815260040161068b90610e89565b60405180910390fd5b6106a86732c04298b7009ca960c01b6101e1565b50505050565b6106c2673d652941395ea14460c01b6101e1565b6106d66773dc4fcb1f38e28260c01b6101e1565b6106ea67f4594fdec5f9edeb60c01b6101e1565b8173ffffffffffffffffffffffffffffffffffffffff166340c10f1930836040518363ffffffff1660e01b8152600401610725929190610e14565b600060405180830381600087803b15801561073f57600080fd5b505af1158015610753573d6000803e3d6000fd5b5050505061076b67e3de77309606bb3960c01b6101e1565b61077f67e3618003fb5e6a5e60c01b6101e1565b8173ffffffffffffffffffffffffffffffffffffffff1663095ea7b384836040518363ffffffff1660e01b81526004016107ba929190610e14565b600060405180830381600087803b1580156107d457600080fd5b505af11580156107e8573d6000803e3d6000fd5b5050505061080067cb16583a2711761060c01b6101e1565b6108146786da659c93c67dac60c01b6101e1565b8273ffffffffffffffffffffffffffffffffffffffff166398ca4a0583836040518363ffffffff1660e01b815260040161084f929190610e14565b600060405180830381600087803b15801561086957600080fd5b505af115801561087d573d6000803e3d6000fd5b50505050505050565b61089a67ae34caa9d592841460c01b6101e1565b565b6108b0674646c5b13f43291260c01b6101e1565b6108c46763bdcf38ca7f1def60c01b6101e1565b6108d86757ec584b76d487a960c01b6101e1565b60008173ffffffffffffffffffffffffffffffffffffffff166040516024016040516020818303038152906040527f2618810c000000000000000000000000000000000000000000000000000000007bffffffffffffffffffffffffffffffffffffffffffffffffffffffff19166020820180517bffffffffffffffffffffffffffffffffffffffffffffffffffffffff83818316178352505050506040516109819190610d73565b6000604051808303816000865af19150503d80600081146109be576040519150601f19603f3d011682016040523d82523d6000602084013e6109c3565b606091505b505090506109db677f72da9066594dfa60c01b6101e1565b6109ee66c2216b6947e8f860c01b6101e1565b610a02676cb115ee9f78141c60c01b6101e1565b80610a42576040517f08c379a0000000000000000000000000000000000000000000000000000000008152600401610a3990610ef5565b60405180910390fd5b610a56673e2a224f8eb4c34060c01b6101e1565b5050565b600082825260208201905092915050565b7f69276d206576696c000000000000000000000000000000000000000000000000600082015250565b6000610aa1600883610a5a565b9150610aac82610a6b565b602082019050919050565b60006020820190508181036000830152610ad081610a94565b9050919050565b600080fd5b600073ffffffffffffffffffffffffffffffffffffffff82169050919050565b6000610b0782610adc565b9050919050565b610b1781610afc565b8114610b2257600080fd5b50565b600081359050610b3481610b0e565b92915050565b600060208284031215610b5057610b4f610ad7565b5b6000610b5e84828501610b25565b91505092915050565b6000610b7282610adc565b9050919050565b610b8281610b67565b8114610b8d57600080fd5b50565b600081359050610b9f81610b79565b92915050565b600060208284031215610bbb57610bba610ad7565b5b6000610bc984828501610b90565b91505092915050565b6000819050919050565b610be581610bd2565b8114610bf057600080fd5b50565b600081359050610c0281610bdc565b92915050565b600080600060608486031215610c2157610c20610ad7565b5b6000610c2f86828701610b90565b9350506020610c4086828701610b90565b9250506040610c5186828701610bf3565b9150509250925092565b600081905092915050565b50565b6000610c76600083610c5b565b9150610c8182610c66565b600082019050919050565b6000610c9782610c69565b9150819050919050565b7f53656e64206661696c6564000000000000000000000000000000000000000000600082015250565b6000610cd7600b83610a5a565b9150610ce282610ca1565b602082019050919050565b60006020820190508181036000830152610d0681610cca565b9050919050565b600081519050919050565b60005b83811015610d36578082015181840152602081019050610d1b565b60008484015250505050565b6000610d4d82610d0d565b610d578185610c5b565b9350610d67818560208601610d18565b80840191505092915050565b6000610d7f8284610d42565b915081905092915050565b7f66756e64206661696c6564000000000000000000000000000000000000000000600082015250565b6000610dc0600b83610a5a565b9150610dcb82610d8a565b602082019050919050565b60006020820190508181036000830152610def81610db3565b9050919050565b610dff81610b67565b82525050565b610e0e81610bd2565b82525050565b6000604082019050610e296000830185610df6565b610e366020830184610e05565b9392505050565b7f616363657074206661696c656400000000000000000000000000000000000000600082015250565b6000610e73600d83610a5a565b9150610e7e82610e3d565b602082019050919050565b60006020820190508181036000830152610ea281610e66565b9050919050565b7f636f6e6669726d206661696c6564000000000000000000000000000000000000600082015250565b6000610edf600e83610a5a565b9150610eea82610ea9565b602082019050919050565b60006020820190508181036000830152610f0e81610ed2565b905091905056fea26469706673582212205752f364192fda9cb97eb1ab6e04fbfd0fc0a7766efaad2cc360f05b634e502f64736f6c634300081c0033",
  "linkReferences": {},
  "deployedLinkReferences": {}
}