{
  "_format": "hh-sol-artifact-1",
  "contractName": "ERC721Evil",
  "sourceName": "contracts/test/ERC721Evil.sol",
  "abi": [
    {
      "inputs": [
        {
          "internalType": "string",
          "name": "_name",
          "type": "string"
        },
        {
          "internalType": "string",
          "name": "_symbol",
          "type": "string"
        }
      ],
      "stateMutability": "nonpayable",
      "type": "constructor"
    },
    {
      "anonymous": false,
      "inputs": [
        {
          "indexed": true,
          "internalType": "address",
          "name": "owner",
          "type": "address"
        },
        {
          "indexed": true,
          "internalType": "address",
          "name": "approved",
          "type": "address"
        },
        {
          "indexed": true,
          "internalType": "uint256",
          "name": "tokenId",
          "type": "uint256"
        }
      ],
      "name": "Approval",
      "type": "event"
    },
    {
      "anonymous": false,
      "inputs": [
        {
          "indexed": true,
          "internalType": "address",
          "name": "owner",
          "type": "address"
        },
        {
          "indexed": true,
          "internalType": "address",
          "name": "operator",
          "type": "address"
        },
        {
          "indexed": false,
          "internalType": "bool",
          "name": "approved",
          "type": "bool"
        }
      ],
      "name": "ApprovalForAll",
      "type": "event"
    },
    {
      "anonymous": false,
      "inputs": [
        {
          "indexed": true,
          "internalType": "address",
          "name": "from",
          "type": "address"
        },
        {
          "indexed": true,
          "internalType": "address",
          "name": "to",
          "type": "address"
        },
        {
          "indexed": true,
          "internalType": "uint256",
          "name": "tokenId",
          "type": "uint256"
        }
      ],
      "name": "Transfer",
      "type": "event"
    },
    {
      "inputs": [
        {
          "internalType": "address",
          "name": "to",
          "type": "address"
        },
        {
          "internalType": "uint256",
          "name": "tokenId",
          "type": "uint256"
        }
      ],
      "name": "approve",
      "outputs": [],
      "stateMutability": "nonpayable",
      "type": "function"
    },
    {
      "inputs": [
        {
          "internalType": "address",
          "name": "owner",
          "type": "address"
        }
      ],
      "name": "balanceOf",
      "outputs": [
        {
          "internalType": "uint256",
          "name": "",
          "type": "uint256"
        }
      ],
      "stateMutability": "view",
      "type": "function"
    },
    {
      "inputs": [
        {
          "internalType": "uint256",
          "name": "tokenId",
          "type": "uint256"
        }
      ],
      "name": "burn",
      "outputs": [],
      "stateMutability": "nonpayable",
      "type": "function"
    },
    {
      "inputs": [
        {
          "internalType": "uint256",
          "name": "tokenId",
          "type": "uint256"
        }
      ],
      "name": "getApproved",
      "outputs": [
        {
          "internalType": "address",
          "name": "",
          "type": "address"
        }
      ],
      "stateMutability": "view",
      "type": "function"
    },
    {
      "inputs": [
        {
          "internalType": "address",
          "name": "owner",
          "type": "address"
        },
        {
          "internalType": "address",
          "name": "operator",
          "type": "address"
        }
      ],
      "name": "isApprovedForAll",
      "outputs": [
        {
          "internalType": "bool",
          "name": "",
          "type": "bool"
        }
      ],
      "stateMutability": "view",
      "type": "function"
    },
    {
      "inputs": [
        {
          "internalType": "address",
          "name": "to",
          "type": "address"
        },
        {
          "internalType": "uint256",
          "name": "tokenId",
          "type": "uint256"
        }
      ],
      "name": "mint",
      "outputs": [],
      "stateMutability": "nonpayable",
      "type": "function"
    },
    {
      "inputs": [],
      "name": "name",
      "outputs": [
        {
          "internalType": "string",
          "name": "",
          "type": "string"
        }
      ],
      "stateMutability": "view",
      "type": "function"
    },
    {
      "inputs": [
        {
          "internalType": "uint256",
          "name": "tokenId",
          "type": "uint256"
        }
      ],
      "name": "ownerOf",
      "outputs": [
        {
          "internalType": "address",
          "name": "",
          "type": "address"
        }
      ],
      "stateMutability": "view",
      "type": "function"
    },
    {
      "inputs": [
        {
          "internalType": "address",
          "name": "from",
          "type": "address"
        },
        {
          "internalType": "address",
          "name": "to",
          "type": "address"
        },
        {
          "internalType": "uint256",
          "name": "tokenId",
          "type": "uint256"
        }
      ],
      "name": "safeTransferFrom",
      "outputs": [],
      "stateMutability": "nonpayable",
      "type": "function"
    },
    {
      "inputs": [
        {
          "internalType": "address",
          "name": "from",
          "type": "address"
        },
        {
          "internalType": "address",
          "name": "to",
          "type": "address"
        },
        {
          "internalType": "uint256",
          "name": "tokenId",
          "type": "uint256"
        },
        {
          "internalType": "bytes",
          "name": "",
          "type": "bytes"
        }
      ],
      "name": "safeTransferFrom",
      "outputs": [],
      "stateMutability": "nonpayable",
      "type": "function"
    },
    {
      "inputs": [
        {
          "internalType": "address",
          "name": "operator",
          "type": "address"
        },
        {
          "internalType": "bool",
          "name": "approved",
          "type": "bool"
        }
      ],
      "name": "setApprovalForAll",
      "outputs": [],
      "stateMutability": "nonpayable",
      "type": "function"
    },
    {
      "inputs": [
        {
          "internalType": "bytes4",
          "name": "interfaceId",
          "type": "bytes4"
        }
      ],
      "name": "supportsInterface",
      "outputs": [
        {
          "internalType": "bool",
          "name": "",
          "type": "bool"
        }
      ],
      "stateMutability": "pure",
      "type": "function"
    },
    {
      "inputs": [],
      "name": "symbol",
      "outputs": [
        {
          "internalType": "string",
          "name": "",
          "type": "string"
        }
      ],
      "stateMutability": "view",
      "type": "function"
    },
    {
      "inputs": [
        {
          "internalType": "address",
          "name": "from",
          "type": "address"
        },
        {
          "internalType": "address",
          "name": "to",
          "type": "address"
        },
        {
          "internalType": "uint256",
          "name": "tokenId",
          "type": "uint256"
        }
      ],
      "name": "transferFrom",
      "outputs": [],
      "stateMutability": "nonpayable",
      "type": "function"
    }
  ],
  "bytecode": "0x608060405234801561001057600080fd5b50604051612f85380380612f858339818101604052810190610032919061021f565b61004c6783bd0554fafecb1f60c01b6100a760201b60201c565b61006667c69866f2a5af64ec60c01b6100a760201b60201c565b816000908161007591906104b8565b5061009067804f0897ed9862e360c01b6100a760201b60201c565b806001908161009f91906104b8565b50505061058a565b50565b6000604051905090565b600080fd5b600080fd5b600080fd5b600080fd5b6000601f19601f8301169050919050565b7f4e487b7100000000000000000000000000000000000000000000000000000000600052604160045260246000fd5b610111826100c8565b810181811067ffffffffffffffff821117156101305761012f6100d9565b5b80604052505050565b60006101436100aa565b905061014f8282610108565b919050565b600067ffffffffffffffff82111561016f5761016e6100d9565b5b610178826100c8565b9050602081019050919050565b60005b838110156101a3578082015181840152602081019050610188565b60008484015250505050565b60006101c26101bd84610154565b610139565b9050828152602081018484840111156101de576101dd6100c3565b5b6101e9848285610185565b509392505050565b600082601f830112610206576102056100be565b5b81516102168482602086016101af565b91505092915050565b60008060408385031215610236576102356100b4565b5b600083015167ffffffffffffffff811115610254576102536100b9565b5b610260858286016101f1565b925050602083015167ffffffffffffffff811115610281576102806100b9565b5b61028d858286016101f1565b9150509250929050565b600081519050919050565b7f4e487b7100000000000000000000000000000000000000000000000000000000600052602260045260246000fd5b600060028204905060018216806102e957607f821691505b6020821081036102fc576102fb6102a2565b5b50919050565b60008190508160005260206000209050919050565b60006020601f8301049050919050565b600082821b905092915050565b6000600883026103647fffffffffffffffffffffffffffffffffffffffffffffffffffffffffffffffff82610327565b61036e8683610327565b95508019841693508086168417925050509392505050565b6000819050919050565b6000819050919050565b60006103b56103b06103ab84610386565b610390565b610386565b9050919050565b6000819050919050565b6103cf8361039a565b6103e36103db826103bc565b848454610334565b825550505050565b600090565b6103f86103eb565b6104038184846103c6565b505050565b5b818110156104275761041c6000826103f0565b600181019050610409565b5050565b601f82111561046c5761043d81610302565b61044684610317565b81016020851015610455578190505b61046961046185610317565b830182610408565b50505b505050565b600082821c905092915050565b600061048f60001984600802610471565b1980831691505092915050565b60006104a8838361047e565b9150826002028217905092915050565b6104c182610297565b67ffffffffffffffff8111156104da576104d96100d9565b5b6104e482546102d1565b6104ef82828561042b565b600060209050601f8311600181146105225760008415610510578287015190505b61051a858261049c565b865550610582565b601f19841661053086610302565b60005b8281101561055857848901518255600182019150602085019450602081019050610533565b868310156105755784890151610571601f89168261047e565b8355505b6001600288020188555050505b505050505050565b6129ec806105996000396000f3fe608060405234801561001057600080fd5b50600436106100ea5760003560e01c806342966c681161008c57806395d89b411161006657806395d89b4114610259578063a22cb46514610277578063b88d4fde14610293578063e985e9c5146102af576100ea565b806342966c68146101dd5780636352211e146101f957806370a0823114610229576100ea565b8063095ea7b3116100c8578063095ea7b31461016d57806323b872dd1461018957806340c10f19146101a557806342842e0e146101c1576100ea565b806301ffc9a7146100ef57806306fdde031461011f578063081812fc1461013d575b600080fd5b61010960048036038101906101049190611c9f565b6102df565b6040516101169190611ce7565b60405180910390f35b61012761034d565b6040516101349190611d92565b60405180910390f35b61015760048036038101906101529190611dea565b6103db565b6040516101649190611e58565b60405180910390f35b61018760048036038101906101829190611e9f565b610546565b005b6101a3600480360381019061019e9190611edf565b61086d565b005b6101bf60048036038101906101ba9190611e9f565b610952565b005b6101db60048036038101906101d69190611edf565b610c70565b005b6101f760048036038101906101f29190611dea565b610ccc565b005b610213600480360381019061020e9190611dea565b610dad565b6040516102209190611e58565b60405180910390f35b610243600480360381019061023e9190611f32565b610f13565b6040516102509190611f6e565b60405180910390f35b610261611057565b60405161026e9190611d92565b60405180910390f35b610291600480360381019061028c9190611fb5565b6110e5565b005b6102ad60048036038101906102a8919061212a565b6112f0565b005b6102c960048036038101906102c491906121ad565b61130a565b6040516102d69190611ce7565b60405180910390f35b60006102f5674ce6b036bb2aaa6760c01b6113da565b610309675e4e1fcca6f2d6eb60c01b6113da565b61031d67374fa4c357d9aa7960c01b6113da565b6380ac58cd60e01b827bffffffffffffffffffffffffffffffffffffffffffffffffffffffff1916149050919050565b6000805461035a9061221c565b80601f01602080910402602001604051908101604052809291908181526020018280546103869061221c565b80156103d35780601f106103a8576101008083540402835291602001916103d3565b820191906000526020600020905b8154815290600101906020018083116103b657829003601f168201915b505050505081565b60006103f1674aea3a044c5c894960c01b6113da565b61040567d5fd357ad9eb4f5a60c01b6113da565b61041967b8abc488ba13fab860c01b6113da565b61042d678da101c84eb1354260c01b6113da565b600073ffffffffffffffffffffffffffffffffffffffff166002600084815260200190815260200160002060009054906101000a900473ffffffffffffffffffffffffffffffffffffffff1673ffffffffffffffffffffffffffffffffffffffff16036104cf576040517f08c379a00000000000000000000000000000000000000000000000000000000081526004016104c6906122bf565b60405180910390fd5b6104e36751d71655a7f51bb760c01b6113da565b6104f767316d439ba181f1a160c01b6113da565b61050b67385615574e9dd9ba60c01b6113da565b6004600083815260200190815260200160002060009054906101000a900473ffffffffffffffffffffffffffffffffffffffff169050919050565b61055a67e4fc9259999976f760c01b6113da565b61056e674e3e2457a8c9ff1d60c01b6113da565b6105826731a26ac175fd603860c01b6113da565b60006002600083815260200190815260200160002060009054906101000a900473ffffffffffffffffffffffffffffffffffffffff1690506105ce679a23c40ea610230560c01b6113da565b6105e267e93a3f7fdbe6762c60c01b6113da565b6105f6675998380a6bee5e1160c01b6113da565b8073ffffffffffffffffffffffffffffffffffffffff168373ffffffffffffffffffffffffffffffffffffffff1603610664576040517f08c379a000000000000000000000000000000000000000000000000000000000815260040161065b90612351565b60405180910390fd5b6106786778fd4f4115a7210860c01b6113da565b61068c67b81e3a4e789ab87360c01b6113da565b6106a067ce4238fc66b3fa0b60c01b6113da565b6106b467b7b38ce0a30169ce60c01b6113da565b8073ffffffffffffffffffffffffffffffffffffffff163373ffffffffffffffffffffffffffffffffffffffff161480156106ff57506106fe6709f0ac798b560e7860c01b6113dd565b5b8061072c575061070f813361130a565b801561072b575061072a675c8db4bd55fc9ead60c01b6113dd565b5b5b61076b576040517f08c379a0000000000000000000000000000000000000000000000000000000008152600401610762906123e3565b60405180910390fd5b61077f67a54e7e184607533460c01b6113da565b6107936724ad3330f6eb97ae60c01b6113da565b826004600084815260200190815260200160002060006101000a81548173ffffffffffffffffffffffffffffffffffffffff021916908373ffffffffffffffffffffffffffffffffffffffff1602179055506107f967dc8cce3ed131b61a60c01b6113da565b61080d67e422499f1adf893f60c01b6113da565b818373ffffffffffffffffffffffffffffffffffffffff168273ffffffffffffffffffffffffffffffffffffffff167f8c5be1e5ebec7d5bd14f71427d1e84f3dd0314c0f7b2291e5b200ac8c7c3b92560405160405180910390a4505050565b61088167793067a136ed8b9c60c01b6113da565b61089567531bf22621793e8860c01b6113da565b6108a967a05cb22fd6d90bff60c01b6113da565b6108bd672a7361c4773b842160c01b6113da565b6108c733826113e8565b610906576040517f08c379a00000000000000000000000000000000000000000000000000000000081526004016108fd90612475565b60405180910390fd5b61091a677f45d2a9087ffc8d60c01b6113da565b61092e67cb3d85a10aca094860c01b6113da565b61094267220f4f4aead2154e60c01b6113da565b61094d8383836115a8565b505050565b61096667be4da261b249cb5560c01b6113da565b61097a67e804a7bd1ce9838060c01b6113da565b61098e679c266ec1e891c3ca60c01b6113da565b6109a267ca2bb36fc6ad2e4360c01b6113da565b600073ffffffffffffffffffffffffffffffffffffffff168273ffffffffffffffffffffffffffffffffffffffff1603610a11576040517f08c379a0000000000000000000000000000000000000000000000000000000008152600401610a08906124e1565b60405180910390fd5b610a25673f388c074c4046a160c01b6113da565b610a39671a7f3306580b245a60c01b6113da565b610a4d67d0d6bda5a9f46ea460c01b6113da565b610a616763a13f2599e4c86460c01b6113da565b600073ffffffffffffffffffffffffffffffffffffffff166002600083815260200190815260200160002060009054906101000a900473ffffffffffffffffffffffffffffffffffffffff1673ffffffffffffffffffffffffffffffffffffffff1614610b03576040517f08c379a0000000000000000000000000000000000000000000000000000000008152600401610afa9061254d565b60405180910390fd5b610b1767b7f13e5c56e06f9a60c01b6113da565b610b2b676048c6e2db7eabf160c01b6113da565b816002600083815260200190815260200160002060006101000a81548173ffffffffffffffffffffffffffffffffffffffff021916908373ffffffffffffffffffffffffffffffffffffffff160217905550610b9167ca8deb7b7058d14e60c01b6113da565b6001600360008473ffffffffffffffffffffffffffffffffffffffff1673ffffffffffffffffffffffffffffffffffffffff1681526020019081526020016000206000828254610be1919061259c565b92505081905550610bfc67022a4df92c99b3cb60c01b6113da565b610c1067059b7c684d99f5be60c01b6113da565b808273ffffffffffffffffffffffffffffffffffffffff16600073ffffffffffffffffffffffffffffffffffffffff167fddf252ad1be2c89b69c2b068fc378daa952ba7f163c4a11628f55a4df523b3ef60405160405180910390a45050565b610c84674ac98449eb7eb01a60c01b6113da565b610c9867db572d1ce998375660c01b6113da565b610cac678f7c88c1a3f33e1860c01b6113da565b610cc7838383604051806020016040528060008152506112f0565b505050565b610ce06718dc232b2c432b0b60c01b6113da565b610cf4676ca158393e148cc460c01b6113da565b610d0867ef415ebf358e087a60c01b6113da565b610d1c678b0ec25919c2931f60c01b6113da565b610d2633826113e8565b610d65576040517f08c379a0000000000000000000000000000000000000000000000000000000008152600401610d5c90612642565b60405180910390fd5b610d7967e4e0f61bb27fb9fb60c01b6113da565b610d8d6768a0a53e42df002660c01b6113da565b610da167f3490e62e3c6fbb860c01b6113da565b610daa81611979565b50565b6000610dc367f0e0743ddb5e547360c01b6113da565b610dd76710ce44e2040f335e60c01b6113da565b610deb67abf1e55e5b4fdef060c01b6113da565b60006002600084815260200190815260200160002060009054906101000a900473ffffffffffffffffffffffffffffffffffffffff169050610e37673176139c3f064ec660c01b6113da565b610e4b67fccdfa3a32aaaa7d60c01b6113da565b610e5f67218914c1cac8e50560c01b6113da565b600073ffffffffffffffffffffffffffffffffffffffff168173ffffffffffffffffffffffffffffffffffffffff1603610ece576040517f08c379a0000000000000000000000000000000000000000000000000000000008152600401610ec5906126d4565b60405180910390fd5b610ee267b7f7facf1692f52a60c01b6113da565b610ef667aa2ebc55068972b760c01b6113da565b610f0a676a060367ea9e129060c01b6113da565b80915050919050565b6000610f2967da6876f47cb824c560c01b6113da565b610f3d67b0830865ba06fb1f60c01b6113da565b610f5167ec2efe744d471f3060c01b6113da565b610f6567895064d90c7b012560c01b6113da565b600073ffffffffffffffffffffffffffffffffffffffff168273ffffffffffffffffffffffffffffffffffffffff1603610fd4576040517f08c379a0000000000000000000000000000000000000000000000000000000008152600401610fcb90612766565b60405180910390fd5b610fe86797ce47786a3feaa160c01b6113da565b610ffc6798045855ba0d274360c01b6113da565b61101067d5cfbea7614d29d160c01b6113da565b600360008373ffffffffffffffffffffffffffffffffffffffff1673ffffffffffffffffffffffffffffffffffffffff168152602001908152602001600020549050919050565b600180546110649061221c565b80601f01602080910402602001604051908101604052809291908181526020018280546110909061221c565b80156110dd5780601f106110b2576101008083540402835291602001916110dd565b820191906000526020600020905b8154815290600101906020018083116110c057829003601f168201915b505050505081565b6110f967fb2ffae24bbf182d60c01b6113da565b61110d67cfb98aab2e7e06b160c01b6113da565b611121674ef1c7d88d3a340a60c01b6113da565b61113567358e814c5fd9c47460c01b6113da565b3373ffffffffffffffffffffffffffffffffffffffff168273ffffffffffffffffffffffffffffffffffffffff16036111a3576040517f08c379a000000000000000000000000000000000000000000000000000000000815260040161119a906127d2565b60405180910390fd5b6111b7670623dac5fc23ac9d60c01b6113da565b6111cb67608b005b332f558e60c01b6113da565b80600560003373ffffffffffffffffffffffffffffffffffffffff1673ffffffffffffffffffffffffffffffffffffffff16815260200190815260200160002060008473ffffffffffffffffffffffffffffffffffffffff1673ffffffffffffffffffffffffffffffffffffffff16815260200190815260200160002060006101000a81548160ff02191690831515021790555061127367683231e9d0e2bbb160c01b6113da565b611287677f6dfc328584b1fd60c01b6113da565b8173ffffffffffffffffffffffffffffffffffffffff163373ffffffffffffffffffffffffffffffffffffffff167f17307eab39ab6107e8899845ad3d59bd9653f200f220920489ca2b5937696c31836040516112e49190611ce7565b60405180910390a35050565b6113046760fae6b86484870260c01b6113da565b50505050565b600061132067c71d4657b8cd006b60c01b6113da565b61133467ddd1e160dd7a2c6360c01b6113da565b611348674335178af3e1a97c60c01b6113da565b600560008473ffffffffffffffffffffffffffffffffffffffff1673ffffffffffffffffffffffffffffffffffffffff16815260200190815260200160002060008373ffffffffffffffffffffffffffffffffffffffff1673ffffffffffffffffffffffffffffffffffffffff16815260200190815260200160002060009054906101000a900460ff16905092915050565b50565b600060019050919050565b60006113fe67f4c149bb2a42653860c01b6113da565b61141267b33236c84c8b083560c01b6113da565b61142667342e72d1adecbae660c01b6113da565b60006002600084815260200190815260200160002060009054906101000a900473ffffffffffffffffffffffffffffffffffffffff1690506114726718ab3935da77a7bd60c01b6113da565b611486672e0e1b1cf1a5d71160c01b6113da565b8073ffffffffffffffffffffffffffffffffffffffff168473ffffffffffffffffffffffffffffffffffffffff161480156114d157506114d06766cef674bb43fde060c01b6113dd565b5b8061157257508373ffffffffffffffffffffffffffffffffffffffff166004600085815260200190815260200160002060009054906101000a900473ffffffffffffffffffffffffffffffffffffffff1673ffffffffffffffffffffffffffffffffffffffff16148015611555575061155467f4a27383cfec7d9760c01b6113dd565b5b8015611571575061157067465d40626ec5675060c01b6113dd565b5b5b8061159f5750611582818561130a565b801561159e575061159d674f6a3b063676c5c660c01b6113dd565b5b5b91505092915050565b6115bc6749f7b1fe0d566c1560c01b6113da565b6115d0671158c71289dbec6a60c01b6113da565b6115e467b06aeedfb41f85dd60c01b6113da565b6115f867d8ed91719cf892ac60c01b6113da565b8273ffffffffffffffffffffffffffffffffffffffff166002600083815260200190815260200160002060009054906101000a900473ffffffffffffffffffffffffffffffffffffffff1673ffffffffffffffffffffffffffffffffffffffff1614611699576040517f08c379a000000000000000000000000000000000000000000000000000000000815260040161169090612864565b60405180910390fd5b6116ad6750e33880c91a01a260c01b6113da565b6116c16727af1a2d5c4ce33f60c01b6113da565b6116d56748996fbe5f02d66360c01b6113da565b6116e96722c002b708a693b260c01b6113da565b600073ffffffffffffffffffffffffffffffffffffffff168273ffffffffffffffffffffffffffffffffffffffff1603611758576040517f08c379a000000000000000000000000000000000000000000000000000000000815260040161174f906128f6565b60405180910390fd5b61176c674312becb2d0710e060c01b6113da565b6117806745e646a7a759b3d360c01b6113da565b6004600082815260200190815260200160002060006101000a81549073ffffffffffffffffffffffffffffffffffffffff02191690556117ca67f35b0906424cdf8e60c01b6113da565b816002600083815260200190815260200160002060006101000a81548173ffffffffffffffffffffffffffffffffffffffff021916908373ffffffffffffffffffffffffffffffffffffffff160217905550611830670ba18019341eb3e760c01b6113da565b6001600360008573ffffffffffffffffffffffffffffffffffffffff1673ffffffffffffffffffffffffffffffffffffffff16815260200190815260200160002060008282546118809190612916565b9250508190555061189a6641657cbf1f36a360c01b6113da565b6001600360008473ffffffffffffffffffffffffffffffffffffffff1673ffffffffffffffffffffffffffffffffffffffff16815260200190815260200160002060008282546118ea919061259c565b92505081905550611905677e1f0f28c777b41260c01b6113da565b611919678fbf4e9ef698a1e860c01b6113da565b808273ffffffffffffffffffffffffffffffffffffffff168473ffffffffffffffffffffffffffffffffffffffff167fddf252ad1be2c89b69c2b068fc378daa952ba7f163c4a11628f55a4df523b3ef60405160405180910390a4505050565b61198d670fc336d1191138f460c01b6113da565b6119a167bb914833bcfd296060c01b6113da565b6119b56777322478a044592160c01b6113da565b60006002600083815260200190815260200160002060009054906101000a900473ffffffffffffffffffffffffffffffffffffffff169050611a0167d3cef9e44b565eeb60c01b6113da565b611a15678bc3bfab2c8812de60c01b6113da565b611a29673aa2a4ee904e8eb060c01b6113da565b600073ffffffffffffffffffffffffffffffffffffffff168173ffffffffffffffffffffffffffffffffffffffff1603611a98576040517f08c379a0000000000000000000000000000000000000000000000000000000008152600401611a8f90612996565b60405180910390fd5b611aac67bdc9e0c65fb068f760c01b6113da565b611ac067644548e2b6f8d57260c01b6113da565b6004600083815260200190815260200160002060006101000a81549073ffffffffffffffffffffffffffffffffffffffff0219169055611b0a671459e9fd07f83f0260c01b6113da565b6002600083815260200190815260200160002060006101000a81549073ffffffffffffffffffffffffffffffffffffffff0219169055611b54674747643df24f9b8460c01b6113da565b6001600360008373ffffffffffffffffffffffffffffffffffffffff1673ffffffffffffffffffffffffffffffffffffffff1681526020019081526020016000206000828254611ba49190612916565b92505081905550611bbf678417bc3ee3feeb5960c01b6113da565b611bd367e0bedcc736963fa860c01b6113da565b81600073ffffffffffffffffffffffffffffffffffffffff168273ffffffffffffffffffffffffffffffffffffffff167fddf252ad1be2c89b69c2b068fc378daa952ba7f163c4a11628f55a4df523b3ef60405160405180910390a45050565b6000604051905090565b600080fd5b600080fd5b60007fffffffff0000000000000000000000000000000000000000000000000000000082169050919050565b611c7c81611c47565b8114611c8757600080fd5b50565b600081359050611c9981611c73565b92915050565b600060208284031215611cb557611cb4611c3d565b5b6000611cc384828501611c8a565b91505092915050565b60008115159050919050565b611ce181611ccc565b82525050565b6000602082019050611cfc6000830184611cd8565b92915050565b600081519050919050565b600082825260208201905092915050565b60005b83811015611d3c578082015181840152602081019050611d21565b60008484015250505050565b6000601f19601f8301169050919050565b6000611d6482611d02565b611d6e8185611d0d565b9350611d7e818560208601611d1e565b611d8781611d48565b840191505092915050565b60006020820190508181036000830152611dac8184611d59565b905092915050565b6000819050919050565b611dc781611db4565b8114611dd257600080fd5b50565b600081359050611de481611dbe565b92915050565b600060208284031215611e0057611dff611c3d565b5b6000611e0e84828501611dd5565b91505092915050565b600073ffffffffffffffffffffffffffffffffffffffff82169050919050565b6000611e4282611e17565b9050919050565b611e5281611e37565b82525050565b6000602082019050611e6d6000830184611e49565b92915050565b611e7c81611e37565b8114611e8757600080fd5b50565b600081359050611e9981611e73565b92915050565b60008060408385031215611eb657611eb5611c3d565b5b6000611ec485828601611e8a565b9250506020611ed585828601611dd5565b9150509250929050565b600080600060608486031215611ef857611ef7611c3d565b5b6000611f0686828701611e8a565b9350506020611f1786828701611e8a565b9250506040611f2886828701611dd5565b9150509250925092565b600060208284031215611f4857611f47611c3d565b5b6000611f5684828501611e8a565b91505092915050565b611f6881611db4565b82525050565b6000602082019050611f836000830184611f5f565b92915050565b611f9281611ccc565b8114611f9d57600080fd5b50565b600081359050611faf81611f89565b92915050565b60008060408385031215611fcc57611fcb611c3d565b5b6000611fda85828601611e8a565b9250506020611feb85828601611fa0565b9150509250929050565b600080fd5b600080fd5b7f4e487b7100000000000000000000000000000000000000000000000000000000600052604160045260246000fd5b61203782611d48565b810181811067ffffffffffffffff8211171561205657612055611fff565b5b80604052505050565b6000612069611c33565b9050612075828261202e565b919050565b600067ffffffffffffffff82111561209557612094611fff565b5b61209e82611d48565b9050602081019050919050565b82818337600083830152505050565b60006120cd6120c88461207a565b61205f565b9050828152602081018484840111156120e9576120e8611ffa565b5b6120f48482856120ab565b509392505050565b600082601f83011261211157612110611ff5565b5b81356121218482602086016120ba565b91505092915050565b6000806000806080858703121561214457612143611c3d565b5b600061215287828801611e8a565b945050602061216387828801611e8a565b935050604061217487828801611dd5565b925050606085013567ffffffffffffffff81111561219557612194611c42565b5b6121a1878288016120fc565b91505092959194509250565b600080604083850312156121c4576121c3611c3d565b5b60006121d285828601611e8a565b92505060206121e385828601611e8a565b9150509250929050565b7f4e487b7100000000000000000000000000000000000000000000000000000000600052602260045260246000fd5b6000600282049050600182168061223457607f821691505b602082108103612247576122466121ed565b5b50919050565b7f4552433732313a20617070726f76656420717565727920666f72206e6f6e657860008201527f697374656e7420746f6b656e0000000000000000000000000000000000000000602082015250565b60006122a9602c83611d0d565b91506122b48261224d565b604082019050919050565b600060208201905081810360008301526122d88161229c565b9050919050565b7f4552433732313a20617070726f76616c20746f2063757272656e74206f776e6560008201527f7200000000000000000000000000000000000000000000000000000000000000602082015250565b600061233b602183611d0d565b9150612346826122df565b604082019050919050565b6000602082019050818103600083015261236a8161232e565b9050919050565b7f4552433732313a20617070726f76652063616c6c6572206973206e6f74206f7760008201527f6e6572206e6f7220617070726f76656420666f7220616c6c0000000000000000602082015250565b60006123cd603883611d0d565b91506123d882612371565b604082019050919050565b600060208201905081810360008301526123fc816123c0565b9050919050565b7f4552433732313a207472616e736665722063616c6c6572206973206e6f74206f60008201527f776e6572206e6f7220617070726f766564000000000000000000000000000000602082015250565b600061245f603183611d0d565b915061246a82612403565b604082019050919050565b6000602082019050818103600083015261248e81612452565b9050919050565b7f4552433732313a206d696e7420746f20746865207a65726f2061646472657373600082015250565b60006124cb602083611d0d565b91506124d682612495565b602082019050919050565b600060208201905081810360008301526124fa816124be565b9050919050565b7f4552433732313a20746f6b656e20616c7265616479206d696e74656400000000600082015250565b6000612537601c83611d0d565b915061254282612501565b602082019050919050565b600060208201905081810360008301526125668161252a565b9050919050565b7f4e487b7100000000000000000000000000000000000000000000000000000000600052601160045260246000fd5b60006125a782611db4565b91506125b283611db4565b92508282019050808211156125ca576125c961256d565b5b92915050565b7f4552433732313a2063616c6c6572206973206e6f74206f776e6572206e6f722060008201527f617070726f766564000000000000000000000000000000000000000000000000602082015250565b600061262c602883611d0d565b9150612637826125d0565b604082019050919050565b6000602082019050818103600083015261265b8161261f565b9050919050565b7f4552433732313a206f776e657220717565727920666f72206e6f6e657869737460008201527f656e7420746f6b656e0000000000000000000000000000000000000000000000602082015250565b60006126be602983611d0d565b91506126c982612662565b604082019050919050565b600060208201905081810360008301526126ed816126b1565b9050919050565b7f4552433732313a2062616c616e636520717565727920666f7220746865207a6560008201527f726f206164647265737300000000000000000000000000000000000000000000602082015250565b6000612750602a83611d0d565b915061275b826126f4565b604082019050919050565b6000602082019050818103600083015261277f81612743565b9050919050565b7f4552433732313a20617070726f766520746f2063616c6c657200000000000000600082015250565b60006127bc601983611d0d565b91506127c782612786565b602082019050919050565b600060208201905081810360008301526127eb816127af565b9050919050565b7f4552433732313a207472616e736665722066726f6d20696e636f72726563742060008201527f6f776e6572000000000000000000000000000000000000000000000000000000602082015250565b600061284e602583611d0d565b9150612859826127f2565b604082019050919050565b6000602082019050818103600083015261287d81612841565b9050919050565b7f4552433732313a207472616e7366657220746f20746865207a65726f2061646460008201527f7265737300000000000000000000000000000000000000000000000000000000602082015250565b60006128e0602483611d0d565b91506128eb82612884565b604082019050919050565b6000602082019050818103600083015261290f816128d3565b9050919050565b600061292182611db4565b915061292c83611db4565b92508282039050818111156129445761294361256d565b5b92915050565b7f4552433732313a20746f6b656e20646f6573206e6f7420657869737400000000600082015250565b6000612980601c83611d0d565b915061298b8261294a565b602082019050919050565b600060208201905081810360008301526129af81612973565b905091905056fea26469706673582212208a99321733b661d133264416898a4d839d1e3d9e5e1c03c9db842d01ecf1747564736f6c634300081c0033",
  "linkReferences": {},
  "deployedLinkReferences": {}
}