{
  "_format": "hh-sol-artifact-1",
  "contractName": "ERC721Evil",
  "sourceName": "contracts/test/ERC721Evil.sol",
  "abi": [
    {
      "inputs": [
        {
          "internalType": "string",
          "name": "_name",
          "type": "string"
        },
        {
          "internalType": "string",
          "name": "_symbol",
          "type": "string"
        }
      ],
      "stateMutability": "nonpayable",
      "type": "constructor"
    },
    {
      "anonymous": false,
      "inputs": [
        {
          "indexed": true,
          "internalType": "address",
          "name": "owner",
          "type": "address"
        },
        {
          "indexed": true,
          "internalType": "address",
          "name": "approved",
          "type": "address"
        },
        {
          "indexed": true,
          "internalType": "uint256",
          "name": "tokenId",
          "type": "uint256"
        }
      ],
      "name": "Approval",
      "type": "event"
    },
    {
      "anonymous": false,
      "inputs": [
        {
          "indexed": true,
          "internalType": "address",
          "name": "owner",
          "type": "address"
        },
        {
          "indexed": true,
          "internalType": "address",
          "name": "operator",
          "type": "address"
        },
        {
          "indexed": false,
          "internalType": "bool",
          "name": "approved",
          "type": "bool"
        }
      ],
      "name": "ApprovalForAll",
      "type": "event"
    },
    {
      "anonymous": false,
      "inputs": [
        {
          "indexed": true,
          "internalType": "address",
          "name": "from",
          "type": "address"
        },
        {
          "indexed": true,
          "internalType": "address",
          "name": "to",
          "type": "address"
        },
        {
          "indexed": true,
          "internalType": "uint256",
          "name": "tokenId",
          "type": "uint256"
        }
      ],
      "name": "Transfer",
      "type": "event"
    },
    {
      "inputs": [
        {
          "internalType": "address",
          "name": "to",
          "type": "address"
        },
        {
          "internalType": "uint256",
          "name": "tokenId",
          "type": "uint256"
        }
      ],
      "name": "approve",
      "outputs": [],
      "stateMutability": "nonpayable",
      "type": "function"
    },
    {
      "inputs": [
        {
          "internalType": "address",
          "name": "owner",
          "type": "address"
        }
      ],
      "name": "balanceOf",
      "outputs": [
        {
          "internalType": "uint256",
          "name": "",
          "type": "uint256"
        }
      ],
      "stateMutability": "view",
      "type": "function"
    },
    {
      "inputs": [
        {
          "internalType": "uint256",
          "name": "tokenId",
          "type": "uint256"
        }
      ],
      "name": "burn",
      "outputs": [],
      "stateMutability": "nonpayable",
      "type": "function"
    },
    {
      "inputs": [
        {
          "internalType": "uint256",
          "name": "tokenId",
          "type": "uint256"
        }
      ],
      "name": "getApproved",
      "outputs": [
        {
          "internalType": "address",
          "name": "",
          "type": "address"
        }
      ],
      "stateMutability": "view",
      "type": "function"
    },
    {
      "inputs": [
        {
          "internalType": "address",
          "name": "owner",
          "type": "address"
        },
        {
          "internalType": "address",
          "name": "operator",
          "type": "address"
        }
      ],
      "name": "isApprovedForAll",
      "outputs": [
        {
          "internalType": "bool",
          "name": "",
          "type": "bool"
        }
      ],
      "stateMutability": "view",
      "type": "function"
    },
    {
      "inputs": [
        {
          "internalType": "address",
          "name": "to",
          "type": "address"
        },
        {
          "internalType": "uint256",
          "name": "tokenId",
          "type": "uint256"
        }
      ],
      "name": "mint",
      "outputs": [],
      "stateMutability": "nonpayable",
      "type": "function"
    },
    {
      "inputs": [],
      "name": "name",
      "outputs": [
        {
          "internalType": "string",
          "name": "",
          "type": "string"
        }
      ],
      "stateMutability": "view",
      "type": "function"
    },
    {
      "inputs": [
        {
          "internalType": "uint256",
          "name": "tokenId",
          "type": "uint256"
        }
      ],
      "name": "ownerOf",
      "outputs": [
        {
          "internalType": "address",
          "name": "",
          "type": "address"
        }
      ],
      "stateMutability": "view",
      "type": "function"
    },
    {
      "inputs": [
        {
          "internalType": "address",
          "name": "from",
          "type": "address"
        },
        {
          "internalType": "address",
          "name": "to",
          "type": "address"
        },
        {
          "internalType": "uint256",
          "name": "tokenId",
          "type": "uint256"
        }
      ],
      "name": "safeTransferFrom",
      "outputs": [],
      "stateMutability": "nonpayable",
      "type": "function"
    },
    {
      "inputs": [
        {
          "internalType": "address",
          "name": "from",
          "type": "address"
        },
        {
          "internalType": "address",
          "name": "to",
          "type": "address"
        },
        {
          "internalType": "uint256",
          "name": "tokenId",
          "type": "uint256"
        },
        {
          "internalType": "bytes",
          "name": "",
          "type": "bytes"
        }
      ],
      "name": "safeTransferFrom",
      "outputs": [],
      "stateMutability": "nonpayable",
      "type": "function"
    },
    {
      "inputs": [
        {
          "internalType": "address",
          "name": "operator",
          "type": "address"
        },
        {
          "internalType": "bool",
          "name": "approved",
          "type": "bool"
        }
      ],
      "name": "setApprovalForAll",
      "outputs": [],
      "stateMutability": "nonpayable",
      "type": "function"
    },
    {
      "inputs": [
        {
          "internalType": "bytes4",
          "name": "interfaceId",
          "type": "bytes4"
        }
      ],
      "name": "supportsInterface",
      "outputs": [
        {
          "internalType": "bool",
          "name": "",
          "type": "bool"
        }
      ],
      "stateMutability": "pure",
      "type": "function"
    },
    {
      "inputs": [],
      "name": "symbol",
      "outputs": [
        {
          "internalType": "string",
          "name": "",
          "type": "string"
        }
      ],
      "stateMutability": "view",
      "type": "function"
    },
    {
      "inputs": [
        {
          "internalType": "address",
          "name": "from",
          "type": "address"
        },
        {
          "internalType": "address",
          "name": "to",
          "type": "address"
        },
        {
          "internalType": "uint256",
          "name": "tokenId",
          "type": "uint256"
        }
      ],
      "name": "transferFrom",
      "outputs": [],
      "stateMutability": "nonpayable",
      "type": "function"
    }
  ],
  "bytecode": "0x608060405234801561001057600080fd5b50604051612f86380380612f868339818101604052810190610032919061021f565b61004c67e57e9fd41cd894bf60c01b6100a760201b60201c565b610066673b7bfbfc8ab3e3e960c01b6100a760201b60201c565b816000908161007591906104b8565b50610090679fe4adc83f9f44ab60c01b6100a760201b60201c565b806001908161009f91906104b8565b50505061058a565b50565b6000604051905090565b600080fd5b600080fd5b600080fd5b600080fd5b6000601f19601f8301169050919050565b7f4e487b7100000000000000000000000000000000000000000000000000000000600052604160045260246000fd5b610111826100c8565b810181811067ffffffffffffffff821117156101305761012f6100d9565b5b80604052505050565b60006101436100aa565b905061014f8282610108565b919050565b600067ffffffffffffffff82111561016f5761016e6100d9565b5b610178826100c8565b9050602081019050919050565b60005b838110156101a3578082015181840152602081019050610188565b60008484015250505050565b60006101c26101bd84610154565b610139565b9050828152602081018484840111156101de576101dd6100c3565b5b6101e9848285610185565b509392505050565b600082601f830112610206576102056100be565b5b81516102168482602086016101af565b91505092915050565b60008060408385031215610236576102356100b4565b5b600083015167ffffffffffffffff811115610254576102536100b9565b5b610260858286016101f1565b925050602083015167ffffffffffffffff811115610281576102806100b9565b5b61028d858286016101f1565b9150509250929050565b600081519050919050565b7f4e487b7100000000000000000000000000000000000000000000000000000000600052602260045260246000fd5b600060028204905060018216806102e957607f821691505b6020821081036102fc576102fb6102a2565b5b50919050565b60008190508160005260206000209050919050565b60006020601f8301049050919050565b600082821b905092915050565b6000600883026103647fffffffffffffffffffffffffffffffffffffffffffffffffffffffffffffffff82610327565b61036e8683610327565b95508019841693508086168417925050509392505050565b6000819050919050565b6000819050919050565b60006103b56103b06103ab84610386565b610390565b610386565b9050919050565b6000819050919050565b6103cf8361039a565b6103e36103db826103bc565b848454610334565b825550505050565b600090565b6103f86103eb565b6104038184846103c6565b505050565b5b818110156104275761041c6000826103f0565b600181019050610409565b5050565b601f82111561046c5761043d81610302565b61044684610317565b81016020851015610455578190505b61046961046185610317565b830182610408565b50505b505050565b600082821c905092915050565b600061048f60001984600802610471565b1980831691505092915050565b60006104a8838361047e565b9150826002028217905092915050565b6104c182610297565b67ffffffffffffffff8111156104da576104d96100d9565b5b6104e482546102d1565b6104ef82828561042b565b600060209050601f8311600181146105225760008415610510578287015190505b61051a858261049c565b865550610582565b601f19841661053086610302565b60005b8281101561055857848901518255600182019150602085019450602081019050610533565b868310156105755784890151610571601f89168261047e565b8355505b6001600288020188555050505b505050505050565b6129ed806105996000396000f3fe608060405234801561001057600080fd5b50600436106100ea5760003560e01c806342966c681161008c57806395d89b411161006657806395d89b4114610259578063a22cb46514610277578063b88d4fde14610293578063e985e9c5146102af576100ea565b806342966c68146101dd5780636352211e146101f957806370a0823114610229576100ea565b8063095ea7b3116100c8578063095ea7b31461016d57806323b872dd1461018957806340c10f19146101a557806342842e0e146101c1576100ea565b806301ffc9a7146100ef57806306fdde031461011f578063081812fc1461013d575b600080fd5b61010960048036038101906101049190611ca0565b6102df565b6040516101169190611ce8565b60405180910390f35b61012761034d565b6040516101349190611d93565b60405180910390f35b61015760048036038101906101529190611deb565b6103db565b6040516101649190611e59565b60405180910390f35b61018760048036038101906101829190611ea0565b610546565b005b6101a3600480360381019061019e9190611ee0565b61086d565b005b6101bf60048036038101906101ba9190611ea0565b610952565b005b6101db60048036038101906101d69190611ee0565b610c70565b005b6101f760048036038101906101f29190611deb565b610ccc565b005b610213600480360381019061020e9190611deb565b610dad565b6040516102209190611e59565b60405180910390f35b610243600480360381019061023e9190611f33565b610f13565b6040516102509190611f6f565b60405180910390f35b610261611057565b60405161026e9190611d93565b60405180910390f35b610291600480360381019061028c9190611fb6565b6110e5565b005b6102ad60048036038101906102a8919061212b565b6112f0565b005b6102c960048036038101906102c491906121ae565b61130a565b6040516102d69190611ce8565b60405180910390f35b60006102f56757be0ec382c4167a60c01b6113da565b610309679678ba813033761260c01b6113da565b61031d6729b74affe051b91e60c01b6113da565b6380ac58cd60e01b827bffffffffffffffffffffffffffffffffffffffffffffffffffffffff1916149050919050565b6000805461035a9061221d565b80601f01602080910402602001604051908101604052809291908181526020018280546103869061221d565b80156103d35780601f106103a8576101008083540402835291602001916103d3565b820191906000526020600020905b8154815290600101906020018083116103b657829003601f168201915b505050505081565b60006103f1673461a636065bfb0560c01b6113da565b610405679f0af5f5f2c4fabf60c01b6113da565b61041967552cb0b214ab989760c01b6113da565b61042d670d7c5b56e7e70f6860c01b6113da565b600073ffffffffffffffffffffffffffffffffffffffff166002600084815260200190815260200160002060009054906101000a900473ffffffffffffffffffffffffffffffffffffffff1673ffffffffffffffffffffffffffffffffffffffff16036104cf576040517f08c379a00000000000000000000000000000000000000000000000000000000081526004016104c6906122c0565b60405180910390fd5b6104e367a35429cdb94765db60c01b6113da565b6104f767200d5186602ea57b60c01b6113da565b61050b67f0872d3206dd56f260c01b6113da565b6004600083815260200190815260200160002060009054906101000a900473ffffffffffffffffffffffffffffffffffffffff169050919050565b61055a674019c86eebf0202160c01b6113da565b61056e673bcda0f0a8c307cc60c01b6113da565b6105826782595d0d45ee7b2e60c01b6113da565b60006002600083815260200190815260200160002060009054906101000a900473ffffffffffffffffffffffffffffffffffffffff1690506105ce67ee2aaea6fcad743860c01b6113da565b6105e26791f8952460360d6060c01b6113da565b6105f6678b5a4cdacaff3acc60c01b6113da565b8073ffffffffffffffffffffffffffffffffffffffff168373ffffffffffffffffffffffffffffffffffffffff1603610664576040517f08c379a000000000000000000000000000000000000000000000000000000000815260040161065b90612352565b60405180910390fd5b61067867efa1966f960c395b60c01b6113da565b61068c676c04294d94338e3260c01b6113da565b6106a067ec730415ac1c5e9560c01b6113da565b6106b467840b3da810facf4660c01b6113da565b8073ffffffffffffffffffffffffffffffffffffffff163373ffffffffffffffffffffffffffffffffffffffff161480156106ff57506106fe6710b325bce9bdd71b60c01b6113dd565b5b8061072c575061070f813361130a565b801561072b575061072a670c012e1560ed057a60c01b6113dd565b5b5b61076b576040517f08c379a0000000000000000000000000000000000000000000000000000000008152600401610762906123e4565b60405180910390fd5b61077f673c26bcc6fe7dcb3760c01b6113da565b610793677455c66230c3fafc60c01b6113da565b826004600084815260200190815260200160002060006101000a81548173ffffffffffffffffffffffffffffffffffffffff021916908373ffffffffffffffffffffffffffffffffffffffff1602179055506107f9673c1d6801384e537260c01b6113da565b61080d67ec76450fa763622860c01b6113da565b818373ffffffffffffffffffffffffffffffffffffffff168273ffffffffffffffffffffffffffffffffffffffff167f8c5be1e5ebec7d5bd14f71427d1e84f3dd0314c0f7b2291e5b200ac8c7c3b92560405160405180910390a4505050565b610881673212470a1d88d7c060c01b6113da565b610895679ff83d02584f022160c01b6113da565b6108a96745df9ad8070d642460c01b6113da565b6108bd67572b66e54760ec8660c01b6113da565b6108c733826113e8565b610906576040517f08c379a00000000000000000000000000000000000000000000000000000000081526004016108fd90612476565b60405180910390fd5b61091a6765b216d4a1571b8860c01b6113da565b61092e675d9e5941845b3f1260c01b6113da565b6109426772dd25a48bf320b860c01b6113da565b61094d8383836115a8565b505050565b61096667d1f556b3ab2a12ce60c01b6113da565b61097a67d6aab6c4f09ab2ea60c01b6113da565b61098e67ece2f8fb1fa3582560c01b6113da565b6109a2670acf97c5f64550e360c01b6113da565b600073ffffffffffffffffffffffffffffffffffffffff168273ffffffffffffffffffffffffffffffffffffffff1603610a11576040517f08c379a0000000000000000000000000000000000000000000000000000000008152600401610a08906124e2565b60405180910390fd5b610a25671b45a58a9e6c67bf60c01b6113da565b610a396730002e054fc7daa460c01b6113da565b610a4d673c9aa7cf6ed7854260c01b6113da565b610a6167fa31039ea66d256960c01b6113da565b600073ffffffffffffffffffffffffffffffffffffffff166002600083815260200190815260200160002060009054906101000a900473ffffffffffffffffffffffffffffffffffffffff1673ffffffffffffffffffffffffffffffffffffffff1614610b03576040517f08c379a0000000000000000000000000000000000000000000000000000000008152600401610afa9061254e565b60405180910390fd5b610b1767924d904464c4822560c01b6113da565b610b2b6759f0b78b6a7e9ffb60c01b6113da565b816002600083815260200190815260200160002060006101000a81548173ffffffffffffffffffffffffffffffffffffffff021916908373ffffffffffffffffffffffffffffffffffffffff160217905550610b91679c11b5b4a73f9cf260c01b6113da565b6001600360008473ffffffffffffffffffffffffffffffffffffffff1673ffffffffffffffffffffffffffffffffffffffff1681526020019081526020016000206000828254610be1919061259d565b92505081905550610bfc67d517c3092ff9302b60c01b6113da565b610c1067f897d479c4869b8260c01b6113da565b808273ffffffffffffffffffffffffffffffffffffffff16600073ffffffffffffffffffffffffffffffffffffffff167fddf252ad1be2c89b69c2b068fc378daa952ba7f163c4a11628f55a4df523b3ef60405160405180910390a45050565b610c8467966a7fc63f0087d460c01b6113da565b610c9867b03a39aa6229db0160c01b6113da565b610cac67cc223c21e88ba26060c01b6113da565b610cc7838383604051806020016040528060008152506112f0565b505050565b610ce0673858c181eedeed2a60c01b6113da565b610cf467cb6606f5222ea46860c01b6113da565b610d0867c89a08e9ae892c2060c01b6113da565b610d1c67fa1af4c9e818307260c01b6113da565b610d2633826113e8565b610d65576040517f08c379a0000000000000000000000000000000000000000000000000000000008152600401610d5c90612643565b60405180910390fd5b610d79675713bf7f29cb3a0860c01b6113da565b610d8d67410ad973a180623b60c01b6113da565b610da167d40263262de0901b60c01b6113da565b610daa8161197a565b50565b6000610dc3676e9d27f379a02f8260c01b6113da565b610dd7679c4643fbb7bf1a2b60c01b6113da565b610deb673900a43b09078c1c60c01b6113da565b60006002600084815260200190815260200160002060009054906101000a900473ffffffffffffffffffffffffffffffffffffffff169050610e37672ee4a2df00a2eae560c01b6113da565b610e4b6755a0a5eb27c60d0260c01b6113da565b610e5f67e84f5a4a6b3e377e60c01b6113da565b600073ffffffffffffffffffffffffffffffffffffffff168173ffffffffffffffffffffffffffffffffffffffff1603610ece576040517f08c379a0000000000000000000000000000000000000000000000000000000008152600401610ec5906126d5565b60405180910390fd5b610ee26742d3e3dd0f00be1b60c01b6113da565b610ef667b4b7d4e76764de6b60c01b6113da565b610f0a67cca995dfe0dc1e9660c01b6113da565b80915050919050565b6000610f29674ff01e5e935fd61860c01b6113da565b610f3d67ed840f0ae349b30a60c01b6113da565b610f5167954294db275891bb60c01b6113da565b610f6567eb95e772c6d08c2360c01b6113da565b600073ffffffffffffffffffffffffffffffffffffffff168273ffffffffffffffffffffffffffffffffffffffff1603610fd4576040517f08c379a0000000000000000000000000000000000000000000000000000000008152600401610fcb90612767565b60405180910390fd5b610fe867bc3d289998f58b4660c01b6113da565b610ffc6771f2361a54163ed460c01b6113da565b611010678157fc4388c7aa1e60c01b6113da565b600360008373ffffffffffffffffffffffffffffffffffffffff1673ffffffffffffffffffffffffffffffffffffffff168152602001908152602001600020549050919050565b600180546110649061221d565b80601f01602080910402602001604051908101604052809291908181526020018280546110909061221d565b80156110dd5780601f106110b2576101008083540402835291602001916110dd565b820191906000526020600020905b8154815290600101906020018083116110c057829003601f168201915b505050505081565b6110f9670f879858d3c7f27860c01b6113da565b61110d6724af2bb1b005c1e060c01b6113da565b611121676f67027d118137df60c01b6113da565b6111356732cba3b2a8cae78a60c01b6113da565b3373ffffffffffffffffffffffffffffffffffffffff168273ffffffffffffffffffffffffffffffffffffffff16036111a3576040517f08c379a000000000000000000000000000000000000000000000000000000000815260040161119a906127d3565b60405180910390fd5b6111b7671e5b8dc83cdaf95e60c01b6113da565b6111cb67d44303de1319b7b760c01b6113da565b80600560003373ffffffffffffffffffffffffffffffffffffffff1673ffffffffffffffffffffffffffffffffffffffff16815260200190815260200160002060008473ffffffffffffffffffffffffffffffffffffffff1673ffffffffffffffffffffffffffffffffffffffff16815260200190815260200160002060006101000a81548160ff02191690831515021790555061127367d01aa538ff1a597e60c01b6113da565b611287676bfb8d714a6ec7ad60c01b6113da565b8173ffffffffffffffffffffffffffffffffffffffff163373ffffffffffffffffffffffffffffffffffffffff167f17307eab39ab6107e8899845ad3d59bd9653f200f220920489ca2b5937696c31836040516112e49190611ce8565b60405180910390a35050565b61130467d481d6f778cb24e460c01b6113da565b50505050565b60006113206754901c4df2f261df60c01b6113da565b6113346784e847a52553e21c60c01b6113da565b611348677c2c1ae98ee3111f60c01b6113da565b600560008473ffffffffffffffffffffffffffffffffffffffff1673ffffffffffffffffffffffffffffffffffffffff16815260200190815260200160002060008373ffffffffffffffffffffffffffffffffffffffff1673ffffffffffffffffffffffffffffffffffffffff16815260200190815260200160002060009054906101000a900460ff16905092915050565b50565b600060019050919050565b60006113fe677c91a116afa8463b60c01b6113da565b611412678b5a0491652a4f3d60c01b6113da565b61142667badebd2f6de0aa5060c01b6113da565b60006002600084815260200190815260200160002060009054906101000a900473ffffffffffffffffffffffffffffffffffffffff16905061147267a0f2f17b7abcfca860c01b6113da565b611486679c22191c0989dc5a60c01b6113da565b8073ffffffffffffffffffffffffffffffffffffffff168473ffffffffffffffffffffffffffffffffffffffff161480156114d157506114d0677265ee46c6eb434560c01b6113dd565b5b8061157257508373ffffffffffffffffffffffffffffffffffffffff166004600085815260200190815260200160002060009054906101000a900473ffffffffffffffffffffffffffffffffffffffff1673ffffffffffffffffffffffffffffffffffffffff16148015611555575061155467aacfca12992f293160c01b6113dd565b5b8015611571575061157067e260e22308c4e9ac60c01b6113dd565b5b5b8061159f5750611582818561130a565b801561159e575061159d67cb5e48551bf74aeb60c01b6113dd565b5b5b91505092915050565b6115bc67228c91907dedd53e60c01b6113da565b6115d067e7430067a72a26ab60c01b6113da565b6115e467f387ca5b7524dba860c01b6113da565b6115f867659a0d33b2f2e5c760c01b6113da565b8273ffffffffffffffffffffffffffffffffffffffff166002600083815260200190815260200160002060009054906101000a900473ffffffffffffffffffffffffffffffffffffffff1673ffffffffffffffffffffffffffffffffffffffff1614611699576040517f08c379a000000000000000000000000000000000000000000000000000000000815260040161169090612865565b60405180910390fd5b6116ad67f4de2b7da739b4d560c01b6113da565b6116c16766a5fe4a87c05ebe60c01b6113da565b6116d56720b7da6dfd845e6e60c01b6113da565b6116e96734249681eeeb65a460c01b6113da565b600073ffffffffffffffffffffffffffffffffffffffff168273ffffffffffffffffffffffffffffffffffffffff1603611758576040517f08c379a000000000000000000000000000000000000000000000000000000000815260040161174f906128f7565b60405180910390fd5b61176c67888f232a2260b96760c01b6113da565b61178067371bae4291dc00a760c01b6113da565b6004600082815260200190815260200160002060006101000a81549073ffffffffffffffffffffffffffffffffffffffff02191690556117ca67dc69048072e6c38560c01b6113da565b816002600083815260200190815260200160002060006101000a81548173ffffffffffffffffffffffffffffffffffffffff021916908373ffffffffffffffffffffffffffffffffffffffff16021790555061183067cea6189732dd6fce60c01b6113da565b6001600360008573ffffffffffffffffffffffffffffffffffffffff1673ffffffffffffffffffffffffffffffffffffffff16815260200190815260200160002060008282546118809190612917565b9250508190555061189b67473efd584168251160c01b6113da565b6001600360008473ffffffffffffffffffffffffffffffffffffffff1673ffffffffffffffffffffffffffffffffffffffff16815260200190815260200160002060008282546118eb919061259d565b9250508190555061190667c61c7784fb64141560c01b6113da565b61191a674bbb8d470b09a71a60c01b6113da565b808273ffffffffffffffffffffffffffffffffffffffff168473ffffffffffffffffffffffffffffffffffffffff167fddf252ad1be2c89b69c2b068fc378daa952ba7f163c4a11628f55a4df523b3ef60405160405180910390a4505050565b61198e67b3c545e2bddf744a60c01b6113da565b6119a2671a121693bd3aab1e60c01b6113da565b6119b667fd0bab6de35a8df760c01b6113da565b60006002600083815260200190815260200160002060009054906101000a900473ffffffffffffffffffffffffffffffffffffffff169050611a026747996bb7069eb61960c01b6113da565b611a166761429424734a2e3160c01b6113da565b611a2a672808433f7b7253d560c01b6113da565b600073ffffffffffffffffffffffffffffffffffffffff168173ffffffffffffffffffffffffffffffffffffffff1603611a99576040517f08c379a0000000000000000000000000000000000000000000000000000000008152600401611a9090612997565b60405180910390fd5b611aad679c26e6dac2c86c7060c01b6113da565b611ac167e804e16695d50f3160c01b6113da565b6004600083815260200190815260200160002060006101000a81549073ffffffffffffffffffffffffffffffffffffffff0219169055611b0b671f264412580071d660c01b6113da565b6002600083815260200190815260200160002060006101000a81549073ffffffffffffffffffffffffffffffffffffffff0219169055611b5567c323a36cbe7720a460c01b6113da565b6001600360008373ffffffffffffffffffffffffffffffffffffffff1673ffffffffffffffffffffffffffffffffffffffff1681526020019081526020016000206000828254611ba59190612917565b92505081905550611bc06762b349b305844c2360c01b6113da565b611bd4671c1aa8b4b9853ec660c01b6113da565b81600073ffffffffffffffffffffffffffffffffffffffff168273ffffffffffffffffffffffffffffffffffffffff167fddf252ad1be2c89b69c2b068fc378daa952ba7f163c4a11628f55a4df523b3ef60405160405180910390a45050565b6000604051905090565b600080fd5b600080fd5b60007fffffffff0000000000000000000000000000000000000000000000000000000082169050919050565b611c7d81611c48565b8114611c8857600080fd5b50565b600081359050611c9a81611c74565b92915050565b600060208284031215611cb657611cb5611c3e565b5b6000611cc484828501611c8b565b91505092915050565b60008115159050919050565b611ce281611ccd565b82525050565b6000602082019050611cfd6000830184611cd9565b92915050565b600081519050919050565b600082825260208201905092915050565b60005b83811015611d3d578082015181840152602081019050611d22565b60008484015250505050565b6000601f19601f8301169050919050565b6000611d6582611d03565b611d6f8185611d0e565b9350611d7f818560208601611d1f565b611d8881611d49565b840191505092915050565b60006020820190508181036000830152611dad8184611d5a565b905092915050565b6000819050919050565b611dc881611db5565b8114611dd357600080fd5b50565b600081359050611de581611dbf565b92915050565b600060208284031215611e0157611e00611c3e565b5b6000611e0f84828501611dd6565b91505092915050565b600073ffffffffffffffffffffffffffffffffffffffff82169050919050565b6000611e4382611e18565b9050919050565b611e5381611e38565b82525050565b6000602082019050611e6e6000830184611e4a565b92915050565b611e7d81611e38565b8114611e8857600080fd5b50565b600081359050611e9a81611e74565b92915050565b60008060408385031215611eb757611eb6611c3e565b5b6000611ec585828601611e8b565b9250506020611ed685828601611dd6565b9150509250929050565b600080600060608486031215611ef957611ef8611c3e565b5b6000611f0786828701611e8b565b9350506020611f1886828701611e8b565b9250506040611f2986828701611dd6565b9150509250925092565b600060208284031215611f4957611f48611c3e565b5b6000611f5784828501611e8b565b91505092915050565b611f6981611db5565b82525050565b6000602082019050611f846000830184611f60565b92915050565b611f9381611ccd565b8114611f9e57600080fd5b50565b600081359050611fb081611f8a565b92915050565b60008060408385031215611fcd57611fcc611c3e565b5b6000611fdb85828601611e8b565b9250506020611fec85828601611fa1565b9150509250929050565b600080fd5b600080fd5b7f4e487b7100000000000000000000000000000000000000000000000000000000600052604160045260246000fd5b61203882611d49565b810181811067ffffffffffffffff8211171561205757612056612000565b5b80604052505050565b600061206a611c34565b9050612076828261202f565b919050565b600067ffffffffffffffff82111561209657612095612000565b5b61209f82611d49565b9050602081019050919050565b82818337600083830152505050565b60006120ce6120c98461207b565b612060565b9050828152602081018484840111156120ea576120e9611ffb565b5b6120f58482856120ac565b509392505050565b600082601f83011261211257612111611ff6565b5b81356121228482602086016120bb565b91505092915050565b6000806000806080858703121561214557612144611c3e565b5b600061215387828801611e8b565b945050602061216487828801611e8b565b935050604061217587828801611dd6565b925050606085013567ffffffffffffffff81111561219657612195611c43565b5b6121a2878288016120fd565b91505092959194509250565b600080604083850312156121c5576121c4611c3e565b5b60006121d385828601611e8b565b92505060206121e485828601611e8b565b9150509250929050565b7f4e487b7100000000000000000000000000000000000000000000000000000000600052602260045260246000fd5b6000600282049050600182168061223557607f821691505b602082108103612248576122476121ee565b5b50919050565b7f4552433732313a20617070726f76656420717565727920666f72206e6f6e657860008201527f697374656e7420746f6b656e0000000000000000000000000000000000000000602082015250565b60006122aa602c83611d0e565b91506122b58261224e565b604082019050919050565b600060208201905081810360008301526122d98161229d565b9050919050565b7f4552433732313a20617070726f76616c20746f2063757272656e74206f776e6560008201527f7200000000000000000000000000000000000000000000000000000000000000602082015250565b600061233c602183611d0e565b9150612347826122e0565b604082019050919050565b6000602082019050818103600083015261236b8161232f565b9050919050565b7f4552433732313a20617070726f76652063616c6c6572206973206e6f74206f7760008201527f6e6572206e6f7220617070726f76656420666f7220616c6c0000000000000000602082015250565b60006123ce603883611d0e565b91506123d982612372565b604082019050919050565b600060208201905081810360008301526123fd816123c1565b9050919050565b7f4552433732313a207472616e736665722063616c6c6572206973206e6f74206f60008201527f776e6572206e6f7220617070726f766564000000000000000000000000000000602082015250565b6000612460603183611d0e565b915061246b82612404565b604082019050919050565b6000602082019050818103600083015261248f81612453565b9050919050565b7f4552433732313a206d696e7420746f20746865207a65726f2061646472657373600082015250565b60006124cc602083611d0e565b91506124d782612496565b602082019050919050565b600060208201905081810360008301526124fb816124bf565b9050919050565b7f4552433732313a20746f6b656e20616c7265616479206d696e74656400000000600082015250565b6000612538601c83611d0e565b915061254382612502565b602082019050919050565b600060208201905081810360008301526125678161252b565b9050919050565b7f4e487b7100000000000000000000000000000000000000000000000000000000600052601160045260246000fd5b60006125a882611db5565b91506125b383611db5565b92508282019050808211156125cb576125ca61256e565b5b92915050565b7f4552433732313a2063616c6c6572206973206e6f74206f776e6572206e6f722060008201527f617070726f766564000000000000000000000000000000000000000000000000602082015250565b600061262d602883611d0e565b9150612638826125d1565b604082019050919050565b6000602082019050818103600083015261265c81612620565b9050919050565b7f4552433732313a206f776e657220717565727920666f72206e6f6e657869737460008201527f656e7420746f6b656e0000000000000000000000000000000000000000000000602082015250565b60006126bf602983611d0e565b91506126ca82612663565b604082019050919050565b600060208201905081810360008301526126ee816126b2565b9050919050565b7f4552433732313a2062616c616e636520717565727920666f7220746865207a6560008201527f726f206164647265737300000000000000000000000000000000000000000000602082015250565b6000612751602a83611d0e565b915061275c826126f5565b604082019050919050565b6000602082019050818103600083015261278081612744565b9050919050565b7f4552433732313a20617070726f766520746f2063616c6c657200000000000000600082015250565b60006127bd601983611d0e565b91506127c882612787565b602082019050919050565b600060208201905081810360008301526127ec816127b0565b9050919050565b7f4552433732313a207472616e736665722066726f6d20696e636f72726563742060008201527f6f776e6572000000000000000000000000000000000000000000000000000000602082015250565b600061284f602583611d0e565b915061285a826127f3565b604082019050919050565b6000602082019050818103600083015261287e81612842565b9050919050565b7f4552433732313a207472616e7366657220746f20746865207a65726f2061646460008201527f7265737300000000000000000000000000000000000000000000000000000000602082015250565b60006128e1602483611d0e565b91506128ec82612885565b604082019050919050565b60006020820190508181036000830152612910816128d4565b9050919050565b600061292282611db5565b915061292d83611db5565b92508282039050818111156129455761294461256e565b5b92915050565b7f4552433732313a20746f6b656e20646f6573206e6f7420657869737400000000600082015250565b6000612981601c83611d0e565b915061298c8261294b565b602082019050919050565b600060208201905081810360008301526129b081612974565b905091905056fea2646970667358221220bebe961cd6608765b9a3dc9c74ce49491a7d9b75fe03d5652490bae06cebeab564736f6c634300081c0033",
  "linkReferences": {},
  "deployedLinkReferences": {}
}