{
  "_format": "hh-sol-artifact-1",
  "contractName": "ArtDAO",
  "sourceName": "contracts/art_dao.sol",
  "abi": [
    {
      "inputs": [],
      "stateMutability": "nonpayable",
      "type": "constructor"
    },
    {
      "anonymous": false,
      "inputs": [
        {
          "indexed": false,
          "internalType": "uint256",
          "name": "tokenId",
          "type": "uint256"
        },
        {
          "indexed": false,
          "internalType": "address",
          "name": "winner",
          "type": "address"
        },
        {
          "indexed": false,
          "internalType": "uint256",
          "name": "amount",
          "type": "uint256"
        }
      ],
      "name": "AuctionSettled",
      "type": "event"
    },
    {
      "anonymous": false,
      "inputs": [
        {
          "indexed": false,
          "internalType": "uint256",
          "name": "tokenId",
          "type": "uint256"
        },
        {
          "indexed": false,
          "internalType": "uint256",
          "name": "startTime",
          "type": "uint256"
        },
        {
          "indexed": false,
          "internalType": "uint256",
          "name": "endTime",
          "type": "uint256"
        }
      ],
      "name": "AuctionStarted",
      "type": "event"
    },
    {
      "anonymous": false,
      "inputs": [
        {
          "indexed": false,
          "internalType": "uint256",
          "name": "tokenId",
          "type": "uint256"
        },
        {
          "indexed": false,
          "internalType": "address",
          "name": "bidder",
          "type": "address"
        },
        {
          "indexed": false,
          "internalType": "uint256",
          "name": "amount",
          "type": "uint256"
        }
      ],
      "name": "BidPlaced",
      "type": "event"
    },
    {
      "anonymous": false,
      "inputs": [
        {
          "indexed": false,
          "internalType": "uint256",
          "name": "disputeId",
          "type": "uint256"
        },
        {
          "indexed": false,
          "internalType": "address",
          "name": "commission",
          "type": "address"
        },
        {
          "indexed": false,
          "internalType": "uint256",
          "name": "panelSize",
          "type": "uint256"
        }
      ],
      "name": "DisputeCreated",
      "type": "event"
    },
    {
      "anonymous": false,
      "inputs": [
        {
          "indexed": false,
          "internalType": "uint256",
          "name": "disputeId",
          "type": "uint256"
        },
        {
          "indexed": false,
          "internalType": "enum ArtDAO.VoteOption",
          "name": "outcome",
          "type": "uint8"
        }
      ],
      "name": "DisputeResolved",
      "type": "event"
    },
    {
      "anonymous": false,
      "inputs": [
        {
          "indexed": false,
          "internalType": "uint256",
          "name": "disputeId",
          "type": "uint256"
        },
        {
          "indexed": false,
          "internalType": "address",
          "name": "juror",
          "type": "address"
        }
      ],
      "name": "JurorSelected",
      "type": "event"
    },
    {
      "anonymous": false,
      "inputs": [
        {
          "indexed": false,
          "internalType": "uint256",
          "name": "tokenId",
          "type": "uint256"
        },
        {
          "indexed": false,
          "internalType": "address",
          "name": "to",
          "type": "address"
        }
      ],
      "name": "Minted",
      "type": "event"
    },
    {
      "anonymous": false,
      "inputs": [
        {
          "indexed": false,
          "internalType": "uint256",
          "name": "proposalId",
          "type": "uint256"
        },
        {
          "indexed": false,
          "internalType": "address",
          "name": "creator",
          "type": "address"
        },
        {
          "indexed": false,
          "internalType": "address",
          "name": "recipient",
          "type": "address"
        },
        {
          "indexed": false,
          "internalType": "uint256",
          "name": "amount",
          "type": "uint256"
        },
        {
          "indexed": false,
          "internalType": "uint256",
          "name": "endTime",
          "type": "uint256"
        }
      ],
      "name": "ProposalCreated",
      "type": "event"
    },
    {
      "anonymous": false,
      "inputs": [
        {
          "indexed": false,
          "internalType": "uint256",
          "name": "proposalId",
          "type": "uint256"
        }
      ],
      "name": "ProposalExecuted",
      "type": "event"
    },
    {
      "anonymous": false,
      "inputs": [
        {
          "indexed": false,
          "internalType": "uint256",
          "name": "proposalId",
          "type": "uint256"
        },
        {
          "indexed": false,
          "internalType": "address",
          "name": "voter",
          "type": "address"
        },
        {
          "indexed": false,
          "internalType": "bool",
          "name": "support",
          "type": "bool"
        },
        {
          "indexed": false,
          "internalType": "uint256",
          "name": "votingPower",
          "type": "uint256"
        }
      ],
      "name": "ProposalVoted",
      "type": "event"
    },
    {
      "anonymous": false,
      "inputs": [
        {
          "indexed": false,
          "internalType": "uint256",
          "name": "disputeId",
          "type": "uint256"
        },
        {
          "indexed": false,
          "internalType": "address",
          "name": "juror",
          "type": "address"
        },
        {
          "indexed": false,
          "internalType": "enum ArtDAO.VoteOption",
          "name": "option",
          "type": "uint8"
        }
      ],
      "name": "VoteCast",
      "type": "event"
    },
    {
      "inputs": [],
      "name": "AUCTION_DURATION",
      "outputs": [
        {
          "internalType": "uint256",
          "name": "",
          "type": "uint256"
        }
      ],
      "stateMutability": "view",
      "type": "function"
    },
    {
      "inputs": [],
      "name": "JURY_REWARD",
      "outputs": [
        {
          "internalType": "uint256",
          "name": "",
          "type": "uint256"
        }
      ],
      "stateMutability": "view",
      "type": "function"
    },
    {
      "inputs": [],
      "name": "MINT_INTERVAL",
      "outputs": [
        {
          "internalType": "uint256",
          "name": "",
          "type": "uint256"
        }
      ],
      "stateMutability": "view",
      "type": "function"
    },
    {
      "inputs": [
        {
          "internalType": "uint256",
          "name": "",
          "type": "uint256"
        }
      ],
      "name": "auctions",
      "outputs": [
        {
          "internalType": "uint256",
          "name": "tokenId",
          "type": "uint256"
        },
        {
          "internalType": "uint256",
          "name": "startTime",
          "type": "uint256"
        },
        {
          "internalType": "uint256",
          "name": "endTime",
          "type": "uint256"
        },
        {
          "internalType": "uint256",
          "name": "highestBid",
          "type": "uint256"
        },
        {
          "internalType": "address",
          "name": "highestBidder",
          "type": "address"
        },
        {
          "internalType": "bool",
          "name": "settled",
          "type": "bool"
        }
      ],
      "stateMutability": "view",
      "type": "function"
    },
    {
      "inputs": [
        {
          "internalType": "address",
          "name": "owner",
          "type": "address"
        }
      ],
      "name": "balanceOf",
      "outputs": [
        {
          "internalType": "uint256",
          "name": "",
          "type": "uint256"
        }
      ],
      "stateMutability": "view",
      "type": "function"
    },
    {
      "inputs": [
        {
          "internalType": "uint256",
          "name": "tokenId",
          "type": "uint256"
        }
      ],
      "name": "bid",
      "outputs": [],
      "stateMutability": "payable",
      "type": "function"
    },
    {
      "inputs": [
        {
          "internalType": "address",
          "name": "",
          "type": "address"
        }
      ],
      "name": "commissionHasActiveDispute",
      "outputs": [
        {
          "internalType": "bool",
          "name": "",
          "type": "bool"
        }
      ],
      "stateMutability": "view",
      "type": "function"
    },
    {
      "inputs": [
        {
          "internalType": "address",
          "name": "commission",
          "type": "address"
        },
        {
          "internalType": "uint256",
          "name": "panelSize",
          "type": "uint256"
        },
        {
          "internalType": "uint256",
          "name": "votingDuration",
          "type": "uint256"
        }
      ],
      "name": "createDisputeCase",
      "outputs": [
        {
          "internalType": "uint256",
          "name": "disputeId",
          "type": "uint256"
        }
      ],
      "stateMutability": "nonpayable",
      "type": "function"
    },
    {
      "inputs": [
        {
          "internalType": "address",
          "name": "recipient",
          "type": "address"
        },
        {
          "internalType": "uint256",
          "name": "amount",
          "type": "uint256"
        }
      ],
      "name": "createProposal",
      "outputs": [
        {
          "internalType": "uint256",
          "name": "",
          "type": "uint256"
        }
      ],
      "stateMutability": "nonpayable",
      "type": "function"
    },
    {
      "inputs": [
        {
          "internalType": "uint256",
          "name": "proposalId",
          "type": "uint256"
        }
      ],
      "name": "executeProposal",
      "outputs": [],
      "stateMutability": "nonpayable",
      "type": "function"
    },
    {
      "inputs": [],
      "name": "getAllHolders",
      "outputs": [
        {
          "internalType": "address[]",
          "name": "",
          "type": "address[]"
        }
      ],
      "stateMutability": "view",
      "type": "function"
    },
    {
      "inputs": [
        {
          "internalType": "uint256",
          "name": "disputeId",
          "type": "uint256"
        },
        {
          "internalType": "address",
          "name": "juror",
          "type": "address"
        }
      ],
      "name": "getJurorVote",
      "outputs": [
        {
          "internalType": "bool",
          "name": "hasVoted",
          "type": "bool"
        },
        {
          "internalType": "enum ArtDAO.VoteOption",
          "name": "option",
          "type": "uint8"
        }
      ],
      "stateMutability": "view",
      "type": "function"
    },
    {
      "inputs": [
        {
          "internalType": "uint256",
          "name": "disputeId",
          "type": "uint256"
        }
      ],
      "name": "getJurors",
      "outputs": [
        {
          "internalType": "address[]",
          "name": "",
          "type": "address[]"
        }
      ],
      "stateMutability": "view",
      "type": "function"
    },
    {
      "inputs": [
        {
          "internalType": "uint256",
          "name": "proposalId",
          "type": "uint256"
        }
      ],
      "name": "getProposal",
      "outputs": [
        {
          "internalType": "address",
          "name": "creator",
          "type": "address"
        },
        {
          "internalType": "address",
          "name": "recipient",
          "type": "address"
        },
        {
          "internalType": "uint256",
          "name": "amount",
          "type": "uint256"
        },
        {
          "internalType": "uint256",
          "name": "startTime",
          "type": "uint256"
        },
        {
          "internalType": "uint256",
          "name": "endTime",
          "type": "uint256"
        },
        {
          "internalType": "uint256",
          "name": "forVotes",
          "type": "uint256"
        },
        {
          "internalType": "uint256",
          "name": "againstVotes",
          "type": "uint256"
        },
        {
          "internalType": "bool",
          "name": "executed",
          "type": "bool"
        },
        {
          "internalType": "uint256",
          "name": "totalVotingPower",
          "type": "uint256"
        }
      ],
      "stateMutability": "view",
      "type": "function"
    },
    {
      "inputs": [
        {
          "internalType": "uint256",
          "name": "disputeId",
          "type": "uint256"
        }
      ],
      "name": "getVoteCounts",
      "outputs": [
        {
          "internalType": "uint256",
          "name": "artistVotes",
          "type": "uint256"
        },
        {
          "internalType": "uint256",
          "name": "buyerVotes",
          "type": "uint256"
        },
        {
          "internalType": "uint256",
          "name": "neitherVotes",
          "type": "uint256"
        }
      ],
      "stateMutability": "view",
      "type": "function"
    },
    {
      "inputs": [
        {
          "internalType": "address",
          "name": "",
          "type": "address"
        }
      ],
      "name": "holderBalance",
      "outputs": [
        {
          "internalType": "uint256",
          "name": "",
          "type": "uint256"
        }
      ],
      "stateMutability": "view",
      "type": "function"
    },
    {
      "inputs": [
        {
          "internalType": "address",
          "name": "",
          "type": "address"
        }
      ],
      "name": "holderExists",
      "outputs": [
        {
          "internalType": "bool",
          "name": "",
          "type": "bool"
        }
      ],
      "stateMutability": "view",
      "type": "function"
    },
    {
      "inputs": [
        {
          "internalType": "uint256",
          "name": "",
          "type": "uint256"
        }
      ],
      "name": "holders",
      "outputs": [
        {
          "internalType": "address",
          "name": "",
          "type": "address"
        }
      ],
      "stateMutability": "view",
      "type": "function"
    },
    {
      "inputs": [],
      "name": "lastMintTime",
      "outputs": [
        {
          "internalType": "uint256",
          "name": "",
          "type": "uint256"
        }
      ],
      "stateMutability": "view",
      "type": "function"
    },
    {
      "inputs": [],
      "name": "mint",
      "outputs": [],
      "stateMutability": "nonpayable",
      "type": "function"
    },
    {
      "inputs": [],
      "name": "nextDisputeId",
      "outputs": [
        {
          "internalType": "uint256",
          "name": "",
          "type": "uint256"
        }
      ],
      "stateMutability": "view",
      "type": "function"
    },
    {
      "inputs": [],
      "name": "nextProposalId",
      "outputs": [
        {
          "internalType": "uint256",
          "name": "",
          "type": "uint256"
        }
      ],
      "stateMutability": "view",
      "type": "function"
    },
    {
      "inputs": [],
      "name": "nextTokenId",
      "outputs": [
        {
          "internalType": "uint256",
          "name": "",
          "type": "uint256"
        }
      ],
      "stateMutability": "view",
      "type": "function"
    },
    {
      "inputs": [
        {
          "internalType": "uint256",
          "name": "tokenId",
          "type": "uint256"
        }
      ],
      "name": "ownerOf",
      "outputs": [
        {
          "internalType": "address",
          "name": "",
          "type": "address"
        }
      ],
      "stateMutability": "view",
      "type": "function"
    },
    {
      "inputs": [
        {
          "internalType": "uint256",
          "name": "disputeId",
          "type": "uint256"
        }
      ],
      "name": "resolveDispute",
      "outputs": [],
      "stateMutability": "nonpayable",
      "type": "function"
    },
    {
      "inputs": [
        {
          "internalType": "uint256",
          "name": "disputeId",
          "type": "uint256"
        },
        {
          "internalType": "uint256",
          "name": "votingDuration",
          "type": "uint256"
        }
      ],
      "name": "selectJurors",
      "outputs": [],
      "stateMutability": "nonpayable",
      "type": "function"
    },
    {
      "inputs": [
        {
          "internalType": "uint256",
          "name": "tokenId",
          "type": "uint256"
        }
      ],
      "name": "settleAuction",
      "outputs": [],
      "stateMutability": "nonpayable",
      "type": "function"
    },
    {
      "inputs": [
        {
          "internalType": "uint256",
          "name": "",
          "type": "uint256"
        }
      ],
      "name": "tokenOwner",
      "outputs": [
        {
          "internalType": "address",
          "name": "",
          "type": "address"
        }
      ],
      "stateMutability": "view",
      "type": "function"
    },
    {
      "inputs": [],
      "name": "totalSupply",
      "outputs": [
        {
          "internalType": "uint256",
          "name": "",
          "type": "uint256"
        }
      ],
      "stateMutability": "view",
      "type": "function"
    },
    {
      "inputs": [
        {
          "internalType": "address",
          "name": "to",
          "type": "address"
        },
        {
          "internalType": "uint256",
          "name": "tokenId",
          "type": "uint256"
        }
      ],
      "name": "transfer",
      "outputs": [],
      "stateMutability": "nonpayable",
      "type": "function"
    },
    {
      "inputs": [],
      "name": "treasuryBalance",
      "outputs": [
        {
          "internalType": "uint256",
          "name": "",
          "type": "uint256"
        }
      ],
      "stateMutability": "view",
      "type": "function"
    },
    {
      "inputs": [
        {
          "internalType": "uint256",
          "name": "disputeId",
          "type": "uint256"
        },
        {
          "internalType": "enum ArtDAO.VoteOption",
          "name": "option",
          "type": "uint8"
        }
      ],
      "name": "vote",
      "outputs": [],
      "stateMutability": "nonpayable",
      "type": "function"
    },
    {
      "inputs": [
        {
          "internalType": "uint256",
          "name": "proposalId",
          "type": "uint256"
        },
        {
          "internalType": "bool",
          "name": "support",
          "type": "bool"
        }
      ],
      "name": "voteProposal",
      "outputs": [],
      "stateMutability": "nonpayable",
      "type": "function"
    },
    {
      "stateMutability": "payable",
      "type": "receive"
    }
  ],
  "bytecode": "0x608060405234801561001057600080fd5b5061002b6743b063ca8beefd6260c01b6100f960201b60201c565b61004567e210588892c3496060c01b6100f960201b60201c565b42600081905550610066678e9fa6db199a0de860c01b6100f960201b60201c565b6001808190555061008767419b779082474ec960c01b6100f960201b60201c565b60016002819055506100a96714351d0934f779f760c01b6100f960201b60201c565b60016004819055506100cb67bfdd494676c45d1c60c01b6100f960201b60201c565b6100e567104a91bbec04132c60c01b6100f960201b60201c565b6100f4306100fc60201b60201c565b6102e1565b50565b6101166743458040add416e660c01b6100f960201b60201c565b6101306770e39d2d5ccdbcb960c01b6100f960201b60201c565b61014a67e2a4905b1b834e6360c01b6100f960201b60201c565b600760008273ffffffffffffffffffffffffffffffffffffffff1673ffffffffffffffffffffffffffffffffffffffff16815260200190815260200160002060009054906101000a900460ff166102c3576101b5670680def8efa2cd1960c01b6100f960201b60201c565b6101cf6704a9080f591ca93560c01b6100f960201b60201c565b6001600760008373ffffffffffffffffffffffffffffffffffffffff1673ffffffffffffffffffffffffffffffffffffffff16815260200190815260200160002060006101000a81548160ff02191690831515021790555061024167a68017d78001709860c01b6100f960201b60201c565b61025b67ec4838707a39f17c60c01b6100f960201b60201c565b6008819080600181540180825580915050600190039060005260206000200160009091909190916101000a81548173ffffffffffffffffffffffffffffffffffffffff021916908373ffffffffffffffffffffffffffffffffffffffff1602179055506102de565b6102dd670534f170c55bbbda60c01b6100f960201b60201c565b5b50565b617fff806102f06000396000f3fe6080604052600436106101f25760003560e01c806370a082311161010d578063a271e525116100a0578063bcfb9b611161006f578063bcfb9b6114610753578063c2b7b8681461077c578063c7f758a8146107a5578063de86b419146107ea578063dfc51a2514610827576101f9565b8063a271e52514610685578063a5bc3636146106b0578063a9059cbb146106ed578063ab6ddfa814610716576101f9565b80638a241f4c116100dc5780638a241f4c146105b5578063943e8216146105f45780639d4635201461061d5780639f9b104814610648576101f9565b806370a08231146104f957806374f376d41461053657806375794a3c1461055f57806384e7e3d31461058a576101f9565b80632e99361111610185578063571a26a011610154578063571a26a0146104125780636352211e146104545780636be6258b146104915780636d8acf45146104bc576101f9565b80632e99361114610364578063313dab201461038d5780633af7f4f7146103b8578063454a2ab3146103f6576101f9565b80631caaa487116101c15780631caaa487146102945780631d92f25e146102d15780632a11ced0146102fc5780632ab09d1414610339576101f9565b80630d61b519146101fe5780630db39934146102275780631249c58b1461025257806318160ddd14610269576101f9565b366101f957005b600080fd5b34801561020a57600080fd5b50610225600480360381019061022091906165c8565b610864565b005b34801561023357600080fd5b5061023c610db2565b6040516102499190616604565b60405180910390f35b34801561025e57600080fd5b50610267610db8565b005b34801561027557600080fd5b5061027e610fae565b60405161028b9190616604565b60405180910390f35b3480156102a057600080fd5b506102bb60048036038101906102b691906165c8565b610fb4565b6040516102c89190616660565b60405180910390f35b3480156102dd57600080fd5b506102e6610fe7565b6040516102f39190616739565b60405180910390f35b34801561030857600080fd5b50610323600480360381019061031e91906165c8565b6110b1565b6040516103309190616660565b60405180910390f35b34801561034557600080fd5b5061034e6110f0565b60405161035b9190616604565b60405180910390f35b34801561037057600080fd5b5061038b600480360381019061038691906165c8565b6110f6565b005b34801561039957600080fd5b506103a26114aa565b6040516103af9190616604565b60405180910390f35b3480156103c457600080fd5b506103df60048036038101906103da9190616787565b6114ee565b6040516103ed929190616859565b60405180910390f35b610410600480360381019061040b91906165c8565b61160c565b005b34801561041e57600080fd5b50610439600480360381019061043491906165c8565b611ae4565b60405161044b96959493929190616882565b60405180910390f35b34801561046057600080fd5b5061047b600480360381019061047691906165c8565b611b4d565b6040516104889190616660565b60405180910390f35b34801561049d57600080fd5b506104a6611bc6565b6040516104b39190616604565b60405180910390f35b3480156104c857600080fd5b506104e360048036038101906104de91906165c8565b611bd1565b6040516104f09190616739565b60405180910390f35b34801561050557600080fd5b50610520600480360381019061051b91906168e3565b611cb1565b60405161052d9190616604565b60405180910390f35b34801561054257600080fd5b5061055d60048036038101906105589190616910565b611d36565b005b34801561056b57600080fd5b50610574612959565b6040516105819190616604565b60405180910390f35b34801561059657600080fd5b5061059f61295f565b6040516105ac9190616604565b60405180910390f35b3480156105c157600080fd5b506105dc60048036038101906105d791906165c8565b612966565b6040516105eb93929190616950565b60405180910390f35b34801561060057600080fd5b5061061b600480360381019061061691906169ac565b612a03565b005b34801561062957600080fd5b50610632613360565b60405161063f9190616604565b60405180910390f35b34801561065457600080fd5b5061066f600480360381019061066a91906168e3565b613366565b60405161067c91906169ec565b60405180910390f35b34801561069157600080fd5b5061069a613386565b6040516106a79190616604565b60405180910390f35b3480156106bc57600080fd5b506106d760048036038101906106d29190616a07565b61338d565b6040516106e49190616604565b60405180910390f35b3480156106f957600080fd5b50610714600480360381019061070f9190616a5a565b6138d2565b005b34801561072257600080fd5b5061073d600480360381019061073891906168e3565b613acd565b60405161074a9190616604565b60405180910390f35b34801561075f57600080fd5b5061077a60048036038101906107759190616ac6565b613ae5565b005b34801561078857600080fd5b506107a3600480360381019061079e91906165c8565b6140a6565b005b3480156107b157600080fd5b506107cc60048036038101906107c791906165c8565b614a19565b6040516107e199989796959493929190616b06565b60405180910390f35b3480156107f657600080fd5b50610811600480360381019061080c91906168e3565b614cab565b60405161081e91906169ec565b60405180910390f35b34801561083357600080fd5b5061084e60048036038101906108499190616a5a565b614ccb565b60405161085b9190616604565b60405180910390f35b61087867d5bb11660b70e92560c01b6151a0565b61088c6722ea7e3f26837fbc60c01b6151a0565b6108a067291fd91081f2505c60c01b6151a0565b6000600c600083815260200190815260200160002090506108cb67622ba6d33b70dc3360c01b6151a0565b6108df673f96a610d7c90ed660c01b6151a0565b6108f367feeadb4c9b742c1c60c01b6151a0565b600073ffffffffffffffffffffffffffffffffffffffff168160000160009054906101000a900473ffffffffffffffffffffffffffffffffffffffff1673ffffffffffffffffffffffffffffffffffffffff1603610986576040517f08c379a000000000000000000000000000000000000000000000000000000000815260040161097d90616bf0565b60405180910390fd5b61099a67ad2e37cc0d4bbbb460c01b6151a0565b6109ae67c9e8d5e6b79d698460c01b6151a0565b6109c267f096905a36b716b660c01b6151a0565b6109d667e20e8cbd3f839de060c01b6151a0565b80600401544211610a1c576040517f08c379a0000000000000000000000000000000000000000000000000000000008152600401610a1390616c5c565b60405180910390fd5b610a306724a6a4509766165160c01b6151a0565b610a446727519ec9ae8dddd960c01b6151a0565b610a58675280192cd26b9cb160c01b6151a0565b610a6c67d3883cbfdb0efeed60c01b6151a0565b8060070160009054906101000a900460ff1615610abe576040517f08c379a0000000000000000000000000000000000000000000000000000000008152600401610ab590616cc8565b60405180910390fd5b610ad267310c59bf5c1d150b60c01b6151a0565b610ae6674f73591de83fe24860c01b6151a0565b610afa67c9e8e477f183b14a60c01b6151a0565b600081600601548260050154610b109190616d17565b9050610b266742365a010501c6c460c01b6151a0565b610b3a6755c10d7c2eff02a860c01b6151a0565b610b4e675779f1677420d48b60c01b6151a0565b60008111610b91576040517f08c379a0000000000000000000000000000000000000000000000000000000008152600401610b8890616d97565b60405180910390fd5b610ba567a5fba526b9d6bdee60c01b6151a0565b610bb9673b951a758745da9660c01b6151a0565b610bcd6703ac167015705bed60c01b6151a0565b6000606460438460080154610be29190616db7565b610bec9190616e28565b9050610c0267bf97731f46f912b260c01b6151a0565b610c1667036962f68e1a0b0e60c01b6151a0565b610c2a67d7f566e7af50f55f60c01b6151a0565b8083600501541015610c71576040517f08c379a0000000000000000000000000000000000000000000000000000000008152600401610c6890616ea5565b60405180910390fd5b610c856764b5fbb64d7d0bfd60c01b6151a0565b610c9967cb06f01f4d21bd6e60c01b6151a0565b60018360070160006101000a81548160ff021916908315150217905550610cca670bde4050db73b75660c01b6151a0565b610cde671e26f659dec22d3060c01b6151a0565b8260010160009054906101000a900473ffffffffffffffffffffffffffffffffffffffff1673ffffffffffffffffffffffffffffffffffffffff166108fc84600201549081150290604051600060405180830381858888f19350505050158015610d4c573d6000803e3d6000fd5b50610d61679e0b6cff93b1cd0360c01b6151a0565b610d7567f61719095c602ee760c01b6151a0565b7f712ae1383f79ac853f8d882153778e0260ef8f03b504e2866e0593e04d2b291f84604051610da49190616604565b60405180910390a150505050565b60025481565b610dcc67e9c01540690d8e1260c01b6151a0565b610de0671d1294a83206ba3260c01b6151a0565b610df467e0218ad533f9dd4160c01b6151a0565b610e0867707ecd720cd2d01060c01b6151a0565b62093a80600054610e199190616d17565b421015610e5b576040517f08c379a0000000000000000000000000000000000000000000000000000000008152600401610e5290616f11565b60405180910390fd5b610e6f6736e2112c8250894d60c01b6151a0565b610e83672f0f19063f4f441f60c01b6151a0565b610e9767aab85b0238608af160c01b6151a0565b60006001549050610eb26789e1ec98a1fb546260c01b6151a0565b60016000815480929190610ec590616f31565b9190505550610ede676bd2cccc32e8c9fc60c01b6151a0565b610ef267cb99980226552e8a60c01b6151a0565b610efe600030836151a3565b610f126768302e53465df4d360c01b6151a0565b42600081905550610f2d6756cf649b5d96653d60c01b6151a0565b610f41679044ce0406bdc54960c01b6151a0565b7fb9203d657e9c0ec8274c818292ab0f58b04e1970050716891770eb1bab5d655e8130604051610f72929190616f79565b60405180910390a1610f8e674e93795451e3c18c60c01b6151a0565b610fa26740fadabdec11a46660c01b6151a0565b610fab8161559d565b50565b60035481565b60056020528060005260406000206000915054906101000a900473ffffffffffffffffffffffffffffffffffffffff1681565b6060610ffd67c3c70e8a274a128d60c01b6151a0565b611011671dcf7db4ad3eefcd60c01b6151a0565b61102567efb0118a9e60305360c01b6151a0565b60088054806020026020016040519081016040528092919081815260200182805480156110a757602002820191906000526020600020905b8160009054906101000a900473ffffffffffffffffffffffffffffffffffffffff1673ffffffffffffffffffffffffffffffffffffffff168152602001906001019080831161105d575b5050505050905090565b600881815481106110c157600080fd5b906000526020600020016000915054906101000a900473ffffffffffffffffffffffffffffffffffffffff1681565b60045481565b61110a6789b9a3f8966d0f9460c01b6151a0565b61111e67d73c3ea26d0da94a60c01b6151a0565b61113267d8f4aa58f1ac60a260c01b6151a0565b6000600a6000838152602001908152602001600020905061115d674d2b72d259cb40e160c01b6151a0565b6111716780c455f624eafbd660c01b6151a0565b61118567f46294ecaab2518760c01b6151a0565b806002015442116111cb576040517f08c379a00000000000000000000000000000000000000000000000000000000081526004016111c290616fee565b60405180910390fd5b6111df6764767525bcba72d060c01b6151a0565b6111f3670ec9425553dbdaae60c01b6151a0565b61120767325a178da8b53f9860c01b6151a0565b61121b6718036b2c4762aef360c01b6151a0565b8060040160149054906101000a900460ff161561126d576040517f08c379a00000000000000000000000000000000000000000000000000000000081526004016112649061705a565b60405180910390fd5b61128167780b2bc85c78836560c01b6151a0565b6112956715f0fb7c80ed093060c01b6151a0565b60018160040160146101000a81548160ff0219169083151502179055506112c6672f7e700062ec378460c01b6151a0565b6112da670d68d303221e2c3960c01b6151a0565b600073ffffffffffffffffffffffffffffffffffffffff168160040160009054906101000a900473ffffffffffffffffffffffffffffffffffffffff1673ffffffffffffffffffffffffffffffffffffffff161461142d5761134667ef6c5268030eda6260c01b6151a0565b61135a671f337590f56ecdf360c01b6151a0565b61136e675a23a7bdb6bb8a3460c01b6151a0565b61139d308260040160009054906101000a900473ffffffffffffffffffffffffffffffffffffffff16846151a3565b6113b1675ec5d0ca45bddbc160c01b6151a0565b6113c5677e93034d73c41a4160c01b6151a0565b7fc9f72b276a388619c6d185d146697036241880c36654b1a3ffdad07c24038d99828260040160009054906101000a900473ffffffffffffffffffffffffffffffffffffffff1683600301546040516114209392919061707a565b60405180910390a16114a6565b61144167dd40d9daabe51b9460c01b6151a0565b61145567321f767630997dbd60c01b6151a0565b611469676b35709b77d85c0260c01b6151a0565b7fc9f72b276a388619c6d185d146697036241880c36654b1a3ffdad07c24038d998260008060405161149d939291906170f6565b60405180910390a15b5050565b60006114c0678a02dc21ebda847160c01b6151a0565b6114d467a8f8e2ae82b1bfea60c01b6151a0565b6114e867531bc87879c2aba260c01b6151a0565b47905090565b600080611505670418babcc31b61f460c01b6151a0565b61151967dac0a865536d8ce360c01b6151a0565b61152d67847df61b0e878c9f60c01b6151a0565b6000600b600086815260200190815260200160002090506115586787a7e7f17595f5b060c01b6151a0565b61156c67dc3adaef45822cfa60c01b6151a0565b60008160090160008673ffffffffffffffffffffffffffffffffffffffff1673ffffffffffffffffffffffffffffffffffffffff168152602001908152602001600020541181600a0160008673ffffffffffffffffffffffffffffffffffffffff1673ffffffffffffffffffffffffffffffffffffffff16815260200190815260200160002060009054906101000a900460ff1692509250509250929050565b61161f66d9964ac4589daa60c01b6151a0565b61163367f849e53e679e2f6360c01b6151a0565b611647670492cacf268a7ee360c01b6151a0565b6000600a60008381526020019081526020016000209050611672671cb2a115d1ca694560c01b6151a0565b61168667ec5dc017c11617c960c01b6151a0565b61169a6773647a51c102e6c460c01b6151a0565b80600101544210156116e1576040517f08c379a00000000000000000000000000000000000000000000000000000000081526004016116d890617179565b60405180910390fd5b6116f567b947e046484a9c8060c01b6151a0565b61170967b8fd0466fc0b85f560c01b6151a0565b61171d67af43e82f8ac6e4d260c01b6151a0565b61173167b9c1da9846cba11a60c01b6151a0565b8060020154421115611778576040517f08c379a000000000000000000000000000000000000000000000000000000000815260040161176f906171e5565b60405180910390fd5b61178c67ffb7a78299500a8760c01b6151a0565b6117a067d773192ce6f72a3a60c01b6151a0565b6117b467e0d06c9b09ed902260c01b6151a0565b6117c867aa9575a6cbafab4460c01b6151a0565b8060040160149054906101000a900460ff161561181a576040517f08c379a00000000000000000000000000000000000000000000000000000000081526004016118119061705a565b60405180910390fd5b61182e67043fb44d351bc50060c01b6151a0565b61184267d2b10dfb429997ec60c01b6151a0565b6118566763db06ca9356312860c01b6151a0565b61186a67ff0f595082be736660c01b6151a0565b806003015434116118b0576040517f08c379a00000000000000000000000000000000000000000000000000000000081526004016118a790617251565b60405180910390fd5b6118c467bd42e76ded517c9460c01b6151a0565b6118d8679046be129f941d1c60c01b6151a0565b6118ec6739d0f34aa48fb39a60c01b6151a0565b600073ffffffffffffffffffffffffffffffffffffffff168160040160009054906101000a900473ffffffffffffffffffffffffffffffffffffffff1673ffffffffffffffffffffffffffffffffffffffff16146119f45761195867ddc01bb2cb3a151b60c01b6151a0565b61196c670bbe24e09fffadf860c01b6151a0565b611980673d66be1f31d3d84b60c01b6151a0565b8060040160009054906101000a900473ffffffffffffffffffffffffffffffffffffffff1673ffffffffffffffffffffffffffffffffffffffff166108fc82600301549081150290604051600060405180830381858888f193505050501580156119ee573d6000803e3d6000fd5b50611a09565b611a0867c19395df66f938e960c01b6151a0565b5b611a1d670a292cc6a4a15c0660c01b6151a0565b348160030181905550611a3a677f8f7c73c9cb833a60c01b6151a0565b338160040160006101000a81548173ffffffffffffffffffffffffffffffffffffffff021916908373ffffffffffffffffffffffffffffffffffffffff160217905550611a916757c3e2fefe45250960c01b6151a0565b611aa567fd2f7b1f521fe41060c01b6151a0565b7f0e54eff26401bf69b81b26f60bd85ef47f5d85275c1d268d84f68d6897431c47823334604051611ad89392919061707a565b60405180910390a15050565b600a6020528060005260406000206000915090508060000154908060010154908060020154908060030154908060040160009054906101000a900473ffffffffffffffffffffffffffffffffffffffff16908060040160149054906101000a900460ff16905086565b6000611b6367b76ebcc218cb0e6960c01b6151a0565b611b7767c05222206bb3187f60c01b6151a0565b611b8b67200870774fc1a17160c01b6151a0565b6005600083815260200190815260200160002060009054906101000a900473ffffffffffffffffffffffffffffffffffffffff169050919050565b66038d7ea4c6800081565b6060611be7670767fc28d6956c5d60c01b6151a0565b611bfb675c27d1304c99402a60c01b6151a0565b611c0f67bd644de631828c5360c01b6151a0565b600b6000838152602001908152602001600020600501805480602002602001604051908101604052809291908181526020018280548015611ca557602002820191906000526020600020905b8160009054906101000a900473ffffffffffffffffffffffffffffffffffffffff1673ffffffffffffffffffffffffffffffffffffffff1681526020019060010190808311611c5b575b50505050509050919050565b6000611cc7678593a51cc056741f60c01b6151a0565b611cdb676cd889e9dae6c03460c01b6151a0565b611cef67f5e0cc811587da0c60c01b6151a0565b600660008373ffffffffffffffffffffffffffffffffffffffff1673ffffffffffffffffffffffffffffffffffffffff168152602001908152602001600020549050919050565b611d4a67c881e45ba521c8b460c01b6151a0565b611d5e671f72264fad87576160c01b6151a0565b611d72670293a35c70a18d0e60c01b6151a0565b6000600b60008481526020019081526020016000209050611d9d670eaf444420c5988d60c01b6151a0565b611db1671425426fdb6b05d660c01b6151a0565b611dc5678f1e9cf4ae49419860c01b6151a0565b600073ffffffffffffffffffffffffffffffffffffffff168160000160009054906101000a900473ffffffffffffffffffffffffffffffffffffffff1673ffffffffffffffffffffffffffffffffffffffff1603611e58576040517f08c379a0000000000000000000000000000000000000000000000000000000008152600401611e4f906172bd565b60405180910390fd5b611e6c67904bb7efbebee16260c01b6151a0565b611e8067fa3258858cb38d3360c01b6151a0565b611e94673d305e65b9e5c97360c01b6151a0565b611ea8672f520f056f3ef13c60c01b6151a0565b8060000160149054906101000a900460ff1615611efa576040517f08c379a0000000000000000000000000000000000000000000000000000000008152600401611ef190617329565b60405180910390fd5b611f0e67170d349d817c650a60c01b6151a0565b611f22670778d4883994402960c01b6151a0565b611f366798d89378f611957a60c01b6151a0565b611f4a67c43e3b357f7cecb560c01b6151a0565b8060000160159054906101000a900460ff1615611f9c576040517f08c379a0000000000000000000000000000000000000000000000000000000008152600401611f9390617395565b60405180910390fd5b611fb0678eb8078c3c9b428260c01b6151a0565b611fc467c7bc5931e2ce29bd60c01b6151a0565b611fd867a5ce4f44c125cd6560c01b6151a0565b611fec673aea5ac74bb5e6db60c01b6151a0565b6000821161202f576040517f08c379a000000000000000000000000000000000000000000000000000000000815260040161202690617401565b60405180910390fd5b61204367ebd0c9516bf3691660c01b6151a0565b61205767e87c7da5a5ec541560c01b6151a0565b61206b675555f49503d996a460c01b6151a0565b60008160000160009054906101000a900473ffffffffffffffffffffffffffffffffffffffff1673ffffffffffffffffffffffffffffffffffffffff166343bc16126040518163ffffffff1660e01b8152600401602060405180830381865afa1580156120dc573d6000803e3d6000fd5b505050506040513d601f19601f820116820180604052508101906121009190617436565b905061211667b8497751cd61d32660c01b6151a0565b61212a6793b80e8c22b5bee960c01b6151a0565b60008260000160009054906101000a900473ffffffffffffffffffffffffffffffffffffffff1673ffffffffffffffffffffffffffffffffffffffff16637150d8ae6040518163ffffffff1660e01b8152600401602060405180830381865afa15801561219b573d6000803e3d6000fd5b505050506040513d601f19601f820116820180604052508101906121bf9190617436565b90506121d567bca9d2a33929e47e60c01b6151a0565b6121e9673913819ae10c620c60c01b6151a0565b6000806000806121f9868661585c565b935093509350935061221567c620a2fcdbe13d9860c01b6151a0565b61222967504e0f0dabc12f0960c01b6151a0565b61223d676857e727e0bac04e60c01b6151a0565b8660010154821015612284576040517f08c379a000000000000000000000000000000000000000000000000000000000815260040161227b906174af565b60405180910390fd5b61229867116d861302e3362c60c01b6151a0565b6122ac67d3dbaa6f6ab0a7df60c01b6151a0565b6122c06725d1a5386a1a194e60c01b6151a0565b6122d4677d20468c3fa735ed60c01b6151a0565b60008111612317576040517f08c379a000000000000000000000000000000000000000000000000000000000815260040161230e9061751b565b60405180910390fd5b61232b67fcea420eee35e2e660c01b6151a0565b61233f670d4fea990074437a60c01b6151a0565b612353672604ecd0f8c2088160c01b6151a0565b60008267ffffffffffffffff81111561236f5761236e61753b565b5b60405190808252806020026020018201604052801561239d5781602001602082028036833780820191505090505b5090506123b467de89eb51711bf55960c01b6151a0565b6123c867c9338c58241abf9e60c01b6151a0565b60005b88600101548110156128d6576123eb67e4a496a1e1a5884560c01b6151a0565b6123ff67ba098e49ba94903360c01b6151a0565b60008344428e858860405160200161241b95949392919061758b565b6040516020818303038152906040528051906020012060001c61243e91906175ea565b90506124546774ff8ecb3388df0e60c01b6151a0565b612468672cd57c508bf0c0f160c01b6151a0565b600061247e67642196fd1d36f4b460c01b6151a0565b612492677f1d3b2f5f20513760c01b6151a0565b60007fffffffffffffffffffffffffffffffffffffffffffffffffffffffffffffffff90506124cb6774730620e7cec86d60c01b6151a0565b6124df6771514dc9cb92f9a860c01b6151a0565b60005b87811015612631576124fe67cdc344b68f47d67f60c01b6151a0565b612512670dc3db335e22f90860c01b6151a0565b8581815181106125255761252461761b565b5b60200260200101511561254b57612546677714a19d33c7467360c01b6151a0565b612624565b61255f67a63cb676bd96a10960c01b6151a0565b61257367b9dfd378ac80b43e60c01b6151a0565b8881815181106125865761258561761b565b5b6020026020010151836125999190616d17565b92506125af67fe8c0f8935ffa33f60c01b6151a0565b6125c3670c8863101369965160c01b6151a0565b8284101561260f576125df67ee99db5c24b119ed60c01b6151a0565b6125f367a056241872e8b11260c01b6151a0565b80915061260a679888ec411579c09360c01b6151a0565b612631565b61262367586cad260160075a60c01b6151a0565b5b80806001019150506124e2565b50612646671e371f79848a900c60c01b6151a0565b61265a6727cd95e97ca715e960c01b6151a0565b61266e6715523b0224933b3d60c01b6151a0565b7fffffffffffffffffffffffffffffffffffffffffffffffffffffffffffffffff81036126d0576040517f08c379a00000000000000000000000000000000000000000000000000000000081526004016126c790617696565b60405180910390fd5b6126e46728ab7511a5baf9c260c01b6151a0565b6126f8673e32d41aa428341760c01b6151a0565b600185828151811061270d5761270c61761b565b5b60200260200101901515908115158152505061273367feaea31da37e6c4260c01b6151a0565b8781815181106127465761274561761b565b5b60200260200101518661275991906176b6565b955061276f67b206a333c2cf03e160c01b6151a0565b61278367fa9e11672dc470e560c01b6151a0565b8b60050189828151811061279a5761279961761b565b5b60200260200101519080600181540180825580915050600190039060005260206000200160009091909190916101000a81548173ffffffffffffffffffffffffffffffffffffffff021916908373ffffffffffffffffffffffffffffffffffffffff16021790555061281667f6062cc9169100e260c01b6151a0565b8781815181106128295761282861761b565b5b60200260200101518c60040160008282546128449190616d17565b9250508190555061285f67b88867cbd898a01960c01b6151a0565b61287367712662f29e9d96a860c01b6151a0565b7f6a547857424ddf8f94427bf9c458627075464dcf7326c192e44abf6aea499fb48e8a83815181106128a8576128a761761b565b5b60200260200101516040516128be929190616f79565b60405180910390a150505080806001019150506123cb565b506128eb678a87d5419dfc4c9e60c01b6151a0565b60018860000160146101000a81548160ff02191690831515021790555061291c67b4f843c523992c4d60c01b6151a0565b42886002018190555061293967ca57d49ab569a28460c01b6151a0565b88426129459190616d17565b886003018190555050505050505050505050565b60015481565b62093a8081565b600080600061297f6771ba09aade56908060c01b6151a0565b612993675efacfbfdc668e5c60c01b6151a0565b6129a767a26fb4edc4ba03ab60c01b6151a0565b6000600b600086815260200190815260200160002090506129d267e5062c7c1c982b0560c01b6151a0565b6129e667b1b8e35b011090c860c01b6151a0565b806006015481600701548260080154935093509350509193909250565b612a17673ede1d909707ce0a60c01b6151a0565b612a2b67aaef3a50b888f8b160c01b6151a0565b612a3f67b02c02d379109d7160c01b6151a0565b6000600b60008481526020019081526020016000209050612a6a67200ec9c16a0b255460c01b6151a0565b612a7e67c2c37f1c408240f260c01b6151a0565b612a9267536eed483d846b6d60c01b6151a0565b600073ffffffffffffffffffffffffffffffffffffffff168160000160009054906101000a900473ffffffffffffffffffffffffffffffffffffffff1673ffffffffffffffffffffffffffffffffffffffff1603612b25576040517f08c379a0000000000000000000000000000000000000000000000000000000008152600401612b1c906172bd565b60405180910390fd5b612b39676be2757cf3d9a6f560c01b6151a0565b612b4d67c7fc9f1dd80583e460c01b6151a0565b612b61675807965b45187c3f60c01b6151a0565b612b7567fbc17c2dff067da060c01b6151a0565b8060000160149054906101000a900460ff16612bc6576040517f08c379a0000000000000000000000000000000000000000000000000000000008152600401612bbd90617736565b60405180910390fd5b612bda676e1913f05ea7ef9960c01b6151a0565b612bee67f333847b4e3807ce60c01b6151a0565b612c0267a5075e4cf1bd4daa60c01b6151a0565b612c16670333361a6ce9635560c01b6151a0565b8060000160159054906101000a900460ff1615612c68576040517f08c379a0000000000000000000000000000000000000000000000000000000008152600401612c5f90617395565b60405180910390fd5b612c7c6728c4b14ba515febf60c01b6151a0565b612c9067424b12d9a5edfe8460c01b6151a0565b612ca4672d20e830b1f8279560c01b6151a0565b612cb867906ecdf205016cd760c01b6151a0565b8060030154421115612cff576040517f08c379a0000000000000000000000000000000000000000000000000000000008152600401612cf6906177a2565b60405180910390fd5b612d1367ecd22f000aeedcaf60c01b6151a0565b612d276715218c36aa91ec9960c01b6151a0565b612d3b676a12a82ea163b21d60c01b6151a0565b612d4f67d94cebb8476ef7ee60c01b6151a0565b60006003811115612d6357612d626167e2565b5b826003811115612d7657612d756167e2565b5b03612db6576040517f08c379a0000000000000000000000000000000000000000000000000000000008152600401612dad9061780e565b60405180910390fd5b612dca67818c9b4a2911158660c01b6151a0565b612dde67e5f117f1724d059660c01b6151a0565b612df267f61af1a4530a6d8660c01b6151a0565b612e0667eca673029ec4d82060c01b6151a0565b612e108333615c47565b612e4f576040517f08c379a0000000000000000000000000000000000000000000000000000000008152600401612e469061787a565b60405180910390fd5b612e63677e5fb791af21f0bd60c01b6151a0565b612e77677684d51c2e9f987860c01b6151a0565b612e8b67c81cc34e12493f4060c01b6151a0565b612e9f6793919ff9cd09830160c01b6151a0565b60008160090160003373ffffffffffffffffffffffffffffffffffffffff1673ffffffffffffffffffffffffffffffffffffffff1681526020019081526020016000205414612f23576040517f08c379a0000000000000000000000000000000000000000000000000000000008152600401612f1a906178e6565b60405180910390fd5b612f3767624a07d29b418dc560c01b6151a0565b612f4b670c18beea6f6f5f5b60c01b6151a0565b612f5f67d4c25fb1a90c74af60c01b6151a0565b6000600660003373ffffffffffffffffffffffffffffffffffffffff1673ffffffffffffffffffffffffffffffffffffffff168152602001908152602001600020549050612fb7679206d426d64724ff60c01b6151a0565b612fcb67312a109e755c5feb60c01b6151a0565b612fdf67aa01df018f77c57a60c01b6151a0565b60008111613022576040517f08c379a000000000000000000000000000000000000000000000000000000000815260040161301990617952565b60405180910390fd5b6130366747345c41ad072eb860c01b6151a0565b61304a675213348abba08a5e60c01b6151a0565b808260090160003373ffffffffffffffffffffffffffffffffffffffff1673ffffffffffffffffffffffffffffffffffffffff168152602001908152602001600020819055506130a4670db43b3676c0420660c01b6151a0565b8282600a0160003373ffffffffffffffffffffffffffffffffffffffff1673ffffffffffffffffffffffffffffffffffffffff16815260200190815260200160002060006101000a81548160ff02191690836003811115613108576131076167e2565b5b0217905550613121672052e364533dc82260c01b6151a0565b613135672455b7a7ea3050b060c01b6151a0565b60016003811115613149576131486167e2565b5b83600381111561315c5761315b6167e2565b5b036131a957613175679ac06cc34e61630860c01b6151a0565b613189679058c3a4dd0ec07060c01b6151a0565b8082600601600082825461319d9190616d17565b925050819055506132f7565b6131bd679db00494adfbb59b60c01b6151a0565b6131d1672027007f614b5b6e60c01b6151a0565b600260038111156131e5576131e46167e2565b5b8360038111156131f8576131f76167e2565b5b036132455761321167291ada74b4b2c3d860c01b6151a0565b61322567a55dcc069ef9076160c01b6151a0565b808260070160008282546132399190616d17565b925050819055506132f6565b6132596735a654b45643b4d260c01b6151a0565b61326d67260dff482a7293c260c01b6151a0565b6003808111156132805761327f6167e2565b5b836003811115613293576132926167e2565b5b036132e0576132ac672e0ae6e00d41732660c01b6151a0565b6132c067c1937ecde4faba4260c01b6151a0565b808260080160008282546132d49190616d17565b925050819055506132f5565b6132f4679db8c6f9b6998a9560c01b6151a0565b5b5b5b61330b67f705b480e0ff567460c01b6151a0565b61331f67d740a049ac3abce460c01b6151a0565b7feba4866100b822f0f391e610e7edfab790b9e8766c0012733c26b2f1858e8dd784338560405161335293929190617972565b60405180910390a150505050565b60005481565b60076020528060005260406000206000915054906101000a900460ff1681565b62093a8081565b60006133a367e17453a05263f1f760c01b6151a0565b6133b76760c4956301a1627e60c01b6151a0565b6133cb673769a53fe2bdbb7460c01b6151a0565b6133df67f5b134437fb7977060c01b6151a0565b600073ffffffffffffffffffffffffffffffffffffffff168473ffffffffffffffffffffffffffffffffffffffff160361344e576040517f08c379a0000000000000000000000000000000000000000000000000000000008152600401613445906179f5565b60405180910390fd5b613462679ecf210e89d081a860c01b6151a0565b61347667359930680c6b837160c01b6151a0565b61348a67246fa198f951068660c01b6151a0565b61349e671b0a308419c4efc760c01b6151a0565b600083116134e1576040517f08c379a00000000000000000000000000000000000000000000000000000000081526004016134d890617a61565b60405180910390fd5b6134f567c231523423f4367f60c01b6151a0565b6135096782b6e6afced27bb060c01b6151a0565b61351d67e6147c4ed0b7e1e460c01b6151a0565b6135316767848ecd6b887b4b60c01b6151a0565b60008211613574576040517f08c379a000000000000000000000000000000000000000000000000000000000815260040161356b90617401565b60405180910390fd5b61358867c9e2aa56bb9bb3a460c01b6151a0565b61359c67e770ed6a521e089760c01b6151a0565b6135b067435170e97bd2ad3260c01b6151a0565b6135c467a7437a424548407260c01b6151a0565b600960008573ffffffffffffffffffffffffffffffffffffffff1673ffffffffffffffffffffffffffffffffffffffff16815260200190815260200160002060009054906101000a900460ff1615613651576040517f08c379a000000000000000000000000000000000000000000000000000000000815260040161364890617af3565b60405180910390fd5b613665678cbabb860e0defdb60c01b6151a0565b613679678f4431fadb9f6b3360c01b6151a0565b6002549050613692677eacd61f7cebd83e60c01b6151a0565b600260008154809291906136a590616f31565b91905055506136be67c33ae01e07ac0dd360c01b6151a0565b6136d2676dfe03d7718f3d2260c01b6151a0565b6000600b600083815260200190815260200160002090506136fd67522131a7d234983f60c01b6151a0565b848160000160006101000a81548173ffffffffffffffffffffffffffffffffffffffff021916908373ffffffffffffffffffffffffffffffffffffffff16021790555061375467e9b2e9c38c9351f060c01b6151a0565b838160010181905550613771674fcfd8512bda341e60c01b6151a0565b60008160000160146101000a81548160ff0219169083151502179055506137a267a3e1b6a4ce3b75c160c01b6151a0565b60008160000160156101000a81548160ff0219169083151502179055506137d3677147d6c331aa43a860c01b6151a0565b600081600201819055506137f1675698390f1e33f1a260c01b6151a0565b6000816003018190555061380f677e85919060a6330660c01b6151a0565b6001600960008773ffffffffffffffffffffffffffffffffffffffff1673ffffffffffffffffffffffffffffffffffffffff16815260200190815260200160002060006101000a81548160ff02191690831515021790555061387b67a11af002b873a71b60c01b6151a0565b61388f67750022862c59dcd660c01b6151a0565b7f8a732f3f7a5aa93d1294e46c8f5206a3f51f1984c7a5e5c817906b2443e5f44d8286866040516138c29392919061707a565b60405180910390a1509392505050565b6138e667a76bc3b9bc998c1960c01b6151a0565b6138fa6717bd0e79ba907c3560c01b6151a0565b61390e67d6f7d78a8088c31360c01b6151a0565b6139226725736fa22b81f86360c01b6151a0565b3373ffffffffffffffffffffffffffffffffffffffff166005600083815260200190815260200160002060009054906101000a900473ffffffffffffffffffffffffffffffffffffffff1673ffffffffffffffffffffffffffffffffffffffff16146139c3576040517f08c379a00000000000000000000000000000000000000000000000000000000081526004016139ba90617b5f565b60405180910390fd5b6139d7670652b7b6a08ca48f60c01b6151a0565b6139eb679c4d32ef3866d1be60c01b6151a0565b6139ff67bf908f51e23001ca60c01b6151a0565b613a136795f02f0a87752d0760c01b6151a0565b600073ffffffffffffffffffffffffffffffffffffffff168273ffffffffffffffffffffffffffffffffffffffff1603613a82576040517f08c379a0000000000000000000000000000000000000000000000000000000008152600401613a7990617bcb565b60405180910390fd5b613a96671380f67c6f7f42a760c01b6151a0565b613aaa67041d0484223b1d4060c01b6151a0565b613abe67dfa49ffbfcdd745660c01b6151a0565b613ac93383836151a3565b5050565b60066020528060005260406000206000915090505481565b613af9672b702c6bb0a6ae0760c01b6151a0565b613b0d674a7f1913daf30c4e60c01b6151a0565b613b2167584a7bcf585a573e60c01b6151a0565b6000600c60008481526020019081526020016000209050613b4c67fa662bce98a5920760c01b6151a0565b613b6067c6c1ab066c35ce5c60c01b6151a0565b613b7467bf21de0da66aecef60c01b6151a0565b600073ffffffffffffffffffffffffffffffffffffffff168160000160009054906101000a900473ffffffffffffffffffffffffffffffffffffffff1673ffffffffffffffffffffffffffffffffffffffff1603613c07576040517f08c379a0000000000000000000000000000000000000000000000000000000008152600401613bfe90616bf0565b60405180910390fd5b613c1b67dce2ac4903b3582560c01b6151a0565b613c2f676368ba59f88d61eb60c01b6151a0565b613c4367afa0f1769a1dada460c01b6151a0565b613c5767a4c9253d3377fb0060c01b6151a0565b8060040154421115613c9e576040517f08c379a0000000000000000000000000000000000000000000000000000000008152600401613c95906177a2565b60405180910390fd5b613cb267a5d98231f891274260c01b6151a0565b613cc667c8880962182fef3b60c01b6151a0565b613cda67faff766eb342657560c01b6151a0565b613cee673fb89f3a50ef68a360c01b6151a0565b8060070160009054906101000a900460ff1615613d40576040517f08c379a0000000000000000000000000000000000000000000000000000000008152600401613d3790616cc8565b60405180910390fd5b613d5467df02a4205fe6632f60c01b6151a0565b613d6867da35eb2d7e6ae8ca60c01b6151a0565b613d7c6797c05fd1f519925760c01b6151a0565b6000600660003373ffffffffffffffffffffffffffffffffffffffff1673ffffffffffffffffffffffffffffffffffffffff168152602001908152602001600020549050613dd467c6aebda656c7d74e60c01b6151a0565b613de8678acaf0cf740e264d60c01b6151a0565b613dfc675ce5aad6f85ae8ae60c01b6151a0565b60008111613e3f576040517f08c379a0000000000000000000000000000000000000000000000000000000008152600401613e3690617952565b60405180910390fd5b613e5367351b5fac03f5f6f360c01b6151a0565b613e6767437de88aa047dc3460c01b6151a0565b613e7b6768a5ebbd63c688a260c01b6151a0565b613e8f679262737876a383e860c01b6151a0565b60008260090160003373ffffffffffffffffffffffffffffffffffffffff1673ffffffffffffffffffffffffffffffffffffffff1681526020019081526020016000205414613f13576040517f08c379a0000000000000000000000000000000000000000000000000000000008152600401613f0a906178e6565b60405180910390fd5b613f27672fc16b5ec48bc7d060c01b6151a0565b613f3b6733ef5bcfe7ad163060c01b6151a0565b808260090160003373ffffffffffffffffffffffffffffffffffffffff1673ffffffffffffffffffffffffffffffffffffffff16815260200190815260200160002081905550613f95672b06bba19cdf1f7760c01b6151a0565b613fa9675b655fe0d5a5cadc60c01b6151a0565b8215613ff757613fc367be054ea9f0690edc60c01b6151a0565b613fd767e2c365bbce31563960c01b6151a0565b80826005016000828254613feb9190616d17565b9250508190555061403b565b61400b6767eac5be55f08a3e60c01b6151a0565b61401f67c163a06faf3ad82b60c01b6151a0565b808260060160008282546140339190616d17565b925050819055505b61404f67c37855129a3651e060c01b6151a0565b61406367bb398fecdba1d47260c01b6151a0565b7f78975aaf742630489badd22949b88ac50eaaea576339ee05440b671a33bfb6a9843385846040516140989493929190617beb565b60405180910390a150505050565b6140ba675c987a4ab88683c860c01b6151a0565b6140ce679e27cf9fc9a4887260c01b6151a0565b6140e267b8ed9f19aed5c7e160c01b6151a0565b6000600b6000838152602001908152602001600020905061410d67e5996923798e6ad860c01b6151a0565b61412167fb5b43ccfb6dd7a760c01b6151a0565b61413567657d63e66d87014360c01b6151a0565b600073ffffffffffffffffffffffffffffffffffffffff168160000160009054906101000a900473ffffffffffffffffffffffffffffffffffffffff1673ffffffffffffffffffffffffffffffffffffffff16036141c8576040517f08c379a00000000000000000000000000000000000000000000000000000000081526004016141bf906172bd565b60405180910390fd5b6141dc676ace44c016743bed60c01b6151a0565b6141f06751a9371bfcb5840f60c01b6151a0565b6142046759596c6c148c5d8960c01b6151a0565b61421867d45a0de442b53c0b60c01b6151a0565b8060000160149054906101000a900460ff16614269576040517f08c379a000000000000000000000000000000000000000000000000000000000815260040161426090617736565b60405180910390fd5b61427d67e27be02ed288152660c01b6151a0565b61429167a042e66d1db7d7f960c01b6151a0565b6142a5673c7965d0184747aa60c01b6151a0565b6142b96754f89dbc07a549d660c01b6151a0565b8060000160159054906101000a900460ff161561430b576040517f08c379a000000000000000000000000000000000000000000000000000000000815260040161430290617c7c565b60405180910390fd5b61431f670fc476a4842159b660c01b6151a0565b614333677bf41cceceda2a7160c01b6151a0565b6143476797374598cfca86c160c01b6151a0565b61435b67b7d4cd44c9f875d860c01b6151a0565b80600301544211801561437e575061437d67c55471b63a394e3a60c01b615e0e565b5b806143aa575061438d82615e19565b80156143a957506143a86757f566b89fe898b860c01b615e0e565b5b5b6143e9576040517f08c379a00000000000000000000000000000000000000000000000000000000081526004016143e090617ce8565b60405180910390fd5b6143fd67ff8ee0f63ca8d7bc60c01b6151a0565b61441167a0aae8fe61c2b63c60c01b6151a0565b6144256795018c93ae824a4960c01b6151a0565b600061443083615ff5565b905061444667e1fac1e10abf800d60c01b6151a0565b60018260000160156101000a81548160ff02191690831515021790555061447767b84037c73273db5c60c01b6151a0565b6000600960008460000160009054906101000a900473ffffffffffffffffffffffffffffffffffffffff1673ffffffffffffffffffffffffffffffffffffffff1673ffffffffffffffffffffffffffffffffffffffff16815260200190815260200160002060006101000a81548160ff021916908315150217905550614507673096c9e3a4118de260c01b6151a0565b61451b67d9e2678d1b87d16c60c01b6151a0565b6001600381111561452f5761452e6167e2565b5b816003811115614542576145416167e2565b5b0361460c5761455b673e9c5ed883efc3d560c01b6151a0565b61456f67d4c7e5d03db3aca760c01b6151a0565b61458367151f210278b30c7060c01b6151a0565b8160000160009054906101000a900473ffffffffffffffffffffffffffffffffffffffff1673ffffffffffffffffffffffffffffffffffffffff16630f6e7fbd6040518163ffffffff1660e01b8152600401600060405180830381600087803b1580156145ef57600080fd5b505af1158015614603573d6000803e3d6000fd5b505050506147e7565b61462067eb9e2f3b2d1fec4860c01b6151a0565b614634674007abd4bc04431460c01b6151a0565b60026003811115614648576146476167e2565b5b81600381111561465b5761465a6167e2565b5b036147255761467467eb37ed17608d0f1c60c01b6151a0565b61468867436b580e616b256460c01b6151a0565b61469c6753db41a221b5393360c01b6151a0565b8160000160009054906101000a900473ffffffffffffffffffffffffffffffffffffffff1673ffffffffffffffffffffffffffffffffffffffff1663e1d295e76040518163ffffffff1660e01b8152600401600060405180830381600087803b15801561470857600080fd5b505af115801561471c573d6000803e3d6000fd5b505050506147e6565b6147396708303ab3c1d7160f60c01b6151a0565b61474d67783b2c65257b290c60c01b6151a0565b61476167edef3ecbef83a41160c01b6151a0565b8160000160009054906101000a900473ffffffffffffffffffffffffffffffffffffffff1673ffffffffffffffffffffffffffffffffffffffff166337f89bdf6040518163ffffffff1660e01b8152600401600060405180830381600087803b1580156147cd57600080fd5b505af11580156147e1573d6000803e3d6000fd5b505050505b5b6147fb6799b4cf9e6bd4a85260c01b6151a0565b61480f6785f2391b6ab7681f60c01b6151a0565b60005b82600501805490508110156149b257614835675db4da7c2586a96060c01b6151a0565b61484967ceb5d6505415cf7c60c01b6151a0565b60008360050182815481106148615761486061761b565b5b9060005260206000200160009054906101000a900473ffffffffffffffffffffffffffffffffffffffff1690506148a2679185d27304e9712360c01b6151a0565b6148b6671600772c88e2bb3660c01b6151a0565b60008460090160008373ffffffffffffffffffffffffffffffffffffffff1673ffffffffffffffffffffffffffffffffffffffff16815260200190815260200160002054111561498f57614914679fb7b15f34e31f7360c01b6151a0565b614928676ac07f57070c8c0f60c01b6151a0565b61493c676c9ed5340151ff4860c01b6151a0565b8073ffffffffffffffffffffffffffffffffffffffff166108fc66038d7ea4c680009081150290604051600060405180830381858888f19350505050158015614989573d6000803e3d6000fd5b506149a4565b6149a3679f87c3bf2ca387b360c01b6151a0565b5b508080600101915050614812565b506149c76764f965444031ec1360c01b6151a0565b6149db6717af73e0e6b103a060c01b6151a0565b7f2ffcfee146bc0d5ff304c6b65111a0d485af9456dc64eee7d66ebdcc90b223ea8382604051614a0c929190617d08565b60405180910390a1505050565b6000806000806000806000806000614a3b67d3f25dfe8701592b60c01b6151a0565b614a4f679788ad61725be5d260c01b6151a0565b614a636710d4532c8ee3324560c01b6151a0565b6000600c60008c81526020019081526020016000209050614a8e678a8e0ece8d143d0c60c01b6151a0565b614aa267b38edbfc6061349060c01b6151a0565b614ab66756bb2f312945255f60c01b6151a0565b600073ffffffffffffffffffffffffffffffffffffffff168160000160009054906101000a900473ffffffffffffffffffffffffffffffffffffffff1673ffffffffffffffffffffffffffffffffffffffff1603614b49576040517f08c379a0000000000000000000000000000000000000000000000000000000008152600401614b4090616bf0565b60405180910390fd5b614b5d67d94c7a397402d0aa60c01b6151a0565b614b7167219934162ebde49360c01b6151a0565b8060000160009054906101000a900473ffffffffffffffffffffffffffffffffffffffff169950614bac670f5d2b33a79fd5a960c01b6151a0565b8060010160009054906101000a900473ffffffffffffffffffffffffffffffffffffffff169850614be7673580d43dcfdfeb8360c01b6151a0565b80600201549750614c02675d3a65c1f134041860c01b6151a0565b80600301549650614c1d674bcfa2b6ef91176e60c01b6151a0565b80600401549550614c386768dd2f2b062f55b560c01b6151a0565b80600501549450614c536793158b95a335e55760c01b6151a0565b80600601549350614c6e67574b828198b1df1c60c01b6151a0565b8060070160009054906101000a900460ff169250614c96678e42c9e21f59364360c01b6151a0565b80600801549150509193959799909294969850565b60096020528060005260406000206000915054906101000a900460ff1681565b6000614ce167ea12848757949bd860c01b6151a0565b614cf56733963aeda6f2b13860c01b6151a0565b614d0967ac1bc2b0fa464a9c60c01b6151a0565b614d1d67e07c1d7e2d30c4ed60c01b6151a0565b6000600660003373ffffffffffffffffffffffffffffffffffffffff1673ffffffffffffffffffffffffffffffffffffffff1681526020019081526020016000205411614d9f576040517f08c379a0000000000000000000000000000000000000000000000000000000008152600401614d9690617d7d565b60405180910390fd5b614db3673e12eab6b56938bd60c01b6151a0565b614dc767ec3741aa0bb4a5fb60c01b6151a0565b614ddb6754832b70f8282daf60c01b6151a0565b614def672f925cf141c6a7ef60c01b6151a0565b600073ffffffffffffffffffffffffffffffffffffffff168373ffffffffffffffffffffffffffffffffffffffff1603614e5e576040517f08c379a0000000000000000000000000000000000000000000000000000000008152600401614e5590617bcb565b60405180910390fd5b614e726720d22af3727b0b8860c01b6151a0565b614e8667b56246a14d197a7560c01b6151a0565b614e9a672880d682abc32f2160c01b6151a0565b614eae67e6211d9c62a747de60c01b6151a0565b60008211614ef1576040517f08c379a0000000000000000000000000000000000000000000000000000000008152600401614ee890617de9565b60405180910390fd5b614f05672a53ce51284b74ba60c01b6151a0565b614f1967342179dab224e4fa60c01b6151a0565b614f2d6745271748c6fd863b60c01b6151a0565b60006004549050614f48672c7e466078466e7b60c01b6151a0565b60046000815480929190614f5b90616f31565b9190505550614f7467a356102eeeee7c5c60c01b6151a0565b614f8867d0048a669648ba7660c01b6151a0565b6000600c60008381526020019081526020016000209050614fb36732d8359ab6d21fbb60c01b6151a0565b338160000160006101000a81548173ffffffffffffffffffffffffffffffffffffffff021916908373ffffffffffffffffffffffffffffffffffffffff16021790555061500a67a4dcc101609b369060c01b6151a0565b848160010160006101000a81548173ffffffffffffffffffffffffffffffffffffffff021916908373ffffffffffffffffffffffffffffffffffffffff16021790555061506167f77cedcfffe1ea3760c01b6151a0565b83816002018190555061507e677e450575683f20fd60c01b6151a0565b42816003018190555061509b679bd457fba4d8e44c60c01b6151a0565b62093a80426150aa9190616d17565b81600401819055506150c667245d75f525811a0960c01b6151a0565b60008160070160006101000a81548160ff0219169083151502179055506150f767723e52761f6af35860c01b6151a0565b60035481600801819055506151166706a5cf55cb773c8460c01b6151a0565b61512a6718f91c4d4718f26260c01b6151a0565b7f0498efc40851dd66b079b44ac06f0291de83b764e409f0e2727693d9a48a39f8823387878560040154604051615165959493929190617e09565b60405180910390a1615181677aeaa0ccca9ae82860c01b6151a0565b61519567cde260b3728b54ac60c01b6151a0565b819250505092915050565b50565b6151b7673722f88f092c6aff60c01b6151a0565b6151cb6768de67cdabeeda2560c01b6151a0565b6151df673f4278ee9f1342d960c01b6151a0565b600073ffffffffffffffffffffffffffffffffffffffff168373ffffffffffffffffffffffffffffffffffffffff16146154575761522767f7eb7bf7718c45db60c01b6151a0565b61523b67531e9a525ecfcbf460c01b6151a0565b61524f6782f73e69cefed45c60c01b6151a0565b61526367eff3491b6e80c32c60c01b6151a0565b8273ffffffffffffffffffffffffffffffffffffffff166005600083815260200190815260200160002060009054906101000a900473ffffffffffffffffffffffffffffffffffffffff1673ffffffffffffffffffffffffffffffffffffffff1614615304576040517f08c379a00000000000000000000000000000000000000000000000000000000081526004016152fb90617ea8565b60405180910390fd5b615318673b4cd3349d01616f60c01b6151a0565b61532c678041245c17a90a7960c01b6151a0565b61534067df618423f707b15360c01b6151a0565b615353660428904603300760c01b6151a0565b6000600660008573ffffffffffffffffffffffffffffffffffffffff1673ffffffffffffffffffffffffffffffffffffffff16815260200190815260200160002054116153d5576040517f08c379a00000000000000000000000000000000000000000000000000000000081526004016153cc90617f14565b60405180910390fd5b6153e967e3744c8905b7c4a060c01b6151a0565b6153fd6780866542c4b6d2fc60c01b6151a0565b600660008473ffffffffffffffffffffffffffffffffffffffff1673ffffffffffffffffffffffffffffffffffffffff168152602001908152602001600020600081548092919061544d90617f34565b9190505550615498565b61546b670100960358fa10bd60c01b6151a0565b61547f67f23d17221ad6f03060c01b6151a0565b6003600081548092919061549290616f31565b91905055505b6154ac67560c890fec9cd7c860c01b6151a0565b6154c067d30f9643793ae50a60c01b6151a0565b6154c9826163d8565b6154dd670549a8c6dcc2879c60c01b6151a0565b600660008373ffffffffffffffffffffffffffffffffffffffff1673ffffffffffffffffffffffffffffffffffffffff168152602001908152602001600020600081548092919061552d90616f31565b919050555061554667f48c459b24e9745d60c01b6151a0565b816005600083815260200190815260200160002060006101000a81548173ffffffffffffffffffffffffffffffffffffffff021916908373ffffffffffffffffffffffffffffffffffffffff160217905550505050565b6155b16796230f5d4a36124460c01b6151a0565b6155c567b141858b1247480a60c01b6151a0565b6155d967d8b7e1c3b729a9d160c01b6151a0565b6155ed672376df6f9e91b92d60c01b6151a0565b3073ffffffffffffffffffffffffffffffffffffffff166005600083815260200190815260200160002060009054906101000a900473ffffffffffffffffffffffffffffffffffffffff1673ffffffffffffffffffffffffffffffffffffffff161461568e576040517f08c379a000000000000000000000000000000000000000000000000000000000815260040161568590617fa9565b60405180910390fd5b6156a267a27e1980b99ac64e60c01b6151a0565b6156b667693c5bd843d407f760c01b6151a0565b6156ca67e204e75cb4701f2960c01b6151a0565b6000600a600083815260200190815260200160002090506156f56716bf75b0551dd3f660c01b6151a0565b81816000018190555061571267e969c76ae2a6686a60c01b6151a0565b42816001018190555061572f67af87fae3cd58948b60c01b6151a0565b62093a804261573e9190616d17565b816002018190555061575a673370ede9a06ffed660c01b6151a0565b6000816003018190555061577867a66d079ab4118cc160c01b6151a0565b60008160040160006101000a81548173ffffffffffffffffffffffffffffffffffffffff021916908373ffffffffffffffffffffffffffffffffffffffff1602179055506157d067a53a185e537e9a6b60c01b6151a0565b60008160040160146101000a81548160ff02191690831515021790555061580167e615b88324626c6860c01b6151a0565b61581567ce0bba5a25a5e25760c01b6151a0565b7f44c53be110c6aa83aa83cd02e351ed172359268272ee1b5d31c0fe48db35c6c7828260010154836002015460405161585093929190616950565b60405180910390a15050565b60608060008061587667efc6eca67e7741ca60c01b6151a0565b61588a67ca6c6845f9db80f060c01b6151a0565b60088054905067ffffffffffffffff8111156158a9576158a861753b565b5b6040519080825280602002602001820160405280156158d75781602001602082028036833780820191505090505b5093506158ee6749bf59c7a268597760c01b6151a0565b60088054905067ffffffffffffffff81111561590d5761590c61753b565b5b60405190808252806020026020018201604052801561593b5781602001602082028036833780820191505090505b50925061595267f9762a5e48766c3c60c01b6151a0565b61596667b175033631ca969160c01b6151a0565b60005b600880549050811015615c3d5761598a67adae49caf677ac9060c01b6151a0565b61599e670c421787a4ca2f9c60c01b6151a0565b6000600882815481106159b4576159b361761b565b5b9060005260206000200160009054906101000a900473ffffffffffffffffffffffffffffffffffffffff1690506159f567f9cc818a1135f53260c01b6151a0565b615a09676b463b262a2793ac60c01b6151a0565b6000600660008373ffffffffffffffffffffffffffffffffffffffff1673ffffffffffffffffffffffffffffffffffffffff168152602001908152602001600020549050615a6167d56139ae2145468f60c01b6151a0565b615a75671d0e75469d5aa70360c01b6151a0565b3073ffffffffffffffffffffffffffffffffffffffff168273ffffffffffffffffffffffffffffffffffffffff1614158015615add57508873ffffffffffffffffffffffffffffffffffffffff168273ffffffffffffffffffffffffffffffffffffffff1614155b8015615b1557508773ffffffffffffffffffffffffffffffffffffffff168273ffffffffffffffffffffffffffffffffffffffff1614155b8015615b215750600081115b15615c1957615b3a672d580f7d7c82768360c01b6151a0565b615b4e672b94be5060e197d760c01b6151a0565b81878681518110615b6257615b6161761b565b5b602002602001019073ffffffffffffffffffffffffffffffffffffffff16908173ffffffffffffffffffffffffffffffffffffffff1681525050615bb067452b5d73086adc6760c01b6151a0565b80868681518110615bc457615bc361761b565b5b602002602001018181525050615be46701dfacdb4273b82360c01b6151a0565b8084615bf09190616d17565b9350615c06678ec305bdd7c8ebdd60c01b6151a0565b8480615c1190616f31565b955050615c2e565b615c2d677a45d1281138a50860c01b6151a0565b5b50508080600101915050615969565b5092959194509250565b6000615c5d678d1a50bde5cf2c9b60c01b6151a0565b615c7167bd4b0cda51745e8160c01b6151a0565b615c8567389371656c70928660c01b6151a0565b6000600b60008581526020019081526020016000209050615cb067874715d254d3d62360c01b6151a0565b615cc46766f4f27a8977e50660c01b6151a0565b60005b8160050180549050811015615dd957615cea6769c8aaa4d0febf1360c01b6151a0565b615cfe670adb930532194dec60c01b6151a0565b8373ffffffffffffffffffffffffffffffffffffffff16826005018281548110615d2b57615d2a61761b565b5b9060005260206000200160009054906101000a900473ffffffffffffffffffffffffffffffffffffffff1673ffffffffffffffffffffffffffffffffffffffff1603615db857615d85673ac49e3da6cac17d60c01b6151a0565b615d9967ee0b7530aceb05c960c01b6151a0565b615dad670c7bb46c3ebb773060c01b6151a0565b600192505050615e08565b615dcc673a61231eb328683c60c01b6151a0565b8080600101915050615cc7565b50615dee676df5b40a06c9fa1b60c01b6151a0565b615e02679a0d219a15490d6f60c01b6151a0565b60009150505b92915050565b600060019050919050565b6000615e2f6786c901b6df766a4460c01b6151a0565b615e4367062b03943922a6d960c01b6151a0565b615e576735e47db1a683cbb260c01b6151a0565b6000600b60008481526020019081526020016000209050615e82677c80c456f801792760c01b6151a0565b615e966794d809d6e581e1d960c01b6151a0565b60005b8160050180549050811015615fc157615ebc6768701a0fa29ebd6f60c01b6151a0565b615ed067e05194435b754be360c01b6151a0565b6000826009016000846005018481548110615eee57615eed61761b565b5b9060005260206000200160009054906101000a900473ffffffffffffffffffffffffffffffffffffffff1673ffffffffffffffffffffffffffffffffffffffff1673ffffffffffffffffffffffffffffffffffffffff1681526020019081526020016000205403615fa057615f6d67dc7f9be529b31f7360c01b6151a0565b615f8167e9141df34ae1923a60c01b6151a0565b615f956782b079e4cef2b7d060c01b6151a0565b600092505050615ff0565b615fb467ba5c25cf9086da2b60c01b6151a0565b8080600101915050615e99565b50615fd66761863c724c5dd02560c01b6151a0565b615fea67a0139d7b1d89e12960c01b6151a0565b60019150505b919050565b600061600b677767b8d01d6bfe2960c01b6151a0565b61601f670c9a093954d93acc60c01b6151a0565b616033672b4c1e66750680c160c01b6151a0565b6000600b6000848152602001908152602001600020905061605e673dd96eef0c4735b660c01b6151a0565b61607267c316250f736beec260c01b6151a0565b60008160060154905061608f67ea6a16890207394b60c01b6151a0565b6160a36780e90fb3f6040a2b60c01b6151a0565b6000826007015490506160c0676956cdb3f0e3646060c01b6151a0565b6160d467d181169815abbee260c01b6151a0565b6000836008015490506160f167838baa593425e73960c01b6151a0565b61610567f414b3a42848ee7560c01b6151a0565b60008183856161149190616d17565b61611e9190616d17565b9050616134674f05ba5c235d9f3360c01b6151a0565b61614867cb20e7398167fe8760c01b6151a0565b6000810361619a57616164679da37a9f202a642c60c01b6151a0565b6161786770bd33e895be76a360c01b6151a0565b61618c676a3d7da9ac050f0260c01b6151a0565b6003955050505050506163d3565b6161ae673590de97665d4e8460c01b6151a0565b6161c2672083a1be0153760c60c01b6151a0565b6161d6678059a3c0d4888bb560c01b6151a0565b600060646032836161e79190616db7565b6161f19190616e28565b9050616207675cc562d807e711da60c01b6151a0565b61621b6773d8df3068b4c4f060c01b6151a0565b8085111561626e5761623767854dc810158fcbc160c01b6151a0565b61624b67ff2b90ff55343b8260c01b6151a0565b61625f67480a90dbe54eee2960c01b6151a0565b600196505050505050506163d3565b61628267cadf3a281fd27d6960c01b6151a0565b616296671e11d72f0d368e5060c01b6151a0565b6162aa67c94f0f3b0077f4f960c01b6151a0565b808411156162fd576162c66746d0983acaba41dd60c01b6151a0565b6162da67051869ba354f6bff60c01b6151a0565b6162ee670310e7b88f267fc760c01b6151a0565b600296505050505050506163d3565b616311676cb302418504ef0d60c01b6151a0565b61632567dccf08a8e906d51b60c01b6151a0565b616339678a2d27000936c93760c01b6151a0565b8083111561638c5761635567b7aa03a9de57da4860c01b6151a0565b61636967ebb643e6d2c256f360c01b6151a0565b61637d67faadbc0d7e187c6c60c01b6151a0565b600396505050505050506163d3565b6163a067fe8289c55a57991160c01b6151a0565b6163b467d3f9c134ce43531060c01b6151a0565b6163c8673d33bcbaa29795ed60c01b6151a0565b600396505050505050505b919050565b6163ec6743458040add416e660c01b6151a0565b6164006770e39d2d5ccdbcb960c01b6151a0565b61641467e2a4905b1b834e6360c01b6151a0565b600760008273ffffffffffffffffffffffffffffffffffffffff1673ffffffffffffffffffffffffffffffffffffffff16815260200190815260200160002060009054906101000a900460ff1661657557616479670680def8efa2cd1960c01b6151a0565b61648d6704a9080f591ca93560c01b6151a0565b6001600760008373ffffffffffffffffffffffffffffffffffffffff1673ffffffffffffffffffffffffffffffffffffffff16815260200190815260200160002060006101000a81548160ff0219169083151502179055506164f967a68017d78001709860c01b6151a0565b61650d67ec4838707a39f17c60c01b6151a0565b6008819080600181540180825580915050600190039060005260206000200160009091909190916101000a81548173ffffffffffffffffffffffffffffffffffffffff021916908373ffffffffffffffffffffffffffffffffffffffff16021790555061658a565b616589670534f170c55bbbda60c01b6151a0565b5b50565b600080fd5b6000819050919050565b6165a581616592565b81146165b057600080fd5b50565b6000813590506165c28161659c565b92915050565b6000602082840312156165de576165dd61658d565b5b60006165ec848285016165b3565b91505092915050565b6165fe81616592565b82525050565b600060208201905061661960008301846165f5565b92915050565b600073ffffffffffffffffffffffffffffffffffffffff82169050919050565b600061664a8261661f565b9050919050565b61665a8161663f565b82525050565b60006020820190506166756000830184616651565b92915050565b600081519050919050565b600082825260208201905092915050565b6000819050602082019050919050565b6166b08161663f565b82525050565b60006166c283836166a7565b60208301905092915050565b6000602082019050919050565b60006166e68261667b565b6166f08185616686565b93506166fb83616697565b8060005b8381101561672c57815161671388826166b6565b975061671e836166ce565b9250506001810190506166ff565b5085935050505092915050565b6000602082019050818103600083015261675381846166db565b905092915050565b6167648161663f565b811461676f57600080fd5b50565b6000813590506167818161675b565b92915050565b6000806040838503121561679e5761679d61658d565b5b60006167ac858286016165b3565b92505060206167bd85828601616772565b9150509250929050565b60008115159050919050565b6167dc816167c7565b82525050565b7f4e487b7100000000000000000000000000000000000000000000000000000000600052602160045260246000fd5b60048110616822576168216167e2565b5b50565b600081905061683382616811565b919050565b600061684382616825565b9050919050565b61685381616838565b82525050565b600060408201905061686e60008301856167d3565b61687b602083018461684a565b9392505050565b600060c08201905061689760008301896165f5565b6168a460208301886165f5565b6168b160408301876165f5565b6168be60608301866165f5565b6168cb6080830185616651565b6168d860a08301846167d3565b979650505050505050565b6000602082840312156168f9576168f861658d565b5b600061690784828501616772565b91505092915050565b600080604083850312156169275761692661658d565b5b6000616935858286016165b3565b9250506020616946858286016165b3565b9150509250929050565b600060608201905061696560008301866165f5565b61697260208301856165f5565b61697f60408301846165f5565b949350505050565b6004811061699457600080fd5b50565b6000813590506169a681616987565b92915050565b600080604083850312156169c3576169c261658d565b5b60006169d1858286016165b3565b92505060206169e285828601616997565b9150509250929050565b6000602082019050616a0160008301846167d3565b92915050565b600080600060608486031215616a2057616a1f61658d565b5b6000616a2e86828701616772565b9350506020616a3f868287016165b3565b9250506040616a50868287016165b3565b9150509250925092565b60008060408385031215616a7157616a7061658d565b5b6000616a7f85828601616772565b9250506020616a90858286016165b3565b9150509250929050565b616aa3816167c7565b8114616aae57600080fd5b50565b600081359050616ac081616a9a565b92915050565b60008060408385031215616add57616adc61658d565b5b6000616aeb858286016165b3565b9250506020616afc85828601616ab1565b9150509250929050565b600061012082019050616b1c600083018c616651565b616b29602083018b616651565b616b36604083018a6165f5565b616b4360608301896165f5565b616b5060808301886165f5565b616b5d60a08301876165f5565b616b6a60c08301866165f5565b616b7760e08301856167d3565b616b856101008301846165f5565b9a9950505050505050505050565b600082825260208201905092915050565b7f50726f706f73616c20646f6573206e6f74206578697374000000000000000000600082015250565b6000616bda601783616b93565b9150616be582616ba4565b602082019050919050565b60006020820190508181036000830152616c0981616bcd565b9050919050565b7f566f74696e67206e6f7420656e64656400000000000000000000000000000000600082015250565b6000616c46601083616b93565b9150616c5182616c10565b602082019050919050565b60006020820190508181036000830152616c7581616c39565b9050919050565b7f50726f706f73616c20616c726561647920657865637574656400000000000000600082015250565b6000616cb2601983616b93565b9150616cbd82616c7c565b602082019050919050565b60006020820190508181036000830152616ce181616ca5565b9050919050565b7f4e487b7100000000000000000000000000000000000000000000000000000000600052601160045260246000fd5b6000616d2282616592565b9150616d2d83616592565b9250828201905080821115616d4557616d44616ce8565b5b92915050565b7f4e6f20766f746573206361737400000000000000000000000000000000000000600082015250565b6000616d81600d83616b93565b9150616d8c82616d4b565b602082019050919050565b60006020820190508181036000830152616db081616d74565b9050919050565b6000616dc282616592565b9150616dcd83616592565b9250828202616ddb81616592565b91508282048414831517616df257616df1616ce8565b5b5092915050565b7f4e487b7100000000000000000000000000000000000000000000000000000000600052601260045260246000fd5b6000616e3382616592565b9150616e3e83616592565b925082616e4e57616e4d616df9565b5b828204905092915050565b7f496e73756666696369656e7420737570706f7274000000000000000000000000600082015250565b6000616e8f601483616b93565b9150616e9a82616e59565b602082019050919050565b60006020820190508181036000830152616ebe81616e82565b9050919050565b7f4d696e7420696e74657276616c206e6f74207265616368656400000000000000600082015250565b6000616efb601983616b93565b9150616f0682616ec5565b602082019050919050565b60006020820190508181036000830152616f2a81616eee565b9050919050565b6000616f3c82616592565b91507fffffffffffffffffffffffffffffffffffffffffffffffffffffffffffffffff8203616f6e57616f6d616ce8565b5b600182019050919050565b6000604082019050616f8e60008301856165f5565b616f9b6020830184616651565b9392505050565b7f41756374696f6e207374696c6c206f6e676f696e670000000000000000000000600082015250565b6000616fd8601583616b93565b9150616fe382616fa2565b602082019050919050565b6000602082019050818103600083015261700781616fcb565b9050919050565b7f41756374696f6e20616c726561647920736574746c6564000000000000000000600082015250565b6000617044601783616b93565b915061704f8261700e565b602082019050919050565b6000602082019050818103600083015261707381617037565b9050919050565b600060608201905061708f60008301866165f5565b61709c6020830185616651565b6170a960408301846165f5565b949350505050565b6000819050919050565b6000819050919050565b60006170e06170db6170d6846170b1565b6170bb565b616592565b9050919050565b6170f0816170c5565b82525050565b600060608201905061710b60008301866165f5565b6171186020830185616651565b61712560408301846170e7565b949350505050565b7f41756374696f6e206e6f74207374617274656400000000000000000000000000600082015250565b6000617163601383616b93565b915061716e8261712d565b602082019050919050565b6000602082019050818103600083015261719281617156565b9050919050565b7f41756374696f6e20656e64656400000000000000000000000000000000000000600082015250565b60006171cf600d83616b93565b91506171da82617199565b602082019050919050565b600060208201905081810360008301526171fe816171c2565b9050919050565b7f42696420746f6f206c6f77000000000000000000000000000000000000000000600082015250565b600061723b600b83616b93565b915061724682617205565b602082019050919050565b6000602082019050818103600083015261726a8161722e565b9050919050565b7f4469737075746520646f6573206e6f7420657869737400000000000000000000600082015250565b60006172a7601683616b93565b91506172b282617271565b602082019050919050565b600060208201905081810360008301526172d68161729a565b9050919050565b7f50616e656c20616c72656164792073656c656374656400000000000000000000600082015250565b6000617313601683616b93565b915061731e826172dd565b602082019050919050565b6000602082019050818103600083015261734281617306565b9050919050565b7f4469737075746520616c7265616479207265736f6c7665640000000000000000600082015250565b600061737f601883616b93565b915061738a82617349565b602082019050919050565b600060208201905081810360008301526173ae81617372565b9050919050565b7f566f74696e67206475726174696f6e206d757374206265203e20300000000000600082015250565b60006173eb601b83616b93565b91506173f6826173b5565b602082019050919050565b6000602082019050818103600083015261741a816173de565b9050919050565b6000815190506174308161675b565b92915050565b60006020828403121561744c5761744b61658d565b5b600061745a84828501617421565b91505092915050565b7f4e6f7420656e6f75676820656c696769626c6520686f6c646572730000000000600082015250565b6000617499601b83616b93565b91506174a482617463565b602082019050919050565b600060208201905081810360008301526174c88161748c565b9050919050565b7f4e6f20656c696769626c6520686f6c6465727300000000000000000000000000600082015250565b6000617505601383616b93565b9150617510826174cf565b602082019050919050565b60006020820190508181036000830152617534816174f8565b9050919050565b7f4e487b7100000000000000000000000000000000000000000000000000000000600052604160045260246000fd5b6000819050919050565b61758561758082616592565b61756a565b82525050565b60006175978288617574565b6020820191506175a78287617574565b6020820191506175b78286617574565b6020820191506175c78285617574565b6020820191506175d78284617574565b6020820191508190509695505050505050565b60006175f582616592565b915061760083616592565b9250826176105761760f616df9565b5b828206905092915050565b7f4e487b7100000000000000000000000000000000000000000000000000000000600052603260045260246000fd5b7f4a75726f722073656c656374696f6e206661696c656400000000000000000000600082015250565b6000617680601683616b93565b915061768b8261764a565b602082019050919050565b600060208201905081810360008301526176af81617673565b9050919050565b60006176c182616592565b91506176cc83616592565b92508282039050818111156176e4576176e3616ce8565b5b92915050565b7f50616e656c206e6f742073656c65637465640000000000000000000000000000600082015250565b6000617720601283616b93565b915061772b826176ea565b602082019050919050565b6000602082019050818103600083015261774f81617713565b9050919050565b7f566f74696e6720656e6465640000000000000000000000000000000000000000600082015250565b600061778c600c83616b93565b915061779782617756565b602082019050919050565b600060208201905081810360008301526177bb8161777f565b9050919050565b7f496e76616c696420766f74650000000000000000000000000000000000000000600082015250565b60006177f8600c83616b93565b9150617803826177c2565b602082019050919050565b60006020820190508181036000830152617827816177eb565b9050919050565b7f4e6f742073656c6563746564206a75726f720000000000000000000000000000600082015250565b6000617864601283616b93565b915061786f8261782e565b602082019050919050565b6000602082019050818103600083015261789381617857565b9050919050565b7f416c726561647920766f74656400000000000000000000000000000000000000600082015250565b60006178d0600d83616b93565b91506178db8261789a565b602082019050919050565b600060208201905081810360008301526178ff816178c3565b9050919050565b7f4e6f20766f74696e6720706f7765720000000000000000000000000000000000600082015250565b600061793c600f83616b93565b915061794782617906565b602082019050919050565b6000602082019050818103600083015261796b8161792f565b9050919050565b600060608201905061798760008301866165f5565b6179946020830185616651565b6179a1604083018461684a565b949350505050565b7f496e76616c696420636f6d6d697373696f6e0000000000000000000000000000600082015250565b60006179df601283616b93565b91506179ea826179a9565b602082019050919050565b60006020820190508181036000830152617a0e816179d2565b9050919050565b7f50616e656c2073697a65206d757374206265203e203000000000000000000000600082015250565b6000617a4b601683616b93565b9150617a5682617a15565b602082019050919050565b60006020820190508181036000830152617a7a81617a3e565b9050919050565b7f436f6d6d697373696f6e20616c7265616479206861732061637469766520646960008201527f7370757465000000000000000000000000000000000000000000000000000000602082015250565b6000617add602583616b93565b9150617ae882617a81565b604082019050919050565b60006020820190508181036000830152617b0c81617ad0565b9050919050565b7f4e6f74206f776e65720000000000000000000000000000000000000000000000600082015250565b6000617b49600983616b93565b9150617b5482617b13565b602082019050919050565b60006020820190508181036000830152617b7881617b3c565b9050919050565b7f496e76616c696420726563697069656e74000000000000000000000000000000600082015250565b6000617bb5601183616b93565b9150617bc082617b7f565b602082019050919050565b60006020820190508181036000830152617be481617ba8565b9050919050565b6000608082019050617c0060008301876165f5565b617c0d6020830186616651565b617c1a60408301856167d3565b617c2760608301846165f5565b95945050505050565b7f416c7265616479207265736f6c76656400000000000000000000000000000000600082015250565b6000617c66601083616b93565b9150617c7182617c30565b602082019050919050565b60006020820190508181036000830152617c9581617c59565b9050919050565b7f566f74696e67207374696c6c2061637469766500000000000000000000000000600082015250565b6000617cd2601383616b93565b9150617cdd82617c9c565b602082019050919050565b60006020820190508181036000830152617d0181617cc5565b9050919050565b6000604082019050617d1d60008301856165f5565b617d2a602083018461684a565b9392505050565b7f4e6f7420612044414f206d656d62657200000000000000000000000000000000600082015250565b6000617d67601083616b93565b9150617d7282617d31565b602082019050919050565b60006020820190508181036000830152617d9681617d5a565b9050919050565b7f416d6f756e74206d75737420626520706f736974697665000000000000000000600082015250565b6000617dd3601783616b93565b9150617dde82617d9d565b602082019050919050565b60006020820190508181036000830152617e0281617dc6565b9050919050565b600060a082019050617e1e60008301886165f5565b617e2b6020830187616651565b617e386040830186616651565b617e4560608301856165f5565b617e5260808301846165f5565b9695505050505050565b7f496e636f7272656374206f776e65720000000000000000000000000000000000600082015250565b6000617e92600f83616b93565b9150617e9d82617e5c565b602082019050919050565b60006020820190508181036000830152617ec181617e85565b9050919050565b7f496e73756666696369656e7420686f6c6465722062616c616e63650000000000600082015250565b6000617efe601b83616b93565b9150617f0982617ec8565b602082019050919050565b60006020820190508181036000830152617f2d81617ef1565b9050919050565b6000617f3f82616592565b915060008203617f5257617f51616ce8565b5b600182039050919050565b7f546f6b656e206e6f74206f776e656420627920636f6e74726163740000000000600082015250565b6000617f93601b83616b93565b9150617f9e82617f5d565b602082019050919050565b60006020820190508181036000830152617fc281617f86565b905091905056fea26469706673582212201fb51caabcea65a04e88a79616477d9f405b4abf3361e749747cf28af046ffbe64736f6c634300081c0033",
  "linkReferences": {},
  "deployedLinkReferences": {}
}