{
  "_format": "hh-sol-artifact-1",
  "contractName": "EvilJuror",
  "sourceName": "contracts/test/EvilJuror.sol",
  "abi": [
    {
      "inputs": [
        {
          "internalType": "address",
          "name": "dao",
          "type": "address"
        }
      ],
      "stateMutability": "payable",
      "type": "constructor"
    },
    {
      "inputs": [
        {
          "internalType": "uint256",
          "name": "id",
          "type": "uint256"
        }
      ],
      "name": "justvote",
      "outputs": [],
      "stateMutability": "nonpayable",
      "type": "function"
    },
    {
      "inputs": [
        {
          "internalType": "uint256",
          "name": "val",
          "type": "uint256"
        }
      ],
      "name": "makebid",
      "outputs": [],
      "stateMutability": "payable",
      "type": "function"
    },
    {
      "inputs": [
        {
          "internalType": "address",
          "name": "",
          "type": "address"
        },
        {
          "internalType": "address",
          "name": "",
          "type": "address"
        },
        {
          "internalType": "uint256",
          "name": "",
          "type": "uint256"
        },
        {
          "internalType": "bytes",
          "name": "",
          "type": "bytes"
        }
      ],
      "name": "onERC721Received",
      "outputs": [
        {
          "internalType": "bytes4",
          "name": "",
          "type": "bytes4"
        }
      ],
      "stateMutability": "pure",
      "type": "function"
    },
    {
      "stateMutability": "payable",
      "type": "receive"
    }
  ],
  "bytecode": "0x60806040526040516109ab3803806109ab833981810160405281019061002591906100ce565b806000806101000a81548173ffffffffffffffffffffffffffffffffffffffff021916908373ffffffffffffffffffffffffffffffffffffffff160217905550506100fb565b600080fd5b600073ffffffffffffffffffffffffffffffffffffffff82169050919050565b600061009b82610070565b9050919050565b6100ab81610090565b81146100b657600080fd5b50565b6000815190506100c8816100a2565b92915050565b6000602082840312156100e4576100e361006b565b5b60006100f2848285016100b9565b91505092915050565b6108a18061010a6000396000f3fe6080604052600436106100385760003560e01c8063150b7a021461007d5780636e7118ae146100ba578063fa727522146100e357610078565b36610078576040517f08c379a000000000000000000000000000000000000000000000000000000000815260040161006f90610438565b60405180910390fd5b600080fd5b34801561008957600080fd5b506100a4600480360381019061009f919061055b565b6100ff565b6040516100b1919061061e565b60405180910390f35b3480156100c657600080fd5b506100e160048036038101906100dc9190610639565b610114565b005b6100fd60048036038101906100f89190610639565b610278565b005b600063150b7a0260e01b905095945050505050565b60008060008054906101000a900473ffffffffffffffffffffffffffffffffffffffff1673ffffffffffffffffffffffffffffffffffffffff168360026040516024016101629291906106c7565b6040516020818303038152906040527f943e8216000000000000000000000000000000000000000000000000000000007bffffffffffffffffffffffffffffffffffffffffffffffffffffffff19166020820180517bffffffffffffffffffffffffffffffffffffffffffffffffffffffff83818316178352505050506040516101ec9190610761565b6000604051808303816000865af19150503d8060008114610229576040519150601f19603f3d011682016040523d82523d6000602084013e61022e565b606091505b509150915081610273576040517f08c379a000000000000000000000000000000000000000000000000000000000815260040161026a906107c4565b60405180910390fd5b505050565b60008060008054906101000a900473ffffffffffffffffffffffffffffffffffffffff1673ffffffffffffffffffffffffffffffffffffffff166064846040516024016102c591906107e4565b6040516020818303038152906040527f454a2ab3000000000000000000000000000000000000000000000000000000007bffffffffffffffffffffffffffffffffffffffffffffffffffffffff19166020820180517bffffffffffffffffffffffffffffffffffffffffffffffffffffffff838183161783525050505060405161034f9190610761565b60006040518083038185875af1925050503d806000811461038c576040519150601f19603f3d011682016040523d82523d6000602084013e610391565b606091505b5091509150816103d6576040517f08c379a00000000000000000000000000000000000000000000000000000000081526004016103cd9061084b565b60405180910390fd5b505050565b600082825260208201905092915050565b7f69276d206576696c000000000000000000000000000000000000000000000000600082015250565b60006104226008836103db565b915061042d826103ec565b602082019050919050565b6000602082019050818103600083015261045181610415565b9050919050565b600080fd5b600080fd5b600073ffffffffffffffffffffffffffffffffffffffff82169050919050565b600061048d82610462565b9050919050565b61049d81610482565b81146104a857600080fd5b50565b6000813590506104ba81610494565b92915050565b6000819050919050565b6104d3816104c0565b81146104de57600080fd5b50565b6000813590506104f0816104ca565b92915050565b600080fd5b600080fd5b600080fd5b60008083601f84011261051b5761051a6104f6565b5b8235905067ffffffffffffffff811115610538576105376104fb565b5b60208301915083600182028301111561055457610553610500565b5b9250929050565b60008060008060006080868803121561057757610576610458565b5b6000610585888289016104ab565b9550506020610596888289016104ab565b94505060406105a7888289016104e1565b935050606086013567ffffffffffffffff8111156105c8576105c761045d565b5b6105d488828901610505565b92509250509295509295909350565b60007fffffffff0000000000000000000000000000000000000000000000000000000082169050919050565b610618816105e3565b82525050565b6000602082019050610633600083018461060f565b92915050565b60006020828403121561064f5761064e610458565b5b600061065d848285016104e1565b91505092915050565b61066f816104c0565b82525050565b6000819050919050565b600060ff82169050919050565b6000819050919050565b60006106b16106ac6106a784610675565b61068c565b61067f565b9050919050565b6106c181610696565b82525050565b60006040820190506106dc6000830185610666565b6106e960208301846106b8565b9392505050565b600081519050919050565b600081905092915050565b60005b83811015610724578082015181840152602081019050610709565b60008484015250505050565b600061073b826106f0565b61074581856106fb565b9350610755818560208601610706565b80840191505092915050565b600061076d8284610730565b915081905092915050565b7f4661696c656420746f20766f7465000000000000000000000000000000000000600082015250565b60006107ae600e836103db565b91506107b982610778565b602082019050919050565b600060208201905081810360008301526107dd816107a1565b9050919050565b60006020820190506107f96000830184610666565b92915050565b7f4661696c656420746f2062696400000000000000000000000000000000000000600082015250565b6000610835600d836103db565b9150610840826107ff565b602082019050919050565b6000602082019050818103600083015261086481610828565b905091905056fea264697066735822122027ea9edc89a4f6fb1de87068cfb6feeb8c9611e13fd3cd4d3c4c482eb016b78864736f6c634300081c0033",
  "linkReferences": {},
  "deployedLinkReferences": {}
}