{
  "_format": "hh-sol-artifact-1",
  "contractName": "ERC721Mock",
  "sourceName": "contracts/test/ERC721Mock.sol",
  "abi": [
    {
      "inputs": [
        {
          "internalType": "string",
          "name": "_name",
          "type": "string"
        },
        {
          "internalType": "string",
          "name": "_symbol",
          "type": "string"
        }
      ],
      "stateMutability": "nonpayable",
      "type": "constructor"
    },
    {
      "anonymous": false,
      "inputs": [
        {
          "indexed": true,
          "internalType": "address",
          "name": "owner",
          "type": "address"
        },
        {
          "indexed": true,
          "internalType": "address",
          "name": "approved",
          "type": "address"
        },
        {
          "indexed": true,
          "internalType": "uint256",
          "name": "tokenId",
          "type": "uint256"
        }
      ],
      "name": "Approval",
      "type": "event"
    },
    {
      "anonymous": false,
      "inputs": [
        {
          "indexed": true,
          "internalType": "address",
          "name": "owner",
          "type": "address"
        },
        {
          "indexed": true,
          "internalType": "address",
          "name": "operator",
          "type": "address"
        },
        {
          "indexed": false,
          "internalType": "bool",
          "name": "approved",
          "type": "bool"
        }
      ],
      "name": "ApprovalForAll",
      "type": "event"
    },
    {
      "anonymous": false,
      "inputs": [
        {
          "indexed": true,
          "internalType": "address",
          "name": "from",
          "type": "address"
        },
        {
          "indexed": true,
          "internalType": "address",
          "name": "to",
          "type": "address"
        },
        {
          "indexed": true,
          "internalType": "uint256",
          "name": "tokenId",
          "type": "uint256"
        }
      ],
      "name": "Transfer",
      "type": "event"
    },
    {
      "inputs": [
        {
          "internalType": "address",
          "name": "to",
          "type": "address"
        },
        {
          "internalType": "uint256",
          "name": "tokenId",
          "type": "uint256"
        }
      ],
      "name": "approve",
      "outputs": [],
      "stateMutability": "nonpayable",
      "type": "function"
    },
    {
      "inputs": [
        {
          "internalType": "address",
          "name": "owner",
          "type": "address"
        }
      ],
      "name": "balanceOf",
      "outputs": [
        {
          "internalType": "uint256",
          "name": "",
          "type": "uint256"
        }
      ],
      "stateMutability": "view",
      "type": "function"
    },
    {
      "inputs": [
        {
          "internalType": "uint256",
          "name": "tokenId",
          "type": "uint256"
        }
      ],
      "name": "getApproved",
      "outputs": [
        {
          "internalType": "address",
          "name": "",
          "type": "address"
        }
      ],
      "stateMutability": "view",
      "type": "function"
    },
    {
      "inputs": [
        {
          "internalType": "address",
          "name": "owner",
          "type": "address"
        },
        {
          "internalType": "address",
          "name": "operator",
          "type": "address"
        }
      ],
      "name": "isApprovedForAll",
      "outputs": [
        {
          "internalType": "bool",
          "name": "",
          "type": "bool"
        }
      ],
      "stateMutability": "view",
      "type": "function"
    },
    {
      "inputs": [
        {
          "internalType": "address",
          "name": "to",
          "type": "address"
        },
        {
          "internalType": "uint256",
          "name": "tokenId",
          "type": "uint256"
        }
      ],
      "name": "mint",
      "outputs": [],
      "stateMutability": "nonpayable",
      "type": "function"
    },
    {
      "inputs": [],
      "name": "name",
      "outputs": [
        {
          "internalType": "string",
          "name": "",
          "type": "string"
        }
      ],
      "stateMutability": "view",
      "type": "function"
    },
    {
      "inputs": [
        {
          "internalType": "uint256",
          "name": "tokenId",
          "type": "uint256"
        }
      ],
      "name": "ownerOf",
      "outputs": [
        {
          "internalType": "address",
          "name": "",
          "type": "address"
        }
      ],
      "stateMutability": "view",
      "type": "function"
    },
    {
      "inputs": [
        {
          "internalType": "address",
          "name": "from",
          "type": "address"
        },
        {
          "internalType": "address",
          "name": "to",
          "type": "address"
        },
        {
          "internalType": "uint256",
          "name": "tokenId",
          "type": "uint256"
        }
      ],
      "name": "safeTransferFrom",
      "outputs": [],
      "stateMutability": "nonpayable",
      "type": "function"
    },
    {
      "inputs": [
        {
          "internalType": "address",
          "name": "from",
          "type": "address"
        },
        {
          "internalType": "address",
          "name": "to",
          "type": "address"
        },
        {
          "internalType": "uint256",
          "name": "tokenId",
          "type": "uint256"
        },
        {
          "internalType": "bytes",
          "name": "",
          "type": "bytes"
        }
      ],
      "name": "safeTransferFrom",
      "outputs": [],
      "stateMutability": "nonpayable",
      "type": "function"
    },
    {
      "inputs": [
        {
          "internalType": "address",
          "name": "operator",
          "type": "address"
        },
        {
          "internalType": "bool",
          "name": "approved",
          "type": "bool"
        }
      ],
      "name": "setApprovalForAll",
      "outputs": [],
      "stateMutability": "nonpayable",
      "type": "function"
    },
    {
      "inputs": [
        {
          "internalType": "bytes4",
          "name": "interfaceId",
          "type": "bytes4"
        }
      ],
      "name": "supportsInterface",
      "outputs": [
        {
          "internalType": "bool",
          "name": "",
          "type": "bool"
        }
      ],
      "stateMutability": "pure",
      "type": "function"
    },
    {
      "inputs": [],
      "name": "symbol",
      "outputs": [
        {
          "internalType": "string",
          "name": "",
          "type": "string"
        }
      ],
      "stateMutability": "view",
      "type": "function"
    },
    {
      "inputs": [
        {
          "internalType": "address",
          "name": "from",
          "type": "address"
        },
        {
          "internalType": "address",
          "name": "to",
          "type": "address"
        },
        {
          "internalType": "uint256",
          "name": "tokenId",
          "type": "uint256"
        }
      ],
      "name": "transferFrom",
      "outputs": [],
      "stateMutability": "nonpayable",
      "type": "function"
    }
  ],
  "bytecode": "0x608060405234801561001057600080fd5b50604051612b82380380612b828339818101604052810190610032919061021f565b61004c6771fc3e6875ed76e860c01b6100a760201b60201c565b610066673f9da9c0aca0d2b260c01b6100a760201b60201c565b816000908161007591906104b8565b506100906716bd45396980e31260c01b6100a760201b60201c565b806001908161009f91906104b8565b50505061058a565b50565b6000604051905090565b600080fd5b600080fd5b600080fd5b600080fd5b6000601f19601f8301169050919050565b7f4e487b7100000000000000000000000000000000000000000000000000000000600052604160045260246000fd5b610111826100c8565b810181811067ffffffffffffffff821117156101305761012f6100d9565b5b80604052505050565b60006101436100aa565b905061014f8282610108565b919050565b600067ffffffffffffffff82111561016f5761016e6100d9565b5b610178826100c8565b9050602081019050919050565b60005b838110156101a3578082015181840152602081019050610188565b60008484015250505050565b60006101c26101bd84610154565b610139565b9050828152602081018484840111156101de576101dd6100c3565b5b6101e9848285610185565b509392505050565b600082601f830112610206576102056100be565b5b81516102168482602086016101af565b91505092915050565b60008060408385031215610236576102356100b4565b5b600083015167ffffffffffffffff811115610254576102536100b9565b5b610260858286016101f1565b925050602083015167ffffffffffffffff811115610281576102806100b9565b5b61028d858286016101f1565b9150509250929050565b600081519050919050565b7f4e487b7100000000000000000000000000000000000000000000000000000000600052602260045260246000fd5b600060028204905060018216806102e957607f821691505b6020821081036102fc576102fb6102a2565b5b50919050565b60008190508160005260206000209050919050565b60006020601f8301049050919050565b600082821b905092915050565b6000600883026103647fffffffffffffffffffffffffffffffffffffffffffffffffffffffffffffffff82610327565b61036e8683610327565b95508019841693508086168417925050509392505050565b6000819050919050565b6000819050919050565b60006103b56103b06103ab84610386565b610390565b610386565b9050919050565b6000819050919050565b6103cf8361039a565b6103e36103db826103bc565b848454610334565b825550505050565b600090565b6103f86103eb565b6104038184846103c6565b505050565b5b818110156104275761041c6000826103f0565b600181019050610409565b5050565b601f82111561046c5761043d81610302565b61044684610317565b81016020851015610455578190505b61046961046185610317565b830182610408565b50505b505050565b600082821c905092915050565b600061048f60001984600802610471565b1980831691505092915050565b60006104a8838361047e565b9150826002028217905092915050565b6104c182610297565b67ffffffffffffffff8111156104da576104d96100d9565b5b6104e482546102d1565b6104ef82828561042b565b600060209050601f8311600181146105225760008415610510578287015190505b61051a858261049c565b865550610582565b601f19841661053086610302565b60005b8281101561055857848901518255600182019150602085019450602081019050610533565b868310156105755784890151610571601f89168261047e565b8355505b6001600288020188555050505b505050505050565b6125e9806105996000396000f3fe608060405234801561001057600080fd5b50600436106100cf5760003560e01c806342842e0e1161008c57806395d89b411161006657806395d89b4114610222578063a22cb46514610240578063b88d4fde1461025c578063e985e9c514610278576100cf565b806342842e0e146101a65780636352211e146101c257806370a08231146101f2576100cf565b806301ffc9a7146100d457806306fdde0314610104578063081812fc14610122578063095ea7b31461015257806323b872dd1461016e57806340c10f191461018a575b600080fd5b6100ee60048036038101906100e9919061199a565b6102a8565b6040516100fb91906119e2565b60405180910390f35b61010c610316565b6040516101199190611a8d565b60405180910390f35b61013c60048036038101906101379190611ae5565b6103a4565b6040516101499190611b53565b60405180910390f35b61016c60048036038101906101679190611b9a565b61050f565b005b61018860048036038101906101839190611bda565b610836565b005b6101a4600480360381019061019f9190611b9a565b61091b565b005b6101c060048036038101906101bb9190611bda565b610c39565b005b6101dc60048036038101906101d79190611ae5565b610c95565b6040516101e99190611b53565b60405180910390f35b61020c60048036038101906102079190611c2d565b610dfb565b6040516102199190611c69565b60405180910390f35b61022a610f3f565b6040516102379190611a8d565b60405180910390f35b61025a60048036038101906102559190611cb0565b610fcd565b005b61027660048036038101906102719190611e25565b6111d8565b005b610292600480360381019061028d9190611ea8565b6112be565b60405161029f91906119e2565b60405180910390f35b60006102be67d2af01bfc7eaa5f660c01b61138e565b6102d267bb9fae52180cc18960c01b61138e565b6102e667f8afdf6c14e9e28060c01b61138e565b6380ac58cd60e01b827bffffffffffffffffffffffffffffffffffffffffffffffffffffffff1916149050919050565b6000805461032390611f17565b80601f016020809104026020016040519081016040528092919081815260200182805461034f90611f17565b801561039c5780601f106103715761010080835404028352916020019161039c565b820191906000526020600020905b81548152906001019060200180831161037f57829003601f168201915b505050505081565b60006103ba67aff48b1e6a388b6a60c01b61138e565b6103ce67b3722cd74627303e60c01b61138e565b6103e26750e980e640a8bf4460c01b61138e565b6103f667c4a7f57a88a1142a60c01b61138e565b600073ffffffffffffffffffffffffffffffffffffffff166002600084815260200190815260200160002060009054906101000a900473ffffffffffffffffffffffffffffffffffffffff1673ffffffffffffffffffffffffffffffffffffffff1603610498576040517f08c379a000000000000000000000000000000000000000000000000000000000815260040161048f90611fba565b60405180910390fd5b6104ac67ab9be742ba2b1ecb60c01b61138e565b6104c0674dd2b05adc7b2aa060c01b61138e565b6104d467bec9a0225e05c7e660c01b61138e565b6004600083815260200190815260200160002060009054906101000a900473ffffffffffffffffffffffffffffffffffffffff169050919050565b610523676dce1acde3913cef60c01b61138e565b610537674faffd8cf1acf6d060c01b61138e565b61054b67e8fe3422d897510d60c01b61138e565b60006002600083815260200190815260200160002060009054906101000a900473ffffffffffffffffffffffffffffffffffffffff16905061059767a3e685af4c654deb60c01b61138e565b6105ab676a5f3babcc1cada360c01b61138e565b6105bf67ff0e20032dff141f60c01b61138e565b8073ffffffffffffffffffffffffffffffffffffffff168373ffffffffffffffffffffffffffffffffffffffff160361062d576040517f08c379a00000000000000000000000000000000000000000000000000000000081526004016106249061204c565b60405180910390fd5b61064167303e2d9b7e1391ba60c01b61138e565b61065567545d0692dde620c560c01b61138e565b6106696741e6707e212bee1660c01b61138e565b61067d676604156a9ad57eff60c01b61138e565b8073ffffffffffffffffffffffffffffffffffffffff163373ffffffffffffffffffffffffffffffffffffffff161480156106c857506106c767c0a51cf79c4a7f9960c01b611391565b5b806106f557506106d881336112be565b80156106f457506106f367a3eb0ca6015d072960c01b611391565b5b5b610734576040517f08c379a000000000000000000000000000000000000000000000000000000000815260040161072b906120de565b60405180910390fd5b61074867c8d049a8153a079f60c01b61138e565b61075c674199ecbdc192560c60c01b61138e565b826004600084815260200190815260200160002060006101000a81548173ffffffffffffffffffffffffffffffffffffffff021916908373ffffffffffffffffffffffffffffffffffffffff1602179055506107c267e727ca6ca0e67a7260c01b61138e565b6107d667f667c620a9df93ae60c01b61138e565b818373ffffffffffffffffffffffffffffffffffffffff168273ffffffffffffffffffffffffffffffffffffffff167f8c5be1e5ebec7d5bd14f71427d1e84f3dd0314c0f7b2291e5b200ac8c7c3b92560405160405180910390a4505050565b61084a6743900e7fd432977160c01b61138e565b61085e67dce8d49264c2c9cb60c01b61138e565b61087267c56e2661d1300ca160c01b61138e565b610886678030f48e6c600ed160c01b61138e565b610890338261139c565b6108cf576040517f08c379a00000000000000000000000000000000000000000000000000000000081526004016108c690612170565b60405180910390fd5b6108e36766ee07c7121dc24560c01b61138e565b6108f767fd441dc354992d1560c01b61138e565b61090b67ed1f7757e1c746ff60c01b61138e565b61091683838361155c565b505050565b61092f676da70d8e717c029d60c01b61138e565b6109436779fdf54fd1dab40760c01b61138e565b610957670a3e549ea2e100ee60c01b61138e565b61096b6786bfbd95a63a2e9f60c01b61138e565b600073ffffffffffffffffffffffffffffffffffffffff168273ffffffffffffffffffffffffffffffffffffffff16036109da576040517f08c379a00000000000000000000000000000000000000000000000000000000081526004016109d1906121dc565b60405180910390fd5b6109ee67d9d8282589b8fe6f60c01b61138e565b610a02670e1e0eec770c71b260c01b61138e565b610a166749e13be1766aaa9a60c01b61138e565b610a2a6751423751ac0ff25f60c01b61138e565b600073ffffffffffffffffffffffffffffffffffffffff166002600083815260200190815260200160002060009054906101000a900473ffffffffffffffffffffffffffffffffffffffff1673ffffffffffffffffffffffffffffffffffffffff1614610acc576040517f08c379a0000000000000000000000000000000000000000000000000000000008152600401610ac390612248565b60405180910390fd5b610ae0672fe93a9d455f739b60c01b61138e565b610af4670c3581cddbdfd71560c01b61138e565b816002600083815260200190815260200160002060006101000a81548173ffffffffffffffffffffffffffffffffffffffff021916908373ffffffffffffffffffffffffffffffffffffffff160217905550610b5a67e05cc2396387dcdd60c01b61138e565b6001600360008473ffffffffffffffffffffffffffffffffffffffff1673ffffffffffffffffffffffffffffffffffffffff1681526020019081526020016000206000828254610baa9190612297565b92505081905550610bc5677846b156913e096060c01b61138e565b610bd9670c3874450b45709260c01b61138e565b808273ffffffffffffffffffffffffffffffffffffffff16600073ffffffffffffffffffffffffffffffffffffffff167fddf252ad1be2c89b69c2b068fc378daa952ba7f163c4a11628f55a4df523b3ef60405160405180910390a45050565b610c4d677ebfeeaeb33dac2360c01b61138e565b610c61675bcfd11d9233843160c01b61138e565b610c75675cfdd97d41db3f9060c01b61138e565b610c90838383604051806020016040528060008152506111d8565b505050565b6000610cab67d3277b7ab017e5ee60c01b61138e565b610cbf67088cfa95c2a9a05360c01b61138e565b610cd3675e09c34b156ee20c60c01b61138e565b60006002600084815260200190815260200160002060009054906101000a900473ffffffffffffffffffffffffffffffffffffffff169050610d1f67f7c53c3e6f99697e60c01b61138e565b610d3367e53d2f2cbff4a83760c01b61138e565b610d476756ff575aff63abb260c01b61138e565b600073ffffffffffffffffffffffffffffffffffffffff168173ffffffffffffffffffffffffffffffffffffffff1603610db6576040517f08c379a0000000000000000000000000000000000000000000000000000000008152600401610dad9061233d565b60405180910390fd5b610dca6784434db01835885b60c01b61138e565b610dde673450de6b89fd407360c01b61138e565b610df2670619a4d5aafb841460c01b61138e565b80915050919050565b6000610e11675b79ee870c3ac1af60c01b61138e565b610e25679a57113daa81481760c01b61138e565b610e3967c5e119950d55472660c01b61138e565b610e4d67f547fe247f45315e60c01b61138e565b600073ffffffffffffffffffffffffffffffffffffffff168273ffffffffffffffffffffffffffffffffffffffff1603610ebc576040517f08c379a0000000000000000000000000000000000000000000000000000000008152600401610eb3906123cf565b60405180910390fd5b610ed0678f4c6f2ebee2c84a60c01b61138e565b610ee4670377f7ef74c4d2ff60c01b61138e565b610ef8677709b0502fd1cf8c60c01b61138e565b600360008373ffffffffffffffffffffffffffffffffffffffff1673ffffffffffffffffffffffffffffffffffffffff168152602001908152602001600020549050919050565b60018054610f4c90611f17565b80601f0160208091040260200160405190810160405280929190818152602001828054610f7890611f17565b8015610fc55780601f10610f9a57610100808354040283529160200191610fc5565b820191906000526020600020905b815481529060010190602001808311610fa857829003601f168201915b505050505081565b610fe16767d49cc7125c510a60c01b61138e565b610ff567aa56c58127d5f6fd60c01b61138e565b6110096726bb40ca9cf88f7e60c01b61138e565b61101d67efb5b9ccf6d1632860c01b61138e565b3373ffffffffffffffffffffffffffffffffffffffff168273ffffffffffffffffffffffffffffffffffffffff160361108b576040517f08c379a00000000000000000000000000000000000000000000000000000000081526004016110829061243b565b60405180910390fd5b61109f6711fb3b8a9e547fb060c01b61138e565b6110b3677a43505b917775d760c01b61138e565b80600560003373ffffffffffffffffffffffffffffffffffffffff1673ffffffffffffffffffffffffffffffffffffffff16815260200190815260200160002060008473ffffffffffffffffffffffffffffffffffffffff1673ffffffffffffffffffffffffffffffffffffffff16815260200190815260200160002060006101000a81548160ff02191690831515021790555061115b673eaf9eef2e50e3dd60c01b61138e565b61116f67c0c5d3e66b38211d60c01b61138e565b8173ffffffffffffffffffffffffffffffffffffffff163373ffffffffffffffffffffffffffffffffffffffff167f17307eab39ab6107e8899845ad3d59bd9653f200f220920489ca2b5937696c31836040516111cc91906119e2565b60405180910390a35050565b6111ec67ec6228d6080df17c60c01b61138e565b611200675aa318140a6135cf60c01b61138e565b61121467091dd26bafb4d9f460c01b61138e565b6112286701c01911be1630ba60c01b61138e565b611232338361139c565b611271576040517f08c379a000000000000000000000000000000000000000000000000000000000815260040161126890612170565b60405180910390fd5b61128567a0560884f8a472d860c01b61138e565b611299678fa70d7f25fa300360c01b61138e565b6112ad6743f2b33f4afaf06560c01b61138e565b6112b884848461155c565b50505050565b60006112d4673379bbf7deecfa5460c01b61138e565b6112e86717ed33869331395b60c01b61138e565b6112fc67e7cb9c534477068860c01b61138e565b600560008473ffffffffffffffffffffffffffffffffffffffff1673ffffffffffffffffffffffffffffffffffffffff16815260200190815260200160002060008373ffffffffffffffffffffffffffffffffffffffff1673ffffffffffffffffffffffffffffffffffffffff16815260200190815260200160002060009054906101000a900460ff16905092915050565b50565b600060019050919050565b60006113b267fa212e82abf59dfc60c01b61138e565b6113c6675c1e3d6bfce4b1a960c01b61138e565b6113da67983a27ee1e3ca49860c01b61138e565b60006002600084815260200190815260200160002060009054906101000a900473ffffffffffffffffffffffffffffffffffffffff16905061142667e9381001d13b936460c01b61138e565b61143a67903bb8478eafface60c01b61138e565b8073ffffffffffffffffffffffffffffffffffffffff168473ffffffffffffffffffffffffffffffffffffffff1614801561148557506114846744fdd104334c967660c01b611391565b5b8061152657508373ffffffffffffffffffffffffffffffffffffffff166004600085815260200190815260200160002060009054906101000a900473ffffffffffffffffffffffffffffffffffffffff1673ffffffffffffffffffffffffffffffffffffffff16148015611509575061150867db74d9517936557260c01b611391565b5b801561152557506115246747145e6c9bcc807660c01b611391565b5b5b80611553575061153681856112be565b8015611552575061155167032541b1dc6bcfdc60c01b611391565b5b5b91505092915050565b61157067bdf96af2d0ea692f60c01b61138e565b611584676cda63b3aed077b160c01b61138e565b611598673925277a027ad29860c01b61138e565b6115ac670297773e592925a360c01b61138e565b8273ffffffffffffffffffffffffffffffffffffffff166002600083815260200190815260200160002060009054906101000a900473ffffffffffffffffffffffffffffffffffffffff1673ffffffffffffffffffffffffffffffffffffffff161461164d576040517f08c379a0000000000000000000000000000000000000000000000000000000008152600401611644906124cd565b60405180910390fd5b611661672f22c56312df2e6660c01b61138e565b61167567dcff6296ea4d5bea60c01b61138e565b611689674ac1e430c15e821560c01b61138e565b61169d675988657b6a4ff4bb60c01b61138e565b600073ffffffffffffffffffffffffffffffffffffffff168273ffffffffffffffffffffffffffffffffffffffff160361170c576040517f08c379a00000000000000000000000000000000000000000000000000000000081526004016117039061255f565b60405180910390fd5b61172067ba64904df7275cc460c01b61138e565b6117346766431f2074a43d2260c01b61138e565b6004600082815260200190815260200160002060006101000a81549073ffffffffffffffffffffffffffffffffffffffff021916905561177e67a14eee7656c9878560c01b61138e565b816002600083815260200190815260200160002060006101000a81548173ffffffffffffffffffffffffffffffffffffffff021916908373ffffffffffffffffffffffffffffffffffffffff1602179055506117e46774fa88e4fc7a424260c01b61138e565b6001600360008573ffffffffffffffffffffffffffffffffffffffff1673ffffffffffffffffffffffffffffffffffffffff1681526020019081526020016000206000828254611834919061257f565b9250508190555061184f67df8f374ab1968f0060c01b61138e565b6001600360008473ffffffffffffffffffffffffffffffffffffffff1673ffffffffffffffffffffffffffffffffffffffff168152602001908152602001600020600082825461189f9190612297565b925050819055506118ba6727e8f4ffc32eb72460c01b61138e565b6118ce67c8d82cdbfd0349b160c01b61138e565b808273ffffffffffffffffffffffffffffffffffffffff168473ffffffffffffffffffffffffffffffffffffffff167fddf252ad1be2c89b69c2b068fc378daa952ba7f163c4a11628f55a4df523b3ef60405160405180910390a4505050565b6000604051905090565b600080fd5b600080fd5b60007fffffffff0000000000000000000000000000000000000000000000000000000082169050919050565b61197781611942565b811461198257600080fd5b50565b6000813590506119948161196e565b92915050565b6000602082840312156119b0576119af611938565b5b60006119be84828501611985565b91505092915050565b60008115159050919050565b6119dc816119c7565b82525050565b60006020820190506119f760008301846119d3565b92915050565b600081519050919050565b600082825260208201905092915050565b60005b83811015611a37578082015181840152602081019050611a1c565b60008484015250505050565b6000601f19601f8301169050919050565b6000611a5f826119fd565b611a698185611a08565b9350611a79818560208601611a19565b611a8281611a43565b840191505092915050565b60006020820190508181036000830152611aa78184611a54565b905092915050565b6000819050919050565b611ac281611aaf565b8114611acd57600080fd5b50565b600081359050611adf81611ab9565b92915050565b600060208284031215611afb57611afa611938565b5b6000611b0984828501611ad0565b91505092915050565b600073ffffffffffffffffffffffffffffffffffffffff82169050919050565b6000611b3d82611b12565b9050919050565b611b4d81611b32565b82525050565b6000602082019050611b686000830184611b44565b92915050565b611b7781611b32565b8114611b8257600080fd5b50565b600081359050611b9481611b6e565b92915050565b60008060408385031215611bb157611bb0611938565b5b6000611bbf85828601611b85565b9250506020611bd085828601611ad0565b9150509250929050565b600080600060608486031215611bf357611bf2611938565b5b6000611c0186828701611b85565b9350506020611c1286828701611b85565b9250506040611c2386828701611ad0565b9150509250925092565b600060208284031215611c4357611c42611938565b5b6000611c5184828501611b85565b91505092915050565b611c6381611aaf565b82525050565b6000602082019050611c7e6000830184611c5a565b92915050565b611c8d816119c7565b8114611c9857600080fd5b50565b600081359050611caa81611c84565b92915050565b60008060408385031215611cc757611cc6611938565b5b6000611cd585828601611b85565b9250506020611ce685828601611c9b565b9150509250929050565b600080fd5b600080fd5b7f4e487b7100000000000000000000000000000000000000000000000000000000600052604160045260246000fd5b611d3282611a43565b810181811067ffffffffffffffff82111715611d5157611d50611cfa565b5b80604052505050565b6000611d6461192e565b9050611d708282611d29565b919050565b600067ffffffffffffffff821115611d9057611d8f611cfa565b5b611d9982611a43565b9050602081019050919050565b82818337600083830152505050565b6000611dc8611dc384611d75565b611d5a565b905082815260208101848484011115611de457611de3611cf5565b5b611def848285611da6565b509392505050565b600082601f830112611e0c57611e0b611cf0565b5b8135611e1c848260208601611db5565b91505092915050565b60008060008060808587031215611e3f57611e3e611938565b5b6000611e4d87828801611b85565b9450506020611e5e87828801611b85565b9350506040611e6f87828801611ad0565b925050606085013567ffffffffffffffff811115611e9057611e8f61193d565b5b611e9c87828801611df7565b91505092959194509250565b60008060408385031215611ebf57611ebe611938565b5b6000611ecd85828601611b85565b9250506020611ede85828601611b85565b9150509250929050565b7f4e487b7100000000000000000000000000000000000000000000000000000000600052602260045260246000fd5b60006002820490506001821680611f2f57607f821691505b602082108103611f4257611f41611ee8565b5b50919050565b7f4552433732313a20617070726f76656420717565727920666f72206e6f6e657860008201527f697374656e7420746f6b656e0000000000000000000000000000000000000000602082015250565b6000611fa4602c83611a08565b9150611faf82611f48565b604082019050919050565b60006020820190508181036000830152611fd381611f97565b9050919050565b7f4552433732313a20617070726f76616c20746f2063757272656e74206f776e6560008201527f7200000000000000000000000000000000000000000000000000000000000000602082015250565b6000612036602183611a08565b915061204182611fda565b604082019050919050565b6000602082019050818103600083015261206581612029565b9050919050565b7f4552433732313a20617070726f76652063616c6c6572206973206e6f74206f7760008201527f6e6572206e6f7220617070726f76656420666f7220616c6c0000000000000000602082015250565b60006120c8603883611a08565b91506120d38261206c565b604082019050919050565b600060208201905081810360008301526120f7816120bb565b9050919050565b7f4552433732313a207472616e736665722063616c6c6572206973206e6f74206f60008201527f776e6572206e6f7220617070726f766564000000000000000000000000000000602082015250565b600061215a603183611a08565b9150612165826120fe565b604082019050919050565b600060208201905081810360008301526121898161214d565b9050919050565b7f4552433732313a206d696e7420746f20746865207a65726f2061646472657373600082015250565b60006121c6602083611a08565b91506121d182612190565b602082019050919050565b600060208201905081810360008301526121f5816121b9565b9050919050565b7f4552433732313a20746f6b656e20616c7265616479206d696e74656400000000600082015250565b6000612232601c83611a08565b915061223d826121fc565b602082019050919050565b6000602082019050818103600083015261226181612225565b9050919050565b7f4e487b7100000000000000000000000000000000000000000000000000000000600052601160045260246000fd5b60006122a282611aaf565b91506122ad83611aaf565b92508282019050808211156122c5576122c4612268565b5b92915050565b7f4552433732313a206f776e657220717565727920666f72206e6f6e657869737460008201527f656e7420746f6b656e0000000000000000000000000000000000000000000000602082015250565b6000612327602983611a08565b9150612332826122cb565b604082019050919050565b600060208201905081810360008301526123568161231a565b9050919050565b7f4552433732313a2062616c616e636520717565727920666f7220746865207a6560008201527f726f206164647265737300000000000000000000000000000000000000000000602082015250565b60006123b9602a83611a08565b91506123c48261235d565b604082019050919050565b600060208201905081810360008301526123e8816123ac565b9050919050565b7f4552433732313a20617070726f766520746f2063616c6c657200000000000000600082015250565b6000612425601983611a08565b9150612430826123ef565b602082019050919050565b6000602082019050818103600083015261245481612418565b9050919050565b7f4552433732313a207472616e736665722066726f6d20696e636f72726563742060008201527f6f776e6572000000000000000000000000000000000000000000000000000000602082015250565b60006124b7602583611a08565b91506124c28261245b565b604082019050919050565b600060208201905081810360008301526124e6816124aa565b9050919050565b7f4552433732313a207472616e7366657220746f20746865207a65726f2061646460008201527f7265737300000000000000000000000000000000000000000000000000000000602082015250565b6000612549602483611a08565b9150612554826124ed565b604082019050919050565b600060208201905081810360008301526125788161253c565b9050919050565b600061258a82611aaf565b915061259583611aaf565b92508282039050818111156125ad576125ac612268565b5b9291505056fea2646970667358221220c4c10343990a041a4caae3f1bbfb62af656bf0364930be03c4981a001059775c64736f6c634300081c0033",
  "linkReferences": {},
  "deployedLinkReferences": {}
}