{
  "_format": "hh-sol-artifact-1",
  "contractName": "ArtCommission",
  "sourceName": "contracts/art_commission.sol",
  "abi": [
    {
      "inputs": [
        {
          "internalType": "address",
          "name": "_buyer",
          "type": "address"
        },
        {
          "internalType": "address",
          "name": "_artist",
          "type": "address"
        },
        {
          "internalType": "uint256",
          "name": "_insuranceAmount",
          "type": "uint256"
        },
        {
          "internalType": "uint256",
          "name": "_price",
          "type": "uint256"
        },
        {
          "internalType": "uint256",
          "name": "_upfrontPayment",
          "type": "uint256"
        },
        {
          "internalType": "uint256",
          "name": "timeframe",
          "type": "uint256"
        },
        {
          "internalType": "address",
          "name": "_dao",
          "type": "address"
        }
      ],
      "stateMutability": "nonpayable",
      "type": "constructor"
    },
    {
      "anonymous": false,
      "inputs": [
        {
          "indexed": false,
          "internalType": "address",
          "name": "nft",
          "type": "address"
        },
        {
          "indexed": false,
          "internalType": "uint256",
          "name": "tokenId",
          "type": "uint256"
        }
      ],
      "name": "ArtworkSubmitted",
      "type": "event"
    },
    {
      "anonymous": false,
      "inputs": [
        {
          "indexed": false,
          "internalType": "address",
          "name": "buyer",
          "type": "address"
        },
        {
          "indexed": false,
          "internalType": "address",
          "name": "artist",
          "type": "address"
        }
      ],
      "name": "CompletedSuccessfully",
      "type": "event"
    },
    {
      "anonymous": false,
      "inputs": [
        {
          "indexed": false,
          "internalType": "address",
          "name": "confirmer",
          "type": "address"
        }
      ],
      "name": "ContractConfirmed",
      "type": "event"
    },
    {
      "anonymous": false,
      "inputs": [
        {
          "indexed": false,
          "internalType": "uint256",
          "name": "disputeId",
          "type": "uint256"
        }
      ],
      "name": "DisputeRaised",
      "type": "event"
    },
    {
      "anonymous": false,
      "inputs": [
        {
          "indexed": false,
          "internalType": "address",
          "name": "funder",
          "type": "address"
        },
        {
          "indexed": false,
          "internalType": "uint256",
          "name": "amount",
          "type": "uint256"
        }
      ],
      "name": "Funded",
      "type": "event"
    },
    {
      "anonymous": false,
      "inputs": [],
      "name": "GoodFaithCancelled",
      "type": "event"
    },
    {
      "anonymous": false,
      "inputs": [
        {
          "indexed": false,
          "internalType": "string",
          "name": "outcome",
          "type": "string"
        }
      ],
      "name": "ResolvedByDAO",
      "type": "event"
    },
    {
      "inputs": [],
      "name": "DAO",
      "outputs": [
        {
          "internalType": "address",
          "name": "",
          "type": "address"
        }
      ],
      "stateMutability": "view",
      "type": "function"
    },
    {
      "inputs": [
        {
          "internalType": "address",
          "name": "nft",
          "type": "address"
        },
        {
          "internalType": "uint256",
          "name": "tokenID",
          "type": "uint256"
        }
      ],
      "name": "acceptArt",
      "outputs": [],
      "stateMutability": "nonpayable",
      "type": "function"
    },
    {
      "inputs": [],
      "name": "artID",
      "outputs": [
        {
          "internalType": "uint256",
          "name": "",
          "type": "uint256"
        }
      ],
      "stateMutability": "view",
      "type": "function"
    },
    {
      "inputs": [],
      "name": "artist",
      "outputs": [
        {
          "internalType": "address",
          "name": "",
          "type": "address"
        }
      ],
      "stateMutability": "view",
      "type": "function"
    },
    {
      "inputs": [],
      "name": "artistWins",
      "outputs": [],
      "stateMutability": "payable",
      "type": "function"
    },
    {
      "inputs": [],
      "name": "artwork",
      "outputs": [
        {
          "internalType": "contract IERC721",
          "name": "",
          "type": "address"
        }
      ],
      "stateMutability": "view",
      "type": "function"
    },
    {
      "inputs": [],
      "name": "buyer",
      "outputs": [
        {
          "internalType": "address",
          "name": "",
          "type": "address"
        }
      ],
      "stateMutability": "view",
      "type": "function"
    },
    {
      "inputs": [],
      "name": "buyerWins",
      "outputs": [],
      "stateMutability": "payable",
      "type": "function"
    },
    {
      "inputs": [],
      "name": "contractConfirm",
      "outputs": [],
      "stateMutability": "nonpayable",
      "type": "function"
    },
    {
      "inputs": [],
      "name": "daoCaseCreated",
      "outputs": [
        {
          "internalType": "bool",
          "name": "",
          "type": "bool"
        }
      ],
      "stateMutability": "view",
      "type": "function"
    },
    {
      "inputs": [],
      "name": "disputeId",
      "outputs": [
        {
          "internalType": "uint256",
          "name": "",
          "type": "uint256"
        }
      ],
      "stateMutability": "view",
      "type": "function"
    },
    {
      "inputs": [],
      "name": "fullPrice",
      "outputs": [
        {
          "internalType": "uint256",
          "name": "",
          "type": "uint256"
        }
      ],
      "stateMutability": "view",
      "type": "function"
    },
    {
      "inputs": [],
      "name": "fund",
      "outputs": [],
      "stateMutability": "payable",
      "type": "function"
    },
    {
      "inputs": [],
      "name": "goodFaithRelease",
      "outputs": [],
      "stateMutability": "nonpayable",
      "type": "function"
    },
    {
      "inputs": [],
      "name": "insuranceAmount",
      "outputs": [
        {
          "internalType": "uint256",
          "name": "",
          "type": "uint256"
        }
      ],
      "stateMutability": "view",
      "type": "function"
    },
    {
      "inputs": [],
      "name": "lastPayment",
      "outputs": [
        {
          "internalType": "uint256",
          "name": "",
          "type": "uint256"
        }
      ],
      "stateMutability": "view",
      "type": "function"
    },
    {
      "inputs": [],
      "name": "neitherWins",
      "outputs": [],
      "stateMutability": "payable",
      "type": "function"
    },
    {
      "inputs": [
        {
          "internalType": "address",
          "name": "operator",
          "type": "address"
        },
        {
          "internalType": "address",
          "name": "from",
          "type": "address"
        },
        {
          "internalType": "uint256",
          "name": "tokenID",
          "type": "uint256"
        },
        {
          "internalType": "bytes",
          "name": "data",
          "type": "bytes"
        }
      ],
      "name": "onERC721Received",
      "outputs": [
        {
          "internalType": "bytes4",
          "name": "",
          "type": "bytes4"
        }
      ],
      "stateMutability": "nonpayable",
      "type": "function"
    },
    {
      "inputs": [],
      "name": "payInFullAndRelease",
      "outputs": [],
      "stateMutability": "payable",
      "type": "function"
    },
    {
      "inputs": [],
      "name": "progress",
      "outputs": [
        {
          "internalType": "enum ArtCommission.State",
          "name": "",
          "type": "uint8"
        }
      ],
      "stateMutability": "view",
      "type": "function"
    },
    {
      "inputs": [
        {
          "internalType": "uint256",
          "name": "panelSize",
          "type": "uint256"
        },
        {
          "internalType": "uint256",
          "name": "votingDuration",
          "type": "uint256"
        }
      ],
      "name": "raiseDispute",
      "outputs": [],
      "stateMutability": "nonpayable",
      "type": "function"
    },
    {
      "inputs": [],
      "name": "upfrontPayment",
      "outputs": [
        {
          "internalType": "uint256",
          "name": "",
          "type": "uint256"
        }
      ],
      "stateMutability": "view",
      "type": "function"
    }
  ],
  "bytecode": "0x60e060405234801561001057600080fd5b5060405161629b38038061629b8339818101604052810190610032919061091f565b61004c6705c4a3f70628541160c01b61087860201b60201c565b610066679c3459c8f880588960c01b61087860201b60201c565b61008067333c0f3354c49e7d60c01b61087860201b60201c565b61009a67feafa577e0ac8a2660c01b61087860201b60201c565b8673ffffffffffffffffffffffffffffffffffffffff163373ffffffffffffffffffffffffffffffffffffffff161480156100eb57506100ea676479f715f028e50860c01b61087b60201b60201c565b5b8061014357508573ffffffffffffffffffffffffffffffffffffffff163373ffffffffffffffffffffffffffffffffffffffff161480156101425750610141673ce5c8ed95f6728260c01b61087b60201b60201c565b5b5b610182576040517f08c379a000000000000000000000000000000000000000000000000000000000815260040161017990610a44565b60405180910390fd5b61019c671be7efbb15f1ad2060c01b61087860201b60201c565b6101b667ed489792a900684360c01b61087860201b60201c565b6101d06723e55958436e6a1760c01b61087860201b60201c565b6101ea67f3c9c1a58d2d604c60c01b61087860201b60201c565b600073ffffffffffffffffffffffffffffffffffffffff168773ffffffffffffffffffffffffffffffffffffffff1603610259576040517f08c379a000000000000000000000000000000000000000000000000000000000815260040161025090610ab0565b60405180910390fd5b61027367f73afa67a6ab58c760c01b61087860201b60201c565b61028d6781449f92f41289f660c01b61087860201b60201c565b6102a7674c7bee4a575ddf4b60c01b61087860201b60201c565b6102c16781aa62f6e340bc0c60c01b61087860201b60201c565b600073ffffffffffffffffffffffffffffffffffffffff168673ffffffffffffffffffffffffffffffffffffffff1603610330576040517f08c379a000000000000000000000000000000000000000000000000000000000815260040161032790610b1c565b60405180910390fd5b61034a67b4ce6b40e7ee5ec160c01b61087860201b60201c565b610364676fc58e725a494f1060c01b61087860201b60201c565b61037e674078fa325faa2e2960c01b61087860201b60201c565b61039867e60de505fbbf32f960c01b61087860201b60201c565b600073ffffffffffffffffffffffffffffffffffffffff168173ffffffffffffffffffffffffffffffffffffffff1603610407576040517f08c379a00000000000000000000000000000000000000000000000000000000081526004016103fe90610b88565b60405180910390fd5b61042167f30566c82f9989dc60c01b61087860201b60201c565b61043b679b9e58934169ca8d60c01b61087860201b60201c565b6104556769b2d15c7c664b7860c01b61087860201b60201c565b61046f6705e184075b4ba72860c01b61087860201b60201c565b661aa535d3d0c0008510156104b9576040517f08c379a00000000000000000000000000000000000000000000000000000000081526004016104b090610bf4565b60405180910390fd5b6104d3670c9cc79b6b6b58cf60c01b61087860201b60201c565b6104ed67211a6eb8ec2a411a60c01b61087860201b60201c565b61050767455002ed6593ec9860c01b61087860201b60201c565b610521672e33aed2973772b660c01b61087860201b60201c565b82841015610564576040517f08c379a000000000000000000000000000000000000000000000000000000000815260040161055b90610c60565b60405180910390fd5b61057e67f5ad6e78ff3f101860c01b61087860201b60201c565b610598677b535bebb3735ce960c01b61087860201b60201c565b8673ffffffffffffffffffffffffffffffffffffffff1660a08173ffffffffffffffffffffffffffffffffffffffff16815250506105e66760a77c2ea42928f260c01b61087860201b60201c565b8573ffffffffffffffffffffffffffffffffffffffff1660808173ffffffffffffffffffffffffffffffffffffffff16815250506106346703c5ff8a4522157d60c01b61087860201b60201c565b8073ffffffffffffffffffffffffffffffffffffffff1660c08173ffffffffffffffffffffffffffffffffffffffff1681525050610682674a1922af7183c2ec60c01b61087860201b60201c565b846003819055506106a367f7b3949cbe4fd0a460c01b61087860201b60201c565b826001819055506106c46773b5e57d0042aeff60c01b61087860201b60201c565b600154846106d29190610caf565b6002819055506106f267cdb07e565019489d60c01b61087860201b60201c565b83600081905550610713670ca5ed4ecbe9296c60c01b61087860201b60201c565b81600981905550610734674eb6e2bd02e2625160c01b61087860201b60201c565b6000600a60006101000a81548160ff0219169083600581111561075a57610759610ce3565b5b02179055506107796737cab6da514641c960c01b61087860201b60201c565b6107936743c77616914886e960c01b61087860201b60201c565b3373ffffffffffffffffffffffffffffffffffffffff1660a05173ffffffffffffffffffffffffffffffffffffffff160361081c576107e267dafb21d3dd26aa5a60c01b61087860201b60201c565b6107fc67c0f584a7085838b060c01b61087860201b60201c565b6000600560146101000a81548160ff02191690831515021790555061086c565b610836672413cdb34f30c27a60c01b61087860201b60201c565b61085067b9fc388171b12cb160c01b61087860201b60201c565b6001600560146101000a81548160ff0219169083151502179055505b50505050505050610d12565b50565b600060019050919050565b600080fd5b600073ffffffffffffffffffffffffffffffffffffffff82169050919050565b60006108b68261088b565b9050919050565b6108c6816108ab565b81146108d157600080fd5b50565b6000815190506108e3816108bd565b92915050565b6000819050919050565b6108fc816108e9565b811461090757600080fd5b50565b600081519050610919816108f3565b92915050565b600080600080600080600060e0888a03121561093e5761093d610886565b5b600061094c8a828b016108d4565b975050602061095d8a828b016108d4565b965050604061096e8a828b0161090a565b955050606061097f8a828b0161090a565b94505060806109908a828b0161090a565b93505060a06109a18a828b0161090a565b92505060c06109b28a828b016108d4565b91505092959891949750929550565b600082825260208201905092915050565b7f54686972642070617274792063616e6e6f7420696e69746961746520636f6e7460008201527f7261637400000000000000000000000000000000000000000000000000000000602082015250565b6000610a2e6024836109c1565b9150610a39826109d2565b604082019050919050565b60006020820190508181036000830152610a5d81610a21565b9050919050565b7f496e76616c696420627579657200000000000000000000000000000000000000600082015250565b6000610a9a600d836109c1565b9150610aa582610a64565b602082019050919050565b60006020820190508181036000830152610ac981610a8d565b9050919050565b7f496e76616c696420617274697374000000000000000000000000000000000000600082015250565b6000610b06600e836109c1565b9150610b1182610ad0565b602082019050919050565b60006020820190508181036000830152610b3581610af9565b9050919050565b7f496e76616c69642044414f000000000000000000000000000000000000000000600082015250565b6000610b72600b836109c1565b9150610b7d82610b3c565b602082019050919050565b60006020820190508181036000830152610ba181610b65565b9050919050565b7f496e737572616e636520746f6f206c6f77000000000000000000000000000000600082015250565b6000610bde6011836109c1565b9150610be982610ba8565b602082019050919050565b60006020820190508181036000830152610c0d81610bd1565b9050919050565b7f557066726f6e7420657863656564732066756c6c207072696365000000000000600082015250565b6000610c4a601a836109c1565b9150610c5582610c14565b602082019050919050565b60006020820190508181036000830152610c7981610c3d565b9050919050565b7f4e487b7100000000000000000000000000000000000000000000000000000000600052601160045260246000fd5b6000610cba826108e9565b9150610cc5836108e9565b9250828203905081811115610cdd57610cdc610c80565b5b92915050565b7f4e487b7100000000000000000000000000000000000000000000000000000000600052602160045260246000fd5b60805160a05160c051615434610e6760003960008181610493015281816108fc0152818161120f015281816116de015281816117cd01528181612f91015281816134a901528181613c9101526140fa015260008181610c66015281816110210152818161164d0152818161197801528181611d4801528181611e4501528181611f16015281816120aa01528181612439015281816125670152818161292a01528181612a4f015281816130320152818161364e015281816139f101528181613fa7015261405d0152600081816107a90152818161085f01528181610a6101528181610cd701528181610f2a01528181611525015281816118f001528181611c9301528181611e6601528181611f8701528181612182015281816124ca01528181612761015281816127fd0152818161288d01528181612add015281816130a3015281816136bf01526138a801526154346000f3fe6080604052600436106101355760003560e01c80637150d8ae116100ab5780639b918aad1161006f5780639b918aad1461036f5780639f6860971461039a578063a74f9965146103c3578063b60d4288146103ee578063e1d295e7146103f8578063edd634b81461040257610135565b80637150d8ae1461029a57806381e170de146102c557806398ca4a05146102f057806398fabd3a1461031957806399e056d21461034457610135565b80632e77c8d2116100fd5780632e77c8d2146101ee57806337f89bdf1461021957806343bc1612146102235780634eb60c9f1461024e578063577bd3361461025857806368c8b2a91461028357610135565b80630f6e7fbd1461013a578063150b7a02146101445780631ccbc6da146101815780632618810c146101ac57806326cc133e146101c3575b600080fd5b61014261042d565b005b34801561015057600080fd5b5061016b60048036038101906101669190614322565b610a0d565b60405161017891906143e5565b60405180910390f35b34801561018d57600080fd5b50610196610bfa565b6040516101a3919061440f565b60405180910390f35b3480156101b857600080fd5b506101c1610c00565b005b3480156101cf57600080fd5b506101d861117d565b6040516101e59190614489565b60405180910390f35b3480156101fa57600080fd5b506102036111a3565b604051610210919061440f565b60405180910390f35b6102216111a9565b005b34801561022f57600080fd5b506102386118ee565b60405161024591906144b3565b60405180910390f35b610256611912565b005b34801561026457600080fd5b5061026d611e9d565b60405161027a9190614545565b60405180910390f35b34801561028f57600080fd5b50610298611eb0565b005b3480156102a657600080fd5b506102af612a4d565b6040516102bc91906144b3565b60405180910390f35b3480156102d157600080fd5b506102da612a71565b6040516102e7919061440f565b60405180910390f35b3480156102fc57600080fd5b5061031760048036038101906103129190614560565b612a77565b005b34801561032557600080fd5b5061032e612f8f565b60405161033b91906144b3565b60405180910390f35b34801561035057600080fd5b50610359612fb3565b60405161036691906145bb565b60405180910390f35b34801561037b57600080fd5b50610384612fc6565b604051610391919061440f565b60405180910390f35b3480156103a657600080fd5b506103c160048036038101906103bc91906145d6565b612fcc565b005b3480156103cf57600080fd5b506103d86135e2565b6040516103e5919061440f565b60405180910390f35b6103f66135e8565b005b610400613c2b565b005b34801561040e57600080fd5b5061041761420b565b604051610424919061440f565b60405180910390f35b6104416754e0dd8c0269f5e160c01b614211565b6104556727c253a52fdf541160c01b614211565b610469675a8520741ee6e44260c01b614211565b61047d676090cf4ee5e8933e60c01b614211565b61049167e3212f0dee4212a860c01b614211565b7f000000000000000000000000000000000000000000000000000000000000000073ffffffffffffffffffffffffffffffffffffffff163373ffffffffffffffffffffffffffffffffffffffff161461051f576040517f08c379a000000000000000000000000000000000000000000000000000000000815260040161051690614673565b60405180910390fd5b610533675f8e7b6fe58cf6ca60c01b614211565b6105476758319c3b140f9cce60c01b614211565b61055b6759990c54fff3730960c01b614211565b61056f67fbbf2ffee5d4d8f860c01b614211565b61058367e108cf7daf71ee4260c01b614211565b610597679448a589f972e55060c01b614211565b6105ab67033d95ce5e3ea3a660c01b614211565b6005808111156105be576105bd6144ce565b5b600a60009054906101000a900460ff1660058111156105e0576105df6144ce565b5b14610620576040517f08c379a000000000000000000000000000000000000000000000000000000000815260040161061790614705565b60405180910390fd5b6106346746daf40335bddb9660c01b614211565b61064867135a25a5d727806260c01b614211565b61065c67ea4459c07c855ce760c01b614211565b3073ffffffffffffffffffffffffffffffffffffffff16600560009054906101000a900473ffffffffffffffffffffffffffffffffffffffff1673ffffffffffffffffffffffffffffffffffffffff16636352211e6004546040518263ffffffff1660e01b81526004016106d0919061440f565b602060405180830381865afa1580156106ed573d6000803e3d6000fd5b505050506040513d601f19601f82011682018060405250810190610711919061473a565b73ffffffffffffffffffffffffffffffffffffffff16036108205761074067b7d7d9500334c7b960c01b614211565b610754675387061c57a84f3e60c01b614211565b6107686786e3904e632d44d160c01b614211565b600560009054906101000a900473ffffffffffffffffffffffffffffffffffffffff1673ffffffffffffffffffffffffffffffffffffffff166342842e0e307f00000000000000000000000000000000000000000000000000000000000000006004546040518463ffffffff1660e01b81526004016107e993929190614767565b600060405180830381600087803b15801561080357600080fd5b505af1158015610817573d6000803e3d6000fd5b50505050610835565b61083467b7410d2b15dca60460c01b614211565b5b610849671a868029cf2013da60c01b614211565b61085d672eb41f75079fc4b860c01b614211565b7f000000000000000000000000000000000000000000000000000000000000000073ffffffffffffffffffffffffffffffffffffffff166108fc60026003546108a691906147fc565b9081150290604051600060405180830381858888f193505050501580156108d1573d6000803e3d6000fd5b506108e6670fbe664eb23f576260c01b614211565b6108fa67959d5d64c71eefa560c01b614211565b7f000000000000000000000000000000000000000000000000000000000000000073ffffffffffffffffffffffffffffffffffffffff166108fc600260035461094391906147fc565b9081150290604051600060405180830381858888f1935050505015801561096e573d6000803e3d6000fd5b5061098367faceef97ee3065b860c01b614211565b6004600a60006101000a81548160ff021916908360058111156109a9576109a86144ce565b5b02179055506109c26745e89d779945356260c01b614211565b6109d667c99a1716ef7c7ea660c01b614211565b7f05d97f86513a23ae89f17cfde3e4ec84b0a3c3d8149b756693de97995a85bf00604051610a0390614879565b60405180910390a1565b6000610a2367128314b5a4f55fd960c01b614211565b610a376768b695599c67aef360c01b614211565b610a4b67674602a1ebf46e2260c01b614211565b610a5f67285b08c2d5a00c4260c01b614211565b7f000000000000000000000000000000000000000000000000000000000000000073ffffffffffffffffffffffffffffffffffffffff168573ffffffffffffffffffffffffffffffffffffffff1614610aed576040517f08c379a0000000000000000000000000000000000000000000000000000000008152600401610ae4906148e5565b60405180910390fd5b610b0167b4204c6ff1f2329360c01b614211565b610b1567439c0a717b66cf6e60c01b614211565b610b2967fafb84d31dbeaa1960c01b614211565b610b3d67ac5e01f13b8f9d4360c01b614211565b3073ffffffffffffffffffffffffffffffffffffffff168673ffffffffffffffffffffffffffffffffffffffff1614610bab576040517f08c379a0000000000000000000000000000000000000000000000000000000008152600401610ba290614977565b60405180910390fd5b610bbf674e1393bbce410de660c01b614211565b610bd367de2a80f2d3955c0b60c01b614211565b610be7672c0315f73f44ace760c01b614211565b63150b7a0260e01b905095945050505050565b60015481565b610c1467eb59bd79f6c8e8b060c01b614211565b610c2867f887d39098f6317660c01b614211565b610c3c671a056275dba88d5c60c01b614211565b610c506734244581c8b03f4c60c01b614211565b610c6467b426c0e7968a03e760c01b614211565b7f000000000000000000000000000000000000000000000000000000000000000073ffffffffffffffffffffffffffffffffffffffff163373ffffffffffffffffffffffffffffffffffffffff16148015610ccf5750610cce6724c416259ed22c7e60c01b614214565b5b80610d4157507f000000000000000000000000000000000000000000000000000000000000000073ffffffffffffffffffffffffffffffffffffffff163373ffffffffffffffffffffffffffffffffffffffff16148015610d405750610d3f67e5214f8573ffb8b360c01b614214565b5b5b610d80576040517f08c379a0000000000000000000000000000000000000000000000000000000008152600401610d77906149e3565b60405180910390fd5b610d94675138e5718fbf6f2e60c01b614211565b610da8675d6e729f628ae27a60c01b614211565b610dbc67220d4c621305129660c01b614211565b610dcf66391e4f68d444a260c01b614211565b610de367e16679778a96921460c01b614211565b610df7675ace898b14f05e4e60c01b614211565b610e0b67ed39603259aac26d60c01b614211565b60006005811115610e1f57610e1e6144ce565b5b600a60009054906101000a900460ff166005811115610e4157610e406144ce565b5b14610e81576040517f08c379a0000000000000000000000000000000000000000000000000000000008152600401610e7890614a75565b60405180910390fd5b610e9567dbf89bb88909837060c01b614211565b610ea967794542dc213b607a60c01b614211565b610ebd67673826ba5b6d99d860c01b614211565b60001515600560149054906101000a900460ff16151503610fcf57610eec67c81ff34e870220fc60c01b614211565b610f00678dda0010c58aaf8d60c01b614211565b610f146770fe2023233d2ae160c01b614211565b610f28672410118a8971c55c60c01b614211565b7f000000000000000000000000000000000000000000000000000000000000000073ffffffffffffffffffffffffffffffffffffffff163373ffffffffffffffffffffffffffffffffffffffff1614610fb6576040517f08c379a0000000000000000000000000000000000000000000000000000000008152600401610fad90614b07565b60405180910390fd5b610fca67e0dbf0421f95a10060c01b614211565b6110c2565b610fe367d84993f443c3c79160c01b614211565b610ff76793dc0364d34b626160c01b614211565b61100b67e99a86193d2fadba60c01b614211565b61101f67d0d9916e7eef3d5d60c01b614211565b7f000000000000000000000000000000000000000000000000000000000000000073ffffffffffffffffffffffffffffffffffffffff163373ffffffffffffffffffffffffffffffffffffffff16146110ad576040517f08c379a00000000000000000000000000000000000000000000000000000000081526004016110a490614b99565b60405180910390fd5b6110c167e82ff02ac445fe5e60c01b614211565b5b6110d6674437c6428028f66860c01b614211565b6001600a60006101000a81548160ff021916908360058111156110fc576110fb6144ce565b5b021790555061111567ca2c9c887a0f7c4060c01b614211565b61112967d695fbfcd745fd9c60c01b614211565b7feedbc83446ed303e6f7e6c10eed0cd9f832f80b67c8de8583f7b19d48a4cb9013360405161115891906144b3565b60405180910390a1611174675598a7fb2c8aab0b60c01b614211565b42600881905550565b600560009054906101000a900473ffffffffffffffffffffffffffffffffffffffff1681565b60065481565b6111bd677c8bf02bd1680b1760c01b614211565b6111d16727c253a52fdf541160c01b614211565b6111e5675a8520741ee6e44260c01b614211565b6111f9676090cf4ee5e8933e60c01b614211565b61120d67e3212f0dee4212a860c01b614211565b7f000000000000000000000000000000000000000000000000000000000000000073ffffffffffffffffffffffffffffffffffffffff163373ffffffffffffffffffffffffffffffffffffffff161461129b576040517f08c379a000000000000000000000000000000000000000000000000000000000815260040161129290614673565b60405180910390fd5b6112af675f8e7b6fe58cf6ca60c01b614211565b6112c36758319c3b140f9cce60c01b614211565b6112d767e962e45674c21dc760c01b614211565b6112eb67c35a00b8d9b16e1a60c01b614211565b6112ff67d78fa1c66b04e4a360c01b614211565b61131367f05388907049678160c01b614211565b611327672264be7f20ba54e360c01b614211565b60058081111561133a576113396144ce565b5b600a60009054906101000a900460ff16600581111561135c5761135b6144ce565b5b1461139c576040517f08c379a000000000000000000000000000000000000000000000000000000000815260040161139390614705565b60405180910390fd5b6113b067c6d053c06fde9ca360c01b614211565b6113c467ff40ad9f2ebb679760c01b614211565b6113d867e3e3bb86ff0d273060c01b614211565b3073ffffffffffffffffffffffffffffffffffffffff16600560009054906101000a900473ffffffffffffffffffffffffffffffffffffffff1673ffffffffffffffffffffffffffffffffffffffff16636352211e6004546040518263ffffffff1660e01b815260040161144c919061440f565b602060405180830381865afa158015611469573d6000803e3d6000fd5b505050506040513d601f19601f8201168201806040525081019061148d919061473a565b73ffffffffffffffffffffffffffffffffffffffff160361159c576114bc676678a999645e1c5b60c01b614211565b6114d067b46339dcbc40269760c01b614211565b6114e4679caecbd6dc64872260c01b614211565b600560009054906101000a900473ffffffffffffffffffffffffffffffffffffffff1673ffffffffffffffffffffffffffffffffffffffff166342842e0e307f00000000000000000000000000000000000000000000000000000000000000006004546040518463ffffffff1660e01b815260040161156593929190614767565b600060405180830381600087803b15801561157f57600080fd5b505af1158015611593573d6000803e3d6000fd5b505050506115b1565b6115b0679e23ea2c87c8a98460c01b614211565b5b6115c56738d75cb94f5037cb60c01b614211565b6115d967a1a464f06875f02860c01b614211565b60004790506115f267067aa1a90cad8e5460c01b614211565b6116066779d10091eb05489160c01b614211565b600054811061174a5761162367ceb476d626f70f2160c01b614211565b61163767f150dee02522113160c01b614211565b61164b6762143d61a0be07e160c01b614211565b7f000000000000000000000000000000000000000000000000000000000000000073ffffffffffffffffffffffffffffffffffffffff166108fc6000549081150290604051600060405180830381858888f193505050501580156116b3573d6000803e3d6000fd5b506116c867bd56123e04c46a5e60c01b614211565b6116dc67adf4f4f892a4dd2060c01b614211565b7f000000000000000000000000000000000000000000000000000000000000000073ffffffffffffffffffffffffffffffffffffffff166108fc6003549081150290604051600060405180830381858888f19350505050158015611744573d6000803e3d6000fd5b5061184f565b61175e67cd01fc58758be11b60c01b614211565b61177267cb58f7d1a362075060c01b614211565b611786677e724ded16b4235f60c01b614211565b6003544710611839576117a367fbab61f5dc30767760c01b614211565b6117b767c64785dcfff6be9f60c01b614211565b6117cb677a0e3e8c24f7ce0060c01b614211565b7f000000000000000000000000000000000000000000000000000000000000000073ffffffffffffffffffffffffffffffffffffffff166108fc6003549081150290604051600060405180830381858888f19350505050158015611833573d6000803e3d6000fd5b5061184e565b61184d67b64772206cbc44c260c01b614211565b5b5b61186367f8ecc8352fb3258c60c01b614211565b6004600a60006101000a81548160ff02191690836005811115611889576118886144ce565b5b02179055506118a267b38d9bfc4a40f65d60c01b614211565b6118b667580efee4bca2542b60c01b614211565b7f05d97f86513a23ae89f17cfde3e4ec84b0a3c3d8149b756693de97995a85bf006040516118e390614c05565b60405180910390a150565b7f000000000000000000000000000000000000000000000000000000000000000081565b611926677d25f44a7ee281e060c01b614211565b61193a67ed25bdad1e2f807a60c01b614211565b61194e6779eb625accfeb55360c01b614211565b61196267c5ff7e3b322d689260c01b614211565b61197667c4033c86b166228e60c01b614211565b7f000000000000000000000000000000000000000000000000000000000000000073ffffffffffffffffffffffffffffffffffffffff163373ffffffffffffffffffffffffffffffffffffffff1614611a04576040517f08c379a00000000000000000000000000000000000000000000000000000000081526004016119fb90614c71565b60405180910390fd5b611a186717338378964b839460c01b614211565b611a2c6747ed14e3b065ddd760c01b614211565b611a4067fdb66d7382ea608960c01b614211565b611a54676f7f36033b0cdec660c01b614211565b611a6867fcb3ab8c95a13aaa60c01b614211565b611a7c67534b133589a060b960c01b614211565b611a9067cf029e419a2cd5c360c01b614211565b60036005811115611aa457611aa36144ce565b5b600a60009054906101000a900460ff166005811115611ac657611ac56144ce565b5b14611b06576040517f08c379a0000000000000000000000000000000000000000000000000000000008152600401611afd90614cdd565b60405180910390fd5b611b1a679ebc02528a23ec4260c01b614211565b611b2e6737b9f66ef373459660c01b614211565b611b4267c02c9ed5423d834860c01b614211565b611b566750b3a63e7936a6d460c01b614211565b6002543414611b9a576040517f08c379a0000000000000000000000000000000000000000000000000000000008152600401611b9190614d6f565b60405180910390fd5b611bae67e5008eb548d8418660c01b614211565b611bc267c7caff25e427c43760c01b614211565b611bd667d78130dda26c1c0b60c01b614211565b600560009054906101000a900473ffffffffffffffffffffffffffffffffffffffff1673ffffffffffffffffffffffffffffffffffffffff166342842e0e30336004546040518463ffffffff1660e01b8152600401611c3793929190614767565b600060405180830381600087803b158015611c5157600080fd5b505af1158015611c65573d6000803e3d6000fd5b50505050611c7d673c5d232f7875937260c01b614211565b611c9167f2e7af5a160bb70860c01b614211565b7f000000000000000000000000000000000000000000000000000000000000000073ffffffffffffffffffffffffffffffffffffffff166108fc6002600354611cda91906147fc565b60015434611ce89190614d8f565b611cf29190614d8f565b9081150290604051600060405180830381858888f19350505050158015611d1d573d6000803e3d6000fd5b50611d32673a676460a6e7877160c01b614211565b611d466746d16650c22ead9d60c01b614211565b7f000000000000000000000000000000000000000000000000000000000000000073ffffffffffffffffffffffffffffffffffffffff166108fc6002600354611d8f91906147fc565b9081150290604051600060405180830381858888f19350505050158015611dba573d6000803e3d6000fd5b50611dcf67ee61a37f27a2d84b60c01b614211565b6004600a60006101000a81548160ff02191690836005811115611df557611df46144ce565b5b0217905550611e0e67746074a1c59bcaa760c01b614211565b611e22675f8fe83d9e0212f460c01b614211565b7f1bd25b21f16f0ca62dfc649d83cc6cc5299238a43d6f3260599c895f8d72c9327f00000000000000000000000000000000000000000000000000000000000000007f0000000000000000000000000000000000000000000000000000000000000000604051611e93929190614dc3565b60405180910390a1565b600a60009054906101000a900460ff1681565b611ec467907b3fe3bc07245760c01b614211565b611ed867f887d39098f6317660c01b614211565b611eec671a056275dba88d5c60c01b614211565b611f006734244581c8b03f4c60c01b614211565b611f1467b426c0e7968a03e760c01b614211565b7f000000000000000000000000000000000000000000000000000000000000000073ffffffffffffffffffffffffffffffffffffffff163373ffffffffffffffffffffffffffffffffffffffff16148015611f7f5750611f7e6724c416259ed22c7e60c01b614214565b5b80611ff157507f000000000000000000000000000000000000000000000000000000000000000073ffffffffffffffffffffffffffffffffffffffff163373ffffffffffffffffffffffffffffffffffffffff16148015611ff05750611fef67e5214f8573ffb8b360c01b614214565b5b5b612030576040517f08c379a0000000000000000000000000000000000000000000000000000000008152600401612027906149e3565b60405180910390fd5b612044675138e5718fbf6f2e60c01b614211565b612058675d6e729f628ae27a60c01b614211565b61206c67c1b55bcc43e7adbb60c01b614211565b612080672500b21e4300c93e60c01b614211565b612094673d314f75b2dede4a60c01b614211565b6120a867725052f4fa6dcdfc60c01b614211565b7f000000000000000000000000000000000000000000000000000000000000000073ffffffffffffffffffffffffffffffffffffffff163373ffffffffffffffffffffffffffffffffffffffff16036121435761210f67b6de7ea58ffddbc660c01b614211565b612123674d6dfa3e2a6623b960c01b614211565b6001600560156101000a81548160ff021916908315150217905550612158565b6121576717c7a70c0c963cb360c01b614211565b5b61216c67b12a062ab91beab060c01b614211565b612180674a4c70e2c78a6bb660c01b614211565b7f000000000000000000000000000000000000000000000000000000000000000073ffffffffffffffffffffffffffffffffffffffff163373ffffffffffffffffffffffffffffffffffffffff160361221b576121e767b74bbe94f433d30860c01b614211565b6121fb67fe8b9f43620d667460c01b614211565b6001600560166101000a81548160ff021916908315150217905550612230565b61222f676da783bb3e38b6f160c01b614211565b5b61224467665bb3a3bdbd4f1c60c01b614211565b612258672901bfb8857c3b0960c01b614211565b61226c67b9898d44bd42574a60c01b614211565b60011515600560159054906101000a900460ff1615151480156122a2575060011515600560169054906101000a900460ff161515145b6122e1576040517f08c379a00000000000000000000000000000000000000000000000000000000081526004016122d890614e5e565b60405180910390fd5b6122f5673acf2d3e960d8ad260c01b614211565b6123096723a7db279550318560c01b614211565b61231d672551f4b61b1a5a1760c01b614211565b6000471180156123f657503073ffffffffffffffffffffffffffffffffffffffff16600560009054906101000a900473ffffffffffffffffffffffffffffffffffffffff1673ffffffffffffffffffffffffffffffffffffffff16636352211e6004546040518263ffffffff1660e01b815260040161239c919061440f565b602060405180830381865afa1580156123b9573d6000803e3d6000fd5b505050506040513d601f19601f820116820180604052508101906123dd919061473a565b73ffffffffffffffffffffffffffffffffffffffff1614155b156125df5761240f67d137d11c0e4ee73360c01b614211565b612423679dc8af28bbf29add60c01b614211565b6124376786abdafa7b35d17c60c01b614211565b7f000000000000000000000000000000000000000000000000000000000000000073ffffffffffffffffffffffffffffffffffffffff166108fc6001549081150290604051600060405180830381858888f1935050505015801561249f573d6000803e3d6000fd5b506124b467f3c21cd10bff827060c01b614211565b6124c867abc634718c15e28d60c01b614211565b7f000000000000000000000000000000000000000000000000000000000000000073ffffffffffffffffffffffffffffffffffffffff166108fc600260035461251191906147fc565b9081150290604051600060405180830381858888f1935050505015801561253c573d6000803e3d6000fd5b5061255167b3b89fb1a76533d760c01b614211565b612565678d718b289e60b11e60c01b614211565b7f000000000000000000000000000000000000000000000000000000000000000073ffffffffffffffffffffffffffffffffffffffff166108fc60026003546125ae91906147fc565b9081150290604051600060405180830381858888f193505050501580156125d9573d6000803e3d6000fd5b506129b8565b6125f36782a6334dab4d6b3660c01b614211565b61260767bf90adda6da1bf5360c01b614211565b6000471180156126df57503073ffffffffffffffffffffffffffffffffffffffff16600560009054906101000a900473ffffffffffffffffffffffffffffffffffffffff1673ffffffffffffffffffffffffffffffffffffffff16636352211e6004546040518263ffffffff1660e01b8152600401612686919061440f565b602060405180830381865afa1580156126a3573d6000803e3d6000fd5b505050506040513d601f19601f820116820180604052508101906126c7919061473a565b73ffffffffffffffffffffffffffffffffffffffff16145b156129a2576126f8671ee056b35f007bda60c01b614211565b61270c676b6f8e72381bc6e360c01b614211565b61272067c423ada01b947d2760c01b614211565b600560009054906101000a900473ffffffffffffffffffffffffffffffffffffffff1673ffffffffffffffffffffffffffffffffffffffff166342842e0e307f00000000000000000000000000000000000000000000000000000000000000006004546040518463ffffffff1660e01b81526004016127a193929190614767565b600060405180830381600087803b1580156127bb57600080fd5b505af11580156127cf573d6000803e3d6000fd5b505050506127e767b675d17867dec88160c01b614211565b6127fb671ef7952bb76a8be060c01b614211565b7f000000000000000000000000000000000000000000000000000000000000000073ffffffffffffffffffffffffffffffffffffffff166108fc6001549081150290604051600060405180830381858888f19350505050158015612863573d6000803e3d6000fd5b5061287766671c6187078cc760c01b614211565b61288b674f2dc1f91e6ef33160c01b614211565b7f000000000000000000000000000000000000000000000000000000000000000073ffffffffffffffffffffffffffffffffffffffff166108fc60026003546128d491906147fc565b9081150290604051600060405180830381858888f193505050501580156128ff573d6000803e3d6000fd5b50612914672880136e8650c89e60c01b614211565b6129286739a3903f9e5f789f60c01b614211565b7f000000000000000000000000000000000000000000000000000000000000000073ffffffffffffffffffffffffffffffffffffffff166108fc600260035461297191906147fc565b9081150290604051600060405180830381858888f1935050505015801561299c573d6000803e3d6000fd5b506129b7565b6129b66791de97940ae124d260c01b614211565b5b5b6129cc672795e24aa35a838c60c01b614211565b6004600a60006101000a81548160ff021916908360058111156129f2576129f16144ce565b5b0217905550612a0b67e2938fd94ab0e03960c01b614211565b612a1f675a33db52e9c53cab60c01b614211565b7fe806be57c6038a3d74db5f804ecfb586a6b3a5093d46bdfb7919017a40abae8260405160405180910390a1565b7f000000000000000000000000000000000000000000000000000000000000000081565b60025481565b612a8b679ac8136554a29c0e60c01b614211565b612a9f676a07493b18a982ab60c01b614211565b612ab3674cd9e8daad4d0cd160c01b614211565b612ac767e55a09abb5c663cf60c01b614211565b612adb674b17bc150e694ef560c01b614211565b7f000000000000000000000000000000000000000000000000000000000000000073ffffffffffffffffffffffffffffffffffffffff163373ffffffffffffffffffffffffffffffffffffffff1614612b69576040517f08c379a0000000000000000000000000000000000000000000000000000000008152600401612b6090614eca565b60405180910390fd5b612b7d675cdae32cf86ac25460c01b614211565b612b9167d27867bac621e3e160c01b614211565b612ba567216b5d85882bd5b760c01b614211565b612bb967d8f3d2db72be5fed60c01b614211565b612bcd67d35ecc0e43d94ede60c01b614211565b612be1674ff72625584e833f60c01b614211565b612bf5677086735043eea47b60c01b614211565b60026005811115612c0957612c086144ce565b5b600a60009054906101000a900460ff166005811115612c2b57612c2a6144ce565b5b14612c6b576040517f08c379a0000000000000000000000000000000000000000000000000000000008152600401612c6290614f5c565b60405180910390fd5b612c7f67ce974d6df456aa0660c01b614211565b612c9367d3909342bf83cd5260c01b614211565b612ca7672482116658fc292c60c01b614211565b6000829050612cc06704f883728e15dba760c01b614211565b612cd467f9e2c21d5497009360c01b614211565b612ce867522b04092bedf10560c01b614211565b3373ffffffffffffffffffffffffffffffffffffffff168173ffffffffffffffffffffffffffffffffffffffff16636352211e846040518263ffffffff1660e01b8152600401612d38919061440f565b602060405180830381865afa158015612d55573d6000803e3d6000fd5b505050506040513d601f19601f82011682018060405250810190612d79919061473a565b73ffffffffffffffffffffffffffffffffffffffff1614612dcf576040517f08c379a0000000000000000000000000000000000000000000000000000000008152600401612dc690614fc8565b60405180910390fd5b612de367df6a33915830bc1860c01b614211565b612df767ecf339da6f7799e560c01b614211565b612e0b6748b4285239c6cd0860c01b614211565b8073ffffffffffffffffffffffffffffffffffffffff166342842e0e3330856040518463ffffffff1660e01b8152600401612e4893929190614767565b600060405180830381600087803b158015612e6257600080fd5b505af1158015612e76573d6000803e3d6000fd5b50505050612e8e67fd70ec9c395456a160c01b614211565b80600560006101000a81548173ffffffffffffffffffffffffffffffffffffffff021916908373ffffffffffffffffffffffffffffffffffffffff160217905550612ee3673fce9d857ccd299260c01b614211565b81600481905550612efe671c3dcba3acd8c49660c01b614211565b6003600a60006101000a81548160ff02191690836005811115612f2457612f236144ce565b5b0217905550612f3d6716833b46de2d743960c01b614211565b612f5167280ca5db5561be9a60c01b614211565b7f6efb14038b1cea4c793ce8f292d7f7b42a4bfd5e1d07166dda1be0627a59ef0e8383604051612f82929190614fe8565b60405180910390a1505050565b7f000000000000000000000000000000000000000000000000000000000000000081565b600760009054906101000a900460ff1681565b60045481565b612fe0678416b0c9a33c783160c01b614211565b612ff467f887d39098f6317660c01b614211565b613008671a056275dba88d5c60c01b614211565b61301c6734244581c8b03f4c60c01b614211565b61303067b426c0e7968a03e760c01b614211565b7f000000000000000000000000000000000000000000000000000000000000000073ffffffffffffffffffffffffffffffffffffffff163373ffffffffffffffffffffffffffffffffffffffff1614801561309b575061309a6724c416259ed22c7e60c01b614214565b5b8061310d57507f000000000000000000000000000000000000000000000000000000000000000073ffffffffffffffffffffffffffffffffffffffff163373ffffffffffffffffffffffffffffffffffffffff1614801561310c575061310b67e5214f8573ffb8b360c01b614214565b5b5b61314c576040517f08c379a0000000000000000000000000000000000000000000000000000000008152600401613143906149e3565b60405180910390fd5b613160675138e5718fbf6f2e60c01b614211565b613174675d6e729f628ae27a60c01b614211565b61318867ad8e0961e991bb3f60c01b614211565b61319c67fae704f5df94a4ec60c01b614211565b6131b0671a4cabbde38a417060c01b614211565b6131c467948ab95a3ad3d7a960c01b614211565b6131d867e097b2b6f30fd45660c01b614211565b600260058111156131ec576131eb6144ce565b5b600a60009054906101000a900460ff16600581111561320e5761320d6144ce565b5b14801561322b575061322a67ce2548ae95ad8b8a60c01b614214565b5b80613285575060036005811115613245576132446144ce565b5b600a60009054906101000a900460ff166005811115613267576132666144ce565b5b148015613284575061328367868ed60bd443cd7e60c01b614214565b5b5b6132c4576040517f08c379a00000000000000000000000000000000000000000000000000000000081526004016132bb9061505d565b60405180910390fd5b6132d867b65809ed41fe277860c01b614211565b6132ec676032bff4cf8279db60c01b614211565b61330067bac7b1409f8a3cd760c01b614211565b61331467fe0df52479192bc860c01b614211565b600760009054906101000a900460ff1615613364576040517f08c379a000000000000000000000000000000000000000000000000000000000815260040161335b906150c9565b60405180910390fd5b613378679851c26a68653bc060c01b614211565b61338c670caf84f0137e87aa60c01b614211565b6133a067b5a74b8d18e98e4b60c01b614211565b600062015180600854426133b491906150e9565b6133be91906147fc565b90506133d4679abddbe64c29905860c01b614211565b6133e867730bc42408616ae960c01b614211565b6133fc67586471617313349760c01b614211565b6009548111613440576040517f08c379a00000000000000000000000000000000000000000000000000000000081526004016134379061518f565b60405180910390fd5b61345467da3c437a9e47cd3560c01b614211565b61346867179e4a4939be826c60c01b614211565b6005600a60006101000a81548160ff0219169083600581111561348e5761348d6144ce565b5b02179055506134a767f394ec236b236a8760c01b614211565b7f000000000000000000000000000000000000000000000000000000000000000073ffffffffffffffffffffffffffffffffffffffff1663a5bc36363085856040518463ffffffff1660e01b8152600401613504939291906151af565b6020604051808303816000875af1158015613523573d6000803e3d6000fd5b505050506040513d601f19601f8201168201806040525081019061354791906151fb565b60068190555061356167e589f14cba181ab960c01b614211565b6001600760006101000a81548160ff021916908315150217905550613590677f47c7ae15310b3e60c01b614211565b6135a4670367434e1a5bff1760c01b614211565b7f04901f83201c8724eadf084436db8aa391820bae6d11f9f78a17edb6f2eef3cf6006546040516135d5919061440f565b60405180910390a1505050565b60035481565b6135fc67fe82e8271d85acbe60c01b614211565b61361067f887d39098f6317660c01b614211565b613624671a056275dba88d5c60c01b614211565b6136386734244581c8b03f4c60c01b614211565b61364c67b426c0e7968a03e760c01b614211565b7f000000000000000000000000000000000000000000000000000000000000000073ffffffffffffffffffffffffffffffffffffffff163373ffffffffffffffffffffffffffffffffffffffff161480156136b757506136b66724c416259ed22c7e60c01b614214565b5b8061372957507f000000000000000000000000000000000000000000000000000000000000000073ffffffffffffffffffffffffffffffffffffffff163373ffffffffffffffffffffffffffffffffffffffff16148015613728575061372767e5214f8573ffb8b360c01b614214565b5b5b613768576040517f08c379a000000000000000000000000000000000000000000000000000000000815260040161375f906149e3565b60405180910390fd5b61377c675138e5718fbf6f2e60c01b614211565b613790675d6e729f628ae27a60c01b614211565b6137a4673dfdd46e41808d1260c01b614211565b6137b86745d8716a5227d9e560c01b614211565b6137cc67243ef54ee624f81160c01b614211565b6137e06788dec2a2956ffdef60c01b614211565b6137f46794a3fac16b75ac1c60c01b614211565b60016005811115613808576138076144ce565b5b600a60009054906101000a900460ff16600581111561382a576138296144ce565b5b1461386a576040517f08c379a00000000000000000000000000000000000000000000000000000000081526004016138619061529a565b60405180910390fd5b61387e6725974096eb888fe060c01b614211565b61389267a83d8136a9e2645260c01b614211565b6138a6674b5d6c9069f19e8560c01b614211565b7f000000000000000000000000000000000000000000000000000000000000000073ffffffffffffffffffffffffffffffffffffffff163373ffffffffffffffffffffffffffffffffffffffff16036139b25761390d67df8ffee9a8b07dba60c01b614211565b61392167e61e03de040a2d3860c01b614211565b613935671a4417da0a9bffdd60c01b614211565b61394967108730160450346560c01b614211565b600260035461395891906147fc565b3414613999576040517f08c379a000000000000000000000000000000000000000000000000000000000815260040161399090615306565b60405180910390fd5b6139ad67ac8de181918a9bc160c01b614211565b6139c7565b6139c66715653fe7028446a160c01b614211565b5b6139db670d8fa99272a02e7760c01b614211565b6139ef67ef12a87403e139d760c01b614211565b7f000000000000000000000000000000000000000000000000000000000000000073ffffffffffffffffffffffffffffffffffffffff163373ffffffffffffffffffffffffffffffffffffffff1603613b0857613a5667e79df4eefff1ec8460c01b614211565b613a6a673c666d678623c02360c01b614211565b613a7e67d7e73183322a674960c01b614211565b613a9267c2297fcc6d1356ce60c01b614211565b6001546002600354613aa491906147fc565b613aae9190614d8f565b3414613aef576040517f08c379a0000000000000000000000000000000000000000000000000000000008152600401613ae690615372565b60405180910390fd5b613b0367696f457f0fd4e17160c01b614211565b613b1d565b613b1c67958bdd87f1d36ff660c01b614211565b5b613b316786bdd21c75ad2a9b60c01b614211565b613b45675a33b46fcde9945e60c01b614211565b600354600154613b559190614d8f565b4703613bb357613b6f67ebd2bf2a887fd3b360c01b614211565b613b836758a41a202b6ac28560c01b614211565b6002600a60006101000a81548160ff02191690836005811115613ba957613ba86144ce565b5b0217905550613bc8565b613bc767b31444cd4079cfec60c01b614211565b5b613bdc6751f342309579d0ab60c01b614211565b613bf067f82d124fe978163460c01b614211565b7f5af8184bef8e4b45eb9f6ed7734d04da38ced226495548f46e0c8ff8d7d9a5243334604051613c21929190614fe8565b60405180910390a1565b613c3f677eefdd56d74148e360c01b614211565b613c536727c253a52fdf541160c01b614211565b613c67675a8520741ee6e44260c01b614211565b613c7b676090cf4ee5e8933e60c01b614211565b613c8f67e3212f0dee4212a860c01b614211565b7f000000000000000000000000000000000000000000000000000000000000000073ffffffffffffffffffffffffffffffffffffffff163373ffffffffffffffffffffffffffffffffffffffff1614613d1d576040517f08c379a0000000000000000000000000000000000000000000000000000000008152600401613d1490614673565b60405180910390fd5b613d31675f8e7b6fe58cf6ca60c01b614211565b613d456758319c3b140f9cce60c01b614211565b613d59672398e3e9bcd5348860c01b614211565b613d6d6781cf4f57ce7da8fc60c01b614211565b613d81677e6ae34812b68e8d60c01b614211565b613d95673a32f6400dde670960c01b614211565b613da9676130f1473c5566d960c01b614211565b600580811115613dbc57613dbb6144ce565b5b600a60009054906101000a900460ff166005811115613dde57613ddd6144ce565b5b14613e1e576040517f08c379a0000000000000000000000000000000000000000000000000000000008152600401613e1590614705565b60405180910390fd5b613e3267b8798f38827b742d60c01b614211565b613e4667e56733420abebe5f60c01b614211565b613e5a67eaacf10799f9ef9460c01b614211565b3073ffffffffffffffffffffffffffffffffffffffff16600560009054906101000a900473ffffffffffffffffffffffffffffffffffffffff1673ffffffffffffffffffffffffffffffffffffffff16636352211e6004546040518263ffffffff1660e01b8152600401613ece919061440f565b602060405180830381865afa158015613eeb573d6000803e3d6000fd5b505050506040513d601f19601f82011682018060405250810190613f0f919061473a565b73ffffffffffffffffffffffffffffffffffffffff160361401e57613f3e674ecf40af8216eeda60c01b614211565b613f5267f71978128ce5d52e60c01b614211565b613f66672e8b53d462130d4860c01b614211565b600560009054906101000a900473ffffffffffffffffffffffffffffffffffffffff1673ffffffffffffffffffffffffffffffffffffffff166342842e0e307f00000000000000000000000000000000000000000000000000000000000000006004546040518463ffffffff1660e01b8152600401613fe793929190614767565b600060405180830381600087803b15801561400157600080fd5b505af1158015614015573d6000803e3d6000fd5b50505050614033565b6140326727725c9f5e25921b60c01b614211565b5b614047677991003064c8b6e260c01b614211565b61405b67c772d8e11e83154260c01b614211565b7f000000000000000000000000000000000000000000000000000000000000000073ffffffffffffffffffffffffffffffffffffffff166108fc60026003546140a491906147fc565b9081150290604051600060405180830381858888f193505050501580156140cf573d6000803e3d6000fd5b506140e467b5ad894070d8d68e60c01b614211565b6140f86758076528569d576b60c01b614211565b7f000000000000000000000000000000000000000000000000000000000000000073ffffffffffffffffffffffffffffffffffffffff166108fc600260035461414191906147fc565b9081150290604051600060405180830381858888f1935050505015801561416c573d6000803e3d6000fd5b5061418167ab1367888c19f93b60c01b614211565b6004600a60006101000a81548160ff021916908360058111156141a7576141a66144ce565b5b02179055506141c06761c0482ec9d76bae60c01b614211565b6141d4678a00c051f3a5fe9560c01b614211565b7f05d97f86513a23ae89f17cfde3e4ec84b0a3c3d8149b756693de97995a85bf00604051614201906153de565b60405180910390a1565b60005481565b50565b600060019050919050565b600080fd5b600080fd5b600073ffffffffffffffffffffffffffffffffffffffff82169050919050565b600061425482614229565b9050919050565b61426481614249565b811461426f57600080fd5b50565b6000813590506142818161425b565b92915050565b6000819050919050565b61429a81614287565b81146142a557600080fd5b50565b6000813590506142b781614291565b92915050565b600080fd5b600080fd5b600080fd5b60008083601f8401126142e2576142e16142bd565b5b8235905067ffffffffffffffff8111156142ff576142fe6142c2565b5b60208301915083600182028301111561431b5761431a6142c7565b5b9250929050565b60008060008060006080868803121561433e5761433d61421f565b5b600061434c88828901614272565b955050602061435d88828901614272565b945050604061436e888289016142a8565b935050606086013567ffffffffffffffff81111561438f5761438e614224565b5b61439b888289016142cc565b92509250509295509295909350565b60007fffffffff0000000000000000000000000000000000000000000000000000000082169050919050565b6143df816143aa565b82525050565b60006020820190506143fa60008301846143d6565b92915050565b61440981614287565b82525050565b60006020820190506144246000830184614400565b92915050565b6000819050919050565b600061444f61444a61444584614229565b61442a565b614229565b9050919050565b600061446182614434565b9050919050565b600061447382614456565b9050919050565b61448381614468565b82525050565b600060208201905061449e600083018461447a565b92915050565b6144ad81614249565b82525050565b60006020820190506144c860008301846144a4565b92915050565b7f4e487b7100000000000000000000000000000000000000000000000000000000600052602160045260246000fd5b6006811061450e5761450d6144ce565b5b50565b600081905061451f826144fd565b919050565b600061452f82614511565b9050919050565b61453f81614524565b82525050565b600060208201905061455a6000830184614536565b92915050565b600080604083850312156145775761457661421f565b5b600061458585828601614272565b9250506020614596858286016142a8565b9150509250929050565b60008115159050919050565b6145b5816145a0565b82525050565b60006020820190506145d060008301846145ac565b92915050565b600080604083850312156145ed576145ec61421f565b5b60006145fb858286016142a8565b925050602061460c858286016142a8565b9150509250929050565b600082825260208201905092915050565b7f4e6f7420696e766f6c7665642044414f00000000000000000000000000000000600082015250565b600061465d601083614616565b915061466882614627565b602082019050919050565b6000602082019050818103600083015261468c81614650565b9050919050565b7f566f74696e67206f7574636f6d65206f6e6c79206170706c696361626c65206660008201527f6f7220646973707574656420636f6d6d697373696f6e73000000000000000000602082015250565b60006146ef603783614616565b91506146fa82614693565b604082019050919050565b6000602082019050818103600083015261471e816146e2565b9050919050565b6000815190506147348161425b565b92915050565b6000602082840312156147505761474f61421f565b5b600061475e84828501614725565b91505092915050565b600060608201905061477c60008301866144a4565b61478960208301856144a4565b6147966040830184614400565b949350505050565b7f4e487b7100000000000000000000000000000000000000000000000000000000600052601260045260246000fd5b7f4e487b7100000000000000000000000000000000000000000000000000000000600052601160045260246000fd5b600061480782614287565b915061481283614287565b9250826148225761482161479e565b5b828204905092915050565b7f4172746973740000000000000000000000000000000000000000000000000000600082015250565b6000614863600683614616565b915061486e8261482d565b602082019050919050565b6000602082019050818103600083015261489281614856565b9050919050565b7f417274697374206d75737420696e70757420617274206e667400000000000000600082015250565b60006148cf601983614616565b91506148da82614899565b602082019050919050565b600060208201905081810360008301526148fe816148c2565b9050919050565b7f436f6d6d697373696f6e20636f6e7472616374206973206e6f7420746865206160008201527f7274206e667420726563697069656e7400000000000000000000000000000000602082015250565b6000614961603083614616565b915061496c82614905565b604082019050919050565b6000602082019050818103600083015261499081614954565b9050919050565b7f4e6f7420696e766f6c7665642070617274790000000000000000000000000000600082015250565b60006149cd601283614616565b91506149d882614997565b602082019050919050565b600060208201905081810360008301526149fc816149c0565b9050919050565b7f436f6d6d697373696f6e2070726f706f73616c2064657461696c73206e6f742060008201527f79657420617070726f76656420627920626f7468207061727469657300000000602082015250565b6000614a5f603c83614616565b9150614a6a82614a03565b604082019050919050565b60006020820190508181036000830152614a8e81614a52565b9050919050565b7f417274697374206d75737420617070726f76652070726f706f73656420636f6d60008201527f6d697373696f6e00000000000000000000000000000000000000000000000000602082015250565b6000614af1602783614616565b9150614afc82614a95565b604082019050919050565b60006020820190508181036000830152614b2081614ae4565b9050919050565b7f4275796572206d75737420617070726f76652070726f706f73656420636f6d6d60008201527f697373696f6e0000000000000000000000000000000000000000000000000000602082015250565b6000614b83602683614616565b9150614b8e82614b27565b604082019050919050565b60006020820190508181036000830152614bb281614b76565b9050919050565b7f4e65697468657200000000000000000000000000000000000000000000000000600082015250565b6000614bef600783614616565b9150614bfa82614bb9565b602082019050919050565b60006020820190508181036000830152614c1e81614be2565b9050919050565b7f4e6f742062757965720000000000000000000000000000000000000000000000600082015250565b6000614c5b600983614616565b9150614c6682614c25565b602082019050919050565b60006020820190508181036000830152614c8a81614c4e565b9050919050565b7f417274776f726b206e6f74207375626d69747465640000000000000000000000600082015250565b6000614cc7601583614616565b9150614cd282614c91565b602082019050919050565b60006020820190508181036000830152614cf681614cba565b9050919050565b7f4e6f74207468652065787065637465642066756c6c2066696e616c207061796d60008201527f656e740000000000000000000000000000000000000000000000000000000000602082015250565b6000614d59602383614616565b9150614d6482614cfd565b604082019050919050565b60006020820190508181036000830152614d8881614d4c565b9050919050565b6000614d9a82614287565b9150614da583614287565b9250828201905080821115614dbd57614dbc6147cd565b5b92915050565b6000604082019050614dd860008301856144a4565b614de560208301846144a4565b9392505050565b7f426f74682070617274696573206d75737420617070726f76652063616e63656c60008201527f6c6174696f6e0000000000000000000000000000000000000000000000000000602082015250565b6000614e48602683614616565b9150614e5382614dec565b604082019050919050565b60006020820190508181036000830152614e7781614e3b565b9050919050565b7f4e6f742061727469737400000000000000000000000000000000000000000000600082015250565b6000614eb4600a83614616565b9150614ebf82614e7e565b602082019050919050565b60006020820190508181036000830152614ee381614ea7565b9050919050565b7f436f6e747261637420686173206e6f74206265656e2066756e6465642062792060008201527f626f746820706172746965730000000000000000000000000000000000000000602082015250565b6000614f46602c83614616565b9150614f5182614eea565b604082019050919050565b60006020820190508181036000830152614f7581614f39565b9050919050565b7f53656e646572206973206e6f74206f776e6572206f6620746865206e66740000600082015250565b6000614fb2601e83614616565b9150614fbd82614f7c565b602082019050919050565b60006020820190508181036000830152614fe181614fa5565b9050919050565b6000604082019050614ffd60008301856144a4565b61500a6020830184614400565b9392505050565b7f43616e6e6f74206469737075746520696e2063757272656e7420737461746500600082015250565b6000615047601f83614616565b915061505282615011565b602082019050919050565b600060208201905081810360008301526150768161503a565b9050919050565b7f4469737075746520616c72656164792072616973656400000000000000000000600082015250565b60006150b3601683614616565b91506150be8261507d565b602082019050919050565b600060208201905081810360008301526150e2816150a6565b9050919050565b60006150f482614287565b91506150ff83614287565b9250828203905081811115615117576151166147cd565b5b92915050565b7f4d757374206c656176652074696d65206265666f7265207472616e736163746960008201527f6f6e2063616e2062652064697370757465640000000000000000000000000000602082015250565b6000615179603283614616565b91506151848261511d565b604082019050919050565b600060208201905081810360008301526151a88161516c565b9050919050565b60006060820190506151c460008301866144a4565b6151d16020830185614400565b6151de6040830184614400565b949350505050565b6000815190506151f581614291565b92915050565b6000602082840312156152115761521061421f565b5b600061521f848285016151e6565b91505092915050565b7f436f6e747261637420686173206e6f74206265656e20636f6e6669726d65642060008201527f627920626f746820706172746965730000000000000000000000000000000000602082015250565b6000615284602f83614616565b915061528f82615228565b604082019050919050565b600060208201905081810360008301526152b381615277565b9050919050565b7f57726f6e67206172746973742066756e64696e67000000000000000000000000600082015250565b60006152f0601483614616565b91506152fb826152ba565b602082019050919050565b6000602082019050818103600083015261531f816152e3565b9050919050565b7f57726f6e672062757965722066756e64696e6700000000000000000000000000600082015250565b600061535c601383614616565b915061536782615326565b602082019050919050565b6000602082019050818103600083015261538b8161534f565b9050919050565b7f4275796572000000000000000000000000000000000000000000000000000000600082015250565b60006153c8600583614616565b91506153d382615392565b602082019050919050565b600060208201905081810360008301526153f7816153bb565b905091905056fea2646970667358221220bcc15313874c3d8cc588605773b8dcce12387460cbd2b1bc546d34c8b9e8264a64736f6c634300081c0033",
  "linkReferences": {},
  "deployedLinkReferences": {}
}