{
  "_format": "hh-sol-artifact-1",
  "contractName": "ArtCommission",
  "sourceName": "contracts/art_commission.sol",
  "abi": [
    {
      "inputs": [
        {
          "internalType": "address",
          "name": "_buyer",
          "type": "address"
        },
        {
          "internalType": "address",
          "name": "_artist",
          "type": "address"
        },
        {
          "internalType": "uint256",
          "name": "_insuranceAmount",
          "type": "uint256"
        },
        {
          "internalType": "uint256",
          "name": "_price",
          "type": "uint256"
        },
        {
          "internalType": "uint256",
          "name": "_upfrontPayment",
          "type": "uint256"
        },
        {
          "internalType": "uint256",
          "name": "timeframe",
          "type": "uint256"
        },
        {
          "internalType": "address",
          "name": "_dao",
          "type": "address"
        }
      ],
      "stateMutability": "nonpayable",
      "type": "constructor"
    },
    {
      "anonymous": false,
      "inputs": [
        {
          "indexed": false,
          "internalType": "address",
          "name": "nft",
          "type": "address"
        },
        {
          "indexed": false,
          "internalType": "uint256",
          "name": "tokenId",
          "type": "uint256"
        }
      ],
      "name": "ArtworkSubmitted",
      "type": "event"
    },
    {
      "anonymous": false,
      "inputs": [
        {
          "indexed": false,
          "internalType": "address",
          "name": "buyer",
          "type": "address"
        },
        {
          "indexed": false,
          "internalType": "address",
          "name": "artist",
          "type": "address"
        }
      ],
      "name": "CompletedSuccessfully",
      "type": "event"
    },
    {
      "anonymous": false,
      "inputs": [
        {
          "indexed": false,
          "internalType": "address",
          "name": "confirmer",
          "type": "address"
        }
      ],
      "name": "ContractConfirmed",
      "type": "event"
    },
    {
      "anonymous": false,
      "inputs": [
        {
          "indexed": false,
          "internalType": "uint256",
          "name": "disputeId",
          "type": "uint256"
        }
      ],
      "name": "DisputeRaised",
      "type": "event"
    },
    {
      "anonymous": false,
      "inputs": [
        {
          "indexed": false,
          "internalType": "address",
          "name": "funder",
          "type": "address"
        },
        {
          "indexed": false,
          "internalType": "uint256",
          "name": "amount",
          "type": "uint256"
        }
      ],
      "name": "Funded",
      "type": "event"
    },
    {
      "anonymous": false,
      "inputs": [],
      "name": "GoodFaithCancelled",
      "type": "event"
    },
    {
      "anonymous": false,
      "inputs": [
        {
          "indexed": false,
          "internalType": "string",
          "name": "outcome",
          "type": "string"
        }
      ],
      "name": "ResolvedByDAO",
      "type": "event"
    },
    {
      "inputs": [],
      "name": "DAO",
      "outputs": [
        {
          "internalType": "address",
          "name": "",
          "type": "address"
        }
      ],
      "stateMutability": "view",
      "type": "function"
    },
    {
      "inputs": [
        {
          "internalType": "address",
          "name": "nft",
          "type": "address"
        },
        {
          "internalType": "uint256",
          "name": "tokenID",
          "type": "uint256"
        }
      ],
      "name": "acceptArt",
      "outputs": [],
      "stateMutability": "nonpayable",
      "type": "function"
    },
    {
      "inputs": [],
      "name": "artID",
      "outputs": [
        {
          "internalType": "uint256",
          "name": "",
          "type": "uint256"
        }
      ],
      "stateMutability": "view",
      "type": "function"
    },
    {
      "inputs": [],
      "name": "artist",
      "outputs": [
        {
          "internalType": "address",
          "name": "",
          "type": "address"
        }
      ],
      "stateMutability": "view",
      "type": "function"
    },
    {
      "inputs": [],
      "name": "artistWins",
      "outputs": [],
      "stateMutability": "payable",
      "type": "function"
    },
    {
      "inputs": [],
      "name": "artwork",
      "outputs": [
        {
          "internalType": "contract IERC721",
          "name": "",
          "type": "address"
        }
      ],
      "stateMutability": "view",
      "type": "function"
    },
    {
      "inputs": [],
      "name": "buyer",
      "outputs": [
        {
          "internalType": "address",
          "name": "",
          "type": "address"
        }
      ],
      "stateMutability": "view",
      "type": "function"
    },
    {
      "inputs": [],
      "name": "buyerWins",
      "outputs": [],
      "stateMutability": "payable",
      "type": "function"
    },
    {
      "inputs": [],
      "name": "contractConfirm",
      "outputs": [],
      "stateMutability": "nonpayable",
      "type": "function"
    },
    {
      "inputs": [],
      "name": "daoCaseCreated",
      "outputs": [
        {
          "internalType": "bool",
          "name": "",
          "type": "bool"
        }
      ],
      "stateMutability": "view",
      "type": "function"
    },
    {
      "inputs": [],
      "name": "disputeId",
      "outputs": [
        {
          "internalType": "uint256",
          "name": "",
          "type": "uint256"
        }
      ],
      "stateMutability": "view",
      "type": "function"
    },
    {
      "inputs": [],
      "name": "fullPrice",
      "outputs": [
        {
          "internalType": "uint256",
          "name": "",
          "type": "uint256"
        }
      ],
      "stateMutability": "view",
      "type": "function"
    },
    {
      "inputs": [],
      "name": "fund",
      "outputs": [],
      "stateMutability": "payable",
      "type": "function"
    },
    {
      "inputs": [],
      "name": "goodFaithRelease",
      "outputs": [],
      "stateMutability": "nonpayable",
      "type": "function"
    },
    {
      "inputs": [],
      "name": "insuranceAmount",
      "outputs": [
        {
          "internalType": "uint256",
          "name": "",
          "type": "uint256"
        }
      ],
      "stateMutability": "view",
      "type": "function"
    },
    {
      "inputs": [],
      "name": "lastPayment",
      "outputs": [
        {
          "internalType": "uint256",
          "name": "",
          "type": "uint256"
        }
      ],
      "stateMutability": "view",
      "type": "function"
    },
    {
      "inputs": [],
      "name": "neitherWins",
      "outputs": [],
      "stateMutability": "payable",
      "type": "function"
    },
    {
      "inputs": [
        {
          "internalType": "address",
          "name": "operator",
          "type": "address"
        },
        {
          "internalType": "address",
          "name": "from",
          "type": "address"
        },
        {
          "internalType": "uint256",
          "name": "tokenID",
          "type": "uint256"
        },
        {
          "internalType": "bytes",
          "name": "data",
          "type": "bytes"
        }
      ],
      "name": "onERC721Received",
      "outputs": [
        {
          "internalType": "bytes4",
          "name": "",
          "type": "bytes4"
        }
      ],
      "stateMutability": "nonpayable",
      "type": "function"
    },
    {
      "inputs": [],
      "name": "payInFullAndRelease",
      "outputs": [],
      "stateMutability": "payable",
      "type": "function"
    },
    {
      "inputs": [],
      "name": "progress",
      "outputs": [
        {
          "internalType": "enum ArtCommission.State",
          "name": "",
          "type": "uint8"
        }
      ],
      "stateMutability": "view",
      "type": "function"
    },
    {
      "inputs": [
        {
          "internalType": "uint256",
          "name": "panelSize",
          "type": "uint256"
        },
        {
          "internalType": "uint256",
          "name": "votingDuration",
          "type": "uint256"
        }
      ],
      "name": "raiseDispute",
      "outputs": [],
      "stateMutability": "nonpayable",
      "type": "function"
    },
    {
      "inputs": [],
      "name": "upfrontPayment",
      "outputs": [
        {
          "internalType": "uint256",
          "name": "",
          "type": "uint256"
        }
      ],
      "stateMutability": "view",
      "type": "function"
    }
  ],
  "bytecode": "0x60e060405234801561001057600080fd5b506040516145ff3803806145ff833981810160405281019061003291906104bd565b8673ffffffffffffffffffffffffffffffffffffffff163373ffffffffffffffffffffffffffffffffffffffff16148061009757508573ffffffffffffffffffffffffffffffffffffffff163373ffffffffffffffffffffffffffffffffffffffff16145b6100d6576040517f08c379a00000000000000000000000000000000000000000000000000000000081526004016100cd906105e2565b60405180910390fd5b600073ffffffffffffffffffffffffffffffffffffffff168773ffffffffffffffffffffffffffffffffffffffff1603610145576040517f08c379a000000000000000000000000000000000000000000000000000000000815260040161013c9061064e565b60405180910390fd5b600073ffffffffffffffffffffffffffffffffffffffff168673ffffffffffffffffffffffffffffffffffffffff16036101b4576040517f08c379a00000000000000000000000000000000000000000000000000000000081526004016101ab906106ba565b60405180910390fd5b600073ffffffffffffffffffffffffffffffffffffffff168173ffffffffffffffffffffffffffffffffffffffff1603610223576040517f08c379a000000000000000000000000000000000000000000000000000000000815260040161021a90610726565b60405180910390fd5b661aa535d3d0c00085101561026d576040517f08c379a000000000000000000000000000000000000000000000000000000000815260040161026490610792565b60405180910390fd5b828410156102b0576040517f08c379a00000000000000000000000000000000000000000000000000000000081526004016102a7906107fe565b60405180910390fd5b8673ffffffffffffffffffffffffffffffffffffffff1660a08173ffffffffffffffffffffffffffffffffffffffff16815250508573ffffffffffffffffffffffffffffffffffffffff1660808173ffffffffffffffffffffffffffffffffffffffff16815250508073ffffffffffffffffffffffffffffffffffffffff1660c08173ffffffffffffffffffffffffffffffffffffffff1681525050846003819055508260018190555060015484610368919061084d565b60028190555083600081905550816009819055506000600a60006101000a81548160ff021916908360058111156103a2576103a1610881565b5b02179055503373ffffffffffffffffffffffffffffffffffffffff1660a05173ffffffffffffffffffffffffffffffffffffffff16036103fc576000600560146101000a81548160ff021916908315150217905550610418565b6001600560146101000a81548160ff0219169083151502179055505b505050505050506108b0565b600080fd5b600073ffffffffffffffffffffffffffffffffffffffff82169050919050565b600061045482610429565b9050919050565b61046481610449565b811461046f57600080fd5b50565b6000815190506104818161045b565b92915050565b6000819050919050565b61049a81610487565b81146104a557600080fd5b50565b6000815190506104b781610491565b92915050565b600080600080600080600060e0888a0312156104dc576104db610424565b5b60006104ea8a828b01610472565b97505060206104fb8a828b01610472565b965050604061050c8a828b016104a8565b955050606061051d8a828b016104a8565b945050608061052e8a828b016104a8565b93505060a061053f8a828b016104a8565b92505060c06105508a828b01610472565b91505092959891949750929550565b600082825260208201905092915050565b7f54686972642070617274792063616e6e6f7420696e69746961746520636f6e7460008201527f7261637400000000000000000000000000000000000000000000000000000000602082015250565b60006105cc60248361055f565b91506105d782610570565b604082019050919050565b600060208201905081810360008301526105fb816105bf565b9050919050565b7f496e76616c696420627579657200000000000000000000000000000000000000600082015250565b6000610638600d8361055f565b915061064382610602565b602082019050919050565b600060208201905081810360008301526106678161062b565b9050919050565b7f496e76616c696420617274697374000000000000000000000000000000000000600082015250565b60006106a4600e8361055f565b91506106af8261066e565b602082019050919050565b600060208201905081810360008301526106d381610697565b9050919050565b7f496e76616c69642044414f000000000000000000000000000000000000000000600082015250565b6000610710600b8361055f565b915061071b826106da565b602082019050919050565b6000602082019050818103600083015261073f81610703565b9050919050565b7f496e737572616e636520746f6f206c6f77000000000000000000000000000000600082015250565b600061077c60118361055f565b915061078782610746565b602082019050919050565b600060208201905081810360008301526107ab8161076f565b9050919050565b7f557066726f6e7420657863656564732066756c6c207072696365000000000000600082015250565b60006107e8601a8361055f565b91506107f3826107b2565b602082019050919050565b60006020820190508181036000830152610817816107db565b9050919050565b7f4e487b7100000000000000000000000000000000000000000000000000000000600052601160045260246000fd5b600061085882610487565b915061086383610487565b925082820390508181111561087b5761087a61081e565b5b92915050565b7f4e487b7100000000000000000000000000000000000000000000000000000000600052602160045260246000fd5b60805160a05160c051613bfa610a056000396000818161042f0152818161072b01528181610c4701528181610f4501528181610fbc01528181611f29015281816121dd0152818161260e015261290a01526000818161091901528181610b2101528181610edc015281816110ae01528181611316015281816113d70152818161144401528181611528015281816117590152818161183701528181611b1f01528181611bef01528181611f66015281816122e2015281816124e0015281816128200152612895015260008181610641015281816106b6015281816108040152818161096e01528181610a8e01528181610e590152818161108a01528181611289015281816113f80152818161149901528181611597015281816117c2015281816119cd01528181611a4101528181611aaa01528181611c1901528181611fbb01528181612337015261243c0152613bfa6000f3fe6080604052600436106101355760003560e01c80637150d8ae116100ab5780639b918aad1161006f5780639b918aad1461036f5780639f6860971461039a578063a74f9965146103c3578063b60d4288146103ee578063e1d295e7146103f8578063edd634b81461040257610135565b80637150d8ae1461029a57806381e170de146102c557806398ca4a05146102f057806398fabd3a1461031957806399e056d21461034457610135565b80632e77c8d2116100fd5780632e77c8d2146101ee57806337f89bdf1461021957806343bc1612146102235780634eb60c9f1461024e578063577bd3361461025857806368c8b2a91461028357610135565b80630f6e7fbd1461013a578063150b7a02146101445780631ccbc6da146101815780632618810c146101ac57806326cc133e146101c3575b600080fd5b61014261042d565b005b34801561015057600080fd5b5061016b60048036038101906101669190612ae8565b610800565b6040516101789190612bab565b60405180910390f35b34801561018d57600080fd5b50610196610911565b6040516101a39190612bd5565b60405180910390f35b3480156101b857600080fd5b506101c1610917565b005b3480156101cf57600080fd5b506101d8610c19565b6040516101e59190612c4f565b60405180910390f35b3480156101fa57600080fd5b50610203610c3f565b6040516102109190612bd5565b60405180910390f35b610221610c45565b005b34801561022f57600080fd5b50610238611088565b6040516102459190612c79565b60405180910390f35b6102566110ac565b005b34801561026457600080fd5b5061026d61142f565b60405161027a9190612d0b565b60405180910390f35b34801561028f57600080fd5b50610298611442565b005b3480156102a657600080fd5b506102af611bed565b6040516102bc9190612c79565b60405180910390f35b3480156102d157600080fd5b506102da611c11565b6040516102e79190612bd5565b60405180910390f35b3480156102fc57600080fd5b5061031760048036038101906103129190612d26565b611c17565b005b34801561032557600080fd5b5061032e611f27565b60405161033b9190612c79565b60405180910390f35b34801561035057600080fd5b50610359611f4b565b6040516103669190612d81565b60405180910390f35b34801561037b57600080fd5b50610384611f5e565b6040516103919190612bd5565b60405180910390f35b3480156103a657600080fd5b506103c160048036038101906103bc9190612d9c565b611f64565b005b3480156103cf57600080fd5b506103d86122da565b6040516103e59190612bd5565b60405180910390f35b6103f66122e0565b005b61040061260c565b005b34801561040e57600080fd5b506104176129df565b6040516104249190612bd5565b60405180910390f35b7f000000000000000000000000000000000000000000000000000000000000000073ffffffffffffffffffffffffffffffffffffffff163373ffffffffffffffffffffffffffffffffffffffff16146104bb576040517f08c379a00000000000000000000000000000000000000000000000000000000081526004016104b290612e39565b60405180910390fd5b6005808111156104ce576104cd612c94565b5b600a60009054906101000a900460ff1660058111156104f0576104ef612c94565b5b14610530576040517f08c379a000000000000000000000000000000000000000000000000000000000815260040161052790612ecb565b60405180910390fd5b3073ffffffffffffffffffffffffffffffffffffffff16600560009054906101000a900473ffffffffffffffffffffffffffffffffffffffff1673ffffffffffffffffffffffffffffffffffffffff16636352211e6004546040518263ffffffff1660e01b81526004016105a49190612bd5565b602060405180830381865afa1580156105c1573d6000803e3d6000fd5b505050506040513d601f19601f820116820180604052508101906105e59190612f00565b73ffffffffffffffffffffffffffffffffffffffff16036106b457600560009054906101000a900473ffffffffffffffffffffffffffffffffffffffff1673ffffffffffffffffffffffffffffffffffffffff166342842e0e307f00000000000000000000000000000000000000000000000000000000000000006004546040518463ffffffff1660e01b815260040161068193929190612f2d565b600060405180830381600087803b15801561069b57600080fd5b505af11580156106af573d6000803e3d6000fd5b505050505b7f000000000000000000000000000000000000000000000000000000000000000073ffffffffffffffffffffffffffffffffffffffff166108fc60026003546106fd9190612fc2565b9081150290604051600060405180830381858888f19350505050158015610728573d6000803e3d6000fd5b507f000000000000000000000000000000000000000000000000000000000000000073ffffffffffffffffffffffffffffffffffffffff166108fc60026003546107729190612fc2565b9081150290604051600060405180830381858888f1935050505015801561079d573d6000803e3d6000fd5b506004600a60006101000a81548160ff021916908360058111156107c4576107c3612c94565b5b02179055507f05d97f86513a23ae89f17cfde3e4ec84b0a3c3d8149b756693de97995a85bf006040516107f69061303f565b60405180910390a1565b60007f000000000000000000000000000000000000000000000000000000000000000073ffffffffffffffffffffffffffffffffffffffff168573ffffffffffffffffffffffffffffffffffffffff1614610890576040517f08c379a0000000000000000000000000000000000000000000000000000000008152600401610887906130ab565b60405180910390fd5b3073ffffffffffffffffffffffffffffffffffffffff168673ffffffffffffffffffffffffffffffffffffffff16146108fe576040517f08c379a00000000000000000000000000000000000000000000000000000000081526004016108f59061313d565b60405180910390fd5b63150b7a0260e01b905095945050505050565b60015481565b7f000000000000000000000000000000000000000000000000000000000000000073ffffffffffffffffffffffffffffffffffffffff163373ffffffffffffffffffffffffffffffffffffffff1614806109bc57507f000000000000000000000000000000000000000000000000000000000000000073ffffffffffffffffffffffffffffffffffffffff163373ffffffffffffffffffffffffffffffffffffffff16145b6109fb576040517f08c379a00000000000000000000000000000000000000000000000000000000081526004016109f2906131a9565b60405180910390fd5b60006005811115610a0f57610a0e612c94565b5b600a60009054906101000a900460ff166005811115610a3157610a30612c94565b5b14610a71576040517f08c379a0000000000000000000000000000000000000000000000000000000008152600401610a689061323b565b60405180910390fd5b60001515600560149054906101000a900460ff16151503610b1f577f000000000000000000000000000000000000000000000000000000000000000073ffffffffffffffffffffffffffffffffffffffff163373ffffffffffffffffffffffffffffffffffffffff1614610b1a576040517f08c379a0000000000000000000000000000000000000000000000000000000008152600401610b11906132cd565b60405180910390fd5b610bae565b7f000000000000000000000000000000000000000000000000000000000000000073ffffffffffffffffffffffffffffffffffffffff163373ffffffffffffffffffffffffffffffffffffffff1614610bad576040517f08c379a0000000000000000000000000000000000000000000000000000000008152600401610ba49061335f565b60405180910390fd5b5b6001600a60006101000a81548160ff02191690836005811115610bd457610bd3612c94565b5b02179055507feedbc83446ed303e6f7e6c10eed0cd9f832f80b67c8de8583f7b19d48a4cb90133604051610c089190612c79565b60405180910390a142600881905550565b600560009054906101000a900473ffffffffffffffffffffffffffffffffffffffff1681565b60065481565b7f000000000000000000000000000000000000000000000000000000000000000073ffffffffffffffffffffffffffffffffffffffff163373ffffffffffffffffffffffffffffffffffffffff1614610cd3576040517f08c379a0000000000000000000000000000000000000000000000000000000008152600401610cca90612e39565b60405180910390fd5b600580811115610ce657610ce5612c94565b5b600a60009054906101000a900460ff166005811115610d0857610d07612c94565b5b14610d48576040517f08c379a0000000000000000000000000000000000000000000000000000000008152600401610d3f90612ecb565b60405180910390fd5b3073ffffffffffffffffffffffffffffffffffffffff16600560009054906101000a900473ffffffffffffffffffffffffffffffffffffffff1673ffffffffffffffffffffffffffffffffffffffff16636352211e6004546040518263ffffffff1660e01b8152600401610dbc9190612bd5565b602060405180830381865afa158015610dd9573d6000803e3d6000fd5b505050506040513d601f19601f82011682018060405250810190610dfd9190612f00565b73ffffffffffffffffffffffffffffffffffffffff1603610ecc57600560009054906101000a900473ffffffffffffffffffffffffffffffffffffffff1673ffffffffffffffffffffffffffffffffffffffff166342842e0e307f00000000000000000000000000000000000000000000000000000000000000006004546040518463ffffffff1660e01b8152600401610e9993929190612f2d565b600060405180830381600087803b158015610eb357600080fd5b505af1158015610ec7573d6000803e3d6000fd5b505050505b60004790506000548110610fb1577f000000000000000000000000000000000000000000000000000000000000000073ffffffffffffffffffffffffffffffffffffffff166108fc6000549081150290604051600060405180830381858888f19350505050158015610f42573d6000803e3d6000fd5b507f000000000000000000000000000000000000000000000000000000000000000073ffffffffffffffffffffffffffffffffffffffff166108fc6003549081150290604051600060405180830381858888f19350505050158015610fab573d6000803e3d6000fd5b50611025565b6003544710611024577f000000000000000000000000000000000000000000000000000000000000000073ffffffffffffffffffffffffffffffffffffffff166108fc6003549081150290604051600060405180830381858888f19350505050158015611022573d6000803e3d6000fd5b505b5b6004600a60006101000a81548160ff0219169083600581111561104b5761104a612c94565b5b02179055507f05d97f86513a23ae89f17cfde3e4ec84b0a3c3d8149b756693de97995a85bf0060405161107d906133cb565b60405180910390a150565b7f000000000000000000000000000000000000000000000000000000000000000081565b7f000000000000000000000000000000000000000000000000000000000000000073ffffffffffffffffffffffffffffffffffffffff163373ffffffffffffffffffffffffffffffffffffffff161461113a576040517f08c379a000000000000000000000000000000000000000000000000000000000815260040161113190613437565b60405180910390fd5b6003600581111561114e5761114d612c94565b5b600a60009054906101000a900460ff1660058111156111705761116f612c94565b5b146111b0576040517f08c379a00000000000000000000000000000000000000000000000000000000081526004016111a7906134a3565b60405180910390fd5b60025434146111f4576040517f08c379a00000000000000000000000000000000000000000000000000000000081526004016111eb90613535565b60405180910390fd5b600560009054906101000a900473ffffffffffffffffffffffffffffffffffffffff1673ffffffffffffffffffffffffffffffffffffffff166342842e0e30336004546040518463ffffffff1660e01b815260040161125593929190612f2d565b600060405180830381600087803b15801561126f57600080fd5b505af1158015611283573d6000803e3d6000fd5b505050507f000000000000000000000000000000000000000000000000000000000000000073ffffffffffffffffffffffffffffffffffffffff166108fc60026003546112d09190612fc2565b600154346112de9190613555565b6112e89190613555565b9081150290604051600060405180830381858888f19350505050158015611313573d6000803e3d6000fd5b507f000000000000000000000000000000000000000000000000000000000000000073ffffffffffffffffffffffffffffffffffffffff166108fc600260035461135d9190612fc2565b9081150290604051600060405180830381858888f19350505050158015611388573d6000803e3d6000fd5b506004600a60006101000a81548160ff021916908360058111156113af576113ae612c94565b5b02179055507f1bd25b21f16f0ca62dfc649d83cc6cc5299238a43d6f3260599c895f8d72c9327f00000000000000000000000000000000000000000000000000000000000000007f0000000000000000000000000000000000000000000000000000000000000000604051611425929190613589565b60405180910390a1565b600a60009054906101000a900460ff1681565b7f000000000000000000000000000000000000000000000000000000000000000073ffffffffffffffffffffffffffffffffffffffff163373ffffffffffffffffffffffffffffffffffffffff1614806114e757507f000000000000000000000000000000000000000000000000000000000000000073ffffffffffffffffffffffffffffffffffffffff163373ffffffffffffffffffffffffffffffffffffffff16145b611526576040517f08c379a000000000000000000000000000000000000000000000000000000000815260040161151d906131a9565b60405180910390fd5b7f000000000000000000000000000000000000000000000000000000000000000073ffffffffffffffffffffffffffffffffffffffff163373ffffffffffffffffffffffffffffffffffffffff1603611595576001600560156101000a81548160ff0219169083151502179055505b7f000000000000000000000000000000000000000000000000000000000000000073ffffffffffffffffffffffffffffffffffffffff163373ffffffffffffffffffffffffffffffffffffffff1603611604576001600560166101000a81548160ff0219169083151502179055505b60011515600560159054906101000a900460ff16151514801561163a575060011515600560169054906101000a900460ff161515145b611679576040517f08c379a000000000000000000000000000000000000000000000000000000000815260040161167090613624565b60405180910390fd5b60004711801561175257503073ffffffffffffffffffffffffffffffffffffffff16600560009054906101000a900473ffffffffffffffffffffffffffffffffffffffff1673ffffffffffffffffffffffffffffffffffffffff16636352211e6004546040518263ffffffff1660e01b81526004016116f89190612bd5565b602060405180830381865afa158015611715573d6000803e3d6000fd5b505050506040513d601f19601f820116820180604052508101906117399190612f00565b73ffffffffffffffffffffffffffffffffffffffff1614155b156118af577f000000000000000000000000000000000000000000000000000000000000000073ffffffffffffffffffffffffffffffffffffffff166108fc6001549081150290604051600060405180830381858888f193505050501580156117bf573d6000803e3d6000fd5b507f000000000000000000000000000000000000000000000000000000000000000073ffffffffffffffffffffffffffffffffffffffff166108fc60026003546118099190612fc2565b9081150290604051600060405180830381858888f19350505050158015611834573d6000803e3d6000fd5b507f000000000000000000000000000000000000000000000000000000000000000073ffffffffffffffffffffffffffffffffffffffff166108fc600260035461187e9190612fc2565b9081150290604051600060405180830381858888f193505050501580156118a9573d6000803e3d6000fd5b50611b94565b60004711801561198757503073ffffffffffffffffffffffffffffffffffffffff16600560009054906101000a900473ffffffffffffffffffffffffffffffffffffffff1673ffffffffffffffffffffffffffffffffffffffff16636352211e6004546040518263ffffffff1660e01b815260040161192e9190612bd5565b602060405180830381865afa15801561194b573d6000803e3d6000fd5b505050506040513d601f19601f8201168201806040525081019061196f9190612f00565b73ffffffffffffffffffffffffffffffffffffffff16145b15611b9357600560009054906101000a900473ffffffffffffffffffffffffffffffffffffffff1673ffffffffffffffffffffffffffffffffffffffff166342842e0e307f00000000000000000000000000000000000000000000000000000000000000006004546040518463ffffffff1660e01b8152600401611a0d93929190612f2d565b600060405180830381600087803b158015611a2757600080fd5b505af1158015611a3b573d6000803e3d6000fd5b505050507f000000000000000000000000000000000000000000000000000000000000000073ffffffffffffffffffffffffffffffffffffffff166108fc6001549081150290604051600060405180830381858888f19350505050158015611aa7573d6000803e3d6000fd5b507f000000000000000000000000000000000000000000000000000000000000000073ffffffffffffffffffffffffffffffffffffffff166108fc6002600354611af19190612fc2565b9081150290604051600060405180830381858888f19350505050158015611b1c573d6000803e3d6000fd5b507f000000000000000000000000000000000000000000000000000000000000000073ffffffffffffffffffffffffffffffffffffffff166108fc6002600354611b669190612fc2565b9081150290604051600060405180830381858888f19350505050158015611b91573d6000803e3d6000fd5b505b5b6004600a60006101000a81548160ff02191690836005811115611bba57611bb9612c94565b5b02179055507fe806be57c6038a3d74db5f804ecfb586a6b3a5093d46bdfb7919017a40abae8260405160405180910390a1565b7f000000000000000000000000000000000000000000000000000000000000000081565b60025481565b7f000000000000000000000000000000000000000000000000000000000000000073ffffffffffffffffffffffffffffffffffffffff163373ffffffffffffffffffffffffffffffffffffffff1614611ca5576040517f08c379a0000000000000000000000000000000000000000000000000000000008152600401611c9c90613690565b60405180910390fd5b60026005811115611cb957611cb8612c94565b5b600a60009054906101000a900460ff166005811115611cdb57611cda612c94565b5b14611d1b576040517f08c379a0000000000000000000000000000000000000000000000000000000008152600401611d1290613722565b60405180910390fd5b60008290503373ffffffffffffffffffffffffffffffffffffffff168173ffffffffffffffffffffffffffffffffffffffff16636352211e846040518263ffffffff1660e01b8152600401611d709190612bd5565b602060405180830381865afa158015611d8d573d6000803e3d6000fd5b505050506040513d601f19601f82011682018060405250810190611db19190612f00565b73ffffffffffffffffffffffffffffffffffffffff1614611e07576040517f08c379a0000000000000000000000000000000000000000000000000000000008152600401611dfe9061378e565b60405180910390fd5b8073ffffffffffffffffffffffffffffffffffffffff166342842e0e3330856040518463ffffffff1660e01b8152600401611e4493929190612f2d565b600060405180830381600087803b158015611e5e57600080fd5b505af1158015611e72573d6000803e3d6000fd5b5050505080600560006101000a81548173ffffffffffffffffffffffffffffffffffffffff021916908373ffffffffffffffffffffffffffffffffffffffff160217905550816004819055506003600a60006101000a81548160ff02191690836005811115611ee457611ee3612c94565b5b02179055507f6efb14038b1cea4c793ce8f292d7f7b42a4bfd5e1d07166dda1be0627a59ef0e8383604051611f1a9291906137ae565b60405180910390a1505050565b7f000000000000000000000000000000000000000000000000000000000000000081565b600760009054906101000a900460ff1681565b60045481565b7f000000000000000000000000000000000000000000000000000000000000000073ffffffffffffffffffffffffffffffffffffffff163373ffffffffffffffffffffffffffffffffffffffff16148061200957507f000000000000000000000000000000000000000000000000000000000000000073ffffffffffffffffffffffffffffffffffffffff163373ffffffffffffffffffffffffffffffffffffffff16145b612048576040517f08c379a000000000000000000000000000000000000000000000000000000000815260040161203f906131a9565b60405180910390fd5b6002600581111561205c5761205b612c94565b5b600a60009054906101000a900460ff16600581111561207e5761207d612c94565b5b14806120bd57506003600581111561209957612098612c94565b5b600a60009054906101000a900460ff1660058111156120bb576120ba612c94565b5b145b6120fc576040517f08c379a00000000000000000000000000000000000000000000000000000000081526004016120f390613823565b60405180910390fd5b600760009054906101000a900460ff161561214c576040517f08c379a00000000000000000000000000000000000000000000000000000000081526004016121439061388f565b60405180910390fd5b6000620151806008544261216091906138af565b61216a9190612fc2565b905060095481116121b0576040517f08c379a00000000000000000000000000000000000000000000000000000000081526004016121a790613955565b60405180910390fd5b6005600a60006101000a81548160ff021916908360058111156121d6576121d5612c94565b5b02179055507f000000000000000000000000000000000000000000000000000000000000000073ffffffffffffffffffffffffffffffffffffffff1663a5bc36363085856040518463ffffffff1660e01b815260040161223893929190613975565b6020604051808303816000875af1158015612257573d6000803e3d6000fd5b505050506040513d601f19601f8201168201806040525081019061227b91906139c1565b6006819055506001600760006101000a81548160ff0219169083151502179055507f04901f83201c8724eadf084436db8aa391820bae6d11f9f78a17edb6f2eef3cf6006546040516122cd9190612bd5565b60405180910390a1505050565b60035481565b7f000000000000000000000000000000000000000000000000000000000000000073ffffffffffffffffffffffffffffffffffffffff163373ffffffffffffffffffffffffffffffffffffffff16148061238557507f000000000000000000000000000000000000000000000000000000000000000073ffffffffffffffffffffffffffffffffffffffff163373ffffffffffffffffffffffffffffffffffffffff16145b6123c4576040517f08c379a00000000000000000000000000000000000000000000000000000000081526004016123bb906131a9565b60405180910390fd5b600160058111156123d8576123d7612c94565b5b600a60009054906101000a900460ff1660058111156123fa576123f9612c94565b5b1461243a576040517f08c379a000000000000000000000000000000000000000000000000000000000815260040161243190613a60565b60405180910390fd5b7f000000000000000000000000000000000000000000000000000000000000000073ffffffffffffffffffffffffffffffffffffffff163373ffffffffffffffffffffffffffffffffffffffff16036124de57600260035461249c9190612fc2565b34146124dd576040517f08c379a00000000000000000000000000000000000000000000000000000000081526004016124d490613acc565b60405180910390fd5b5b7f000000000000000000000000000000000000000000000000000000000000000073ffffffffffffffffffffffffffffffffffffffff163373ffffffffffffffffffffffffffffffffffffffff160361258f5760015460026003546125439190612fc2565b61254d9190613555565b341461258e576040517f08c379a000000000000000000000000000000000000000000000000000000000815260040161258590613b38565b60405180910390fd5b5b60035460015461259f9190613555565b47036125d1576002600a60006101000a81548160ff021916908360058111156125cb576125ca612c94565b5b02179055505b7f5af8184bef8e4b45eb9f6ed7734d04da38ced226495548f46e0c8ff8d7d9a52433346040516126029291906137ae565b60405180910390a1565b7f000000000000000000000000000000000000000000000000000000000000000073ffffffffffffffffffffffffffffffffffffffff163373ffffffffffffffffffffffffffffffffffffffff161461269a576040517f08c379a000000000000000000000000000000000000000000000000000000000815260040161269190612e39565b60405180910390fd5b6005808111156126ad576126ac612c94565b5b600a60009054906101000a900460ff1660058111156126cf576126ce612c94565b5b1461270f576040517f08c379a000000000000000000000000000000000000000000000000000000000815260040161270690612ecb565b60405180910390fd5b3073ffffffffffffffffffffffffffffffffffffffff16600560009054906101000a900473ffffffffffffffffffffffffffffffffffffffff1673ffffffffffffffffffffffffffffffffffffffff16636352211e6004546040518263ffffffff1660e01b81526004016127839190612bd5565b602060405180830381865afa1580156127a0573d6000803e3d6000fd5b505050506040513d601f19601f820116820180604052508101906127c49190612f00565b73ffffffffffffffffffffffffffffffffffffffff160361289357600560009054906101000a900473ffffffffffffffffffffffffffffffffffffffff1673ffffffffffffffffffffffffffffffffffffffff166342842e0e307f00000000000000000000000000000000000000000000000000000000000000006004546040518463ffffffff1660e01b815260040161286093929190612f2d565b600060405180830381600087803b15801561287a57600080fd5b505af115801561288e573d6000803e3d6000fd5b505050505b7f000000000000000000000000000000000000000000000000000000000000000073ffffffffffffffffffffffffffffffffffffffff166108fc60026003546128dc9190612fc2565b9081150290604051600060405180830381858888f19350505050158015612907573d6000803e3d6000fd5b507f000000000000000000000000000000000000000000000000000000000000000073ffffffffffffffffffffffffffffffffffffffff166108fc60026003546129519190612fc2565b9081150290604051600060405180830381858888f1935050505015801561297c573d6000803e3d6000fd5b506004600a60006101000a81548160ff021916908360058111156129a3576129a2612c94565b5b02179055507f05d97f86513a23ae89f17cfde3e4ec84b0a3c3d8149b756693de97995a85bf006040516129d590613ba4565b60405180910390a1565b60005481565b600080fd5b600080fd5b600073ffffffffffffffffffffffffffffffffffffffff82169050919050565b6000612a1a826129ef565b9050919050565b612a2a81612a0f565b8114612a3557600080fd5b50565b600081359050612a4781612a21565b92915050565b6000819050919050565b612a6081612a4d565b8114612a6b57600080fd5b50565b600081359050612a7d81612a57565b92915050565b600080fd5b600080fd5b600080fd5b60008083601f840112612aa857612aa7612a83565b5b8235905067ffffffffffffffff811115612ac557612ac4612a88565b5b602083019150836001820283011115612ae157612ae0612a8d565b5b9250929050565b600080600080600060808688031215612b0457612b036129e5565b5b6000612b1288828901612a38565b9550506020612b2388828901612a38565b9450506040612b3488828901612a6e565b935050606086013567ffffffffffffffff811115612b5557612b546129ea565b5b612b6188828901612a92565b92509250509295509295909350565b60007fffffffff0000000000000000000000000000000000000000000000000000000082169050919050565b612ba581612b70565b82525050565b6000602082019050612bc06000830184612b9c565b92915050565b612bcf81612a4d565b82525050565b6000602082019050612bea6000830184612bc6565b92915050565b6000819050919050565b6000612c15612c10612c0b846129ef565b612bf0565b6129ef565b9050919050565b6000612c2782612bfa565b9050919050565b6000612c3982612c1c565b9050919050565b612c4981612c2e565b82525050565b6000602082019050612c646000830184612c40565b92915050565b612c7381612a0f565b82525050565b6000602082019050612c8e6000830184612c6a565b92915050565b7f4e487b7100000000000000000000000000000000000000000000000000000000600052602160045260246000fd5b60068110612cd457612cd3612c94565b5b50565b6000819050612ce582612cc3565b919050565b6000612cf582612cd7565b9050919050565b612d0581612cea565b82525050565b6000602082019050612d206000830184612cfc565b92915050565b60008060408385031215612d3d57612d3c6129e5565b5b6000612d4b85828601612a38565b9250506020612d5c85828601612a6e565b9150509250929050565b60008115159050919050565b612d7b81612d66565b82525050565b6000602082019050612d966000830184612d72565b92915050565b60008060408385031215612db357612db26129e5565b5b6000612dc185828601612a6e565b9250506020612dd285828601612a6e565b9150509250929050565b600082825260208201905092915050565b7f4e6f7420696e766f6c7665642044414f00000000000000000000000000000000600082015250565b6000612e23601083612ddc565b9150612e2e82612ded565b602082019050919050565b60006020820190508181036000830152612e5281612e16565b9050919050565b7f566f74696e67206f7574636f6d65206f6e6c79206170706c696361626c65206660008201527f6f7220646973707574656420636f6d6d697373696f6e73000000000000000000602082015250565b6000612eb5603783612ddc565b9150612ec082612e59565b604082019050919050565b60006020820190508181036000830152612ee481612ea8565b9050919050565b600081519050612efa81612a21565b92915050565b600060208284031215612f1657612f156129e5565b5b6000612f2484828501612eeb565b91505092915050565b6000606082019050612f426000830186612c6a565b612f4f6020830185612c6a565b612f5c6040830184612bc6565b949350505050565b7f4e487b7100000000000000000000000000000000000000000000000000000000600052601260045260246000fd5b7f4e487b7100000000000000000000000000000000000000000000000000000000600052601160045260246000fd5b6000612fcd82612a4d565b9150612fd883612a4d565b925082612fe857612fe7612f64565b5b828204905092915050565b7f4172746973740000000000000000000000000000000000000000000000000000600082015250565b6000613029600683612ddc565b915061303482612ff3565b602082019050919050565b600060208201905081810360008301526130588161301c565b9050919050565b7f417274697374206d75737420696e70757420617274206e667400000000000000600082015250565b6000613095601983612ddc565b91506130a08261305f565b602082019050919050565b600060208201905081810360008301526130c481613088565b9050919050565b7f436f6d6d697373696f6e20636f6e7472616374206973206e6f7420746865206160008201527f7274206e667420726563697069656e7400000000000000000000000000000000602082015250565b6000613127603083612ddc565b9150613132826130cb565b604082019050919050565b600060208201905081810360008301526131568161311a565b9050919050565b7f4e6f7420696e766f6c7665642070617274790000000000000000000000000000600082015250565b6000613193601283612ddc565b915061319e8261315d565b602082019050919050565b600060208201905081810360008301526131c281613186565b9050919050565b7f436f6d6d697373696f6e2070726f706f73616c2064657461696c73206e6f742060008201527f79657420617070726f76656420627920626f7468207061727469657300000000602082015250565b6000613225603c83612ddc565b9150613230826131c9565b604082019050919050565b6000602082019050818103600083015261325481613218565b9050919050565b7f417274697374206d75737420617070726f76652070726f706f73656420636f6d60008201527f6d697373696f6e00000000000000000000000000000000000000000000000000602082015250565b60006132b7602783612ddc565b91506132c28261325b565b604082019050919050565b600060208201905081810360008301526132e6816132aa565b9050919050565b7f4275796572206d75737420617070726f76652070726f706f73656420636f6d6d60008201527f697373696f6e0000000000000000000000000000000000000000000000000000602082015250565b6000613349602683612ddc565b9150613354826132ed565b604082019050919050565b600060208201905081810360008301526133788161333c565b9050919050565b7f4e65697468657200000000000000000000000000000000000000000000000000600082015250565b60006133b5600783612ddc565b91506133c08261337f565b602082019050919050565b600060208201905081810360008301526133e4816133a8565b9050919050565b7f4e6f742062757965720000000000000000000000000000000000000000000000600082015250565b6000613421600983612ddc565b915061342c826133eb565b602082019050919050565b6000602082019050818103600083015261345081613414565b9050919050565b7f417274776f726b206e6f74207375626d69747465640000000000000000000000600082015250565b600061348d601583612ddc565b915061349882613457565b602082019050919050565b600060208201905081810360008301526134bc81613480565b9050919050565b7f4e6f74207468652065787065637465642066756c6c2066696e616c207061796d60008201527f656e740000000000000000000000000000000000000000000000000000000000602082015250565b600061351f602383612ddc565b915061352a826134c3565b604082019050919050565b6000602082019050818103600083015261354e81613512565b9050919050565b600061356082612a4d565b915061356b83612a4d565b925082820190508082111561358357613582612f93565b5b92915050565b600060408201905061359e6000830185612c6a565b6135ab6020830184612c6a565b9392505050565b7f426f74682070617274696573206d75737420617070726f76652063616e63656c60008201527f6c6174696f6e0000000000000000000000000000000000000000000000000000602082015250565b600061360e602683612ddc565b9150613619826135b2565b604082019050919050565b6000602082019050818103600083015261363d81613601565b9050919050565b7f4e6f742061727469737400000000000000000000000000000000000000000000600082015250565b600061367a600a83612ddc565b915061368582613644565b602082019050919050565b600060208201905081810360008301526136a98161366d565b9050919050565b7f436f6e747261637420686173206e6f74206265656e2066756e6465642062792060008201527f626f746820706172746965730000000000000000000000000000000000000000602082015250565b600061370c602c83612ddc565b9150613717826136b0565b604082019050919050565b6000602082019050818103600083015261373b816136ff565b9050919050565b7f53656e646572206973206e6f74206f776e6572206f6620746865206e66740000600082015250565b6000613778601e83612ddc565b915061378382613742565b602082019050919050565b600060208201905081810360008301526137a78161376b565b9050919050565b60006040820190506137c36000830185612c6a565b6137d06020830184612bc6565b9392505050565b7f43616e6e6f74206469737075746520696e2063757272656e7420737461746500600082015250565b600061380d601f83612ddc565b9150613818826137d7565b602082019050919050565b6000602082019050818103600083015261383c81613800565b9050919050565b7f4469737075746520616c72656164792072616973656400000000000000000000600082015250565b6000613879601683612ddc565b915061388482613843565b602082019050919050565b600060208201905081810360008301526138a88161386c565b9050919050565b60006138ba82612a4d565b91506138c583612a4d565b92508282039050818111156138dd576138dc612f93565b5b92915050565b7f4d757374206c656176652074696d65206265666f7265207472616e736163746960008201527f6f6e2063616e2062652064697370757465640000000000000000000000000000602082015250565b600061393f603283612ddc565b915061394a826138e3565b604082019050919050565b6000602082019050818103600083015261396e81613932565b9050919050565b600060608201905061398a6000830186612c6a565b6139976020830185612bc6565b6139a46040830184612bc6565b949350505050565b6000815190506139bb81612a57565b92915050565b6000602082840312156139d7576139d66129e5565b5b60006139e5848285016139ac565b91505092915050565b7f436f6e747261637420686173206e6f74206265656e20636f6e6669726d65642060008201527f627920626f746820706172746965730000000000000000000000000000000000602082015250565b6000613a4a602f83612ddc565b9150613a55826139ee565b604082019050919050565b60006020820190508181036000830152613a7981613a3d565b9050919050565b7f57726f6e67206172746973742066756e64696e67000000000000000000000000600082015250565b6000613ab6601483612ddc565b9150613ac182613a80565b602082019050919050565b60006020820190508181036000830152613ae581613aa9565b9050919050565b7f57726f6e672062757965722066756e64696e6700000000000000000000000000600082015250565b6000613b22601383612ddc565b9150613b2d82613aec565b602082019050919050565b60006020820190508181036000830152613b5181613b15565b9050919050565b7f4275796572000000000000000000000000000000000000000000000000000000600082015250565b6000613b8e600583612ddc565b9150613b9982613b58565b602082019050919050565b60006020820190508181036000830152613bbd81613b81565b905091905056fea26469706673582212207e01f7f83682106a01f5e16dd2c2f573bc4747bab5d86c6e8f53f1080da414e264736f6c634300081c0033",
  "linkReferences": {},
  "deployedLinkReferences": {}
}