{"contracts/art_dao.sol":{"ArtDAO":{"abi":[{"inputs":[],"stateMutability":"nonpayable","type":"constructor"},{"anonymous":false,"inputs":[{"indexed":false,"internalType":"uint256","name":"tokenId","type":"uint256"},{"indexed":false,"internalType":"address","name":"winner","type":"address"},{"indexed":false,"internalType":"uint256","name":"amount","type":"uint256"}],"name":"AuctionSettled","type":"event"},{"anonymous":false,"inputs":[{"indexed":false,"internalType":"uint256","name":"tokenId","type":"uint256"},{"indexed":false,"internalType":"uint256","name":"startTime","type":"uint256"},{"indexed":false,"internalType":"uint256","name":"endTime","type":"uint256"}],"name":"AuctionStarted","type":"event"},{"anonymous":false,"inputs":[{"indexed":false,"internalType":"uint256","name":"tokenId","type":"uint256"},{"indexed":false,"internalType":"address","name":"bidder","type":"address"},{"indexed":false,"internalType":"uint256","name":"amount","type":"uint256"}],"name":"BidPlaced","type":"event"},{"anonymous":false,"inputs":[{"indexed":false,"internalType":"uint256","name":"disputeId","type":"uint256"},{"indexed":false,"internalType":"address","name":"commission","type":"address"},{"indexed":false,"internalType":"uint256","name":"panelSize","type":"uint256"}],"name":"DisputeCreated","type":"event"},{"anonymous":false,"inputs":[{"indexed":false,"internalType":"uint256","name":"disputeId","type":"uint256"},{"indexed":false,"internalType":"enum ArtDAO.VoteOption","name":"outcome","type":"uint8"}],"name":"DisputeResolved","type":"event"},{"anonymous":false,"inputs":[{"indexed":false,"internalType":"uint256","name":"disputeId","type":"uint256"},{"indexed":false,"internalType":"address","name":"juror","type":"address"}],"name":"JurorSelected","type":"event"},{"anonymous":false,"inputs":[{"indexed":false,"internalType":"uint256","name":"tokenId","type":"uint256"},{"indexed":false,"internalType":"address","name":"to","type":"address"}],"name":"Minted","type":"event"},{"anonymous":false,"inputs":[{"indexed":false,"internalType":"uint256","name":"proposalId","type":"uint256"},{"indexed":false,"internalType":"address","name":"creator","type":"address"},{"indexed":false,"internalType":"address","name":"recipient","type":"address"},{"indexed":false,"internalType":"uint256","name":"amount","type":"uint256"},{"indexed":false,"internalType":"uint256","name":"endTime","type":"uint256"}],"name":"ProposalCreated","type":"event"},{"anonymous":false,"inputs":[{"indexed":false,"internalType":"uint256","name":"proposalId","type":"uint256"}],"name":"ProposalExecuted","type":"event"},{"anonymous":false,"inputs":[{"indexed":false,"internalType":"uint256","name":"proposalId","type":"uint256"},{"indexed":false,"internalType":"address","name":"voter","type":"address"},{"indexed":false,"internalType":"bool","name":"support","type":"bool"},{"indexed":false,"internalType":"uint256","name":"votingPower","type":"uint256"}],"name":"ProposalVoted","type":"event"},{"anonymous":false,"inputs":[{"indexed":false,"internalType":"uint256","name":"disputeId","type":"uint256"},{"indexed":false,"internalType":"address","name":"juror","type":"address"},{"indexed":false,"internalType":"enum ArtDAO.VoteOption","name":"option","type":"uint8"}],"name":"VoteCast","type":"event"},{"inputs":[],"name":"AUCTION_DURATION","outputs":[{"internalType":"uint256","name":"","type":"uint256"}],"stateMutability":"view","type":"function"},{"inputs":[],"name":"JURY_REWARD","outputs":[{"internalType":"uint256","name":"","type":"uint256"}],"stateMutability":"view","type":"function"},{"inputs":[],"name":"MINT_INTERVAL","outputs":[{"internalType":"uint256","name":"","type":"uint256"}],"stateMutability":"view","type":"function"},{"inputs":[{"internalType":"uint256","name":"","type":"uint256"}],"name":"auctions","outputs":[{"internalType":"uint256","name":"tokenId","type":"uint256"},{"internalType":"uint256","name":"startTime","type":"uint256"},{"internalType":"uint256","name":"endTime","type":"uint256"},{"internalType":"uint256","name":"highestBid","type":"uint256"},{"internalType":"address","name":"highestBidder","type":"address"},{"internalType":"bool","name":"settled","type":"bool"}],"stateMutability":"view","type":"function"},{"inputs":[{"internalType":"address","name":"owner","type":"address"}],"name":"balanceOf","outputs":[{"internalType":"uint256","name":"","type":"uint256"}],"stateMutability":"view","type":"function"},{"inputs":[{"internalType":"uint256","name":"tokenId","type":"uint256"}],"name":"bid","outputs":[],"stateMutability":"payable","type":"function"},{"inputs":[{"internalType":"address","name":"","type":"address"}],"name":"commissionHasActiveDispute","outputs":[{"internalType":"bool","name":"","type":"bool"}],"stateMutability":"view","type":"function"},{"inputs":[{"internalType":"address","name":"commission","type":"address"},{"internalType":"uint256","name":"panelSize","type":"uint256"},{"internalType":"uint256","name":"votingDuration","type":"uint256"}],"name":"createDisputeCase","outputs":[{"internalType":"uint256","name":"disputeId","type":"uint256"}],"stateMutability":"nonpayable","type":"function"},{"inputs":[{"internalType":"address","name":"recipient","type":"address"},{"internalType":"uint256","name":"amount","type":"uint256"}],"name":"createProposal","outputs":[{"internalType":"uint256","name":"","type":"uint256"}],"stateMutability":"nonpayable","type":"function"},{"inputs":[{"internalType":"uint256","name":"proposalId","type":"uint256"}],"name":"executeProposal","outputs":[],"stateMutability":"nonpayable","type":"function"},{"inputs":[],"name":"getAllHolders","outputs":[{"internalType":"address[]","name":"","type":"address[]"}],"stateMutability":"view","type":"function"},{"inputs":[{"internalType":"uint256","name":"disputeId","type":"uint256"},{"internalType":"address","name":"juror","type":"address"}],"name":"getJurorVote","outputs":[{"internalType":"bool","name":"hasVoted","type":"bool"},{"internalType":"enum ArtDAO.VoteOption","name":"option","type":"uint8"}],"stateMutability":"view","type":"function"},{"inputs":[{"internalType":"uint256","name":"disputeId","type":"uint256"}],"name":"getJurors","outputs":[{"internalType":"address[]","name":"","type":"address[]"}],"stateMutability":"view","type":"function"},{"inputs":[{"internalType":"uint256","name":"proposalId","type":"uint256"}],"name":"getProposal","outputs":[{"internalType":"address","name":"creator","type":"address"},{"internalType":"address","name":"recipient","type":"address"},{"internalType":"uint256","name":"amount","type":"uint256"},{"internalType":"uint256","name":"startTime","type":"uint256"},{"internalType":"uint256","name":"endTime","type":"uint256"},{"internalType":"uint256","name":"forVotes","type":"uint256"},{"internalType":"uint256","name":"againstVotes","type":"uint256"},{"internalType":"bool","name":"executed","type":"bool"},{"internalType":"uint256","name":"totalVotingPower","type":"uint256"}],"stateMutability":"view","type":"function"},{"inputs":[{"internalType":"uint256","name":"disputeId","type":"uint256"}],"name":"getVoteCounts","outputs":[{"internalType":"uint256","name":"artistVotes","type":"uint256"},{"internalType":"uint256","name":"buyerVotes","type":"uint256"},{"internalType":"uint256","name":"neitherVotes","type":"uint256"}],"stateMutability":"view","type":"function"},{"inputs":[{"internalType":"address","name":"","type":"address"}],"name":"holderBalance","outputs":[{"internalType":"uint256","name":"","type":"uint256"}],"stateMutability":"view","type":"function"},{"inputs":[{"internalType":"address","name":"","type":"address"}],"name":"holderExists","outputs":[{"internalType":"bool","name":"","type":"bool"}],"stateMutability":"view","type":"function"},{"inputs":[{"internalType":"uint256","name":"","type":"uint256"}],"name":"holders","outputs":[{"internalType":"address","name":"","type":"address"}],"stateMutability":"view","type":"function"},{"inputs":[],"name":"lastMintTime","outputs":[{"internalType":"uint256","name":"","type":"uint256"}],"stateMutability":"view","type":"function"},{"inputs":[],"name":"mint","outputs":[],"stateMutability":"nonpayable","type":"function"},{"inputs":[],"name":"nextDisputeId","outputs":[{"internalType":"uint256","name":"","type":"uint256"}],"stateMutability":"view","type":"function"},{"inputs":[],"name":"nextProposalId","outputs":[{"internalType":"uint256","name":"","type":"uint256"}],"stateMutability":"view","type":"function"},{"inputs":[],"name":"nextTokenId","outputs":[{"internalType":"uint256","name":"","type":"uint256"}],"stateMutability":"view","type":"function"},{"inputs":[{"internalType":"uint256","name":"tokenId","type":"uint256"}],"name":"ownerOf","outputs":[{"internalType":"address","name":"","type":"address"}],"stateMutability":"view","type":"function"},{"inputs":[{"internalType":"uint256","name":"disputeId","type":"uint256"}],"name":"resolveDispute","outputs":[],"stateMutability":"nonpayable","type":"function"},{"inputs":[{"internalType":"uint256","name":"disputeId","type":"uint256"},{"internalType":"uint256","name":"votingDuration","type":"uint256"}],"name":"selectJurors","outputs":[],"stateMutability":"nonpayable","type":"function"},{"inputs":[{"internalType":"uint256","name":"tokenId","type":"uint256"}],"name":"settleAuction","outputs":[],"stateMutability":"nonpayable","type":"function"},{"inputs":[{"internalType":"uint256","name":"","type":"uint256"}],"name":"tokenOwner","outputs":[{"internalType":"address","name":"","type":"address"}],"stateMutability":"view","type":"function"},{"inputs":[],"name":"totalSupply","outputs":[{"internalType":"uint256","name":"","type":"uint256"}],"stateMutability":"view","type":"function"},{"inputs":[{"internalType":"address","name":"to","type":"address"},{"internalType":"uint256","name":"tokenId","type":"uint256"}],"name":"transfer","outputs":[],"stateMutability":"nonpayable","type":"function"},{"inputs":[],"name":"treasuryBalance","outputs":[{"internalType":"uint256","name":"","type":"uint256"}],"stateMutability":"view","type":"function"},{"inputs":[{"internalType":"uint256","name":"disputeId","type":"uint256"},{"internalType":"enum ArtDAO.VoteOption","name":"option","type":"uint8"}],"name":"vote","outputs":[],"stateMutability":"nonpayable","type":"function"},{"inputs":[{"internalType":"uint256","name":"proposalId","type":"uint256"},{"internalType":"bool","name":"support","type":"bool"}],"name":"voteProposal","outputs":[],"stateMutability":"nonpayable","type":"function"},{"stateMutability":"payable","type":"receive"}],"evm":{"bytecode":{"linkReferences":{},"object":"608060405234801561001057600080fd5b5042600081905550600180819055506001600281905550600160048190555061003e3061004360201b60201c565b610153565b600760008273ffffffffffffffffffffffffffffffffffffffff1673ffffffffffffffffffffffffffffffffffffffff16815260200190815260200160002060009054906101000a900460ff16610150576001600760008373ffffffffffffffffffffffffffffffffffffffff1673ffffffffffffffffffffffffffffffffffffffff16815260200190815260200160002060006101000a81548160ff0219169083151502179055506008819080600181540180825580915050600190039060005260206000200160009091909190916101000a81548173ffffffffffffffffffffffffffffffffffffffff021916908373ffffffffffffffffffffffffffffffffffffffff1602179055505b50565b615578806101626000396000f3fe6080604052600436106101f25760003560e01c806370a082311161010d578063a271e525116100a0578063bcfb9b611161006f578063bcfb9b6114610753578063c2b7b8681461077c578063c7f758a8146107a5578063de86b419146107ea578063dfc51a2514610827576101f9565b8063a271e52514610685578063a5bc3636146106b0578063a9059cbb146106ed578063ab6ddfa814610716576101f9565b80638a241f4c116100dc5780638a241f4c146105b5578063943e8216146105f45780639d4635201461061d5780639f9b104814610648576101f9565b806370a08231146104f957806374f376d41461053657806375794a3c1461055f57806384e7e3d31461058a576101f9565b80632e99361111610185578063571a26a011610154578063571a26a0146104125780636352211e146104545780636be6258b146104915780636d8acf45146104bc576101f9565b80632e99361114610364578063313dab201461038d5780633af7f4f7146103b8578063454a2ab3146103f6576101f9565b80631caaa487116101c15780631caaa487146102945780631d92f25e146102d15780632a11ced0146102fc5780632ab09d1414610339576101f9565b80630d61b519146101fe5780630db39934146102275780631249c58b1461025257806318160ddd14610269576101f9565b366101f957005b600080fd5b34801561020a57600080fd5b5061022560048036038101906102209190613b41565b610864565b005b34801561023357600080fd5b5061023c610b32565b6040516102499190613b7d565b60405180910390f35b34801561025e57600080fd5b50610267610b38565b005b34801561027557600080fd5b5061027e610c02565b60405161028b9190613b7d565b60405180910390f35b3480156102a057600080fd5b506102bb60048036038101906102b69190613b41565b610c08565b6040516102c89190613bd9565b60405180910390f35b3480156102dd57600080fd5b506102e6610c3b565b6040516102f39190613cb2565b60405180910390f35b34801561030857600080fd5b50610323600480360381019061031e9190613b41565b610cc9565b6040516103309190613bd9565b60405180910390f35b34801561034557600080fd5b5061034e610d08565b60405161035b9190613b7d565b60405180910390f35b34801561037057600080fd5b5061038b60048036038101906103869190613b41565b610d0e565b005b34801561039957600080fd5b506103a2610f0a565b6040516103af9190613b7d565b60405180910390f35b3480156103c457600080fd5b506103df60048036038101906103da9190613d00565b610f12565b6040516103ed929190613dd2565b60405180910390f35b610410600480360381019061040b9190613b41565b610fcc565b005b34801561041e57600080fd5b5061043960048036038101906104349190613b41565b61125c565b60405161044b96959493929190613dfb565b60405180910390f35b34801561046057600080fd5b5061047b60048036038101906104769190613b41565b6112c5565b6040516104889190613bd9565b60405180910390f35b34801561049d57600080fd5b506104a6611302565b6040516104b39190613b7d565b60405180910390f35b3480156104c857600080fd5b506104e360048036038101906104de9190613b41565b61130d565b6040516104f09190613cb2565b60405180910390f35b34801561050557600080fd5b50610520600480360381019061051b9190613e5c565b6113b1565b60405161052d9190613b7d565b60405180910390f35b34801561054257600080fd5b5061055d60048036038101906105589190613e89565b6113fa565b005b34801561056b57600080fd5b50610574611a9e565b6040516105819190613b7d565b60405180910390f35b34801561059657600080fd5b5061059f611aa4565b6040516105ac9190613b7d565b60405180910390f35b3480156105c157600080fd5b506105dc60048036038101906105d79190613b41565b611aab565b6040516105eb93929190613ec9565b60405180910390f35b34801561060057600080fd5b5061061b60048036038101906106169190613f25565b611ae3565b005b34801561062957600080fd5b50610632612003565b60405161063f9190613b7d565b60405180910390f35b34801561065457600080fd5b5061066f600480360381019061066a9190613e5c565b612009565b60405161067c9190613f65565b60405180910390f35b34801561069157600080fd5b5061069a612029565b6040516106a79190613b7d565b60405180910390f35b3480156106bc57600080fd5b506106d760048036038101906106d29190613f80565b612030565b6040516106e49190613b7d565b60405180910390f35b3480156106f957600080fd5b50610714600480360381019061070f9190613fd3565b61231c565b005b34801561072257600080fd5b5061073d60048036038101906107389190613e5c565b61243b565b60405161074a9190613b7d565b60405180910390f35b34801561075f57600080fd5b5061077a6004803603810190610775919061403f565b612453565b005b34801561078857600080fd5b506107a3600480360381019061079e9190613b41565b61276c565b005b3480156107b157600080fd5b506107cc60048036038101906107c79190613b41565b612ce2565b6040516107e19998979695949392919061407f565b60405180910390f35b3480156107f657600080fd5b50610811600480360381019061080c9190613e5c565b612e33565b60405161081e9190613f65565b60405180910390f35b34801561083357600080fd5b5061084e60048036038101906108499190613fd3565b612e53565b60405161085b9190613b7d565b60405180910390f35b6000600c60008381526020019081526020016000209050600073ffffffffffffffffffffffffffffffffffffffff168160000160009054906101000a900473ffffffffffffffffffffffffffffffffffffffff1673ffffffffffffffffffffffffffffffffffffffff160361090e576040517f08c379a000000000000000000000000000000000000000000000000000000000815260040161090590614169565b60405180910390fd5b80600401544211610954576040517f08c379a000000000000000000000000000000000000000000000000000000000815260040161094b906141d5565b60405180910390fd5b8060070160009054906101000a900460ff16156109a6576040517f08c379a000000000000000000000000000000000000000000000000000000000815260040161099d90614241565b60405180910390fd5b6000816006015482600501546109bc9190614290565b905060008111610a01576040517f08c379a00000000000000000000000000000000000000000000000000000000081526004016109f890614310565b60405180910390fd5b6000606460438460080154610a169190614330565b610a2091906143a1565b90508083600501541015610a69576040517f08c379a0000000000000000000000000000000000000000000000000000000008152600401610a609061441e565b60405180910390fd5b60018360070160006101000a81548160ff0219169083151502179055508260010160009054906101000a900473ffffffffffffffffffffffffffffffffffffffff1673ffffffffffffffffffffffffffffffffffffffff166108fc84600201549081150290604051600060405180830381858888f19350505050158015610af4573d6000803e3d6000fd5b507f712ae1383f79ac853f8d882153778e0260ef8f03b504e2866e0593e04d2b291f84604051610b249190613b7d565b60405180910390a150505050565b60025481565b62093a80600054610b499190614290565b421015610b8b576040517f08c379a0000000000000000000000000000000000000000000000000000000008152600401610b829061448a565b60405180910390fd5b6000600154905060016000815480929190610ba5906144aa565b9190505550610bb6600030836130e3565b426000819055507fb9203d657e9c0ec8274c818292ab0f58b04e1970050716891770eb1bab5d655e8130604051610bee9291906144f2565b60405180910390a1610bff81613362565b50565b60035481565b60056020528060005260406000206000915054906101000a900473ffffffffffffffffffffffffffffffffffffffff1681565b60606008805480602002602001604051908101604052809291908181526020018280548015610cbf57602002820191906000526020600020905b8160009054906101000a900473ffffffffffffffffffffffffffffffffffffffff1673ffffffffffffffffffffffffffffffffffffffff1681526020019060010190808311610c75575b5050505050905090565b60088181548110610cd957600080fd5b906000526020600020016000915054906101000a900473ffffffffffffffffffffffffffffffffffffffff1681565b60045481565b6000600a6000838152602001908152602001600020905080600201544211610d6b576040517f08c379a0000000000000000000000000000000000000000000000000000000008152600401610d6290614567565b60405180910390fd5b8060040160149054906101000a900460ff1615610dbd576040517f08c379a0000000000000000000000000000000000000000000000000000000008152600401610db4906145d3565b60405180910390fd5b60018160040160146101000a81548160ff021916908315150217905550600073ffffffffffffffffffffffffffffffffffffffff168160040160009054906101000a900473ffffffffffffffffffffffffffffffffffffffff1673ffffffffffffffffffffffffffffffffffffffff1614610ec957610e61308260040160009054906101000a900473ffffffffffffffffffffffffffffffffffffffff16846130e3565b7fc9f72b276a388619c6d185d146697036241880c36654b1a3ffdad07c24038d99828260040160009054906101000a900473ffffffffffffffffffffffffffffffffffffffff168360030154604051610ebc939291906145f3565b60405180910390a1610f06565b7fc9f72b276a388619c6d185d146697036241880c36654b1a3ffdad07c24038d9982600080604051610efd9392919061466f565b60405180910390a15b5050565b600047905090565b6000806000600b6000868152602001908152602001600020905060008160090160008673ffffffffffffffffffffffffffffffffffffffff1673ffffffffffffffffffffffffffffffffffffffff168152602001908152602001600020541181600a0160008673ffffffffffffffffffffffffffffffffffffffff1673ffffffffffffffffffffffffffffffffffffffff16815260200190815260200160002060009054906101000a900460ff1692509250509250929050565b6000600a60008381526020019081526020016000209050806001015442101561102a576040517f08c379a0000000000000000000000000000000000000000000000000000000008152600401611021906146f2565b60405180910390fd5b8060020154421115611071576040517f08c379a00000000000000000000000000000000000000000000000000000000081526004016110689061475e565b60405180910390fd5b8060040160149054906101000a900460ff16156110c3576040517f08c379a00000000000000000000000000000000000000000000000000000000081526004016110ba906145d3565b60405180910390fd5b80600301543411611109576040517f08c379a0000000000000000000000000000000000000000000000000000000008152600401611100906147ca565b60405180910390fd5b600073ffffffffffffffffffffffffffffffffffffffff168160040160009054906101000a900473ffffffffffffffffffffffffffffffffffffffff1673ffffffffffffffffffffffffffffffffffffffff16146111d1578060040160009054906101000a900473ffffffffffffffffffffffffffffffffffffffff1673ffffffffffffffffffffffffffffffffffffffff166108fc82600301549081150290604051600060405180830381858888f193505050501580156111cf573d6000803e3d6000fd5b505b348160030181905550338160040160006101000a81548173ffffffffffffffffffffffffffffffffffffffff021916908373ffffffffffffffffffffffffffffffffffffffff1602179055507f0e54eff26401bf69b81b26f60bd85ef47f5d85275c1d268d84f68d6897431c47823334604051611250939291906145f3565b60405180910390a15050565b600a6020528060005260406000206000915090508060000154908060010154908060020154908060030154908060040160009054906101000a900473ffffffffffffffffffffffffffffffffffffffff16908060040160149054906101000a900460ff16905086565b60006005600083815260200190815260200160002060009054906101000a900473ffffffffffffffffffffffffffffffffffffffff169050919050565b66038d7ea4c6800081565b6060600b60008381526020019081526020016000206005018054806020026020016040519081016040528092919081815260200182805480156113a557602002820191906000526020600020905b8160009054906101000a900473ffffffffffffffffffffffffffffffffffffffff1673ffffffffffffffffffffffffffffffffffffffff168152602001906001019080831161135b575b50505050509050919050565b6000600660008373ffffffffffffffffffffffffffffffffffffffff1673ffffffffffffffffffffffffffffffffffffffff168152602001908152602001600020549050919050565b6000600b60008481526020019081526020016000209050600073ffffffffffffffffffffffffffffffffffffffff168160000160009054906101000a900473ffffffffffffffffffffffffffffffffffffffff1673ffffffffffffffffffffffffffffffffffffffff16036114a4576040517f08c379a000000000000000000000000000000000000000000000000000000000815260040161149b90614836565b60405180910390fd5b8060000160149054906101000a900460ff16156114f6576040517f08c379a00000000000000000000000000000000000000000000000000000000081526004016114ed906148a2565b60405180910390fd5b8060000160159054906101000a900460ff1615611548576040517f08c379a000000000000000000000000000000000000000000000000000000000815260040161153f9061490e565b60405180910390fd5b6000821161158b576040517f08c379a00000000000000000000000000000000000000000000000000000000081526004016115829061497a565b60405180910390fd5b60008160000160009054906101000a900473ffffffffffffffffffffffffffffffffffffffff1673ffffffffffffffffffffffffffffffffffffffff166343bc16126040518163ffffffff1660e01b8152600401602060405180830381865afa1580156115fc573d6000803e3d6000fd5b505050506040513d601f19601f8201168201806040525081019061162091906149af565b905060008260000160009054906101000a900473ffffffffffffffffffffffffffffffffffffffff1673ffffffffffffffffffffffffffffffffffffffff16637150d8ae6040518163ffffffff1660e01b8152600401602060405180830381865afa158015611693573d6000803e3d6000fd5b505050506040513d601f19601f820116820180604052508101906116b791906149af565b90506000806000806116c986866134f5565b93509350935093508660010154821015611718576040517f08c379a000000000000000000000000000000000000000000000000000000000815260040161170f90614a28565b60405180910390fd5b6000811161175b576040517f08c379a000000000000000000000000000000000000000000000000000000000815260040161175290614a94565b60405180910390fd5b60008267ffffffffffffffff81111561177757611776614ab4565b5b6040519080825280602002602001820160405280156117a55781602001602082028036833780820191505090505b50905060005b8860010154811015611a575760008344428e85886040516020016117d3959493929190614b04565b6040516020818303038152906040528051906020012060001c6117f69190614b63565b90506000807fffffffffffffffffffffffffffffffffffffffffffffffffffffffffffffffff905060005b8781101561188e5785818151811061183c5761183b614b94565b5b60200260200101516118815788818151811061185b5761185a614b94565b5b60200260200101518361186e9190614290565b9250828410156118805780915061188e565b5b8080600101915050611821565b507fffffffffffffffffffffffffffffffffffffffffffffffffffffffffffffffff81036118f1576040517f08c379a00000000000000000000000000000000000000000000000000000000081526004016118e890614c0f565b60405180910390fd5b600185828151811061190657611905614b94565b5b60200260200101901515908115158152505087818151811061192b5761192a614b94565b5b60200260200101518661193e9190614c2f565b95508b60050189828151811061195757611956614b94565b5b60200260200101519080600181540180825580915050600190039060005260206000200160009091909190916101000a81548173ffffffffffffffffffffffffffffffffffffffff021916908373ffffffffffffffffffffffffffffffffffffffff1602179055508781815181106119d2576119d1614b94565b5b60200260200101518c60040160008282546119ed9190614290565b925050819055507f6a547857424ddf8f94427bf9c458627075464dcf7326c192e44abf6aea499fb48e8a8381518110611a2957611a28614b94565b5b6020026020010151604051611a3f9291906144f2565b60405180910390a150505080806001019150506117ab565b5060018860000160146101000a81548160ff0219169083151502179055504288600201819055508842611a8a9190614290565b886003018190555050505050505050505050565b60015481565b62093a8081565b600080600080600b60008681526020019081526020016000209050806006015481600701548260080154935093509350509193909250565b6000600b60008481526020019081526020016000209050600073ffffffffffffffffffffffffffffffffffffffff168160000160009054906101000a900473ffffffffffffffffffffffffffffffffffffffff1673ffffffffffffffffffffffffffffffffffffffff1603611b8d576040517f08c379a0000000000000000000000000000000000000000000000000000000008152600401611b8490614836565b60405180910390fd5b8060000160149054906101000a900460ff16611bde576040517f08c379a0000000000000000000000000000000000000000000000000000000008152600401611bd590614caf565b60405180910390fd5b8060000160159054906101000a900460ff1615611c30576040517f08c379a0000000000000000000000000000000000000000000000000000000008152600401611c279061490e565b60405180910390fd5b8060030154421115611c77576040517f08c379a0000000000000000000000000000000000000000000000000000000008152600401611c6e90614d1b565b60405180910390fd5b60006003811115611c8b57611c8a613d5b565b5b826003811115611c9e57611c9d613d5b565b5b03611cde576040517f08c379a0000000000000000000000000000000000000000000000000000000008152600401611cd590614d87565b60405180910390fd5b611ce88333613787565b611d27576040517f08c379a0000000000000000000000000000000000000000000000000000000008152600401611d1e90614df3565b60405180910390fd5b60008160090160003373ffffffffffffffffffffffffffffffffffffffff1673ffffffffffffffffffffffffffffffffffffffff1681526020019081526020016000205414611dab576040517f08c379a0000000000000000000000000000000000000000000000000000000008152600401611da290614e5f565b60405180910390fd5b6000600660003373ffffffffffffffffffffffffffffffffffffffff1673ffffffffffffffffffffffffffffffffffffffff16815260200190815260200160002054905060008111611e32576040517f08c379a0000000000000000000000000000000000000000000000000000000008152600401611e2990614ecb565b60405180910390fd5b808260090160003373ffffffffffffffffffffffffffffffffffffffff1673ffffffffffffffffffffffffffffffffffffffff168152602001908152602001600020819055508282600a0160003373ffffffffffffffffffffffffffffffffffffffff1673ffffffffffffffffffffffffffffffffffffffff16815260200190815260200160002060006101000a81548160ff02191690836003811115611edc57611edb613d5b565b5b021790555060016003811115611ef557611ef4613d5b565b5b836003811115611f0857611f07613d5b565b5b03611f2d5780826006016000828254611f219190614290565b92505081905550611fc2565b60026003811115611f4157611f40613d5b565b5b836003811115611f5457611f53613d5b565b5b03611f795780826007016000828254611f6d9190614290565b92505081905550611fc1565b600380811115611f8c57611f8b613d5b565b5b836003811115611f9f57611f9e613d5b565b5b03611fc05780826008016000828254611fb89190614290565b925050819055505b5b5b7feba4866100b822f0f391e610e7edfab790b9e8766c0012733c26b2f1858e8dd7843385604051611ff593929190614eeb565b60405180910390a150505050565b60005481565b60076020528060005260406000206000915054906101000a900460ff1681565b62093a8081565b60008073ffffffffffffffffffffffffffffffffffffffff168473ffffffffffffffffffffffffffffffffffffffff16036120a0576040517f08c379a000000000000000000000000000000000000000000000000000000000815260040161209790614f6e565b60405180910390fd5b600083116120e3576040517f08c379a00000000000000000000000000000000000000000000000000000000081526004016120da90614fda565b60405180910390fd5b60008211612126576040517f08c379a000000000000000000000000000000000000000000000000000000000815260040161211d9061497a565b60405180910390fd5b600960008573ffffffffffffffffffffffffffffffffffffffff1673ffffffffffffffffffffffffffffffffffffffff16815260200190815260200160002060009054906101000a900460ff16156121b3576040517f08c379a00000000000000000000000000000000000000000000000000000000081526004016121aa9061506c565b60405180910390fd5b6002549050600260008154809291906121cb906144aa565b91905055506000600b60008381526020019081526020016000209050848160000160006101000a81548173ffffffffffffffffffffffffffffffffffffffff021916908373ffffffffffffffffffffffffffffffffffffffff16021790555083816001018190555060008160000160146101000a81548160ff02191690831515021790555060008160000160156101000a81548160ff02191690831515021790555060008160020181905550600081600301819055506001600960008773ffffffffffffffffffffffffffffffffffffffff1673ffffffffffffffffffffffffffffffffffffffff16815260200190815260200160002060006101000a81548160ff0219169083151502179055507f8a732f3f7a5aa93d1294e46c8f5206a3f51f1984c7a5e5c817906b2443e5f44d82868660405161230c939291906145f3565b60405180910390a1509392505050565b3373ffffffffffffffffffffffffffffffffffffffff166005600083815260200190815260200160002060009054906101000a900473ffffffffffffffffffffffffffffffffffffffff1673ffffffffffffffffffffffffffffffffffffffff16146123bd576040517f08c379a00000000000000000000000000000000000000000000000000000000081526004016123b4906150d8565b60405180910390fd5b600073ffffffffffffffffffffffffffffffffffffffff168273ffffffffffffffffffffffffffffffffffffffff160361242c576040517f08c379a000000000000000000000000000000000000000000000000000000000815260040161242390615144565b60405180910390fd5b6124373383836130e3565b5050565b60066020528060005260406000206000915090505481565b6000600c60008481526020019081526020016000209050600073ffffffffffffffffffffffffffffffffffffffff168160000160009054906101000a900473ffffffffffffffffffffffffffffffffffffffff1673ffffffffffffffffffffffffffffffffffffffff16036124fd576040517f08c379a00000000000000000000000000000000000000000000000000000000081526004016124f490614169565b60405180910390fd5b8060040154421115612544576040517f08c379a000000000000000000000000000000000000000000000000000000000815260040161253b90614d1b565b60405180910390fd5b8060070160009054906101000a900460ff1615612596576040517f08c379a000000000000000000000000000000000000000000000000000000000815260040161258d90614241565b60405180910390fd5b6000600660003373ffffffffffffffffffffffffffffffffffffffff1673ffffffffffffffffffffffffffffffffffffffff1681526020019081526020016000205490506000811161261d576040517f08c379a000000000000000000000000000000000000000000000000000000000815260040161261490614ecb565b60405180910390fd5b60008260090160003373ffffffffffffffffffffffffffffffffffffffff1673ffffffffffffffffffffffffffffffffffffffff16815260200190815260200160002054146126a1576040517f08c379a000000000000000000000000000000000000000000000000000000000815260040161269890614e5f565b60405180910390fd5b808260090160003373ffffffffffffffffffffffffffffffffffffffff1673ffffffffffffffffffffffffffffffffffffffff16815260200190815260200160002081905550821561270d57808260050160008282546127019190614290565b92505081905550612729565b808260060160008282546127219190614290565b925050819055505b7f78975aaf742630489badd22949b88ac50eaaea576339ee05440b671a33bfb6a98433858460405161275e9493929190615164565b60405180910390a150505050565b6000600b60008381526020019081526020016000209050600073ffffffffffffffffffffffffffffffffffffffff168160000160009054906101000a900473ffffffffffffffffffffffffffffffffffffffff1673ffffffffffffffffffffffffffffffffffffffff1603612816576040517f08c379a000000000000000000000000000000000000000000000000000000000815260040161280d90614836565b60405180910390fd5b8060000160149054906101000a900460ff16612867576040517f08c379a000000000000000000000000000000000000000000000000000000000815260040161285e90614caf565b60405180910390fd5b8060000160159054906101000a900460ff16156128b9576040517f08c379a00000000000000000000000000000000000000000000000000000000081526004016128b0906151f5565b60405180910390fd5b80600301544211806128d057506128cf82613849565b5b61290f576040517f08c379a000000000000000000000000000000000000000000000000000000000815260040161290690615261565b60405180910390fd5b600061291a83613920565b905060018260000160156101000a81548160ff0219169083151502179055506000600960008460000160009054906101000a900473ffffffffffffffffffffffffffffffffffffffff1673ffffffffffffffffffffffffffffffffffffffff1673ffffffffffffffffffffffffffffffffffffffff16815260200190815260200160002060006101000a81548160ff021916908315150217905550600160038111156129c9576129c8613d5b565b5b8160038111156129dc576129db613d5b565b5b03612a6a578160000160009054906101000a900473ffffffffffffffffffffffffffffffffffffffff1673ffffffffffffffffffffffffffffffffffffffff16630f6e7fbd6040518163ffffffff1660e01b8152600401600060405180830381600087803b158015612a4d57600080fd5b505af1158015612a61573d6000803e3d6000fd5b50505050612ba5565b60026003811115612a7e57612a7d613d5b565b5b816003811115612a9157612a90613d5b565b5b03612b1f578160000160009054906101000a900473ffffffffffffffffffffffffffffffffffffffff1673ffffffffffffffffffffffffffffffffffffffff1663e1d295e76040518163ffffffff1660e01b8152600401600060405180830381600087803b158015612b0257600080fd5b505af1158015612b16573d6000803e3d6000fd5b50505050612ba4565b8160000160009054906101000a900473ffffffffffffffffffffffffffffffffffffffff1673ffffffffffffffffffffffffffffffffffffffff166337f89bdf6040518163ffffffff1660e01b8152600401600060405180830381600087803b158015612b8b57600080fd5b505af1158015612b9f573d6000803e3d6000fd5b505050505b5b60005b8260050180549050811015612ca3576000836005018281548110612bcf57612bce614b94565b5b9060005260206000200160009054906101000a900473ffffffffffffffffffffffffffffffffffffffff16905060008460090160008373ffffffffffffffffffffffffffffffffffffffff1673ffffffffffffffffffffffffffffffffffffffff168152602001908152602001600020541115612c95578073ffffffffffffffffffffffffffffffffffffffff166108fc66038d7ea4c680009081150290604051600060405180830381858888f19350505050158015612c93573d6000803e3d6000fd5b505b508080600101915050612ba8565b507f2ffcfee146bc0d5ff304c6b65111a0d485af9456dc64eee7d66ebdcc90b223ea8382604051612cd5929190615281565b60405180910390a1505050565b600080600080600080600080600080600c60008c81526020019081526020016000209050600073ffffffffffffffffffffffffffffffffffffffff168160000160009054906101000a900473ffffffffffffffffffffffffffffffffffffffff1673ffffffffffffffffffffffffffffffffffffffff1603612d99576040517f08c379a0000000000000000000000000000000000000000000000000000000008152600401612d9090614169565b60405180910390fd5b8060000160009054906101000a900473ffffffffffffffffffffffffffffffffffffffff1699508060010160009054906101000a900473ffffffffffffffffffffffffffffffffffffffff16985080600201549750806003015496508060040154955080600501549450806006015493508060070160009054906101000a900460ff16925080600801549150509193959799909294969850565b60096020528060005260406000206000915054906101000a900460ff1681565b600080600660003373ffffffffffffffffffffffffffffffffffffffff1673ffffffffffffffffffffffffffffffffffffffff1681526020019081526020016000205411612ed6576040517f08c379a0000000000000000000000000000000000000000000000000000000008152600401612ecd906152f6565b60405180910390fd5b600073ffffffffffffffffffffffffffffffffffffffff168373ffffffffffffffffffffffffffffffffffffffff1603612f45576040517f08c379a0000000000000000000000000000000000000000000000000000000008152600401612f3c90615144565b60405180910390fd5b60008211612f88576040517f08c379a0000000000000000000000000000000000000000000000000000000008152600401612f7f90615362565b60405180910390fd5b6000600454905060046000815480929190612fa2906144aa565b91905055506000600c60008381526020019081526020016000209050338160000160006101000a81548173ffffffffffffffffffffffffffffffffffffffff021916908373ffffffffffffffffffffffffffffffffffffffff160217905550848160010160006101000a81548173ffffffffffffffffffffffffffffffffffffffff021916908373ffffffffffffffffffffffffffffffffffffffff16021790555083816002018190555042816003018190555062093a80426130659190614290565b816004018190555060008160070160006101000a81548160ff02191690831515021790555060035481600801819055507f0498efc40851dd66b079b44ac06f0291de83b764e409f0e2727693d9a48a39f88233878785600401546040516130d0959493929190615382565b60405180910390a1819250505092915050565b600073ffffffffffffffffffffffffffffffffffffffff168373ffffffffffffffffffffffffffffffffffffffff1614613294578273ffffffffffffffffffffffffffffffffffffffff166005600083815260200190815260200160002060009054906101000a900473ffffffffffffffffffffffffffffffffffffffff1673ffffffffffffffffffffffffffffffffffffffff16146131b8576040517f08c379a00000000000000000000000000000000000000000000000000000000081526004016131af90615421565b60405180910390fd5b6000600660008573ffffffffffffffffffffffffffffffffffffffff1673ffffffffffffffffffffffffffffffffffffffff168152602001908152602001600020541161323a576040517f08c379a00000000000000000000000000000000000000000000000000000000081526004016132319061548d565b60405180910390fd5b600660008473ffffffffffffffffffffffffffffffffffffffff1673ffffffffffffffffffffffffffffffffffffffff168152602001908152602001600020600081548092919061328a906154ad565b91905055506132ad565b600360008154809291906132a7906144aa565b91905055505b6132b6826139f6565b600660008373ffffffffffffffffffffffffffffffffffffffff1673ffffffffffffffffffffffffffffffffffffffff1681526020019081526020016000206000815480929190613306906144aa565b9190505550816005600083815260200190815260200160002060006101000a81548173ffffffffffffffffffffffffffffffffffffffff021916908373ffffffffffffffffffffffffffffffffffffffff160217905550505050565b3073ffffffffffffffffffffffffffffffffffffffff166005600083815260200190815260200160002060009054906101000a900473ffffffffffffffffffffffffffffffffffffffff1673ffffffffffffffffffffffffffffffffffffffff1614613403576040517f08c379a00000000000000000000000000000000000000000000000000000000081526004016133fa90615522565b60405180910390fd5b6000600a6000838152602001908152602001600020905081816000018190555042816001018190555062093a804261343b9190614290565b81600201819055506000816003018190555060008160040160006101000a81548173ffffffffffffffffffffffffffffffffffffffff021916908373ffffffffffffffffffffffffffffffffffffffff16021790555060008160040160146101000a81548160ff0219169083151502179055507f44c53be110c6aa83aa83cd02e351ed172359268272ee1b5d31c0fe48db35c6c782826001015483600201546040516134e993929190613ec9565b60405180910390a15050565b60608060008060088054905067ffffffffffffffff81111561351a57613519614ab4565b5b6040519080825280602002602001820160405280156135485781602001602082028036833780820191505090505b50935060088054905067ffffffffffffffff81111561356a57613569614ab4565b5b6040519080825280602002602001820160405280156135985781602001602082028036833780820191505090505b50925060005b60088054905081101561377d576000600882815481106135c1576135c0614b94565b5b9060005260206000200160009054906101000a900473ffffffffffffffffffffffffffffffffffffffff1690506000600660008373ffffffffffffffffffffffffffffffffffffffff1673ffffffffffffffffffffffffffffffffffffffff1681526020019081526020016000205490503073ffffffffffffffffffffffffffffffffffffffff168273ffffffffffffffffffffffffffffffffffffffff161415801561369a57508873ffffffffffffffffffffffffffffffffffffffff168273ffffffffffffffffffffffffffffffffffffffff1614155b80156136d257508773ffffffffffffffffffffffffffffffffffffffff168273ffffffffffffffffffffffffffffffffffffffff1614155b80156136de5750600081115b1561376e57818786815181106136f7576136f6614b94565b5b602002602001019073ffffffffffffffffffffffffffffffffffffffff16908173ffffffffffffffffffffffffffffffffffffffff16815250508086868151811061374557613744614b94565b5b602002602001018181525050808461375d9190614290565b9350848061376a906144aa565b9550505b5050808060010191505061359e565b5092959194509250565b600080600b6000858152602001908152602001600020905060005b816005018054905081101561383c578373ffffffffffffffffffffffffffffffffffffffff168260050182815481106137de576137dd614b94565b5b9060005260206000200160009054906101000a900473ffffffffffffffffffffffffffffffffffffffff1673ffffffffffffffffffffffffffffffffffffffff160361382f57600192505050613843565b80806001019150506137a2565b5060009150505b92915050565b600080600b6000848152602001908152602001600020905060005b816005018054905081101561391457600082600901600084600501848154811061389157613890614b94565b5b9060005260206000200160009054906101000a900473ffffffffffffffffffffffffffffffffffffffff1673ffffffffffffffffffffffffffffffffffffffff1673ffffffffffffffffffffffffffffffffffffffff16815260200190815260200160002054036139075760009250505061391b565b8080600101915050613864565b5060019150505b919050565b600080600b6000848152602001908152602001600020905060008160060154905060008260070154905060008360080154905060008183856139629190614290565b61396c9190614290565b905060008103613984576003955050505050506139f1565b600060646032836139959190614330565b61399f91906143a1565b9050808511156139b857600196505050505050506139f1565b808411156139cf57600296505050505050506139f1565b808311156139e657600396505050505050506139f1565b600396505050505050505b919050565b600760008273ffffffffffffffffffffffffffffffffffffffff1673ffffffffffffffffffffffffffffffffffffffff16815260200190815260200160002060009054906101000a900460ff16613b03576001600760008373ffffffffffffffffffffffffffffffffffffffff1673ffffffffffffffffffffffffffffffffffffffff16815260200190815260200160002060006101000a81548160ff0219169083151502179055506008819080600181540180825580915050600190039060005260206000200160009091909190916101000a81548173ffffffffffffffffffffffffffffffffffffffff021916908373ffffffffffffffffffffffffffffffffffffffff1602179055505b50565b600080fd5b6000819050919050565b613b1e81613b0b565b8114613b2957600080fd5b50565b600081359050613b3b81613b15565b92915050565b600060208284031215613b5757613b56613b06565b5b6000613b6584828501613b2c565b91505092915050565b613b7781613b0b565b82525050565b6000602082019050613b926000830184613b6e565b92915050565b600073ffffffffffffffffffffffffffffffffffffffff82169050919050565b6000613bc382613b98565b9050919050565b613bd381613bb8565b82525050565b6000602082019050613bee6000830184613bca565b92915050565b600081519050919050565b600082825260208201905092915050565b6000819050602082019050919050565b613c2981613bb8565b82525050565b6000613c3b8383613c20565b60208301905092915050565b6000602082019050919050565b6000613c5f82613bf4565b613c698185613bff565b9350613c7483613c10565b8060005b83811015613ca5578151613c8c8882613c2f565b9750613c9783613c47565b925050600181019050613c78565b5085935050505092915050565b60006020820190508181036000830152613ccc8184613c54565b905092915050565b613cdd81613bb8565b8114613ce857600080fd5b50565b600081359050613cfa81613cd4565b92915050565b60008060408385031215613d1757613d16613b06565b5b6000613d2585828601613b2c565b9250506020613d3685828601613ceb565b9150509250929050565b60008115159050919050565b613d5581613d40565b82525050565b7f4e487b7100000000000000000000000000000000000000000000000000000000600052602160045260246000fd5b60048110613d9b57613d9a613d5b565b5b50565b6000819050613dac82613d8a565b919050565b6000613dbc82613d9e565b9050919050565b613dcc81613db1565b82525050565b6000604082019050613de76000830185613d4c565b613df46020830184613dc3565b9392505050565b600060c082019050613e106000830189613b6e565b613e1d6020830188613b6e565b613e2a6040830187613b6e565b613e376060830186613b6e565b613e446080830185613bca565b613e5160a0830184613d4c565b979650505050505050565b600060208284031215613e7257613e71613b06565b5b6000613e8084828501613ceb565b91505092915050565b60008060408385031215613ea057613e9f613b06565b5b6000613eae85828601613b2c565b9250506020613ebf85828601613b2c565b9150509250929050565b6000606082019050613ede6000830186613b6e565b613eeb6020830185613b6e565b613ef86040830184613b6e565b949350505050565b60048110613f0d57600080fd5b50565b600081359050613f1f81613f00565b92915050565b60008060408385031215613f3c57613f3b613b06565b5b6000613f4a85828601613b2c565b9250506020613f5b85828601613f10565b9150509250929050565b6000602082019050613f7a6000830184613d4c565b92915050565b600080600060608486031215613f9957613f98613b06565b5b6000613fa786828701613ceb565b9350506020613fb886828701613b2c565b9250506040613fc986828701613b2c565b9150509250925092565b60008060408385031215613fea57613fe9613b06565b5b6000613ff885828601613ceb565b925050602061400985828601613b2c565b9150509250929050565b61401c81613d40565b811461402757600080fd5b50565b60008135905061403981614013565b92915050565b6000806040838503121561405657614055613b06565b5b600061406485828601613b2c565b92505060206140758582860161402a565b9150509250929050565b600061012082019050614095600083018c613bca565b6140a2602083018b613bca565b6140af604083018a613b6e565b6140bc6060830189613b6e565b6140c96080830188613b6e565b6140d660a0830187613b6e565b6140e360c0830186613b6e565b6140f060e0830185613d4c565b6140fe610100830184613b6e565b9a9950505050505050505050565b600082825260208201905092915050565b7f50726f706f73616c20646f6573206e6f74206578697374000000000000000000600082015250565b600061415360178361410c565b915061415e8261411d565b602082019050919050565b6000602082019050818103600083015261418281614146565b9050919050565b7f566f74696e67206e6f7420656e64656400000000000000000000000000000000600082015250565b60006141bf60108361410c565b91506141ca82614189565b602082019050919050565b600060208201905081810360008301526141ee816141b2565b9050919050565b7f50726f706f73616c20616c726561647920657865637574656400000000000000600082015250565b600061422b60198361410c565b9150614236826141f5565b602082019050919050565b6000602082019050818103600083015261425a8161421e565b9050919050565b7f4e487b7100000000000000000000000000000000000000000000000000000000600052601160045260246000fd5b600061429b82613b0b565b91506142a683613b0b565b92508282019050808211156142be576142bd614261565b5b92915050565b7f4e6f20766f746573206361737400000000000000000000000000000000000000600082015250565b60006142fa600d8361410c565b9150614305826142c4565b602082019050919050565b60006020820190508181036000830152614329816142ed565b9050919050565b600061433b82613b0b565b915061434683613b0b565b925082820261435481613b0b565b9150828204841483151761436b5761436a614261565b5b5092915050565b7f4e487b7100000000000000000000000000000000000000000000000000000000600052601260045260246000fd5b60006143ac82613b0b565b91506143b783613b0b565b9250826143c7576143c6614372565b5b828204905092915050565b7f496e73756666696369656e7420737570706f7274000000000000000000000000600082015250565b600061440860148361410c565b9150614413826143d2565b602082019050919050565b60006020820190508181036000830152614437816143fb565b9050919050565b7f4d696e7420696e74657276616c206e6f74207265616368656400000000000000600082015250565b600061447460198361410c565b915061447f8261443e565b602082019050919050565b600060208201905081810360008301526144a381614467565b9050919050565b60006144b582613b0b565b91507fffffffffffffffffffffffffffffffffffffffffffffffffffffffffffffffff82036144e7576144e6614261565b5b600182019050919050565b60006040820190506145076000830185613b6e565b6145146020830184613bca565b9392505050565b7f41756374696f6e207374696c6c206f6e676f696e670000000000000000000000600082015250565b600061455160158361410c565b915061455c8261451b565b602082019050919050565b6000602082019050818103600083015261458081614544565b9050919050565b7f41756374696f6e20616c726561647920736574746c6564000000000000000000600082015250565b60006145bd60178361410c565b91506145c882614587565b602082019050919050565b600060208201905081810360008301526145ec816145b0565b9050919050565b60006060820190506146086000830186613b6e565b6146156020830185613bca565b6146226040830184613b6e565b949350505050565b6000819050919050565b6000819050919050565b600061465961465461464f8461462a565b614634565b613b0b565b9050919050565b6146698161463e565b82525050565b60006060820190506146846000830186613b6e565b6146916020830185613bca565b61469e6040830184614660565b949350505050565b7f41756374696f6e206e6f74207374617274656400000000000000000000000000600082015250565b60006146dc60138361410c565b91506146e7826146a6565b602082019050919050565b6000602082019050818103600083015261470b816146cf565b9050919050565b7f41756374696f6e20656e64656400000000000000000000000000000000000000600082015250565b6000614748600d8361410c565b915061475382614712565b602082019050919050565b600060208201905081810360008301526147778161473b565b9050919050565b7f42696420746f6f206c6f77000000000000000000000000000000000000000000600082015250565b60006147b4600b8361410c565b91506147bf8261477e565b602082019050919050565b600060208201905081810360008301526147e3816147a7565b9050919050565b7f4469737075746520646f6573206e6f7420657869737400000000000000000000600082015250565b600061482060168361410c565b915061482b826147ea565b602082019050919050565b6000602082019050818103600083015261484f81614813565b9050919050565b7f50616e656c20616c72656164792073656c656374656400000000000000000000600082015250565b600061488c60168361410c565b915061489782614856565b602082019050919050565b600060208201905081810360008301526148bb8161487f565b9050919050565b7f4469737075746520616c7265616479207265736f6c7665640000000000000000600082015250565b60006148f860188361410c565b9150614903826148c2565b602082019050919050565b60006020820190508181036000830152614927816148eb565b9050919050565b7f566f74696e67206475726174696f6e206d757374206265203e20300000000000600082015250565b6000614964601b8361410c565b915061496f8261492e565b602082019050919050565b6000602082019050818103600083015261499381614957565b9050919050565b6000815190506149a981613cd4565b92915050565b6000602082840312156149c5576149c4613b06565b5b60006149d38482850161499a565b91505092915050565b7f4e6f7420656e6f75676820656c696769626c6520686f6c646572730000000000600082015250565b6000614a12601b8361410c565b9150614a1d826149dc565b602082019050919050565b60006020820190508181036000830152614a4181614a05565b9050919050565b7f4e6f20656c696769626c6520686f6c6465727300000000000000000000000000600082015250565b6000614a7e60138361410c565b9150614a8982614a48565b602082019050919050565b60006020820190508181036000830152614aad81614a71565b9050919050565b7f4e487b7100000000000000000000000000000000000000000000000000000000600052604160045260246000fd5b6000819050919050565b614afe614af982613b0b565b614ae3565b82525050565b6000614b108288614aed565b602082019150614b208287614aed565b602082019150614b308286614aed565b602082019150614b408285614aed565b602082019150614b508284614aed565b6020820191508190509695505050505050565b6000614b6e82613b0b565b9150614b7983613b0b565b925082614b8957614b88614372565b5b828206905092915050565b7f4e487b7100000000000000000000000000000000000000000000000000000000600052603260045260246000fd5b7f4a75726f722073656c656374696f6e206661696c656400000000000000000000600082015250565b6000614bf960168361410c565b9150614c0482614bc3565b602082019050919050565b60006020820190508181036000830152614c2881614bec565b9050919050565b6000614c3a82613b0b565b9150614c4583613b0b565b9250828203905081811115614c5d57614c5c614261565b5b92915050565b7f50616e656c206e6f742073656c65637465640000000000000000000000000000600082015250565b6000614c9960128361410c565b9150614ca482614c63565b602082019050919050565b60006020820190508181036000830152614cc881614c8c565b9050919050565b7f566f74696e6720656e6465640000000000000000000000000000000000000000600082015250565b6000614d05600c8361410c565b9150614d1082614ccf565b602082019050919050565b60006020820190508181036000830152614d3481614cf8565b9050919050565b7f496e76616c696420766f74650000000000000000000000000000000000000000600082015250565b6000614d71600c8361410c565b9150614d7c82614d3b565b602082019050919050565b60006020820190508181036000830152614da081614d64565b9050919050565b7f4e6f742073656c6563746564206a75726f720000000000000000000000000000600082015250565b6000614ddd60128361410c565b9150614de882614da7565b602082019050919050565b60006020820190508181036000830152614e0c81614dd0565b9050919050565b7f416c726561647920766f74656400000000000000000000000000000000000000600082015250565b6000614e49600d8361410c565b9150614e5482614e13565b602082019050919050565b60006020820190508181036000830152614e7881614e3c565b9050919050565b7f4e6f20766f74696e6720706f7765720000000000000000000000000000000000600082015250565b6000614eb5600f8361410c565b9150614ec082614e7f565b602082019050919050565b60006020820190508181036000830152614ee481614ea8565b9050919050565b6000606082019050614f006000830186613b6e565b614f0d6020830185613bca565b614f1a6040830184613dc3565b949350505050565b7f496e76616c696420636f6d6d697373696f6e0000000000000000000000000000600082015250565b6000614f5860128361410c565b9150614f6382614f22565b602082019050919050565b60006020820190508181036000830152614f8781614f4b565b9050919050565b7f50616e656c2073697a65206d757374206265203e203000000000000000000000600082015250565b6000614fc460168361410c565b9150614fcf82614f8e565b602082019050919050565b60006020820190508181036000830152614ff381614fb7565b9050919050565b7f436f6d6d697373696f6e20616c7265616479206861732061637469766520646960008201527f7370757465000000000000000000000000000000000000000000000000000000602082015250565b600061505660258361410c565b915061506182614ffa565b604082019050919050565b6000602082019050818103600083015261508581615049565b9050919050565b7f4e6f74206f776e65720000000000000000000000000000000000000000000000600082015250565b60006150c260098361410c565b91506150cd8261508c565b602082019050919050565b600060208201905081810360008301526150f1816150b5565b9050919050565b7f496e76616c696420726563697069656e74000000000000000000000000000000600082015250565b600061512e60118361410c565b9150615139826150f8565b602082019050919050565b6000602082019050818103600083015261515d81615121565b9050919050565b60006080820190506151796000830187613b6e565b6151866020830186613bca565b6151936040830185613d4c565b6151a06060830184613b6e565b95945050505050565b7f416c7265616479207265736f6c76656400000000000000000000000000000000600082015250565b60006151df60108361410c565b91506151ea826151a9565b602082019050919050565b6000602082019050818103600083015261520e816151d2565b9050919050565b7f566f74696e67207374696c6c2061637469766500000000000000000000000000600082015250565b600061524b60138361410c565b915061525682615215565b602082019050919050565b6000602082019050818103600083015261527a8161523e565b9050919050565b60006040820190506152966000830185613b6e565b6152a36020830184613dc3565b9392505050565b7f4e6f7420612044414f206d656d62657200000000000000000000000000000000600082015250565b60006152e060108361410c565b91506152eb826152aa565b602082019050919050565b6000602082019050818103600083015261530f816152d3565b9050919050565b7f416d6f756e74206d75737420626520706f736974697665000000000000000000600082015250565b600061534c60178361410c565b915061535782615316565b602082019050919050565b6000602082019050818103600083015261537b8161533f565b9050919050565b600060a0820190506153976000830188613b6e565b6153a46020830187613bca565b6153b16040830186613bca565b6153be6060830185613b6e565b6153cb6080830184613b6e565b9695505050505050565b7f496e636f7272656374206f776e65720000000000000000000000000000000000600082015250565b600061540b600f8361410c565b9150615416826153d5565b602082019050919050565b6000602082019050818103600083015261543a816153fe565b9050919050565b7f496e73756666696369656e7420686f6c6465722062616c616e63650000000000600082015250565b6000615477601b8361410c565b915061548282615441565b602082019050919050565b600060208201905081810360008301526154a68161546a565b9050919050565b60006154b882613b0b565b9150600082036154cb576154ca614261565b5b600182039050919050565b7f546f6b656e206e6f74206f776e656420627920636f6e74726163740000000000600082015250565b600061550c601b8361410c565b9150615517826154d6565b602082019050919050565b6000602082019050818103600083015261553b816154ff565b905091905056fea2646970667358221220d4d70eee8e51ee562183afb6b500587c36a23ec9ae8396754600fd7f3e7b893564736f6c634300081c0033","opcodes":"PUSH1 0x80 PUSH1 0x40 MSTORE CALLVALUE DUP1 ISZERO PUSH2 0x10 JUMPI PUSH1 0x0 DUP1 REVERT JUMPDEST POP TIMESTAMP PUSH1 0x0 DUP2 SWAP1 SSTORE POP PUSH1 0x1 DUP1 DUP2 SWAP1 SSTORE POP PUSH1 0x1 PUSH1 0x2 DUP2 SWAP1 SSTORE POP PUSH1 0x1 PUSH1 0x4 DUP2 SWAP1 SSTORE POP PUSH2 0x3E ADDRESS PUSH2 0x43 PUSH1 0x20 SHL PUSH1 0x20 SHR JUMP JUMPDEST PUSH2 0x153 JUMP JUMPDEST PUSH1 0x7 PUSH1 0x0 DUP3 PUSH20 0xFFFFFFFFFFFFFFFFFFFFFFFFFFFFFFFFFFFFFFFF AND PUSH20 0xFFFFFFFFFFFFFFFFFFFFFFFFFFFFFFFFFFFFFFFF AND DUP2 MSTORE PUSH1 0x20 ADD SWAP1 DUP2 MSTORE PUSH1 0x20 ADD PUSH1 0x0 KECCAK256 PUSH1 0x0 SWAP1 SLOAD SWAP1 PUSH2 0x100 EXP SWAP1 DIV PUSH1 0xFF AND PUSH2 0x150 JUMPI PUSH1 0x1 PUSH1 0x7 PUSH1 0x0 DUP4 PUSH20 0xFFFFFFFFFFFFFFFFFFFFFFFFFFFFFFFFFFFFFFFF AND PUSH20 0xFFFFFFFFFFFFFFFFFFFFFFFFFFFFFFFFFFFFFFFF AND DUP2 MSTORE PUSH1 0x20 ADD SWAP1 DUP2 MSTORE PUSH1 0x20 ADD PUSH1 0x0 KECCAK256 PUSH1 0x0 PUSH2 0x100 EXP DUP2 SLOAD DUP2 PUSH1 0xFF MUL NOT AND SWAP1 DUP4 ISZERO ISZERO MUL OR SWAP1 SSTORE POP PUSH1 0x8 DUP2 SWAP1 DUP1 PUSH1 0x1 DUP2 SLOAD ADD DUP1 DUP3 SSTORE DUP1 SWAP2 POP POP PUSH1 0x1 SWAP1 SUB SWAP1 PUSH1 0x0 MSTORE PUSH1 0x20 PUSH1 0x0 KECCAK256 ADD PUSH1 0x0 SWAP1 SWAP2 SWAP1 SWAP2 SWAP1 SWAP2 PUSH2 0x100 EXP DUP2 SLOAD DUP2 PUSH20 0xFFFFFFFFFFFFFFFFFFFFFFFFFFFFFFFFFFFFFFFF MUL NOT AND SWAP1 DUP4 PUSH20 0xFFFFFFFFFFFFFFFFFFFFFFFFFFFFFFFFFFFFFFFF AND MUL OR SWAP1 SSTORE POP JUMPDEST POP JUMP JUMPDEST PUSH2 0x5578 DUP1 PUSH2 0x162 PUSH1 0x0 CODECOPY PUSH1 0x0 RETURN INVALID PUSH1 0x80 PUSH1 0x40 MSTORE PUSH1 0x4 CALLDATASIZE LT PUSH2 0x1F2 JUMPI PUSH1 0x0 CALLDATALOAD PUSH1 0xE0 SHR DUP1 PUSH4 0x70A08231 GT PUSH2 0x10D JUMPI DUP1 PUSH4 0xA271E525 GT PUSH2 0xA0 JUMPI DUP1 PUSH4 0xBCFB9B61 GT PUSH2 0x6F JUMPI DUP1 PUSH4 0xBCFB9B61 EQ PUSH2 0x753 JUMPI DUP1 PUSH4 0xC2B7B868 EQ PUSH2 0x77C JUMPI DUP1 PUSH4 0xC7F758A8 EQ PUSH2 0x7A5 JUMPI DUP1 PUSH4 0xDE86B419 EQ PUSH2 0x7EA JUMPI DUP1 PUSH4 0xDFC51A25 EQ PUSH2 0x827 JUMPI PUSH2 0x1F9 JUMP JUMPDEST DUP1 PUSH4 0xA271E525 EQ PUSH2 0x685 JUMPI DUP1 PUSH4 0xA5BC3636 EQ PUSH2 0x6B0 JUMPI DUP1 PUSH4 0xA9059CBB EQ PUSH2 0x6ED JUMPI DUP1 PUSH4 0xAB6DDFA8 EQ PUSH2 0x716 JUMPI PUSH2 0x1F9 JUMP JUMPDEST DUP1 PUSH4 0x8A241F4C GT PUSH2 0xDC JUMPI DUP1 PUSH4 0x8A241F4C EQ PUSH2 0x5B5 JUMPI DUP1 PUSH4 0x943E8216 EQ PUSH2 0x5F4 JUMPI DUP1 PUSH4 0x9D463520 EQ PUSH2 0x61D JUMPI DUP1 PUSH4 0x9F9B1048 EQ PUSH2 0x648 JUMPI PUSH2 0x1F9 JUMP JUMPDEST DUP1 PUSH4 0x70A08231 EQ PUSH2 0x4F9 JUMPI DUP1 PUSH4 0x74F376D4 EQ PUSH2 0x536 JUMPI DUP1 PUSH4 0x75794A3C EQ PUSH2 0x55F JUMPI DUP1 PUSH4 0x84E7E3D3 EQ PUSH2 0x58A JUMPI PUSH2 0x1F9 JUMP JUMPDEST DUP1 PUSH4 0x2E993611 GT PUSH2 0x185 JUMPI DUP1 PUSH4 0x571A26A0 GT PUSH2 0x154 JUMPI DUP1 PUSH4 0x571A26A0 EQ PUSH2 0x412 JUMPI DUP1 PUSH4 0x6352211E EQ PUSH2 0x454 JUMPI DUP1 PUSH4 0x6BE6258B EQ PUSH2 0x491 JUMPI DUP1 PUSH4 0x6D8ACF45 EQ PUSH2 0x4BC JUMPI PUSH2 0x1F9 JUMP JUMPDEST DUP1 PUSH4 0x2E993611 EQ PUSH2 0x364 JUMPI DUP1 PUSH4 0x313DAB20 EQ PUSH2 0x38D JUMPI DUP1 PUSH4 0x3AF7F4F7 EQ PUSH2 0x3B8 JUMPI DUP1 PUSH4 0x454A2AB3 EQ PUSH2 0x3F6 JUMPI PUSH2 0x1F9 JUMP JUMPDEST DUP1 PUSH4 0x1CAAA487 GT PUSH2 0x1C1 JUMPI DUP1 PUSH4 0x1CAAA487 EQ PUSH2 0x294 JUMPI DUP1 PUSH4 0x1D92F25E EQ PUSH2 0x2D1 JUMPI DUP1 PUSH4 0x2A11CED0 EQ PUSH2 0x2FC JUMPI DUP1 PUSH4 0x2AB09D14 EQ PUSH2 0x339 JUMPI PUSH2 0x1F9 JUMP JUMPDEST DUP1 PUSH4 0xD61B519 EQ PUSH2 0x1FE JUMPI DUP1 PUSH4 0xDB39934 EQ PUSH2 0x227 JUMPI DUP1 PUSH4 0x1249C58B EQ PUSH2 0x252 JUMPI DUP1 PUSH4 0x18160DDD EQ PUSH2 0x269 JUMPI PUSH2 0x1F9 JUMP JUMPDEST CALLDATASIZE PUSH2 0x1F9 JUMPI STOP JUMPDEST PUSH1 0x0 DUP1 REVERT JUMPDEST CALLVALUE DUP1 ISZERO PUSH2 0x20A JUMPI PUSH1 0x0 DUP1 REVERT JUMPDEST POP PUSH2 0x225 PUSH1 0x4 DUP1 CALLDATASIZE SUB DUP2 ADD SWAP1 PUSH2 0x220 SWAP2 SWAP1 PUSH2 0x3B41 JUMP JUMPDEST PUSH2 0x864 JUMP JUMPDEST STOP JUMPDEST CALLVALUE DUP1 ISZERO PUSH2 0x233 JUMPI PUSH1 0x0 DUP1 REVERT JUMPDEST POP PUSH2 0x23C PUSH2 0xB32 JUMP JUMPDEST PUSH1 0x40 MLOAD PUSH2 0x249 SWAP2 SWAP1 PUSH2 0x3B7D JUMP JUMPDEST PUSH1 0x40 MLOAD DUP1 SWAP2 SUB SWAP1 RETURN JUMPDEST CALLVALUE DUP1 ISZERO PUSH2 0x25E JUMPI PUSH1 0x0 DUP1 REVERT JUMPDEST POP PUSH2 0x267 PUSH2 0xB38 JUMP JUMPDEST STOP JUMPDEST CALLVALUE DUP1 ISZERO PUSH2 0x275 JUMPI PUSH1 0x0 DUP1 REVERT JUMPDEST POP PUSH2 0x27E PUSH2 0xC02 JUMP JUMPDEST PUSH1 0x40 MLOAD PUSH2 0x28B SWAP2 SWAP1 PUSH2 0x3B7D JUMP JUMPDEST PUSH1 0x40 MLOAD DUP1 SWAP2 SUB SWAP1 RETURN JUMPDEST CALLVALUE DUP1 ISZERO PUSH2 0x2A0 JUMPI PUSH1 0x0 DUP1 REVERT JUMPDEST POP PUSH2 0x2BB PUSH1 0x4 DUP1 CALLDATASIZE SUB DUP2 ADD SWAP1 PUSH2 0x2B6 SWAP2 SWAP1 PUSH2 0x3B41 JUMP JUMPDEST PUSH2 0xC08 JUMP JUMPDEST PUSH1 0x40 MLOAD PUSH2 0x2C8 SWAP2 SWAP1 PUSH2 0x3BD9 JUMP JUMPDEST PUSH1 0x40 MLOAD DUP1 SWAP2 SUB SWAP1 RETURN JUMPDEST CALLVALUE DUP1 ISZERO PUSH2 0x2DD JUMPI PUSH1 0x0 DUP1 REVERT JUMPDEST POP PUSH2 0x2E6 PUSH2 0xC3B JUMP JUMPDEST PUSH1 0x40 MLOAD PUSH2 0x2F3 SWAP2 SWAP1 PUSH2 0x3CB2 JUMP JUMPDEST PUSH1 0x40 MLOAD DUP1 SWAP2 SUB SWAP1 RETURN JUMPDEST CALLVALUE DUP1 ISZERO PUSH2 0x308 JUMPI PUSH1 0x0 DUP1 REVERT JUMPDEST POP PUSH2 0x323 PUSH1 0x4 DUP1 CALLDATASIZE SUB DUP2 ADD SWAP1 PUSH2 0x31E SWAP2 SWAP1 PUSH2 0x3B41 JUMP JUMPDEST PUSH2 0xCC9 JUMP JUMPDEST PUSH1 0x40 MLOAD PUSH2 0x330 SWAP2 SWAP1 PUSH2 0x3BD9 JUMP JUMPDEST PUSH1 0x40 MLOAD DUP1 SWAP2 SUB SWAP1 RETURN JUMPDEST CALLVALUE DUP1 ISZERO PUSH2 0x345 JUMPI PUSH1 0x0 DUP1 REVERT JUMPDEST POP PUSH2 0x34E PUSH2 0xD08 JUMP JUMPDEST PUSH1 0x40 MLOAD PUSH2 0x35B SWAP2 SWAP1 PUSH2 0x3B7D JUMP JUMPDEST PUSH1 0x40 MLOAD DUP1 SWAP2 SUB SWAP1 RETURN JUMPDEST CALLVALUE DUP1 ISZERO PUSH2 0x370 JUMPI PUSH1 0x0 DUP1 REVERT JUMPDEST POP PUSH2 0x38B PUSH1 0x4 DUP1 CALLDATASIZE SUB DUP2 ADD SWAP1 PUSH2 0x386 SWAP2 SWAP1 PUSH2 0x3B41 JUMP JUMPDEST PUSH2 0xD0E JUMP JUMPDEST STOP JUMPDEST CALLVALUE DUP1 ISZERO PUSH2 0x399 JUMPI PUSH1 0x0 DUP1 REVERT JUMPDEST POP PUSH2 0x3A2 PUSH2 0xF0A JUMP JUMPDEST PUSH1 0x40 MLOAD PUSH2 0x3AF SWAP2 SWAP1 PUSH2 0x3B7D JUMP JUMPDEST PUSH1 0x40 MLOAD DUP1 SWAP2 SUB SWAP1 RETURN JUMPDEST CALLVALUE DUP1 ISZERO PUSH2 0x3C4 JUMPI PUSH1 0x0 DUP1 REVERT JUMPDEST POP PUSH2 0x3DF PUSH1 0x4 DUP1 CALLDATASIZE SUB DUP2 ADD SWAP1 PUSH2 0x3DA SWAP2 SWAP1 PUSH2 0x3D00 JUMP JUMPDEST PUSH2 0xF12 JUMP JUMPDEST PUSH1 0x40 MLOAD PUSH2 0x3ED SWAP3 SWAP2 SWAP1 PUSH2 0x3DD2 JUMP JUMPDEST PUSH1 0x40 MLOAD DUP1 SWAP2 SUB SWAP1 RETURN JUMPDEST PUSH2 0x410 PUSH1 0x4 DUP1 CALLDATASIZE SUB DUP2 ADD SWAP1 PUSH2 0x40B SWAP2 SWAP1 PUSH2 0x3B41 JUMP JUMPDEST PUSH2 0xFCC JUMP JUMPDEST STOP JUMPDEST CALLVALUE DUP1 ISZERO PUSH2 0x41E JUMPI PUSH1 0x0 DUP1 REVERT JUMPDEST POP PUSH2 0x439 PUSH1 0x4 DUP1 CALLDATASIZE SUB DUP2 ADD SWAP1 PUSH2 0x434 SWAP2 SWAP1 PUSH2 0x3B41 JUMP JUMPDEST PUSH2 0x125C JUMP JUMPDEST PUSH1 0x40 MLOAD PUSH2 0x44B SWAP7 SWAP6 SWAP5 SWAP4 SWAP3 SWAP2 SWAP1 PUSH2 0x3DFB JUMP JUMPDEST PUSH1 0x40 MLOAD DUP1 SWAP2 SUB SWAP1 RETURN JUMPDEST CALLVALUE DUP1 ISZERO PUSH2 0x460 JUMPI PUSH1 0x0 DUP1 REVERT JUMPDEST POP PUSH2 0x47B PUSH1 0x4 DUP1 CALLDATASIZE SUB DUP2 ADD SWAP1 PUSH2 0x476 SWAP2 SWAP1 PUSH2 0x3B41 JUMP JUMPDEST PUSH2 0x12C5 JUMP JUMPDEST PUSH1 0x40 MLOAD PUSH2 0x488 SWAP2 SWAP1 PUSH2 0x3BD9 JUMP JUMPDEST PUSH1 0x40 MLOAD DUP1 SWAP2 SUB SWAP1 RETURN JUMPDEST CALLVALUE DUP1 ISZERO PUSH2 0x49D JUMPI PUSH1 0x0 DUP1 REVERT JUMPDEST POP PUSH2 0x4A6 PUSH2 0x1302 JUMP JUMPDEST PUSH1 0x40 MLOAD PUSH2 0x4B3 SWAP2 SWAP1 PUSH2 0x3B7D JUMP JUMPDEST PUSH1 0x40 MLOAD DUP1 SWAP2 SUB SWAP1 RETURN JUMPDEST CALLVALUE DUP1 ISZERO PUSH2 0x4C8 JUMPI PUSH1 0x0 DUP1 REVERT JUMPDEST POP PUSH2 0x4E3 PUSH1 0x4 DUP1 CALLDATASIZE SUB DUP2 ADD SWAP1 PUSH2 0x4DE SWAP2 SWAP1 PUSH2 0x3B41 JUMP JUMPDEST PUSH2 0x130D JUMP JUMPDEST PUSH1 0x40 MLOAD PUSH2 0x4F0 SWAP2 SWAP1 PUSH2 0x3CB2 JUMP JUMPDEST PUSH1 0x40 MLOAD DUP1 SWAP2 SUB SWAP1 RETURN JUMPDEST CALLVALUE DUP1 ISZERO PUSH2 0x505 JUMPI PUSH1 0x0 DUP1 REVERT JUMPDEST POP PUSH2 0x520 PUSH1 0x4 DUP1 CALLDATASIZE SUB DUP2 ADD SWAP1 PUSH2 0x51B SWAP2 SWAP1 PUSH2 0x3E5C JUMP JUMPDEST PUSH2 0x13B1 JUMP JUMPDEST PUSH1 0x40 MLOAD PUSH2 0x52D SWAP2 SWAP1 PUSH2 0x3B7D JUMP JUMPDEST PUSH1 0x40 MLOAD DUP1 SWAP2 SUB SWAP1 RETURN JUMPDEST CALLVALUE DUP1 ISZERO PUSH2 0x542 JUMPI PUSH1 0x0 DUP1 REVERT JUMPDEST POP PUSH2 0x55D PUSH1 0x4 DUP1 CALLDATASIZE SUB DUP2 ADD SWAP1 PUSH2 0x558 SWAP2 SWAP1 PUSH2 0x3E89 JUMP JUMPDEST PUSH2 0x13FA JUMP JUMPDEST STOP JUMPDEST CALLVALUE DUP1 ISZERO PUSH2 0x56B JUMPI PUSH1 0x0 DUP1 REVERT JUMPDEST POP PUSH2 0x574 PUSH2 0x1A9E JUMP JUMPDEST PUSH1 0x40 MLOAD PUSH2 0x581 SWAP2 SWAP1 PUSH2 0x3B7D JUMP JUMPDEST PUSH1 0x40 MLOAD DUP1 SWAP2 SUB SWAP1 RETURN JUMPDEST CALLVALUE DUP1 ISZERO PUSH2 0x596 JUMPI PUSH1 0x0 DUP1 REVERT JUMPDEST POP PUSH2 0x59F PUSH2 0x1AA4 JUMP JUMPDEST PUSH1 0x40 MLOAD PUSH2 0x5AC SWAP2 SWAP1 PUSH2 0x3B7D JUMP JUMPDEST PUSH1 0x40 MLOAD DUP1 SWAP2 SUB SWAP1 RETURN JUMPDEST CALLVALUE DUP1 ISZERO PUSH2 0x5C1 JUMPI PUSH1 0x0 DUP1 REVERT JUMPDEST POP PUSH2 0x5DC PUSH1 0x4 DUP1 CALLDATASIZE SUB DUP2 ADD SWAP1 PUSH2 0x5D7 SWAP2 SWAP1 PUSH2 0x3B41 JUMP JUMPDEST PUSH2 0x1AAB JUMP JUMPDEST PUSH1 0x40 MLOAD PUSH2 0x5EB SWAP4 SWAP3 SWAP2 SWAP1 PUSH2 0x3EC9 JUMP JUMPDEST PUSH1 0x40 MLOAD DUP1 SWAP2 SUB SWAP1 RETURN JUMPDEST CALLVALUE DUP1 ISZERO PUSH2 0x600 JUMPI PUSH1 0x0 DUP1 REVERT JUMPDEST POP PUSH2 0x61B PUSH1 0x4 DUP1 CALLDATASIZE SUB DUP2 ADD SWAP1 PUSH2 0x616 SWAP2 SWAP1 PUSH2 0x3F25 JUMP JUMPDEST PUSH2 0x1AE3 JUMP JUMPDEST STOP JUMPDEST CALLVALUE DUP1 ISZERO PUSH2 0x629 JUMPI PUSH1 0x0 DUP1 REVERT JUMPDEST POP PUSH2 0x632 PUSH2 0x2003 JUMP JUMPDEST PUSH1 0x40 MLOAD PUSH2 0x63F SWAP2 SWAP1 PUSH2 0x3B7D JUMP JUMPDEST PUSH1 0x40 MLOAD DUP1 SWAP2 SUB SWAP1 RETURN JUMPDEST CALLVALUE DUP1 ISZERO PUSH2 0x654 JUMPI PUSH1 0x0 DUP1 REVERT JUMPDEST POP PUSH2 0x66F PUSH1 0x4 DUP1 CALLDATASIZE SUB DUP2 ADD SWAP1 PUSH2 0x66A SWAP2 SWAP1 PUSH2 0x3E5C JUMP JUMPDEST PUSH2 0x2009 JUMP JUMPDEST PUSH1 0x40 MLOAD PUSH2 0x67C SWAP2 SWAP1 PUSH2 0x3F65 JUMP JUMPDEST PUSH1 0x40 MLOAD DUP1 SWAP2 SUB SWAP1 RETURN JUMPDEST CALLVALUE DUP1 ISZERO PUSH2 0x691 JUMPI PUSH1 0x0 DUP1 REVERT JUMPDEST POP PUSH2 0x69A PUSH2 0x2029 JUMP JUMPDEST PUSH1 0x40 MLOAD PUSH2 0x6A7 SWAP2 SWAP1 PUSH2 0x3B7D JUMP JUMPDEST PUSH1 0x40 MLOAD DUP1 SWAP2 SUB SWAP1 RETURN JUMPDEST CALLVALUE DUP1 ISZERO PUSH2 0x6BC JUMPI PUSH1 0x0 DUP1 REVERT JUMPDEST POP PUSH2 0x6D7 PUSH1 0x4 DUP1 CALLDATASIZE SUB DUP2 ADD SWAP1 PUSH2 0x6D2 SWAP2 SWAP1 PUSH2 0x3F80 JUMP JUMPDEST PUSH2 0x2030 JUMP JUMPDEST PUSH1 0x40 MLOAD PUSH2 0x6E4 SWAP2 SWAP1 PUSH2 0x3B7D JUMP JUMPDEST PUSH1 0x40 MLOAD DUP1 SWAP2 SUB SWAP1 RETURN JUMPDEST CALLVALUE DUP1 ISZERO PUSH2 0x6F9 JUMPI PUSH1 0x0 DUP1 REVERT JUMPDEST POP PUSH2 0x714 PUSH1 0x4 DUP1 CALLDATASIZE SUB DUP2 ADD SWAP1 PUSH2 0x70F SWAP2 SWAP1 PUSH2 0x3FD3 JUMP JUMPDEST PUSH2 0x231C JUMP JUMPDEST STOP JUMPDEST CALLVALUE DUP1 ISZERO PUSH2 0x722 JUMPI PUSH1 0x0 DUP1 REVERT JUMPDEST POP PUSH2 0x73D PUSH1 0x4 DUP1 CALLDATASIZE SUB DUP2 ADD SWAP1 PUSH2 0x738 SWAP2 SWAP1 PUSH2 0x3E5C JUMP JUMPDEST PUSH2 0x243B JUMP JUMPDEST PUSH1 0x40 MLOAD PUSH2 0x74A SWAP2 SWAP1 PUSH2 0x3B7D JUMP JUMPDEST PUSH1 0x40 MLOAD DUP1 SWAP2 SUB SWAP1 RETURN JUMPDEST CALLVALUE DUP1 ISZERO PUSH2 0x75F JUMPI PUSH1 0x0 DUP1 REVERT JUMPDEST POP PUSH2 0x77A PUSH1 0x4 DUP1 CALLDATASIZE SUB DUP2 ADD SWAP1 PUSH2 0x775 SWAP2 SWAP1 PUSH2 0x403F JUMP JUMPDEST PUSH2 0x2453 JUMP JUMPDEST STOP JUMPDEST CALLVALUE DUP1 ISZERO PUSH2 0x788 JUMPI PUSH1 0x0 DUP1 REVERT JUMPDEST POP PUSH2 0x7A3 PUSH1 0x4 DUP1 CALLDATASIZE SUB DUP2 ADD SWAP1 PUSH2 0x79E SWAP2 SWAP1 PUSH2 0x3B41 JUMP JUMPDEST PUSH2 0x276C JUMP JUMPDEST STOP JUMPDEST CALLVALUE DUP1 ISZERO PUSH2 0x7B1 JUMPI PUSH1 0x0 DUP1 REVERT JUMPDEST POP PUSH2 0x7CC PUSH1 0x4 DUP1 CALLDATASIZE SUB DUP2 ADD SWAP1 PUSH2 0x7C7 SWAP2 SWAP1 PUSH2 0x3B41 JUMP JUMPDEST PUSH2 0x2CE2 JUMP JUMPDEST PUSH1 0x40 MLOAD PUSH2 0x7E1 SWAP10 SWAP9 SWAP8 SWAP7 SWAP6 SWAP5 SWAP4 SWAP3 SWAP2 SWAP1 PUSH2 0x407F JUMP JUMPDEST PUSH1 0x40 MLOAD DUP1 SWAP2 SUB SWAP1 RETURN JUMPDEST CALLVALUE DUP1 ISZERO PUSH2 0x7F6 JUMPI PUSH1 0x0 DUP1 REVERT JUMPDEST POP PUSH2 0x811 PUSH1 0x4 DUP1 CALLDATASIZE SUB DUP2 ADD SWAP1 PUSH2 0x80C SWAP2 SWAP1 PUSH2 0x3E5C JUMP JUMPDEST PUSH2 0x2E33 JUMP JUMPDEST PUSH1 0x40 MLOAD PUSH2 0x81E SWAP2 SWAP1 PUSH2 0x3F65 JUMP JUMPDEST PUSH1 0x40 MLOAD DUP1 SWAP2 SUB SWAP1 RETURN JUMPDEST CALLVALUE DUP1 ISZERO PUSH2 0x833 JUMPI PUSH1 0x0 DUP1 REVERT JUMPDEST POP PUSH2 0x84E PUSH1 0x4 DUP1 CALLDATASIZE SUB DUP2 ADD SWAP1 PUSH2 0x849 SWAP2 SWAP1 PUSH2 0x3FD3 JUMP JUMPDEST PUSH2 0x2E53 JUMP JUMPDEST PUSH1 0x40 MLOAD PUSH2 0x85B SWAP2 SWAP1 PUSH2 0x3B7D JUMP JUMPDEST PUSH1 0x40 MLOAD DUP1 SWAP2 SUB SWAP1 RETURN JUMPDEST PUSH1 0x0 PUSH1 0xC PUSH1 0x0 DUP4 DUP2 MSTORE PUSH1 0x20 ADD SWAP1 DUP2 MSTORE PUSH1 0x20 ADD PUSH1 0x0 KECCAK256 SWAP1 POP PUSH1 0x0 PUSH20 0xFFFFFFFFFFFFFFFFFFFFFFFFFFFFFFFFFFFFFFFF AND DUP2 PUSH1 0x0 ADD PUSH1 0x0 SWAP1 SLOAD SWAP1 PUSH2 0x100 EXP SWAP1 DIV PUSH20 0xFFFFFFFFFFFFFFFFFFFFFFFFFFFFFFFFFFFFFFFF AND PUSH20 0xFFFFFFFFFFFFFFFFFFFFFFFFFFFFFFFFFFFFFFFF AND SUB PUSH2 0x90E JUMPI PUSH1 0x40 MLOAD PUSH32 0x8C379A000000000000000000000000000000000000000000000000000000000 DUP2 MSTORE PUSH1 0x4 ADD PUSH2 0x905 SWAP1 PUSH2 0x4169 JUMP JUMPDEST PUSH1 0x40 MLOAD DUP1 SWAP2 SUB SWAP1 REVERT JUMPDEST DUP1 PUSH1 0x4 ADD SLOAD TIMESTAMP GT PUSH2 0x954 JUMPI PUSH1 0x40 MLOAD PUSH32 0x8C379A000000000000000000000000000000000000000000000000000000000 DUP2 MSTORE PUSH1 0x4 ADD PUSH2 0x94B SWAP1 PUSH2 0x41D5 JUMP JUMPDEST PUSH1 0x40 MLOAD DUP1 SWAP2 SUB SWAP1 REVERT JUMPDEST DUP1 PUSH1 0x7 ADD PUSH1 0x0 SWAP1 SLOAD SWAP1 PUSH2 0x100 EXP SWAP1 DIV PUSH1 0xFF AND ISZERO PUSH2 0x9A6 JUMPI PUSH1 0x40 MLOAD PUSH32 0x8C379A000000000000000000000000000000000000000000000000000000000 DUP2 MSTORE PUSH1 0x4 ADD PUSH2 0x99D SWAP1 PUSH2 0x4241 JUMP JUMPDEST PUSH1 0x40 MLOAD DUP1 SWAP2 SUB SWAP1 REVERT JUMPDEST PUSH1 0x0 DUP2 PUSH1 0x6 ADD SLOAD DUP3 PUSH1 0x5 ADD SLOAD PUSH2 0x9BC SWAP2 SWAP1 PUSH2 0x4290 JUMP JUMPDEST SWAP1 POP PUSH1 0x0 DUP2 GT PUSH2 0xA01 JUMPI PUSH1 0x40 MLOAD PUSH32 0x8C379A000000000000000000000000000000000000000000000000000000000 DUP2 MSTORE PUSH1 0x4 ADD PUSH2 0x9F8 SWAP1 PUSH2 0x4310 JUMP JUMPDEST PUSH1 0x40 MLOAD DUP1 SWAP2 SUB SWAP1 REVERT JUMPDEST PUSH1 0x0 PUSH1 0x64 PUSH1 0x43 DUP5 PUSH1 0x8 ADD SLOAD PUSH2 0xA16 SWAP2 SWAP1 PUSH2 0x4330 JUMP JUMPDEST PUSH2 0xA20 SWAP2 SWAP1 PUSH2 0x43A1 JUMP JUMPDEST SWAP1 POP DUP1 DUP4 PUSH1 0x5 ADD SLOAD LT ISZERO PUSH2 0xA69 JUMPI PUSH1 0x40 MLOAD PUSH32 0x8C379A000000000000000000000000000000000000000000000000000000000 DUP2 MSTORE PUSH1 0x4 ADD PUSH2 0xA60 SWAP1 PUSH2 0x441E JUMP JUMPDEST PUSH1 0x40 MLOAD DUP1 SWAP2 SUB SWAP1 REVERT JUMPDEST PUSH1 0x1 DUP4 PUSH1 0x7 ADD PUSH1 0x0 PUSH2 0x100 EXP DUP2 SLOAD DUP2 PUSH1 0xFF MUL NOT AND SWAP1 DUP4 ISZERO ISZERO MUL OR SWAP1 SSTORE POP DUP3 PUSH1 0x1 ADD PUSH1 0x0 SWAP1 SLOAD SWAP1 PUSH2 0x100 EXP SWAP1 DIV PUSH20 0xFFFFFFFFFFFFFFFFFFFFFFFFFFFFFFFFFFFFFFFF AND PUSH20 0xFFFFFFFFFFFFFFFFFFFFFFFFFFFFFFFFFFFFFFFF AND PUSH2 0x8FC DUP5 PUSH1 0x2 ADD SLOAD SWAP1 DUP2 ISZERO MUL SWAP1 PUSH1 0x40 MLOAD PUSH1 0x0 PUSH1 0x40 MLOAD DUP1 DUP4 SUB DUP2 DUP6 DUP9 DUP9 CALL SWAP4 POP POP POP POP ISZERO DUP1 ISZERO PUSH2 0xAF4 JUMPI RETURNDATASIZE PUSH1 0x0 DUP1 RETURNDATACOPY RETURNDATASIZE PUSH1 0x0 REVERT JUMPDEST POP PUSH32 0x712AE1383F79AC853F8D882153778E0260EF8F03B504E2866E0593E04D2B291F DUP5 PUSH1 0x40 MLOAD PUSH2 0xB24 SWAP2 SWAP1 PUSH2 0x3B7D JUMP JUMPDEST PUSH1 0x40 MLOAD DUP1 SWAP2 SUB SWAP1 LOG1 POP POP POP POP JUMP JUMPDEST PUSH1 0x2 SLOAD DUP2 JUMP JUMPDEST PUSH3 0x93A80 PUSH1 0x0 SLOAD PUSH2 0xB49 SWAP2 SWAP1 PUSH2 0x4290 JUMP JUMPDEST TIMESTAMP LT ISZERO PUSH2 0xB8B JUMPI PUSH1 0x40 MLOAD PUSH32 0x8C379A000000000000000000000000000000000000000000000000000000000 DUP2 MSTORE PUSH1 0x4 ADD PUSH2 0xB82 SWAP1 PUSH2 0x448A JUMP JUMPDEST PUSH1 0x40 MLOAD DUP1 SWAP2 SUB SWAP1 REVERT JUMPDEST PUSH1 0x0 PUSH1 0x1 SLOAD SWAP1 POP PUSH1 0x1 PUSH1 0x0 DUP2 SLOAD DUP1 SWAP3 SWAP2 SWAP1 PUSH2 0xBA5 SWAP1 PUSH2 0x44AA JUMP JUMPDEST SWAP2 SWAP1 POP SSTORE POP PUSH2 0xBB6 PUSH1 0x0 ADDRESS DUP4 PUSH2 0x30E3 JUMP JUMPDEST TIMESTAMP PUSH1 0x0 DUP2 SWAP1 SSTORE POP PUSH32 0xB9203D657E9C0EC8274C818292AB0F58B04E1970050716891770EB1BAB5D655E DUP2 ADDRESS PUSH1 0x40 MLOAD PUSH2 0xBEE SWAP3 SWAP2 SWAP1 PUSH2 0x44F2 JUMP JUMPDEST PUSH1 0x40 MLOAD DUP1 SWAP2 SUB SWAP1 LOG1 PUSH2 0xBFF DUP2 PUSH2 0x3362 JUMP JUMPDEST POP JUMP JUMPDEST PUSH1 0x3 SLOAD DUP2 JUMP JUMPDEST PUSH1 0x5 PUSH1 0x20 MSTORE DUP1 PUSH1 0x0 MSTORE PUSH1 0x40 PUSH1 0x0 KECCAK256 PUSH1 0x0 SWAP2 POP SLOAD SWAP1 PUSH2 0x100 EXP SWAP1 DIV PUSH20 0xFFFFFFFFFFFFFFFFFFFFFFFFFFFFFFFFFFFFFFFF AND DUP2 JUMP JUMPDEST PUSH1 0x60 PUSH1 0x8 DUP1 SLOAD DUP1 PUSH1 0x20 MUL PUSH1 0x20 ADD PUSH1 0x40 MLOAD SWAP1 DUP2 ADD PUSH1 0x40 MSTORE DUP1 SWAP3 SWAP2 SWAP1 DUP2 DUP2 MSTORE PUSH1 0x20 ADD DUP3 DUP1 SLOAD DUP1 ISZERO PUSH2 0xCBF JUMPI PUSH1 0x20 MUL DUP3 ADD SWAP2 SWAP1 PUSH1 0x0 MSTORE PUSH1 0x20 PUSH1 0x0 KECCAK256 SWAP1 JUMPDEST DUP2 PUSH1 0x0 SWAP1 SLOAD SWAP1 PUSH2 0x100 EXP SWAP1 DIV PUSH20 0xFFFFFFFFFFFFFFFFFFFFFFFFFFFFFFFFFFFFFFFF AND PUSH20 0xFFFFFFFFFFFFFFFFFFFFFFFFFFFFFFFFFFFFFFFF AND DUP2 MSTORE PUSH1 0x20 ADD SWAP1 PUSH1 0x1 ADD SWAP1 DUP1 DUP4 GT PUSH2 0xC75 JUMPI JUMPDEST POP POP POP POP POP SWAP1 POP SWAP1 JUMP JUMPDEST PUSH1 0x8 DUP2 DUP2 SLOAD DUP2 LT PUSH2 0xCD9 JUMPI PUSH1 0x0 DUP1 REVERT JUMPDEST SWAP1 PUSH1 0x0 MSTORE PUSH1 0x20 PUSH1 0x0 KECCAK256 ADD PUSH1 0x0 SWAP2 POP SLOAD SWAP1 PUSH2 0x100 EXP SWAP1 DIV PUSH20 0xFFFFFFFFFFFFFFFFFFFFFFFFFFFFFFFFFFFFFFFF AND DUP2 JUMP JUMPDEST PUSH1 0x4 SLOAD DUP2 JUMP JUMPDEST PUSH1 0x0 PUSH1 0xA PUSH1 0x0 DUP4 DUP2 MSTORE PUSH1 0x20 ADD SWAP1 DUP2 MSTORE PUSH1 0x20 ADD PUSH1 0x0 KECCAK256 SWAP1 POP DUP1 PUSH1 0x2 ADD SLOAD TIMESTAMP GT PUSH2 0xD6B JUMPI PUSH1 0x40 MLOAD PUSH32 0x8C379A000000000000000000000000000000000000000000000000000000000 DUP2 MSTORE PUSH1 0x4 ADD PUSH2 0xD62 SWAP1 PUSH2 0x4567 JUMP JUMPDEST PUSH1 0x40 MLOAD DUP1 SWAP2 SUB SWAP1 REVERT JUMPDEST DUP1 PUSH1 0x4 ADD PUSH1 0x14 SWAP1 SLOAD SWAP1 PUSH2 0x100 EXP SWAP1 DIV PUSH1 0xFF AND ISZERO PUSH2 0xDBD JUMPI PUSH1 0x40 MLOAD PUSH32 0x8C379A000000000000000000000000000000000000000000000000000000000 DUP2 MSTORE PUSH1 0x4 ADD PUSH2 0xDB4 SWAP1 PUSH2 0x45D3 JUMP JUMPDEST PUSH1 0x40 MLOAD DUP1 SWAP2 SUB SWAP1 REVERT JUMPDEST PUSH1 0x1 DUP2 PUSH1 0x4 ADD PUSH1 0x14 PUSH2 0x100 EXP DUP2 SLOAD DUP2 PUSH1 0xFF MUL NOT AND SWAP1 DUP4 ISZERO ISZERO MUL OR SWAP1 SSTORE POP PUSH1 0x0 PUSH20 0xFFFFFFFFFFFFFFFFFFFFFFFFFFFFFFFFFFFFFFFF AND DUP2 PUSH1 0x4 ADD PUSH1 0x0 SWAP1 SLOAD SWAP1 PUSH2 0x100 EXP SWAP1 DIV PUSH20 0xFFFFFFFFFFFFFFFFFFFFFFFFFFFFFFFFFFFFFFFF AND PUSH20 0xFFFFFFFFFFFFFFFFFFFFFFFFFFFFFFFFFFFFFFFF AND EQ PUSH2 0xEC9 JUMPI PUSH2 0xE61 ADDRESS DUP3 PUSH1 0x4 ADD PUSH1 0x0 SWAP1 SLOAD SWAP1 PUSH2 0x100 EXP SWAP1 DIV PUSH20 0xFFFFFFFFFFFFFFFFFFFFFFFFFFFFFFFFFFFFFFFF AND DUP5 PUSH2 0x30E3 JUMP JUMPDEST PUSH32 0xC9F72B276A388619C6D185D146697036241880C36654B1A3FFDAD07C24038D99 DUP3 DUP3 PUSH1 0x4 ADD PUSH1 0x0 SWAP1 SLOAD SWAP1 PUSH2 0x100 EXP SWAP1 DIV PUSH20 0xFFFFFFFFFFFFFFFFFFFFFFFFFFFFFFFFFFFFFFFF AND DUP4 PUSH1 0x3 ADD SLOAD PUSH1 0x40 MLOAD PUSH2 0xEBC SWAP4 SWAP3 SWAP2 SWAP1 PUSH2 0x45F3 JUMP JUMPDEST PUSH1 0x40 MLOAD DUP1 SWAP2 SUB SWAP1 LOG1 PUSH2 0xF06 JUMP JUMPDEST PUSH32 0xC9F72B276A388619C6D185D146697036241880C36654B1A3FFDAD07C24038D99 DUP3 PUSH1 0x0 DUP1 PUSH1 0x40 MLOAD PUSH2 0xEFD SWAP4 SWAP3 SWAP2 SWAP1 PUSH2 0x466F JUMP JUMPDEST PUSH1 0x40 MLOAD DUP1 SWAP2 SUB SWAP1 LOG1 JUMPDEST POP POP JUMP JUMPDEST PUSH1 0x0 SELFBALANCE SWAP1 POP SWAP1 JUMP JUMPDEST PUSH1 0x0 DUP1 PUSH1 0x0 PUSH1 0xB PUSH1 0x0 DUP7 DUP2 MSTORE PUSH1 0x20 ADD SWAP1 DUP2 MSTORE PUSH1 0x20 ADD PUSH1 0x0 KECCAK256 SWAP1 POP PUSH1 0x0 DUP2 PUSH1 0x9 ADD PUSH1 0x0 DUP7 PUSH20 0xFFFFFFFFFFFFFFFFFFFFFFFFFFFFFFFFFFFFFFFF AND PUSH20 0xFFFFFFFFFFFFFFFFFFFFFFFFFFFFFFFFFFFFFFFF AND DUP2 MSTORE PUSH1 0x20 ADD SWAP1 DUP2 MSTORE PUSH1 0x20 ADD PUSH1 0x0 KECCAK256 SLOAD GT DUP2 PUSH1 0xA ADD PUSH1 0x0 DUP7 PUSH20 0xFFFFFFFFFFFFFFFFFFFFFFFFFFFFFFFFFFFFFFFF AND PUSH20 0xFFFFFFFFFFFFFFFFFFFFFFFFFFFFFFFFFFFFFFFF AND DUP2 MSTORE PUSH1 0x20 ADD SWAP1 DUP2 MSTORE PUSH1 0x20 ADD PUSH1 0x0 KECCAK256 PUSH1 0x0 SWAP1 SLOAD SWAP1 PUSH2 0x100 EXP SWAP1 DIV PUSH1 0xFF AND SWAP3 POP SWAP3 POP POP SWAP3 POP SWAP3 SWAP1 POP JUMP JUMPDEST PUSH1 0x0 PUSH1 0xA PUSH1 0x0 DUP4 DUP2 MSTORE PUSH1 0x20 ADD SWAP1 DUP2 MSTORE PUSH1 0x20 ADD PUSH1 0x0 KECCAK256 SWAP1 POP DUP1 PUSH1 0x1 ADD SLOAD TIMESTAMP LT ISZERO PUSH2 0x102A JUMPI PUSH1 0x40 MLOAD PUSH32 0x8C379A000000000000000000000000000000000000000000000000000000000 DUP2 MSTORE PUSH1 0x4 ADD PUSH2 0x1021 SWAP1 PUSH2 0x46F2 JUMP JUMPDEST PUSH1 0x40 MLOAD DUP1 SWAP2 SUB SWAP1 REVERT JUMPDEST DUP1 PUSH1 0x2 ADD SLOAD TIMESTAMP GT ISZERO PUSH2 0x1071 JUMPI PUSH1 0x40 MLOAD PUSH32 0x8C379A000000000000000000000000000000000000000000000000000000000 DUP2 MSTORE PUSH1 0x4 ADD PUSH2 0x1068 SWAP1 PUSH2 0x475E JUMP JUMPDEST PUSH1 0x40 MLOAD DUP1 SWAP2 SUB SWAP1 REVERT JUMPDEST DUP1 PUSH1 0x4 ADD PUSH1 0x14 SWAP1 SLOAD SWAP1 PUSH2 0x100 EXP SWAP1 DIV PUSH1 0xFF AND ISZERO PUSH2 0x10C3 JUMPI PUSH1 0x40 MLOAD PUSH32 0x8C379A000000000000000000000000000000000000000000000000000000000 DUP2 MSTORE PUSH1 0x4 ADD PUSH2 0x10BA SWAP1 PUSH2 0x45D3 JUMP JUMPDEST PUSH1 0x40 MLOAD DUP1 SWAP2 SUB SWAP1 REVERT JUMPDEST DUP1 PUSH1 0x3 ADD SLOAD CALLVALUE GT PUSH2 0x1109 JUMPI PUSH1 0x40 MLOAD PUSH32 0x8C379A000000000000000000000000000000000000000000000000000000000 DUP2 MSTORE PUSH1 0x4 ADD PUSH2 0x1100 SWAP1 PUSH2 0x47CA JUMP JUMPDEST PUSH1 0x40 MLOAD DUP1 SWAP2 SUB SWAP1 REVERT JUMPDEST PUSH1 0x0 PUSH20 0xFFFFFFFFFFFFFFFFFFFFFFFFFFFFFFFFFFFFFFFF AND DUP2 PUSH1 0x4 ADD PUSH1 0x0 SWAP1 SLOAD SWAP1 PUSH2 0x100 EXP SWAP1 DIV PUSH20 0xFFFFFFFFFFFFFFFFFFFFFFFFFFFFFFFFFFFFFFFF AND PUSH20 0xFFFFFFFFFFFFFFFFFFFFFFFFFFFFFFFFFFFFFFFF AND EQ PUSH2 0x11D1 JUMPI DUP1 PUSH1 0x4 ADD PUSH1 0x0 SWAP1 SLOAD SWAP1 PUSH2 0x100 EXP SWAP1 DIV PUSH20 0xFFFFFFFFFFFFFFFFFFFFFFFFFFFFFFFFFFFFFFFF AND PUSH20 0xFFFFFFFFFFFFFFFFFFFFFFFFFFFFFFFFFFFFFFFF AND PUSH2 0x8FC DUP3 PUSH1 0x3 ADD SLOAD SWAP1 DUP2 ISZERO MUL SWAP1 PUSH1 0x40 MLOAD PUSH1 0x0 PUSH1 0x40 MLOAD DUP1 DUP4 SUB DUP2 DUP6 DUP9 DUP9 CALL SWAP4 POP POP POP POP ISZERO DUP1 ISZERO PUSH2 0x11CF JUMPI RETURNDATASIZE PUSH1 0x0 DUP1 RETURNDATACOPY RETURNDATASIZE PUSH1 0x0 REVERT JUMPDEST POP JUMPDEST CALLVALUE DUP2 PUSH1 0x3 ADD DUP2 SWAP1 SSTORE POP CALLER DUP2 PUSH1 0x4 ADD PUSH1 0x0 PUSH2 0x100 EXP DUP2 SLOAD DUP2 PUSH20 0xFFFFFFFFFFFFFFFFFFFFFFFFFFFFFFFFFFFFFFFF MUL NOT AND SWAP1 DUP4 PUSH20 0xFFFFFFFFFFFFFFFFFFFFFFFFFFFFFFFFFFFFFFFF AND MUL OR SWAP1 SSTORE POP PUSH32 0xE54EFF26401BF69B81B26F60BD85EF47F5D85275C1D268D84F68D6897431C47 DUP3 CALLER CALLVALUE PUSH1 0x40 MLOAD PUSH2 0x1250 SWAP4 SWAP3 SWAP2 SWAP1 PUSH2 0x45F3 JUMP JUMPDEST PUSH1 0x40 MLOAD DUP1 SWAP2 SUB SWAP1 LOG1 POP POP JUMP JUMPDEST PUSH1 0xA PUSH1 0x20 MSTORE DUP1 PUSH1 0x0 MSTORE PUSH1 0x40 PUSH1 0x0 KECCAK256 PUSH1 0x0 SWAP2 POP SWAP1 POP DUP1 PUSH1 0x0 ADD SLOAD SWAP1 DUP1 PUSH1 0x1 ADD SLOAD SWAP1 DUP1 PUSH1 0x2 ADD SLOAD SWAP1 DUP1 PUSH1 0x3 ADD SLOAD SWAP1 DUP1 PUSH1 0x4 ADD PUSH1 0x0 SWAP1 SLOAD SWAP1 PUSH2 0x100 EXP SWAP1 DIV PUSH20 0xFFFFFFFFFFFFFFFFFFFFFFFFFFFFFFFFFFFFFFFF AND SWAP1 DUP1 PUSH1 0x4 ADD PUSH1 0x14 SWAP1 SLOAD SWAP1 PUSH2 0x100 EXP SWAP1 DIV PUSH1 0xFF AND SWAP1 POP DUP7 JUMP JUMPDEST PUSH1 0x0 PUSH1 0x5 PUSH1 0x0 DUP4 DUP2 MSTORE PUSH1 0x20 ADD SWAP1 DUP2 MSTORE PUSH1 0x20 ADD PUSH1 0x0 KECCAK256 PUSH1 0x0 SWAP1 SLOAD SWAP1 PUSH2 0x100 EXP SWAP1 DIV PUSH20 0xFFFFFFFFFFFFFFFFFFFFFFFFFFFFFFFFFFFFFFFF AND SWAP1 POP SWAP2 SWAP1 POP JUMP JUMPDEST PUSH7 0x38D7EA4C68000 DUP2 JUMP JUMPDEST PUSH1 0x60 PUSH1 0xB PUSH1 0x0 DUP4 DUP2 MSTORE PUSH1 0x20 ADD SWAP1 DUP2 MSTORE PUSH1 0x20 ADD PUSH1 0x0 KECCAK256 PUSH1 0x5 ADD DUP1 SLOAD DUP1 PUSH1 0x20 MUL PUSH1 0x20 ADD PUSH1 0x40 MLOAD SWAP1 DUP2 ADD PUSH1 0x40 MSTORE DUP1 SWAP3 SWAP2 SWAP1 DUP2 DUP2 MSTORE PUSH1 0x20 ADD DUP3 DUP1 SLOAD DUP1 ISZERO PUSH2 0x13A5 JUMPI PUSH1 0x20 MUL DUP3 ADD SWAP2 SWAP1 PUSH1 0x0 MSTORE PUSH1 0x20 PUSH1 0x0 KECCAK256 SWAP1 JUMPDEST DUP2 PUSH1 0x0 SWAP1 SLOAD SWAP1 PUSH2 0x100 EXP SWAP1 DIV PUSH20 0xFFFFFFFFFFFFFFFFFFFFFFFFFFFFFFFFFFFFFFFF AND PUSH20 0xFFFFFFFFFFFFFFFFFFFFFFFFFFFFFFFFFFFFFFFF AND DUP2 MSTORE PUSH1 0x20 ADD SWAP1 PUSH1 0x1 ADD SWAP1 DUP1 DUP4 GT PUSH2 0x135B JUMPI JUMPDEST POP POP POP POP POP SWAP1 POP SWAP2 SWAP1 POP JUMP JUMPDEST PUSH1 0x0 PUSH1 0x6 PUSH1 0x0 DUP4 PUSH20 0xFFFFFFFFFFFFFFFFFFFFFFFFFFFFFFFFFFFFFFFF AND PUSH20 0xFFFFFFFFFFFFFFFFFFFFFFFFFFFFFFFFFFFFFFFF AND DUP2 MSTORE PUSH1 0x20 ADD SWAP1 DUP2 MSTORE PUSH1 0x20 ADD PUSH1 0x0 KECCAK256 SLOAD SWAP1 POP SWAP2 SWAP1 POP JUMP JUMPDEST PUSH1 0x0 PUSH1 0xB PUSH1 0x0 DUP5 DUP2 MSTORE PUSH1 0x20 ADD SWAP1 DUP2 MSTORE PUSH1 0x20 ADD PUSH1 0x0 KECCAK256 SWAP1 POP PUSH1 0x0 PUSH20 0xFFFFFFFFFFFFFFFFFFFFFFFFFFFFFFFFFFFFFFFF AND DUP2 PUSH1 0x0 ADD PUSH1 0x0 SWAP1 SLOAD SWAP1 PUSH2 0x100 EXP SWAP1 DIV PUSH20 0xFFFFFFFFFFFFFFFFFFFFFFFFFFFFFFFFFFFFFFFF AND PUSH20 0xFFFFFFFFFFFFFFFFFFFFFFFFFFFFFFFFFFFFFFFF AND SUB PUSH2 0x14A4 JUMPI PUSH1 0x40 MLOAD PUSH32 0x8C379A000000000000000000000000000000000000000000000000000000000 DUP2 MSTORE PUSH1 0x4 ADD PUSH2 0x149B SWAP1 PUSH2 0x4836 JUMP JUMPDEST PUSH1 0x40 MLOAD DUP1 SWAP2 SUB SWAP1 REVERT JUMPDEST DUP1 PUSH1 0x0 ADD PUSH1 0x14 SWAP1 SLOAD SWAP1 PUSH2 0x100 EXP SWAP1 DIV PUSH1 0xFF AND ISZERO PUSH2 0x14F6 JUMPI PUSH1 0x40 MLOAD PUSH32 0x8C379A000000000000000000000000000000000000000000000000000000000 DUP2 MSTORE PUSH1 0x4 ADD PUSH2 0x14ED SWAP1 PUSH2 0x48A2 JUMP JUMPDEST PUSH1 0x40 MLOAD DUP1 SWAP2 SUB SWAP1 REVERT JUMPDEST DUP1 PUSH1 0x0 ADD PUSH1 0x15 SWAP1 SLOAD SWAP1 PUSH2 0x100 EXP SWAP1 DIV PUSH1 0xFF AND ISZERO PUSH2 0x1548 JUMPI PUSH1 0x40 MLOAD PUSH32 0x8C379A000000000000000000000000000000000000000000000000000000000 DUP2 MSTORE PUSH1 0x4 ADD PUSH2 0x153F SWAP1 PUSH2 0x490E JUMP JUMPDEST PUSH1 0x40 MLOAD DUP1 SWAP2 SUB SWAP1 REVERT JUMPDEST PUSH1 0x0 DUP3 GT PUSH2 0x158B JUMPI PUSH1 0x40 MLOAD PUSH32 0x8C379A000000000000000000000000000000000000000000000000000000000 DUP2 MSTORE PUSH1 0x4 ADD PUSH2 0x1582 SWAP1 PUSH2 0x497A JUMP JUMPDEST PUSH1 0x40 MLOAD DUP1 SWAP2 SUB SWAP1 REVERT JUMPDEST PUSH1 0x0 DUP2 PUSH1 0x0 ADD PUSH1 0x0 SWAP1 SLOAD SWAP1 PUSH2 0x100 EXP SWAP1 DIV PUSH20 0xFFFFFFFFFFFFFFFFFFFFFFFFFFFFFFFFFFFFFFFF AND PUSH20 0xFFFFFFFFFFFFFFFFFFFFFFFFFFFFFFFFFFFFFFFF AND PUSH4 0x43BC1612 PUSH1 0x40 MLOAD DUP2 PUSH4 0xFFFFFFFF AND PUSH1 0xE0 SHL DUP2 MSTORE PUSH1 0x4 ADD PUSH1 0x20 PUSH1 0x40 MLOAD DUP1 DUP4 SUB DUP2 DUP7 GAS STATICCALL ISZERO DUP1 ISZERO PUSH2 0x15FC JUMPI RETURNDATASIZE PUSH1 0x0 DUP1 RETURNDATACOPY RETURNDATASIZE PUSH1 0x0 REVERT JUMPDEST POP POP POP POP PUSH1 0x40 MLOAD RETURNDATASIZE PUSH1 0x1F NOT PUSH1 0x1F DUP3 ADD AND DUP3 ADD DUP1 PUSH1 0x40 MSTORE POP DUP2 ADD SWAP1 PUSH2 0x1620 SWAP2 SWAP1 PUSH2 0x49AF JUMP JUMPDEST SWAP1 POP PUSH1 0x0 DUP3 PUSH1 0x0 ADD PUSH1 0x0 SWAP1 SLOAD SWAP1 PUSH2 0x100 EXP SWAP1 DIV PUSH20 0xFFFFFFFFFFFFFFFFFFFFFFFFFFFFFFFFFFFFFFFF AND PUSH20 0xFFFFFFFFFFFFFFFFFFFFFFFFFFFFFFFFFFFFFFFF AND PUSH4 0x7150D8AE PUSH1 0x40 MLOAD DUP2 PUSH4 0xFFFFFFFF AND PUSH1 0xE0 SHL DUP2 MSTORE PUSH1 0x4 ADD PUSH1 0x20 PUSH1 0x40 MLOAD DUP1 DUP4 SUB DUP2 DUP7 GAS STATICCALL ISZERO DUP1 ISZERO PUSH2 0x1693 JUMPI RETURNDATASIZE PUSH1 0x0 DUP1 RETURNDATACOPY RETURNDATASIZE PUSH1 0x0 REVERT JUMPDEST POP POP POP POP PUSH1 0x40 MLOAD RETURNDATASIZE PUSH1 0x1F NOT PUSH1 0x1F DUP3 ADD AND DUP3 ADD DUP1 PUSH1 0x40 MSTORE POP DUP2 ADD SWAP1 PUSH2 0x16B7 SWAP2 SWAP1 PUSH2 0x49AF JUMP JUMPDEST SWAP1 POP PUSH1 0x0 DUP1 PUSH1 0x0 DUP1 PUSH2 0x16C9 DUP7 DUP7 PUSH2 0x34F5 JUMP JUMPDEST SWAP4 POP SWAP4 POP SWAP4 POP SWAP4 POP DUP7 PUSH1 0x1 ADD SLOAD DUP3 LT ISZERO PUSH2 0x1718 JUMPI PUSH1 0x40 MLOAD PUSH32 0x8C379A000000000000000000000000000000000000000000000000000000000 DUP2 MSTORE PUSH1 0x4 ADD PUSH2 0x170F SWAP1 PUSH2 0x4A28 JUMP JUMPDEST PUSH1 0x40 MLOAD DUP1 SWAP2 SUB SWAP1 REVERT JUMPDEST PUSH1 0x0 DUP2 GT PUSH2 0x175B JUMPI PUSH1 0x40 MLOAD PUSH32 0x8C379A000000000000000000000000000000000000000000000000000000000 DUP2 MSTORE PUSH1 0x4 ADD PUSH2 0x1752 SWAP1 PUSH2 0x4A94 JUMP JUMPDEST PUSH1 0x40 MLOAD DUP1 SWAP2 SUB SWAP1 REVERT JUMPDEST PUSH1 0x0 DUP3 PUSH8 0xFFFFFFFFFFFFFFFF DUP2 GT ISZERO PUSH2 0x1777 JUMPI PUSH2 0x1776 PUSH2 0x4AB4 JUMP JUMPDEST JUMPDEST PUSH1 0x40 MLOAD SWAP1 DUP1 DUP3 MSTORE DUP1 PUSH1 0x20 MUL PUSH1 0x20 ADD DUP3 ADD PUSH1 0x40 MSTORE DUP1 ISZERO PUSH2 0x17A5 JUMPI DUP2 PUSH1 0x20 ADD PUSH1 0x20 DUP3 MUL DUP1 CALLDATASIZE DUP4 CALLDATACOPY DUP1 DUP3 ADD SWAP2 POP POP SWAP1 POP JUMPDEST POP SWAP1 POP PUSH1 0x0 JUMPDEST DUP9 PUSH1 0x1 ADD SLOAD DUP2 LT ISZERO PUSH2 0x1A57 JUMPI PUSH1 0x0 DUP4 PREVRANDAO TIMESTAMP DUP15 DUP6 DUP9 PUSH1 0x40 MLOAD PUSH1 0x20 ADD PUSH2 0x17D3 SWAP6 SWAP5 SWAP4 SWAP3 SWAP2 SWAP1 PUSH2 0x4B04 JUMP JUMPDEST PUSH1 0x40 MLOAD PUSH1 0x20 DUP2 DUP4 SUB SUB DUP2 MSTORE SWAP1 PUSH1 0x40 MSTORE DUP1 MLOAD SWAP1 PUSH1 0x20 ADD KECCAK256 PUSH1 0x0 SHR PUSH2 0x17F6 SWAP2 SWAP1 PUSH2 0x4B63 JUMP JUMPDEST SWAP1 POP PUSH1 0x0 DUP1 PUSH32 0xFFFFFFFFFFFFFFFFFFFFFFFFFFFFFFFFFFFFFFFFFFFFFFFFFFFFFFFFFFFFFFFF SWAP1 POP PUSH1 0x0 JUMPDEST DUP8 DUP2 LT ISZERO PUSH2 0x188E JUMPI DUP6 DUP2 DUP2 MLOAD DUP2 LT PUSH2 0x183C JUMPI PUSH2 0x183B PUSH2 0x4B94 JUMP JUMPDEST JUMPDEST PUSH1 0x20 MUL PUSH1 0x20 ADD ADD MLOAD PUSH2 0x1881 JUMPI DUP9 DUP2 DUP2 MLOAD DUP2 LT PUSH2 0x185B JUMPI PUSH2 0x185A PUSH2 0x4B94 JUMP JUMPDEST JUMPDEST PUSH1 0x20 MUL PUSH1 0x20 ADD ADD MLOAD DUP4 PUSH2 0x186E SWAP2 SWAP1 PUSH2 0x4290 JUMP JUMPDEST SWAP3 POP DUP3 DUP5 LT ISZERO PUSH2 0x1880 JUMPI DUP1 SWAP2 POP PUSH2 0x188E JUMP JUMPDEST JUMPDEST DUP1 DUP1 PUSH1 0x1 ADD SWAP2 POP POP PUSH2 0x1821 JUMP JUMPDEST POP PUSH32 0xFFFFFFFFFFFFFFFFFFFFFFFFFFFFFFFFFFFFFFFFFFFFFFFFFFFFFFFFFFFFFFFF DUP2 SUB PUSH2 0x18F1 JUMPI PUSH1 0x40 MLOAD PUSH32 0x8C379A000000000000000000000000000000000000000000000000000000000 DUP2 MSTORE PUSH1 0x4 ADD PUSH2 0x18E8 SWAP1 PUSH2 0x4C0F JUMP JUMPDEST PUSH1 0x40 MLOAD DUP1 SWAP2 SUB SWAP1 REVERT JUMPDEST PUSH1 0x1 DUP6 DUP3 DUP2 MLOAD DUP2 LT PUSH2 0x1906 JUMPI PUSH2 0x1905 PUSH2 0x4B94 JUMP JUMPDEST JUMPDEST PUSH1 0x20 MUL PUSH1 0x20 ADD ADD SWAP1 ISZERO ISZERO SWAP1 DUP2 ISZERO ISZERO DUP2 MSTORE POP POP DUP8 DUP2 DUP2 MLOAD DUP2 LT PUSH2 0x192B JUMPI PUSH2 0x192A PUSH2 0x4B94 JUMP JUMPDEST JUMPDEST PUSH1 0x20 MUL PUSH1 0x20 ADD ADD MLOAD DUP7 PUSH2 0x193E SWAP2 SWAP1 PUSH2 0x4C2F JUMP JUMPDEST SWAP6 POP DUP12 PUSH1 0x5 ADD DUP10 DUP3 DUP2 MLOAD DUP2 LT PUSH2 0x1957 JUMPI PUSH2 0x1956 PUSH2 0x4B94 JUMP JUMPDEST JUMPDEST PUSH1 0x20 MUL PUSH1 0x20 ADD ADD MLOAD SWAP1 DUP1 PUSH1 0x1 DUP2 SLOAD ADD DUP1 DUP3 SSTORE DUP1 SWAP2 POP POP PUSH1 0x1 SWAP1 SUB SWAP1 PUSH1 0x0 MSTORE PUSH1 0x20 PUSH1 0x0 KECCAK256 ADD PUSH1 0x0 SWAP1 SWAP2 SWAP1 SWAP2 SWAP1 SWAP2 PUSH2 0x100 EXP DUP2 SLOAD DUP2 PUSH20 0xFFFFFFFFFFFFFFFFFFFFFFFFFFFFFFFFFFFFFFFF MUL NOT AND SWAP1 DUP4 PUSH20 0xFFFFFFFFFFFFFFFFFFFFFFFFFFFFFFFFFFFFFFFF AND MUL OR SWAP1 SSTORE POP DUP8 DUP2 DUP2 MLOAD DUP2 LT PUSH2 0x19D2 JUMPI PUSH2 0x19D1 PUSH2 0x4B94 JUMP JUMPDEST JUMPDEST PUSH1 0x20 MUL PUSH1 0x20 ADD ADD MLOAD DUP13 PUSH1 0x4 ADD PUSH1 0x0 DUP3 DUP3 SLOAD PUSH2 0x19ED SWAP2 SWAP1 PUSH2 0x4290 JUMP JUMPDEST SWAP3 POP POP DUP2 SWAP1 SSTORE POP PUSH32 0x6A547857424DDF8F94427BF9C458627075464DCF7326C192E44ABF6AEA499FB4 DUP15 DUP11 DUP4 DUP2 MLOAD DUP2 LT PUSH2 0x1A29 JUMPI PUSH2 0x1A28 PUSH2 0x4B94 JUMP JUMPDEST JUMPDEST PUSH1 0x20 MUL PUSH1 0x20 ADD ADD MLOAD PUSH1 0x40 MLOAD PUSH2 0x1A3F SWAP3 SWAP2 SWAP1 PUSH2 0x44F2 JUMP JUMPDEST PUSH1 0x40 MLOAD DUP1 SWAP2 SUB SWAP1 LOG1 POP POP POP DUP1 DUP1 PUSH1 0x1 ADD SWAP2 POP POP PUSH2 0x17AB JUMP JUMPDEST POP PUSH1 0x1 DUP9 PUSH1 0x0 ADD PUSH1 0x14 PUSH2 0x100 EXP DUP2 SLOAD DUP2 PUSH1 0xFF MUL NOT AND SWAP1 DUP4 ISZERO ISZERO MUL OR SWAP1 SSTORE POP TIMESTAMP DUP9 PUSH1 0x2 ADD DUP2 SWAP1 SSTORE POP DUP9 TIMESTAMP PUSH2 0x1A8A SWAP2 SWAP1 PUSH2 0x4290 JUMP JUMPDEST DUP9 PUSH1 0x3 ADD DUP2 SWAP1 SSTORE POP POP POP POP POP POP POP POP POP POP POP JUMP JUMPDEST PUSH1 0x1 SLOAD DUP2 JUMP JUMPDEST PUSH3 0x93A80 DUP2 JUMP JUMPDEST PUSH1 0x0 DUP1 PUSH1 0x0 DUP1 PUSH1 0xB PUSH1 0x0 DUP7 DUP2 MSTORE PUSH1 0x20 ADD SWAP1 DUP2 MSTORE PUSH1 0x20 ADD PUSH1 0x0 KECCAK256 SWAP1 POP DUP1 PUSH1 0x6 ADD SLOAD DUP2 PUSH1 0x7 ADD SLOAD DUP3 PUSH1 0x8 ADD SLOAD SWAP4 POP SWAP4 POP SWAP4 POP POP SWAP2 SWAP4 SWAP1 SWAP3 POP JUMP JUMPDEST PUSH1 0x0 PUSH1 0xB PUSH1 0x0 DUP5 DUP2 MSTORE PUSH1 0x20 ADD SWAP1 DUP2 MSTORE PUSH1 0x20 ADD PUSH1 0x0 KECCAK256 SWAP1 POP PUSH1 0x0 PUSH20 0xFFFFFFFFFFFFFFFFFFFFFFFFFFFFFFFFFFFFFFFF AND DUP2 PUSH1 0x0 ADD PUSH1 0x0 SWAP1 SLOAD SWAP1 PUSH2 0x100 EXP SWAP1 DIV PUSH20 0xFFFFFFFFFFFFFFFFFFFFFFFFFFFFFFFFFFFFFFFF AND PUSH20 0xFFFFFFFFFFFFFFFFFFFFFFFFFFFFFFFFFFFFFFFF AND SUB PUSH2 0x1B8D JUMPI PUSH1 0x40 MLOAD PUSH32 0x8C379A000000000000000000000000000000000000000000000000000000000 DUP2 MSTORE PUSH1 0x4 ADD PUSH2 0x1B84 SWAP1 PUSH2 0x4836 JUMP JUMPDEST PUSH1 0x40 MLOAD DUP1 SWAP2 SUB SWAP1 REVERT JUMPDEST DUP1 PUSH1 0x0 ADD PUSH1 0x14 SWAP1 SLOAD SWAP1 PUSH2 0x100 EXP SWAP1 DIV PUSH1 0xFF AND PUSH2 0x1BDE JUMPI PUSH1 0x40 MLOAD PUSH32 0x8C379A000000000000000000000000000000000000000000000000000000000 DUP2 MSTORE PUSH1 0x4 ADD PUSH2 0x1BD5 SWAP1 PUSH2 0x4CAF JUMP JUMPDEST PUSH1 0x40 MLOAD DUP1 SWAP2 SUB SWAP1 REVERT JUMPDEST DUP1 PUSH1 0x0 ADD PUSH1 0x15 SWAP1 SLOAD SWAP1 PUSH2 0x100 EXP SWAP1 DIV PUSH1 0xFF AND ISZERO PUSH2 0x1C30 JUMPI PUSH1 0x40 MLOAD PUSH32 0x8C379A000000000000000000000000000000000000000000000000000000000 DUP2 MSTORE PUSH1 0x4 ADD PUSH2 0x1C27 SWAP1 PUSH2 0x490E JUMP JUMPDEST PUSH1 0x40 MLOAD DUP1 SWAP2 SUB SWAP1 REVERT JUMPDEST DUP1 PUSH1 0x3 ADD SLOAD TIMESTAMP GT ISZERO PUSH2 0x1C77 JUMPI PUSH1 0x40 MLOAD PUSH32 0x8C379A000000000000000000000000000000000000000000000000000000000 DUP2 MSTORE PUSH1 0x4 ADD PUSH2 0x1C6E SWAP1 PUSH2 0x4D1B JUMP JUMPDEST PUSH1 0x40 MLOAD DUP1 SWAP2 SUB SWAP1 REVERT JUMPDEST PUSH1 0x0 PUSH1 0x3 DUP2 GT ISZERO PUSH2 0x1C8B JUMPI PUSH2 0x1C8A PUSH2 0x3D5B JUMP JUMPDEST JUMPDEST DUP3 PUSH1 0x3 DUP2 GT ISZERO PUSH2 0x1C9E JUMPI PUSH2 0x1C9D PUSH2 0x3D5B JUMP JUMPDEST JUMPDEST SUB PUSH2 0x1CDE JUMPI PUSH1 0x40 MLOAD PUSH32 0x8C379A000000000000000000000000000000000000000000000000000000000 DUP2 MSTORE PUSH1 0x4 ADD PUSH2 0x1CD5 SWAP1 PUSH2 0x4D87 JUMP JUMPDEST PUSH1 0x40 MLOAD DUP1 SWAP2 SUB SWAP1 REVERT JUMPDEST PUSH2 0x1CE8 DUP4 CALLER PUSH2 0x3787 JUMP JUMPDEST PUSH2 0x1D27 JUMPI PUSH1 0x40 MLOAD PUSH32 0x8C379A000000000000000000000000000000000000000000000000000000000 DUP2 MSTORE PUSH1 0x4 ADD PUSH2 0x1D1E SWAP1 PUSH2 0x4DF3 JUMP JUMPDEST PUSH1 0x40 MLOAD DUP1 SWAP2 SUB SWAP1 REVERT JUMPDEST PUSH1 0x0 DUP2 PUSH1 0x9 ADD PUSH1 0x0 CALLER PUSH20 0xFFFFFFFFFFFFFFFFFFFFFFFFFFFFFFFFFFFFFFFF AND PUSH20 0xFFFFFFFFFFFFFFFFFFFFFFFFFFFFFFFFFFFFFFFF AND DUP2 MSTORE PUSH1 0x20 ADD SWAP1 DUP2 MSTORE PUSH1 0x20 ADD PUSH1 0x0 KECCAK256 SLOAD EQ PUSH2 0x1DAB JUMPI PUSH1 0x40 MLOAD PUSH32 0x8C379A000000000000000000000000000000000000000000000000000000000 DUP2 MSTORE PUSH1 0x4 ADD PUSH2 0x1DA2 SWAP1 PUSH2 0x4E5F JUMP JUMPDEST PUSH1 0x40 MLOAD DUP1 SWAP2 SUB SWAP1 REVERT JUMPDEST PUSH1 0x0 PUSH1 0x6 PUSH1 0x0 CALLER PUSH20 0xFFFFFFFFFFFFFFFFFFFFFFFFFFFFFFFFFFFFFFFF AND PUSH20 0xFFFFFFFFFFFFFFFFFFFFFFFFFFFFFFFFFFFFFFFF AND DUP2 MSTORE PUSH1 0x20 ADD SWAP1 DUP2 MSTORE PUSH1 0x20 ADD PUSH1 0x0 KECCAK256 SLOAD SWAP1 POP PUSH1 0x0 DUP2 GT PUSH2 0x1E32 JUMPI PUSH1 0x40 MLOAD PUSH32 0x8C379A000000000000000000000000000000000000000000000000000000000 DUP2 MSTORE PUSH1 0x4 ADD PUSH2 0x1E29 SWAP1 PUSH2 0x4ECB JUMP JUMPDEST PUSH1 0x40 MLOAD DUP1 SWAP2 SUB SWAP1 REVERT JUMPDEST DUP1 DUP3 PUSH1 0x9 ADD PUSH1 0x0 CALLER PUSH20 0xFFFFFFFFFFFFFFFFFFFFFFFFFFFFFFFFFFFFFFFF AND PUSH20 0xFFFFFFFFFFFFFFFFFFFFFFFFFFFFFFFFFFFFFFFF AND DUP2 MSTORE PUSH1 0x20 ADD SWAP1 DUP2 MSTORE PUSH1 0x20 ADD PUSH1 0x0 KECCAK256 DUP2 SWAP1 SSTORE POP DUP3 DUP3 PUSH1 0xA ADD PUSH1 0x0 CALLER PUSH20 0xFFFFFFFFFFFFFFFFFFFFFFFFFFFFFFFFFFFFFFFF AND PUSH20 0xFFFFFFFFFFFFFFFFFFFFFFFFFFFFFFFFFFFFFFFF AND DUP2 MSTORE PUSH1 0x20 ADD SWAP1 DUP2 MSTORE PUSH1 0x20 ADD PUSH1 0x0 KECCAK256 PUSH1 0x0 PUSH2 0x100 EXP DUP2 SLOAD DUP2 PUSH1 0xFF MUL NOT AND SWAP1 DUP4 PUSH1 0x3 DUP2 GT ISZERO PUSH2 0x1EDC JUMPI PUSH2 0x1EDB PUSH2 0x3D5B JUMP JUMPDEST JUMPDEST MUL OR SWAP1 SSTORE POP PUSH1 0x1 PUSH1 0x3 DUP2 GT ISZERO PUSH2 0x1EF5 JUMPI PUSH2 0x1EF4 PUSH2 0x3D5B JUMP JUMPDEST JUMPDEST DUP4 PUSH1 0x3 DUP2 GT ISZERO PUSH2 0x1F08 JUMPI PUSH2 0x1F07 PUSH2 0x3D5B JUMP JUMPDEST JUMPDEST SUB PUSH2 0x1F2D JUMPI DUP1 DUP3 PUSH1 0x6 ADD PUSH1 0x0 DUP3 DUP3 SLOAD PUSH2 0x1F21 SWAP2 SWAP1 PUSH2 0x4290 JUMP JUMPDEST SWAP3 POP POP DUP2 SWAP1 SSTORE POP PUSH2 0x1FC2 JUMP JUMPDEST PUSH1 0x2 PUSH1 0x3 DUP2 GT ISZERO PUSH2 0x1F41 JUMPI PUSH2 0x1F40 PUSH2 0x3D5B JUMP JUMPDEST JUMPDEST DUP4 PUSH1 0x3 DUP2 GT ISZERO PUSH2 0x1F54 JUMPI PUSH2 0x1F53 PUSH2 0x3D5B JUMP JUMPDEST JUMPDEST SUB PUSH2 0x1F79 JUMPI DUP1 DUP3 PUSH1 0x7 ADD PUSH1 0x0 DUP3 DUP3 SLOAD PUSH2 0x1F6D SWAP2 SWAP1 PUSH2 0x4290 JUMP JUMPDEST SWAP3 POP POP DUP2 SWAP1 SSTORE POP PUSH2 0x1FC1 JUMP JUMPDEST PUSH1 0x3 DUP1 DUP2 GT ISZERO PUSH2 0x1F8C JUMPI PUSH2 0x1F8B PUSH2 0x3D5B JUMP JUMPDEST JUMPDEST DUP4 PUSH1 0x3 DUP2 GT ISZERO PUSH2 0x1F9F JUMPI PUSH2 0x1F9E PUSH2 0x3D5B JUMP JUMPDEST JUMPDEST SUB PUSH2 0x1FC0 JUMPI DUP1 DUP3 PUSH1 0x8 ADD PUSH1 0x0 DUP3 DUP3 SLOAD PUSH2 0x1FB8 SWAP2 SWAP1 PUSH2 0x4290 JUMP JUMPDEST SWAP3 POP POP DUP2 SWAP1 SSTORE POP JUMPDEST JUMPDEST JUMPDEST PUSH32 0xEBA4866100B822F0F391E610E7EDFAB790B9E8766C0012733C26B2F1858E8DD7 DUP5 CALLER DUP6 PUSH1 0x40 MLOAD PUSH2 0x1FF5 SWAP4 SWAP3 SWAP2 SWAP1 PUSH2 0x4EEB JUMP JUMPDEST PUSH1 0x40 MLOAD DUP1 SWAP2 SUB SWAP1 LOG1 POP POP POP POP JUMP JUMPDEST PUSH1 0x0 SLOAD DUP2 JUMP JUMPDEST PUSH1 0x7 PUSH1 0x20 MSTORE DUP1 PUSH1 0x0 MSTORE PUSH1 0x40 PUSH1 0x0 KECCAK256 PUSH1 0x0 SWAP2 POP SLOAD SWAP1 PUSH2 0x100 EXP SWAP1 DIV PUSH1 0xFF AND DUP2 JUMP JUMPDEST PUSH3 0x93A80 DUP2 JUMP JUMPDEST PUSH1 0x0 DUP1 PUSH20 0xFFFFFFFFFFFFFFFFFFFFFFFFFFFFFFFFFFFFFFFF AND DUP5 PUSH20 0xFFFFFFFFFFFFFFFFFFFFFFFFFFFFFFFFFFFFFFFF AND SUB PUSH2 0x20A0 JUMPI PUSH1 0x40 MLOAD PUSH32 0x8C379A000000000000000000000000000000000000000000000000000000000 DUP2 MSTORE PUSH1 0x4 ADD PUSH2 0x2097 SWAP1 PUSH2 0x4F6E JUMP JUMPDEST PUSH1 0x40 MLOAD DUP1 SWAP2 SUB SWAP1 REVERT JUMPDEST PUSH1 0x0 DUP4 GT PUSH2 0x20E3 JUMPI PUSH1 0x40 MLOAD PUSH32 0x8C379A000000000000000000000000000000000000000000000000000000000 DUP2 MSTORE PUSH1 0x4 ADD PUSH2 0x20DA SWAP1 PUSH2 0x4FDA JUMP JUMPDEST PUSH1 0x40 MLOAD DUP1 SWAP2 SUB SWAP1 REVERT JUMPDEST PUSH1 0x0 DUP3 GT PUSH2 0x2126 JUMPI PUSH1 0x40 MLOAD PUSH32 0x8C379A000000000000000000000000000000000000000000000000000000000 DUP2 MSTORE PUSH1 0x4 ADD PUSH2 0x211D SWAP1 PUSH2 0x497A JUMP JUMPDEST PUSH1 0x40 MLOAD DUP1 SWAP2 SUB SWAP1 REVERT JUMPDEST PUSH1 0x9 PUSH1 0x0 DUP6 PUSH20 0xFFFFFFFFFFFFFFFFFFFFFFFFFFFFFFFFFFFFFFFF AND PUSH20 0xFFFFFFFFFFFFFFFFFFFFFFFFFFFFFFFFFFFFFFFF AND DUP2 MSTORE PUSH1 0x20 ADD SWAP1 DUP2 MSTORE PUSH1 0x20 ADD PUSH1 0x0 KECCAK256 PUSH1 0x0 SWAP1 SLOAD SWAP1 PUSH2 0x100 EXP SWAP1 DIV PUSH1 0xFF AND ISZERO PUSH2 0x21B3 JUMPI PUSH1 0x40 MLOAD PUSH32 0x8C379A000000000000000000000000000000000000000000000000000000000 DUP2 MSTORE PUSH1 0x4 ADD PUSH2 0x21AA SWAP1 PUSH2 0x506C JUMP JUMPDEST PUSH1 0x40 MLOAD DUP1 SWAP2 SUB SWAP1 REVERT JUMPDEST PUSH1 0x2 SLOAD SWAP1 POP PUSH1 0x2 PUSH1 0x0 DUP2 SLOAD DUP1 SWAP3 SWAP2 SWAP1 PUSH2 0x21CB SWAP1 PUSH2 0x44AA JUMP JUMPDEST SWAP2 SWAP1 POP SSTORE POP PUSH1 0x0 PUSH1 0xB PUSH1 0x0 DUP4 DUP2 MSTORE PUSH1 0x20 ADD SWAP1 DUP2 MSTORE PUSH1 0x20 ADD PUSH1 0x0 KECCAK256 SWAP1 POP DUP5 DUP2 PUSH1 0x0 ADD PUSH1 0x0 PUSH2 0x100 EXP DUP2 SLOAD DUP2 PUSH20 0xFFFFFFFFFFFFFFFFFFFFFFFFFFFFFFFFFFFFFFFF MUL NOT AND SWAP1 DUP4 PUSH20 0xFFFFFFFFFFFFFFFFFFFFFFFFFFFFFFFFFFFFFFFF AND MUL OR SWAP1 SSTORE POP DUP4 DUP2 PUSH1 0x1 ADD DUP2 SWAP1 SSTORE POP PUSH1 0x0 DUP2 PUSH1 0x0 ADD PUSH1 0x14 PUSH2 0x100 EXP DUP2 SLOAD DUP2 PUSH1 0xFF MUL NOT AND SWAP1 DUP4 ISZERO ISZERO MUL OR SWAP1 SSTORE POP PUSH1 0x0 DUP2 PUSH1 0x0 ADD PUSH1 0x15 PUSH2 0x100 EXP DUP2 SLOAD DUP2 PUSH1 0xFF MUL NOT AND SWAP1 DUP4 ISZERO ISZERO MUL OR SWAP1 SSTORE POP PUSH1 0x0 DUP2 PUSH1 0x2 ADD DUP2 SWAP1 SSTORE POP PUSH1 0x0 DUP2 PUSH1 0x3 ADD DUP2 SWAP1 SSTORE POP PUSH1 0x1 PUSH1 0x9 PUSH1 0x0 DUP8 PUSH20 0xFFFFFFFFFFFFFFFFFFFFFFFFFFFFFFFFFFFFFFFF AND PUSH20 0xFFFFFFFFFFFFFFFFFFFFFFFFFFFFFFFFFFFFFFFF AND DUP2 MSTORE PUSH1 0x20 ADD SWAP1 DUP2 MSTORE PUSH1 0x20 ADD PUSH1 0x0 KECCAK256 PUSH1 0x0 PUSH2 0x100 EXP DUP2 SLOAD DUP2 PUSH1 0xFF MUL NOT AND SWAP1 DUP4 ISZERO ISZERO MUL OR SWAP1 SSTORE POP PUSH32 0x8A732F3F7A5AA93D1294E46C8F5206A3F51F1984C7A5E5C817906B2443E5F44D DUP3 DUP7 DUP7 PUSH1 0x40 MLOAD PUSH2 0x230C SWAP4 SWAP3 SWAP2 SWAP1 PUSH2 0x45F3 JUMP JUMPDEST PUSH1 0x40 MLOAD DUP1 SWAP2 SUB SWAP1 LOG1 POP SWAP4 SWAP3 POP POP POP JUMP JUMPDEST CALLER PUSH20 0xFFFFFFFFFFFFFFFFFFFFFFFFFFFFFFFFFFFFFFFF AND PUSH1 0x5 PUSH1 0x0 DUP4 DUP2 MSTORE PUSH1 0x20 ADD SWAP1 DUP2 MSTORE PUSH1 0x20 ADD PUSH1 0x0 KECCAK256 PUSH1 0x0 SWAP1 SLOAD SWAP1 PUSH2 0x100 EXP SWAP1 DIV PUSH20 0xFFFFFFFFFFFFFFFFFFFFFFFFFFFFFFFFFFFFFFFF AND PUSH20 0xFFFFFFFFFFFFFFFFFFFFFFFFFFFFFFFFFFFFFFFF AND EQ PUSH2 0x23BD JUMPI PUSH1 0x40 MLOAD PUSH32 0x8C379A000000000000000000000000000000000000000000000000000000000 DUP2 MSTORE PUSH1 0x4 ADD PUSH2 0x23B4 SWAP1 PUSH2 0x50D8 JUMP JUMPDEST PUSH1 0x40 MLOAD DUP1 SWAP2 SUB SWAP1 REVERT JUMPDEST PUSH1 0x0 PUSH20 0xFFFFFFFFFFFFFFFFFFFFFFFFFFFFFFFFFFFFFFFF AND DUP3 PUSH20 0xFFFFFFFFFFFFFFFFFFFFFFFFFFFFFFFFFFFFFFFF AND SUB PUSH2 0x242C JUMPI PUSH1 0x40 MLOAD PUSH32 0x8C379A000000000000000000000000000000000000000000000000000000000 DUP2 MSTORE PUSH1 0x4 ADD PUSH2 0x2423 SWAP1 PUSH2 0x5144 JUMP JUMPDEST PUSH1 0x40 MLOAD DUP1 SWAP2 SUB SWAP1 REVERT JUMPDEST PUSH2 0x2437 CALLER DUP4 DUP4 PUSH2 0x30E3 JUMP JUMPDEST POP POP JUMP JUMPDEST PUSH1 0x6 PUSH1 0x20 MSTORE DUP1 PUSH1 0x0 MSTORE PUSH1 0x40 PUSH1 0x0 KECCAK256 PUSH1 0x0 SWAP2 POP SWAP1 POP SLOAD DUP2 JUMP JUMPDEST PUSH1 0x0 PUSH1 0xC PUSH1 0x0 DUP5 DUP2 MSTORE PUSH1 0x20 ADD SWAP1 DUP2 MSTORE PUSH1 0x20 ADD PUSH1 0x0 KECCAK256 SWAP1 POP PUSH1 0x0 PUSH20 0xFFFFFFFFFFFFFFFFFFFFFFFFFFFFFFFFFFFFFFFF AND DUP2 PUSH1 0x0 ADD PUSH1 0x0 SWAP1 SLOAD SWAP1 PUSH2 0x100 EXP SWAP1 DIV PUSH20 0xFFFFFFFFFFFFFFFFFFFFFFFFFFFFFFFFFFFFFFFF AND PUSH20 0xFFFFFFFFFFFFFFFFFFFFFFFFFFFFFFFFFFFFFFFF AND SUB PUSH2 0x24FD JUMPI PUSH1 0x40 MLOAD PUSH32 0x8C379A000000000000000000000000000000000000000000000000000000000 DUP2 MSTORE PUSH1 0x4 ADD PUSH2 0x24F4 SWAP1 PUSH2 0x4169 JUMP JUMPDEST PUSH1 0x40 MLOAD DUP1 SWAP2 SUB SWAP1 REVERT JUMPDEST DUP1 PUSH1 0x4 ADD SLOAD TIMESTAMP GT ISZERO PUSH2 0x2544 JUMPI PUSH1 0x40 MLOAD PUSH32 0x8C379A000000000000000000000000000000000000000000000000000000000 DUP2 MSTORE PUSH1 0x4 ADD PUSH2 0x253B SWAP1 PUSH2 0x4D1B JUMP JUMPDEST PUSH1 0x40 MLOAD DUP1 SWAP2 SUB SWAP1 REVERT JUMPDEST DUP1 PUSH1 0x7 ADD PUSH1 0x0 SWAP1 SLOAD SWAP1 PUSH2 0x100 EXP SWAP1 DIV PUSH1 0xFF AND ISZERO PUSH2 0x2596 JUMPI PUSH1 0x40 MLOAD PUSH32 0x8C379A000000000000000000000000000000000000000000000000000000000 DUP2 MSTORE PUSH1 0x4 ADD PUSH2 0x258D SWAP1 PUSH2 0x4241 JUMP JUMPDEST PUSH1 0x40 MLOAD DUP1 SWAP2 SUB SWAP1 REVERT JUMPDEST PUSH1 0x0 PUSH1 0x6 PUSH1 0x0 CALLER PUSH20 0xFFFFFFFFFFFFFFFFFFFFFFFFFFFFFFFFFFFFFFFF AND PUSH20 0xFFFFFFFFFFFFFFFFFFFFFFFFFFFFFFFFFFFFFFFF AND DUP2 MSTORE PUSH1 0x20 ADD SWAP1 DUP2 MSTORE PUSH1 0x20 ADD PUSH1 0x0 KECCAK256 SLOAD SWAP1 POP PUSH1 0x0 DUP2 GT PUSH2 0x261D JUMPI PUSH1 0x40 MLOAD PUSH32 0x8C379A000000000000000000000000000000000000000000000000000000000 DUP2 MSTORE PUSH1 0x4 ADD PUSH2 0x2614 SWAP1 PUSH2 0x4ECB JUMP JUMPDEST PUSH1 0x40 MLOAD DUP1 SWAP2 SUB SWAP1 REVERT JUMPDEST PUSH1 0x0 DUP3 PUSH1 0x9 ADD PUSH1 0x0 CALLER PUSH20 0xFFFFFFFFFFFFFFFFFFFFFFFFFFFFFFFFFFFFFFFF AND PUSH20 0xFFFFFFFFFFFFFFFFFFFFFFFFFFFFFFFFFFFFFFFF AND DUP2 MSTORE PUSH1 0x20 ADD SWAP1 DUP2 MSTORE PUSH1 0x20 ADD PUSH1 0x0 KECCAK256 SLOAD EQ PUSH2 0x26A1 JUMPI PUSH1 0x40 MLOAD PUSH32 0x8C379A000000000000000000000000000000000000000000000000000000000 DUP2 MSTORE PUSH1 0x4 ADD PUSH2 0x2698 SWAP1 PUSH2 0x4E5F JUMP JUMPDEST PUSH1 0x40 MLOAD DUP1 SWAP2 SUB SWAP1 REVERT JUMPDEST DUP1 DUP3 PUSH1 0x9 ADD PUSH1 0x0 CALLER PUSH20 0xFFFFFFFFFFFFFFFFFFFFFFFFFFFFFFFFFFFFFFFF AND PUSH20 0xFFFFFFFFFFFFFFFFFFFFFFFFFFFFFFFFFFFFFFFF AND DUP2 MSTORE PUSH1 0x20 ADD SWAP1 DUP2 MSTORE PUSH1 0x20 ADD PUSH1 0x0 KECCAK256 DUP2 SWAP1 SSTORE POP DUP3 ISZERO PUSH2 0x270D JUMPI DUP1 DUP3 PUSH1 0x5 ADD PUSH1 0x0 DUP3 DUP3 SLOAD PUSH2 0x2701 SWAP2 SWAP1 PUSH2 0x4290 JUMP JUMPDEST SWAP3 POP POP DUP2 SWAP1 SSTORE POP PUSH2 0x2729 JUMP JUMPDEST DUP1 DUP3 PUSH1 0x6 ADD PUSH1 0x0 DUP3 DUP3 SLOAD PUSH2 0x2721 SWAP2 SWAP1 PUSH2 0x4290 JUMP JUMPDEST SWAP3 POP POP DUP2 SWAP1 SSTORE POP JUMPDEST PUSH32 0x78975AAF742630489BADD22949B88AC50EAAEA576339EE05440B671A33BFB6A9 DUP5 CALLER DUP6 DUP5 PUSH1 0x40 MLOAD PUSH2 0x275E SWAP5 SWAP4 SWAP3 SWAP2 SWAP1 PUSH2 0x5164 JUMP JUMPDEST PUSH1 0x40 MLOAD DUP1 SWAP2 SUB SWAP1 LOG1 POP POP POP POP JUMP JUMPDEST PUSH1 0x0 PUSH1 0xB PUSH1 0x0 DUP4 DUP2 MSTORE PUSH1 0x20 ADD SWAP1 DUP2 MSTORE PUSH1 0x20 ADD PUSH1 0x0 KECCAK256 SWAP1 POP PUSH1 0x0 PUSH20 0xFFFFFFFFFFFFFFFFFFFFFFFFFFFFFFFFFFFFFFFF AND DUP2 PUSH1 0x0 ADD PUSH1 0x0 SWAP1 SLOAD SWAP1 PUSH2 0x100 EXP SWAP1 DIV PUSH20 0xFFFFFFFFFFFFFFFFFFFFFFFFFFFFFFFFFFFFFFFF AND PUSH20 0xFFFFFFFFFFFFFFFFFFFFFFFFFFFFFFFFFFFFFFFF AND SUB PUSH2 0x2816 JUMPI PUSH1 0x40 MLOAD PUSH32 0x8C379A000000000000000000000000000000000000000000000000000000000 DUP2 MSTORE PUSH1 0x4 ADD PUSH2 0x280D SWAP1 PUSH2 0x4836 JUMP JUMPDEST PUSH1 0x40 MLOAD DUP1 SWAP2 SUB SWAP1 REVERT JUMPDEST DUP1 PUSH1 0x0 ADD PUSH1 0x14 SWAP1 SLOAD SWAP1 PUSH2 0x100 EXP SWAP1 DIV PUSH1 0xFF AND PUSH2 0x2867 JUMPI PUSH1 0x40 MLOAD PUSH32 0x8C379A000000000000000000000000000000000000000000000000000000000 DUP2 MSTORE PUSH1 0x4 ADD PUSH2 0x285E SWAP1 PUSH2 0x4CAF JUMP JUMPDEST PUSH1 0x40 MLOAD DUP1 SWAP2 SUB SWAP1 REVERT JUMPDEST DUP1 PUSH1 0x0 ADD PUSH1 0x15 SWAP1 SLOAD SWAP1 PUSH2 0x100 EXP SWAP1 DIV PUSH1 0xFF AND ISZERO PUSH2 0x28B9 JUMPI PUSH1 0x40 MLOAD PUSH32 0x8C379A000000000000000000000000000000000000000000000000000000000 DUP2 MSTORE PUSH1 0x4 ADD PUSH2 0x28B0 SWAP1 PUSH2 0x51F5 JUMP JUMPDEST PUSH1 0x40 MLOAD DUP1 SWAP2 SUB SWAP1 REVERT JUMPDEST DUP1 PUSH1 0x3 ADD SLOAD TIMESTAMP GT DUP1 PUSH2 0x28D0 JUMPI POP PUSH2 0x28CF DUP3 PUSH2 0x3849 JUMP JUMPDEST JUMPDEST PUSH2 0x290F JUMPI PUSH1 0x40 MLOAD PUSH32 0x8C379A000000000000000000000000000000000000000000000000000000000 DUP2 MSTORE PUSH1 0x4 ADD PUSH2 0x2906 SWAP1 PUSH2 0x5261 JUMP JUMPDEST PUSH1 0x40 MLOAD DUP1 SWAP2 SUB SWAP1 REVERT JUMPDEST PUSH1 0x0 PUSH2 0x291A DUP4 PUSH2 0x3920 JUMP JUMPDEST SWAP1 POP PUSH1 0x1 DUP3 PUSH1 0x0 ADD PUSH1 0x15 PUSH2 0x100 EXP DUP2 SLOAD DUP2 PUSH1 0xFF MUL NOT AND SWAP1 DUP4 ISZERO ISZERO MUL OR SWAP1 SSTORE POP PUSH1 0x0 PUSH1 0x9 PUSH1 0x0 DUP5 PUSH1 0x0 ADD PUSH1 0x0 SWAP1 SLOAD SWAP1 PUSH2 0x100 EXP SWAP1 DIV PUSH20 0xFFFFFFFFFFFFFFFFFFFFFFFFFFFFFFFFFFFFFFFF AND PUSH20 0xFFFFFFFFFFFFFFFFFFFFFFFFFFFFFFFFFFFFFFFF AND PUSH20 0xFFFFFFFFFFFFFFFFFFFFFFFFFFFFFFFFFFFFFFFF AND DUP2 MSTORE PUSH1 0x20 ADD SWAP1 DUP2 MSTORE PUSH1 0x20 ADD PUSH1 0x0 KECCAK256 PUSH1 0x0 PUSH2 0x100 EXP DUP2 SLOAD DUP2 PUSH1 0xFF MUL NOT AND SWAP1 DUP4 ISZERO ISZERO MUL OR SWAP1 SSTORE POP PUSH1 0x1 PUSH1 0x3 DUP2 GT ISZERO PUSH2 0x29C9 JUMPI PUSH2 0x29C8 PUSH2 0x3D5B JUMP JUMPDEST JUMPDEST DUP2 PUSH1 0x3 DUP2 GT ISZERO PUSH2 0x29DC JUMPI PUSH2 0x29DB PUSH2 0x3D5B JUMP JUMPDEST JUMPDEST SUB PUSH2 0x2A6A JUMPI DUP2 PUSH1 0x0 ADD PUSH1 0x0 SWAP1 SLOAD SWAP1 PUSH2 0x100 EXP SWAP1 DIV PUSH20 0xFFFFFFFFFFFFFFFFFFFFFFFFFFFFFFFFFFFFFFFF AND PUSH20 0xFFFFFFFFFFFFFFFFFFFFFFFFFFFFFFFFFFFFFFFF AND PUSH4 0xF6E7FBD PUSH1 0x40 MLOAD DUP2 PUSH4 0xFFFFFFFF AND PUSH1 0xE0 SHL DUP2 MSTORE PUSH1 0x4 ADD PUSH1 0x0 PUSH1 0x40 MLOAD DUP1 DUP4 SUB DUP2 PUSH1 0x0 DUP8 DUP1 EXTCODESIZE ISZERO DUP1 ISZERO PUSH2 0x2A4D JUMPI PUSH1 0x0 DUP1 REVERT JUMPDEST POP GAS CALL ISZERO DUP1 ISZERO PUSH2 0x2A61 JUMPI RETURNDATASIZE PUSH1 0x0 DUP1 RETURNDATACOPY RETURNDATASIZE PUSH1 0x0 REVERT JUMPDEST POP POP POP POP PUSH2 0x2BA5 JUMP JUMPDEST PUSH1 0x2 PUSH1 0x3 DUP2 GT ISZERO PUSH2 0x2A7E JUMPI PUSH2 0x2A7D PUSH2 0x3D5B JUMP JUMPDEST JUMPDEST DUP2 PUSH1 0x3 DUP2 GT ISZERO PUSH2 0x2A91 JUMPI PUSH2 0x2A90 PUSH2 0x3D5B JUMP JUMPDEST JUMPDEST SUB PUSH2 0x2B1F JUMPI DUP2 PUSH1 0x0 ADD PUSH1 0x0 SWAP1 SLOAD SWAP1 PUSH2 0x100 EXP SWAP1 DIV PUSH20 0xFFFFFFFFFFFFFFFFFFFFFFFFFFFFFFFFFFFFFFFF AND PUSH20 0xFFFFFFFFFFFFFFFFFFFFFFFFFFFFFFFFFFFFFFFF AND PUSH4 0xE1D295E7 PUSH1 0x40 MLOAD DUP2 PUSH4 0xFFFFFFFF AND PUSH1 0xE0 SHL DUP2 MSTORE PUSH1 0x4 ADD PUSH1 0x0 PUSH1 0x40 MLOAD DUP1 DUP4 SUB DUP2 PUSH1 0x0 DUP8 DUP1 EXTCODESIZE ISZERO DUP1 ISZERO PUSH2 0x2B02 JUMPI PUSH1 0x0 DUP1 REVERT JUMPDEST POP GAS CALL ISZERO DUP1 ISZERO PUSH2 0x2B16 JUMPI RETURNDATASIZE PUSH1 0x0 DUP1 RETURNDATACOPY RETURNDATASIZE PUSH1 0x0 REVERT JUMPDEST POP POP POP POP PUSH2 0x2BA4 JUMP JUMPDEST DUP2 PUSH1 0x0 ADD PUSH1 0x0 SWAP1 SLOAD SWAP1 PUSH2 0x100 EXP SWAP1 DIV PUSH20 0xFFFFFFFFFFFFFFFFFFFFFFFFFFFFFFFFFFFFFFFF AND PUSH20 0xFFFFFFFFFFFFFFFFFFFFFFFFFFFFFFFFFFFFFFFF AND PUSH4 0x37F89BDF PUSH1 0x40 MLOAD DUP2 PUSH4 0xFFFFFFFF AND PUSH1 0xE0 SHL DUP2 MSTORE PUSH1 0x4 ADD PUSH1 0x0 PUSH1 0x40 MLOAD DUP1 DUP4 SUB DUP2 PUSH1 0x0 DUP8 DUP1 EXTCODESIZE ISZERO DUP1 ISZERO PUSH2 0x2B8B JUMPI PUSH1 0x0 DUP1 REVERT JUMPDEST POP GAS CALL ISZERO DUP1 ISZERO PUSH2 0x2B9F JUMPI RETURNDATASIZE PUSH1 0x0 DUP1 RETURNDATACOPY RETURNDATASIZE PUSH1 0x0 REVERT JUMPDEST POP POP POP POP JUMPDEST JUMPDEST PUSH1 0x0 JUMPDEST DUP3 PUSH1 0x5 ADD DUP1 SLOAD SWAP1 POP DUP2 LT ISZERO PUSH2 0x2CA3 JUMPI PUSH1 0x0 DUP4 PUSH1 0x5 ADD DUP3 DUP2 SLOAD DUP2 LT PUSH2 0x2BCF JUMPI PUSH2 0x2BCE PUSH2 0x4B94 JUMP JUMPDEST JUMPDEST SWAP1 PUSH1 0x0 MSTORE PUSH1 0x20 PUSH1 0x0 KECCAK256 ADD PUSH1 0x0 SWAP1 SLOAD SWAP1 PUSH2 0x100 EXP SWAP1 DIV PUSH20 0xFFFFFFFFFFFFFFFFFFFFFFFFFFFFFFFFFFFFFFFF AND SWAP1 POP PUSH1 0x0 DUP5 PUSH1 0x9 ADD PUSH1 0x0 DUP4 PUSH20 0xFFFFFFFFFFFFFFFFFFFFFFFFFFFFFFFFFFFFFFFF AND PUSH20 0xFFFFFFFFFFFFFFFFFFFFFFFFFFFFFFFFFFFFFFFF AND DUP2 MSTORE PUSH1 0x20 ADD SWAP1 DUP2 MSTORE PUSH1 0x20 ADD PUSH1 0x0 KECCAK256 SLOAD GT ISZERO PUSH2 0x2C95 JUMPI DUP1 PUSH20 0xFFFFFFFFFFFFFFFFFFFFFFFFFFFFFFFFFFFFFFFF AND PUSH2 0x8FC PUSH7 0x38D7EA4C68000 SWAP1 DUP2 ISZERO MUL SWAP1 PUSH1 0x40 MLOAD PUSH1 0x0 PUSH1 0x40 MLOAD DUP1 DUP4 SUB DUP2 DUP6 DUP9 DUP9 CALL SWAP4 POP POP POP POP ISZERO DUP1 ISZERO PUSH2 0x2C93 JUMPI RETURNDATASIZE PUSH1 0x0 DUP1 RETURNDATACOPY RETURNDATASIZE PUSH1 0x0 REVERT JUMPDEST POP JUMPDEST POP DUP1 DUP1 PUSH1 0x1 ADD SWAP2 POP POP PUSH2 0x2BA8 JUMP JUMPDEST POP PUSH32 0x2FFCFEE146BC0D5FF304C6B65111A0D485AF9456DC64EEE7D66EBDCC90B223EA DUP4 DUP3 PUSH1 0x40 MLOAD PUSH2 0x2CD5 SWAP3 SWAP2 SWAP1 PUSH2 0x5281 JUMP JUMPDEST PUSH1 0x40 MLOAD DUP1 SWAP2 SUB SWAP1 LOG1 POP POP POP JUMP JUMPDEST PUSH1 0x0 DUP1 PUSH1 0x0 DUP1 PUSH1 0x0 DUP1 PUSH1 0x0 DUP1 PUSH1 0x0 DUP1 PUSH1 0xC PUSH1 0x0 DUP13 DUP2 MSTORE PUSH1 0x20 ADD SWAP1 DUP2 MSTORE PUSH1 0x20 ADD PUSH1 0x0 KECCAK256 SWAP1 POP PUSH1 0x0 PUSH20 0xFFFFFFFFFFFFFFFFFFFFFFFFFFFFFFFFFFFFFFFF AND DUP2 PUSH1 0x0 ADD PUSH1 0x0 SWAP1 SLOAD SWAP1 PUSH2 0x100 EXP SWAP1 DIV PUSH20 0xFFFFFFFFFFFFFFFFFFFFFFFFFFFFFFFFFFFFFFFF AND PUSH20 0xFFFFFFFFFFFFFFFFFFFFFFFFFFFFFFFFFFFFFFFF AND SUB PUSH2 0x2D99 JUMPI PUSH1 0x40 MLOAD PUSH32 0x8C379A000000000000000000000000000000000000000000000000000000000 DUP2 MSTORE PUSH1 0x4 ADD PUSH2 0x2D90 SWAP1 PUSH2 0x4169 JUMP JUMPDEST PUSH1 0x40 MLOAD DUP1 SWAP2 SUB SWAP1 REVERT JUMPDEST DUP1 PUSH1 0x0 ADD PUSH1 0x0 SWAP1 SLOAD SWAP1 PUSH2 0x100 EXP SWAP1 DIV PUSH20 0xFFFFFFFFFFFFFFFFFFFFFFFFFFFFFFFFFFFFFFFF AND SWAP10 POP DUP1 PUSH1 0x1 ADD PUSH1 0x0 SWAP1 SLOAD SWAP1 PUSH2 0x100 EXP SWAP1 DIV PUSH20 0xFFFFFFFFFFFFFFFFFFFFFFFFFFFFFFFFFFFFFFFF AND SWAP9 POP DUP1 PUSH1 0x2 ADD SLOAD SWAP8 POP DUP1 PUSH1 0x3 ADD SLOAD SWAP7 POP DUP1 PUSH1 0x4 ADD SLOAD SWAP6 POP DUP1 PUSH1 0x5 ADD SLOAD SWAP5 POP DUP1 PUSH1 0x6 ADD SLOAD SWAP4 POP DUP1 PUSH1 0x7 ADD PUSH1 0x0 SWAP1 SLOAD SWAP1 PUSH2 0x100 EXP SWAP1 DIV PUSH1 0xFF AND SWAP3 POP DUP1 PUSH1 0x8 ADD SLOAD SWAP2 POP POP SWAP2 SWAP4 SWAP6 SWAP8 SWAP10 SWAP1 SWAP3 SWAP5 SWAP7 SWAP9 POP JUMP JUMPDEST PUSH1 0x9 PUSH1 0x20 MSTORE DUP1 PUSH1 0x0 MSTORE PUSH1 0x40 PUSH1 0x0 KECCAK256 PUSH1 0x0 SWAP2 POP SLOAD SWAP1 PUSH2 0x100 EXP SWAP1 DIV PUSH1 0xFF AND DUP2 JUMP JUMPDEST PUSH1 0x0 DUP1 PUSH1 0x6 PUSH1 0x0 CALLER PUSH20 0xFFFFFFFFFFFFFFFFFFFFFFFFFFFFFFFFFFFFFFFF AND PUSH20 0xFFFFFFFFFFFFFFFFFFFFFFFFFFFFFFFFFFFFFFFF AND DUP2 MSTORE PUSH1 0x20 ADD SWAP1 DUP2 MSTORE PUSH1 0x20 ADD PUSH1 0x0 KECCAK256 SLOAD GT PUSH2 0x2ED6 JUMPI PUSH1 0x40 MLOAD PUSH32 0x8C379A000000000000000000000000000000000000000000000000000000000 DUP2 MSTORE PUSH1 0x4 ADD PUSH2 0x2ECD SWAP1 PUSH2 0x52F6 JUMP JUMPDEST PUSH1 0x40 MLOAD DUP1 SWAP2 SUB SWAP1 REVERT JUMPDEST PUSH1 0x0 PUSH20 0xFFFFFFFFFFFFFFFFFFFFFFFFFFFFFFFFFFFFFFFF AND DUP4 PUSH20 0xFFFFFFFFFFFFFFFFFFFFFFFFFFFFFFFFFFFFFFFF AND SUB PUSH2 0x2F45 JUMPI PUSH1 0x40 MLOAD PUSH32 0x8C379A000000000000000000000000000000000000000000000000000000000 DUP2 MSTORE PUSH1 0x4 ADD PUSH2 0x2F3C SWAP1 PUSH2 0x5144 JUMP JUMPDEST PUSH1 0x40 MLOAD DUP1 SWAP2 SUB SWAP1 REVERT JUMPDEST PUSH1 0x0 DUP3 GT PUSH2 0x2F88 JUMPI PUSH1 0x40 MLOAD PUSH32 0x8C379A000000000000000000000000000000000000000000000000000000000 DUP2 MSTORE PUSH1 0x4 ADD PUSH2 0x2F7F SWAP1 PUSH2 0x5362 JUMP JUMPDEST PUSH1 0x40 MLOAD DUP1 SWAP2 SUB SWAP1 REVERT JUMPDEST PUSH1 0x0 PUSH1 0x4 SLOAD SWAP1 POP PUSH1 0x4 PUSH1 0x0 DUP2 SLOAD DUP1 SWAP3 SWAP2 SWAP1 PUSH2 0x2FA2 SWAP1 PUSH2 0x44AA JUMP JUMPDEST SWAP2 SWAP1 POP SSTORE POP PUSH1 0x0 PUSH1 0xC PUSH1 0x0 DUP4 DUP2 MSTORE PUSH1 0x20 ADD SWAP1 DUP2 MSTORE PUSH1 0x20 ADD PUSH1 0x0 KECCAK256 SWAP1 POP CALLER DUP2 PUSH1 0x0 ADD PUSH1 0x0 PUSH2 0x100 EXP DUP2 SLOAD DUP2 PUSH20 0xFFFFFFFFFFFFFFFFFFFFFFFFFFFFFFFFFFFFFFFF MUL NOT AND SWAP1 DUP4 PUSH20 0xFFFFFFFFFFFFFFFFFFFFFFFFFFFFFFFFFFFFFFFF AND MUL OR SWAP1 SSTORE POP DUP5 DUP2 PUSH1 0x1 ADD PUSH1 0x0 PUSH2 0x100 EXP DUP2 SLOAD DUP2 PUSH20 0xFFFFFFFFFFFFFFFFFFFFFFFFFFFFFFFFFFFFFFFF MUL NOT AND SWAP1 DUP4 PUSH20 0xFFFFFFFFFFFFFFFFFFFFFFFFFFFFFFFFFFFFFFFF AND MUL OR SWAP1 SSTORE POP DUP4 DUP2 PUSH1 0x2 ADD DUP2 SWAP1 SSTORE POP TIMESTAMP DUP2 PUSH1 0x3 ADD DUP2 SWAP1 SSTORE POP PUSH3 0x93A80 TIMESTAMP PUSH2 0x3065 SWAP2 SWAP1 PUSH2 0x4290 JUMP JUMPDEST DUP2 PUSH1 0x4 ADD DUP2 SWAP1 SSTORE POP PUSH1 0x0 DUP2 PUSH1 0x7 ADD PUSH1 0x0 PUSH2 0x100 EXP DUP2 SLOAD DUP2 PUSH1 0xFF MUL NOT AND SWAP1 DUP4 ISZERO ISZERO MUL OR SWAP1 SSTORE POP PUSH1 0x3 SLOAD DUP2 PUSH1 0x8 ADD DUP2 SWAP1 SSTORE POP PUSH32 0x498EFC40851DD66B079B44AC06F0291DE83B764E409F0E2727693D9A48A39F8 DUP3 CALLER DUP8 DUP8 DUP6 PUSH1 0x4 ADD SLOAD PUSH1 0x40 MLOAD PUSH2 0x30D0 SWAP6 SWAP5 SWAP4 SWAP3 SWAP2 SWAP1 PUSH2 0x5382 JUMP JUMPDEST PUSH1 0x40 MLOAD DUP1 SWAP2 SUB SWAP1 LOG1 DUP2 SWAP3 POP POP POP SWAP3 SWAP2 POP POP JUMP JUMPDEST PUSH1 0x0 PUSH20 0xFFFFFFFFFFFFFFFFFFFFFFFFFFFFFFFFFFFFFFFF AND DUP4 PUSH20 0xFFFFFFFFFFFFFFFFFFFFFFFFFFFFFFFFFFFFFFFF AND EQ PUSH2 0x3294 JUMPI DUP3 PUSH20 0xFFFFFFFFFFFFFFFFFFFFFFFFFFFFFFFFFFFFFFFF AND PUSH1 0x5 PUSH1 0x0 DUP4 DUP2 MSTORE PUSH1 0x20 ADD SWAP1 DUP2 MSTORE PUSH1 0x20 ADD PUSH1 0x0 KECCAK256 PUSH1 0x0 SWAP1 SLOAD SWAP1 PUSH2 0x100 EXP SWAP1 DIV PUSH20 0xFFFFFFFFFFFFFFFFFFFFFFFFFFFFFFFFFFFFFFFF AND PUSH20 0xFFFFFFFFFFFFFFFFFFFFFFFFFFFFFFFFFFFFFFFF AND EQ PUSH2 0x31B8 JUMPI PUSH1 0x40 MLOAD PUSH32 0x8C379A000000000000000000000000000000000000000000000000000000000 DUP2 MSTORE PUSH1 0x4 ADD PUSH2 0x31AF SWAP1 PUSH2 0x5421 JUMP JUMPDEST PUSH1 0x40 MLOAD DUP1 SWAP2 SUB SWAP1 REVERT JUMPDEST PUSH1 0x0 PUSH1 0x6 PUSH1 0x0 DUP6 PUSH20 0xFFFFFFFFFFFFFFFFFFFFFFFFFFFFFFFFFFFFFFFF AND PUSH20 0xFFFFFFFFFFFFFFFFFFFFFFFFFFFFFFFFFFFFFFFF AND DUP2 MSTORE PUSH1 0x20 ADD SWAP1 DUP2 MSTORE PUSH1 0x20 ADD PUSH1 0x0 KECCAK256 SLOAD GT PUSH2 0x323A JUMPI PUSH1 0x40 MLOAD PUSH32 0x8C379A000000000000000000000000000000000000000000000000000000000 DUP2 MSTORE PUSH1 0x4 ADD PUSH2 0x3231 SWAP1 PUSH2 0x548D JUMP JUMPDEST PUSH1 0x40 MLOAD DUP1 SWAP2 SUB SWAP1 REVERT JUMPDEST PUSH1 0x6 PUSH1 0x0 DUP5 PUSH20 0xFFFFFFFFFFFFFFFFFFFFFFFFFFFFFFFFFFFFFFFF AND PUSH20 0xFFFFFFFFFFFFFFFFFFFFFFFFFFFFFFFFFFFFFFFF AND DUP2 MSTORE PUSH1 0x20 ADD SWAP1 DUP2 MSTORE PUSH1 0x20 ADD PUSH1 0x0 KECCAK256 PUSH1 0x0 DUP2 SLOAD DUP1 SWAP3 SWAP2 SWAP1 PUSH2 0x328A SWAP1 PUSH2 0x54AD JUMP JUMPDEST SWAP2 SWAP1 POP SSTORE POP PUSH2 0x32AD JUMP JUMPDEST PUSH1 0x3 PUSH1 0x0 DUP2 SLOAD DUP1 SWAP3 SWAP2 SWAP1 PUSH2 0x32A7 SWAP1 PUSH2 0x44AA JUMP JUMPDEST SWAP2 SWAP1 POP SSTORE POP JUMPDEST PUSH2 0x32B6 DUP3 PUSH2 0x39F6 JUMP JUMPDEST PUSH1 0x6 PUSH1 0x0 DUP4 PUSH20 0xFFFFFFFFFFFFFFFFFFFFFFFFFFFFFFFFFFFFFFFF AND PUSH20 0xFFFFFFFFFFFFFFFFFFFFFFFFFFFFFFFFFFFFFFFF AND DUP2 MSTORE PUSH1 0x20 ADD SWAP1 DUP2 MSTORE PUSH1 0x20 ADD PUSH1 0x0 KECCAK256 PUSH1 0x0 DUP2 SLOAD DUP1 SWAP3 SWAP2 SWAP1 PUSH2 0x3306 SWAP1 PUSH2 0x44AA JUMP JUMPDEST SWAP2 SWAP1 POP SSTORE POP DUP2 PUSH1 0x5 PUSH1 0x0 DUP4 DUP2 MSTORE PUSH1 0x20 ADD SWAP1 DUP2 MSTORE PUSH1 0x20 ADD PUSH1 0x0 KECCAK256 PUSH1 0x0 PUSH2 0x100 EXP DUP2 SLOAD DUP2 PUSH20 0xFFFFFFFFFFFFFFFFFFFFFFFFFFFFFFFFFFFFFFFF MUL NOT AND SWAP1 DUP4 PUSH20 0xFFFFFFFFFFFFFFFFFFFFFFFFFFFFFFFFFFFFFFFF AND MUL OR SWAP1 SSTORE POP POP POP POP JUMP JUMPDEST ADDRESS PUSH20 0xFFFFFFFFFFFFFFFFFFFFFFFFFFFFFFFFFFFFFFFF AND PUSH1 0x5 PUSH1 0x0 DUP4 DUP2 MSTORE PUSH1 0x20 ADD SWAP1 DUP2 MSTORE PUSH1 0x20 ADD PUSH1 0x0 KECCAK256 PUSH1 0x0 SWAP1 SLOAD SWAP1 PUSH2 0x100 EXP SWAP1 DIV PUSH20 0xFFFFFFFFFFFFFFFFFFFFFFFFFFFFFFFFFFFFFFFF AND PUSH20 0xFFFFFFFFFFFFFFFFFFFFFFFFFFFFFFFFFFFFFFFF AND EQ PUSH2 0x3403 JUMPI PUSH1 0x40 MLOAD PUSH32 0x8C379A000000000000000000000000000000000000000000000000000000000 DUP2 MSTORE PUSH1 0x4 ADD PUSH2 0x33FA SWAP1 PUSH2 0x5522 JUMP JUMPDEST PUSH1 0x40 MLOAD DUP1 SWAP2 SUB SWAP1 REVERT JUMPDEST PUSH1 0x0 PUSH1 0xA PUSH1 0x0 DUP4 DUP2 MSTORE PUSH1 0x20 ADD SWAP1 DUP2 MSTORE PUSH1 0x20 ADD PUSH1 0x0 KECCAK256 SWAP1 POP DUP2 DUP2 PUSH1 0x0 ADD DUP2 SWAP1 SSTORE POP TIMESTAMP DUP2 PUSH1 0x1 ADD DUP2 SWAP1 SSTORE POP PUSH3 0x93A80 TIMESTAMP PUSH2 0x343B SWAP2 SWAP1 PUSH2 0x4290 JUMP JUMPDEST DUP2 PUSH1 0x2 ADD DUP2 SWAP1 SSTORE POP PUSH1 0x0 DUP2 PUSH1 0x3 ADD DUP2 SWAP1 SSTORE POP PUSH1 0x0 DUP2 PUSH1 0x4 ADD PUSH1 0x0 PUSH2 0x100 EXP DUP2 SLOAD DUP2 PUSH20 0xFFFFFFFFFFFFFFFFFFFFFFFFFFFFFFFFFFFFFFFF MUL NOT AND SWAP1 DUP4 PUSH20 0xFFFFFFFFFFFFFFFFFFFFFFFFFFFFFFFFFFFFFFFF AND MUL OR SWAP1 SSTORE POP PUSH1 0x0 DUP2 PUSH1 0x4 ADD PUSH1 0x14 PUSH2 0x100 EXP DUP2 SLOAD DUP2 PUSH1 0xFF MUL NOT AND SWAP1 DUP4 ISZERO ISZERO MUL OR SWAP1 SSTORE POP PUSH32 0x44C53BE110C6AA83AA83CD02E351ED172359268272EE1B5D31C0FE48DB35C6C7 DUP3 DUP3 PUSH1 0x1 ADD SLOAD DUP4 PUSH1 0x2 ADD SLOAD PUSH1 0x40 MLOAD PUSH2 0x34E9 SWAP4 SWAP3 SWAP2 SWAP1 PUSH2 0x3EC9 JUMP JUMPDEST PUSH1 0x40 MLOAD DUP1 SWAP2 SUB SWAP1 LOG1 POP POP JUMP JUMPDEST PUSH1 0x60 DUP1 PUSH1 0x0 DUP1 PUSH1 0x8 DUP1 SLOAD SWAP1 POP PUSH8 0xFFFFFFFFFFFFFFFF DUP2 GT ISZERO PUSH2 0x351A JUMPI PUSH2 0x3519 PUSH2 0x4AB4 JUMP JUMPDEST JUMPDEST PUSH1 0x40 MLOAD SWAP1 DUP1 DUP3 MSTORE DUP1 PUSH1 0x20 MUL PUSH1 0x20 ADD DUP3 ADD PUSH1 0x40 MSTORE DUP1 ISZERO PUSH2 0x3548 JUMPI DUP2 PUSH1 0x20 ADD PUSH1 0x20 DUP3 MUL DUP1 CALLDATASIZE DUP4 CALLDATACOPY DUP1 DUP3 ADD SWAP2 POP POP SWAP1 POP JUMPDEST POP SWAP4 POP PUSH1 0x8 DUP1 SLOAD SWAP1 POP PUSH8 0xFFFFFFFFFFFFFFFF DUP2 GT ISZERO PUSH2 0x356A JUMPI PUSH2 0x3569 PUSH2 0x4AB4 JUMP JUMPDEST JUMPDEST PUSH1 0x40 MLOAD SWAP1 DUP1 DUP3 MSTORE DUP1 PUSH1 0x20 MUL PUSH1 0x20 ADD DUP3 ADD PUSH1 0x40 MSTORE DUP1 ISZERO PUSH2 0x3598 JUMPI DUP2 PUSH1 0x20 ADD PUSH1 0x20 DUP3 MUL DUP1 CALLDATASIZE DUP4 CALLDATACOPY DUP1 DUP3 ADD SWAP2 POP POP SWAP1 POP JUMPDEST POP SWAP3 POP PUSH1 0x0 JUMPDEST PUSH1 0x8 DUP1 SLOAD SWAP1 POP DUP2 LT ISZERO PUSH2 0x377D JUMPI PUSH1 0x0 PUSH1 0x8 DUP3 DUP2 SLOAD DUP2 LT PUSH2 0x35C1 JUMPI PUSH2 0x35C0 PUSH2 0x4B94 JUMP JUMPDEST JUMPDEST SWAP1 PUSH1 0x0 MSTORE PUSH1 0x20 PUSH1 0x0 KECCAK256 ADD PUSH1 0x0 SWAP1 SLOAD SWAP1 PUSH2 0x100 EXP SWAP1 DIV PUSH20 0xFFFFFFFFFFFFFFFFFFFFFFFFFFFFFFFFFFFFFFFF AND SWAP1 POP PUSH1 0x0 PUSH1 0x6 PUSH1 0x0 DUP4 PUSH20 0xFFFFFFFFFFFFFFFFFFFFFFFFFFFFFFFFFFFFFFFF AND PUSH20 0xFFFFFFFFFFFFFFFFFFFFFFFFFFFFFFFFFFFFFFFF AND DUP2 MSTORE PUSH1 0x20 ADD SWAP1 DUP2 MSTORE PUSH1 0x20 ADD PUSH1 0x0 KECCAK256 SLOAD SWAP1 POP ADDRESS PUSH20 0xFFFFFFFFFFFFFFFFFFFFFFFFFFFFFFFFFFFFFFFF AND DUP3 PUSH20 0xFFFFFFFFFFFFFFFFFFFFFFFFFFFFFFFFFFFFFFFF AND EQ ISZERO DUP1 ISZERO PUSH2 0x369A JUMPI POP DUP9 PUSH20 0xFFFFFFFFFFFFFFFFFFFFFFFFFFFFFFFFFFFFFFFF AND DUP3 PUSH20 0xFFFFFFFFFFFFFFFFFFFFFFFFFFFFFFFFFFFFFFFF AND EQ ISZERO JUMPDEST DUP1 ISZERO PUSH2 0x36D2 JUMPI POP DUP8 PUSH20 0xFFFFFFFFFFFFFFFFFFFFFFFFFFFFFFFFFFFFFFFF AND DUP3 PUSH20 0xFFFFFFFFFFFFFFFFFFFFFFFFFFFFFFFFFFFFFFFF AND EQ ISZERO JUMPDEST DUP1 ISZERO PUSH2 0x36DE JUMPI POP PUSH1 0x0 DUP2 GT JUMPDEST ISZERO PUSH2 0x376E JUMPI DUP2 DUP8 DUP7 DUP2 MLOAD DUP2 LT PUSH2 0x36F7 JUMPI PUSH2 0x36F6 PUSH2 0x4B94 JUMP JUMPDEST JUMPDEST PUSH1 0x20 MUL PUSH1 0x20 ADD ADD SWAP1 PUSH20 0xFFFFFFFFFFFFFFFFFFFFFFFFFFFFFFFFFFFFFFFF AND SWAP1 DUP2 PUSH20 0xFFFFFFFFFFFFFFFFFFFFFFFFFFFFFFFFFFFFFFFF AND DUP2 MSTORE POP POP DUP1 DUP7 DUP7 DUP2 MLOAD DUP2 LT PUSH2 0x3745 JUMPI PUSH2 0x3744 PUSH2 0x4B94 JUMP JUMPDEST JUMPDEST PUSH1 0x20 MUL PUSH1 0x20 ADD ADD DUP2 DUP2 MSTORE POP POP DUP1 DUP5 PUSH2 0x375D SWAP2 SWAP1 PUSH2 0x4290 JUMP JUMPDEST SWAP4 POP DUP5 DUP1 PUSH2 0x376A SWAP1 PUSH2 0x44AA JUMP JUMPDEST SWAP6 POP POP JUMPDEST POP POP DUP1 DUP1 PUSH1 0x1 ADD SWAP2 POP POP PUSH2 0x359E JUMP JUMPDEST POP SWAP3 SWAP6 SWAP2 SWAP5 POP SWAP3 POP JUMP JUMPDEST PUSH1 0x0 DUP1 PUSH1 0xB PUSH1 0x0 DUP6 DUP2 MSTORE PUSH1 0x20 ADD SWAP1 DUP2 MSTORE PUSH1 0x20 ADD PUSH1 0x0 KECCAK256 SWAP1 POP PUSH1 0x0 JUMPDEST DUP2 PUSH1 0x5 ADD DUP1 SLOAD SWAP1 POP DUP2 LT ISZERO PUSH2 0x383C JUMPI DUP4 PUSH20 0xFFFFFFFFFFFFFFFFFFFFFFFFFFFFFFFFFFFFFFFF AND DUP3 PUSH1 0x5 ADD DUP3 DUP2 SLOAD DUP2 LT PUSH2 0x37DE JUMPI PUSH2 0x37DD PUSH2 0x4B94 JUMP JUMPDEST JUMPDEST SWAP1 PUSH1 0x0 MSTORE PUSH1 0x20 PUSH1 0x0 KECCAK256 ADD PUSH1 0x0 SWAP1 SLOAD SWAP1 PUSH2 0x100 EXP SWAP1 DIV PUSH20 0xFFFFFFFFFFFFFFFFFFFFFFFFFFFFFFFFFFFFFFFF AND PUSH20 0xFFFFFFFFFFFFFFFFFFFFFFFFFFFFFFFFFFFFFFFF AND SUB PUSH2 0x382F JUMPI PUSH1 0x1 SWAP3 POP POP POP PUSH2 0x3843 JUMP JUMPDEST DUP1 DUP1 PUSH1 0x1 ADD SWAP2 POP POP PUSH2 0x37A2 JUMP JUMPDEST POP PUSH1 0x0 SWAP2 POP POP JUMPDEST SWAP3 SWAP2 POP POP JUMP JUMPDEST PUSH1 0x0 DUP1 PUSH1 0xB PUSH1 0x0 DUP5 DUP2 MSTORE PUSH1 0x20 ADD SWAP1 DUP2 MSTORE PUSH1 0x20 ADD PUSH1 0x0 KECCAK256 SWAP1 POP PUSH1 0x0 JUMPDEST DUP2 PUSH1 0x5 ADD DUP1 SLOAD SWAP1 POP DUP2 LT ISZERO PUSH2 0x3914 JUMPI PUSH1 0x0 DUP3 PUSH1 0x9 ADD PUSH1 0x0 DUP5 PUSH1 0x5 ADD DUP5 DUP2 SLOAD DUP2 LT PUSH2 0x3891 JUMPI PUSH2 0x3890 PUSH2 0x4B94 JUMP JUMPDEST JUMPDEST SWAP1 PUSH1 0x0 MSTORE PUSH1 0x20 PUSH1 0x0 KECCAK256 ADD PUSH1 0x0 SWAP1 SLOAD SWAP1 PUSH2 0x100 EXP SWAP1 DIV PUSH20 0xFFFFFFFFFFFFFFFFFFFFFFFFFFFFFFFFFFFFFFFF AND PUSH20 0xFFFFFFFFFFFFFFFFFFFFFFFFFFFFFFFFFFFFFFFF AND PUSH20 0xFFFFFFFFFFFFFFFFFFFFFFFFFFFFFFFFFFFFFFFF AND DUP2 MSTORE PUSH1 0x20 ADD SWAP1 DUP2 MSTORE PUSH1 0x20 ADD PUSH1 0x0 KECCAK256 SLOAD SUB PUSH2 0x3907 JUMPI PUSH1 0x0 SWAP3 POP POP POP PUSH2 0x391B JUMP JUMPDEST DUP1 DUP1 PUSH1 0x1 ADD SWAP2 POP POP PUSH2 0x3864 JUMP JUMPDEST POP PUSH1 0x1 SWAP2 POP POP JUMPDEST SWAP2 SWAP1 POP JUMP JUMPDEST PUSH1 0x0 DUP1 PUSH1 0xB PUSH1 0x0 DUP5 DUP2 MSTORE PUSH1 0x20 ADD SWAP1 DUP2 MSTORE PUSH1 0x20 ADD PUSH1 0x0 KECCAK256 SWAP1 POP PUSH1 0x0 DUP2 PUSH1 0x6 ADD SLOAD SWAP1 POP PUSH1 0x0 DUP3 PUSH1 0x7 ADD SLOAD SWAP1 POP PUSH1 0x0 DUP4 PUSH1 0x8 ADD SLOAD SWAP1 POP PUSH1 0x0 DUP2 DUP4 DUP6 PUSH2 0x3962 SWAP2 SWAP1 PUSH2 0x4290 JUMP JUMPDEST PUSH2 0x396C SWAP2 SWAP1 PUSH2 0x4290 JUMP JUMPDEST SWAP1 POP PUSH1 0x0 DUP2 SUB PUSH2 0x3984 JUMPI PUSH1 0x3 SWAP6 POP POP POP POP POP POP PUSH2 0x39F1 JUMP JUMPDEST PUSH1 0x0 PUSH1 0x64 PUSH1 0x32 DUP4 PUSH2 0x3995 SWAP2 SWAP1 PUSH2 0x4330 JUMP JUMPDEST PUSH2 0x399F SWAP2 SWAP1 PUSH2 0x43A1 JUMP JUMPDEST SWAP1 POP DUP1 DUP6 GT ISZERO PUSH2 0x39B8 JUMPI PUSH1 0x1 SWAP7 POP POP POP POP POP POP POP PUSH2 0x39F1 JUMP JUMPDEST DUP1 DUP5 GT ISZERO PUSH2 0x39CF JUMPI PUSH1 0x2 SWAP7 POP POP POP POP POP POP POP PUSH2 0x39F1 JUMP JUMPDEST DUP1 DUP4 GT ISZERO PUSH2 0x39E6 JUMPI PUSH1 0x3 SWAP7 POP POP POP POP POP POP POP PUSH2 0x39F1 JUMP JUMPDEST PUSH1 0x3 SWAP7 POP POP POP POP POP POP POP JUMPDEST SWAP2 SWAP1 POP JUMP JUMPDEST PUSH1 0x7 PUSH1 0x0 DUP3 PUSH20 0xFFFFFFFFFFFFFFFFFFFFFFFFFFFFFFFFFFFFFFFF AND PUSH20 0xFFFFFFFFFFFFFFFFFFFFFFFFFFFFFFFFFFFFFFFF AND DUP2 MSTORE PUSH1 0x20 ADD SWAP1 DUP2 MSTORE PUSH1 0x20 ADD PUSH1 0x0 KECCAK256 PUSH1 0x0 SWAP1 SLOAD SWAP1 PUSH2 0x100 EXP SWAP1 DIV PUSH1 0xFF AND PUSH2 0x3B03 JUMPI PUSH1 0x1 PUSH1 0x7 PUSH1 0x0 DUP4 PUSH20 0xFFFFFFFFFFFFFFFFFFFFFFFFFFFFFFFFFFFFFFFF AND PUSH20 0xFFFFFFFFFFFFFFFFFFFFFFFFFFFFFFFFFFFFFFFF AND DUP2 MSTORE PUSH1 0x20 ADD SWAP1 DUP2 MSTORE PUSH1 0x20 ADD PUSH1 0x0 KECCAK256 PUSH1 0x0 PUSH2 0x100 EXP DUP2 SLOAD DUP2 PUSH1 0xFF MUL NOT AND SWAP1 DUP4 ISZERO ISZERO MUL OR SWAP1 SSTORE POP PUSH1 0x8 DUP2 SWAP1 DUP1 PUSH1 0x1 DUP2 SLOAD ADD DUP1 DUP3 SSTORE DUP1 SWAP2 POP POP PUSH1 0x1 SWAP1 SUB SWAP1 PUSH1 0x0 MSTORE PUSH1 0x20 PUSH1 0x0 KECCAK256 ADD PUSH1 0x0 SWAP1 SWAP2 SWAP1 SWAP2 SWAP1 SWAP2 PUSH2 0x100 EXP DUP2 SLOAD DUP2 PUSH20 0xFFFFFFFFFFFFFFFFFFFFFFFFFFFFFFFFFFFFFFFF MUL NOT AND SWAP1 DUP4 PUSH20 0xFFFFFFFFFFFFFFFFFFFFFFFFFFFFFFFFFFFFFFFF AND MUL OR SWAP1 SSTORE POP JUMPDEST POP JUMP JUMPDEST PUSH1 0x0 DUP1 REVERT JUMPDEST PUSH1 0x0 DUP2 SWAP1 POP SWAP2 SWAP1 POP JUMP JUMPDEST PUSH2 0x3B1E DUP2 PUSH2 0x3B0B JUMP JUMPDEST DUP2 EQ PUSH2 0x3B29 JUMPI PUSH1 0x0 DUP1 REVERT JUMPDEST POP JUMP JUMPDEST PUSH1 0x0 DUP2 CALLDATALOAD SWAP1 POP PUSH2 0x3B3B DUP2 PUSH2 0x3B15 JUMP JUMPDEST SWAP3 SWAP2 POP POP JUMP JUMPDEST PUSH1 0x0 PUSH1 0x20 DUP3 DUP5 SUB SLT ISZERO PUSH2 0x3B57 JUMPI PUSH2 0x3B56 PUSH2 0x3B06 JUMP JUMPDEST JUMPDEST PUSH1 0x0 PUSH2 0x3B65 DUP5 DUP3 DUP6 ADD PUSH2 0x3B2C JUMP JUMPDEST SWAP2 POP POP SWAP3 SWAP2 POP POP JUMP JUMPDEST PUSH2 0x3B77 DUP2 PUSH2 0x3B0B JUMP JUMPDEST DUP3 MSTORE POP POP JUMP JUMPDEST PUSH1 0x0 PUSH1 0x20 DUP3 ADD SWAP1 POP PUSH2 0x3B92 PUSH1 0x0 DUP4 ADD DUP5 PUSH2 0x3B6E JUMP JUMPDEST SWAP3 SWAP2 POP POP JUMP JUMPDEST PUSH1 0x0 PUSH20 0xFFFFFFFFFFFFFFFFFFFFFFFFFFFFFFFFFFFFFFFF DUP3 AND SWAP1 POP SWAP2 SWAP1 POP JUMP JUMPDEST PUSH1 0x0 PUSH2 0x3BC3 DUP3 PUSH2 0x3B98 JUMP JUMPDEST SWAP1 POP SWAP2 SWAP1 POP JUMP JUMPDEST PUSH2 0x3BD3 DUP2 PUSH2 0x3BB8 JUMP JUMPDEST DUP3 MSTORE POP POP JUMP JUMPDEST PUSH1 0x0 PUSH1 0x20 DUP3 ADD SWAP1 POP PUSH2 0x3BEE PUSH1 0x0 DUP4 ADD DUP5 PUSH2 0x3BCA JUMP JUMPDEST SWAP3 SWAP2 POP POP JUMP JUMPDEST PUSH1 0x0 DUP2 MLOAD SWAP1 POP SWAP2 SWAP1 POP JUMP JUMPDEST PUSH1 0x0 DUP3 DUP3 MSTORE PUSH1 0x20 DUP3 ADD SWAP1 POP SWAP3 SWAP2 POP POP JUMP JUMPDEST PUSH1 0x0 DUP2 SWAP1 POP PUSH1 0x20 DUP3 ADD SWAP1 POP SWAP2 SWAP1 POP JUMP JUMPDEST PUSH2 0x3C29 DUP2 PUSH2 0x3BB8 JUMP JUMPDEST DUP3 MSTORE POP POP JUMP JUMPDEST PUSH1 0x0 PUSH2 0x3C3B DUP4 DUP4 PUSH2 0x3C20 JUMP JUMPDEST PUSH1 0x20 DUP4 ADD SWAP1 POP SWAP3 SWAP2 POP POP JUMP JUMPDEST PUSH1 0x0 PUSH1 0x20 DUP3 ADD SWAP1 POP SWAP2 SWAP1 POP JUMP JUMPDEST PUSH1 0x0 PUSH2 0x3C5F DUP3 PUSH2 0x3BF4 JUMP JUMPDEST PUSH2 0x3C69 DUP2 DUP6 PUSH2 0x3BFF JUMP JUMPDEST SWAP4 POP PUSH2 0x3C74 DUP4 PUSH2 0x3C10 JUMP JUMPDEST DUP1 PUSH1 0x0 JUMPDEST DUP4 DUP2 LT ISZERO PUSH2 0x3CA5 JUMPI DUP2 MLOAD PUSH2 0x3C8C DUP9 DUP3 PUSH2 0x3C2F JUMP JUMPDEST SWAP8 POP PUSH2 0x3C97 DUP4 PUSH2 0x3C47 JUMP JUMPDEST SWAP3 POP POP PUSH1 0x1 DUP2 ADD SWAP1 POP PUSH2 0x3C78 JUMP JUMPDEST POP DUP6 SWAP4 POP POP POP POP SWAP3 SWAP2 POP POP JUMP JUMPDEST PUSH1 0x0 PUSH1 0x20 DUP3 ADD SWAP1 POP DUP2 DUP2 SUB PUSH1 0x0 DUP4 ADD MSTORE PUSH2 0x3CCC DUP2 DUP5 PUSH2 0x3C54 JUMP JUMPDEST SWAP1 POP SWAP3 SWAP2 POP POP JUMP JUMPDEST PUSH2 0x3CDD DUP2 PUSH2 0x3BB8 JUMP JUMPDEST DUP2 EQ PUSH2 0x3CE8 JUMPI PUSH1 0x0 DUP1 REVERT JUMPDEST POP JUMP JUMPDEST PUSH1 0x0 DUP2 CALLDATALOAD SWAP1 POP PUSH2 0x3CFA DUP2 PUSH2 0x3CD4 JUMP JUMPDEST SWAP3 SWAP2 POP POP JUMP JUMPDEST PUSH1 0x0 DUP1 PUSH1 0x40 DUP4 DUP6 SUB SLT ISZERO PUSH2 0x3D17 JUMPI PUSH2 0x3D16 PUSH2 0x3B06 JUMP JUMPDEST JUMPDEST PUSH1 0x0 PUSH2 0x3D25 DUP6 DUP3 DUP7 ADD PUSH2 0x3B2C JUMP JUMPDEST SWAP3 POP POP PUSH1 0x20 PUSH2 0x3D36 DUP6 DUP3 DUP7 ADD PUSH2 0x3CEB JUMP JUMPDEST SWAP2 POP POP SWAP3 POP SWAP3 SWAP1 POP JUMP JUMPDEST PUSH1 0x0 DUP2 ISZERO ISZERO SWAP1 POP SWAP2 SWAP1 POP JUMP JUMPDEST PUSH2 0x3D55 DUP2 PUSH2 0x3D40 JUMP JUMPDEST DUP3 MSTORE POP POP JUMP JUMPDEST PUSH32 0x4E487B7100000000000000000000000000000000000000000000000000000000 PUSH1 0x0 MSTORE PUSH1 0x21 PUSH1 0x4 MSTORE PUSH1 0x24 PUSH1 0x0 REVERT JUMPDEST PUSH1 0x4 DUP2 LT PUSH2 0x3D9B JUMPI PUSH2 0x3D9A PUSH2 0x3D5B JUMP JUMPDEST JUMPDEST POP JUMP JUMPDEST PUSH1 0x0 DUP2 SWAP1 POP PUSH2 0x3DAC DUP3 PUSH2 0x3D8A JUMP JUMPDEST SWAP2 SWAP1 POP JUMP JUMPDEST PUSH1 0x0 PUSH2 0x3DBC DUP3 PUSH2 0x3D9E JUMP JUMPDEST SWAP1 POP SWAP2 SWAP1 POP JUMP JUMPDEST PUSH2 0x3DCC DUP2 PUSH2 0x3DB1 JUMP JUMPDEST DUP3 MSTORE POP POP JUMP JUMPDEST PUSH1 0x0 PUSH1 0x40 DUP3 ADD SWAP1 POP PUSH2 0x3DE7 PUSH1 0x0 DUP4 ADD DUP6 PUSH2 0x3D4C JUMP JUMPDEST PUSH2 0x3DF4 PUSH1 0x20 DUP4 ADD DUP5 PUSH2 0x3DC3 JUMP JUMPDEST SWAP4 SWAP3 POP POP POP JUMP JUMPDEST PUSH1 0x0 PUSH1 0xC0 DUP3 ADD SWAP1 POP PUSH2 0x3E10 PUSH1 0x0 DUP4 ADD DUP10 PUSH2 0x3B6E JUMP JUMPDEST PUSH2 0x3E1D PUSH1 0x20 DUP4 ADD DUP9 PUSH2 0x3B6E JUMP JUMPDEST PUSH2 0x3E2A PUSH1 0x40 DUP4 ADD DUP8 PUSH2 0x3B6E JUMP JUMPDEST PUSH2 0x3E37 PUSH1 0x60 DUP4 ADD DUP7 PUSH2 0x3B6E JUMP JUMPDEST PUSH2 0x3E44 PUSH1 0x80 DUP4 ADD DUP6 PUSH2 0x3BCA JUMP JUMPDEST PUSH2 0x3E51 PUSH1 0xA0 DUP4 ADD DUP5 PUSH2 0x3D4C JUMP JUMPDEST SWAP8 SWAP7 POP POP POP POP POP POP POP JUMP JUMPDEST PUSH1 0x0 PUSH1 0x20 DUP3 DUP5 SUB SLT ISZERO PUSH2 0x3E72 JUMPI PUSH2 0x3E71 PUSH2 0x3B06 JUMP JUMPDEST JUMPDEST PUSH1 0x0 PUSH2 0x3E80 DUP5 DUP3 DUP6 ADD PUSH2 0x3CEB JUMP JUMPDEST SWAP2 POP POP SWAP3 SWAP2 POP POP JUMP JUMPDEST PUSH1 0x0 DUP1 PUSH1 0x40 DUP4 DUP6 SUB SLT ISZERO PUSH2 0x3EA0 JUMPI PUSH2 0x3E9F PUSH2 0x3B06 JUMP JUMPDEST JUMPDEST PUSH1 0x0 PUSH2 0x3EAE DUP6 DUP3 DUP7 ADD PUSH2 0x3B2C JUMP JUMPDEST SWAP3 POP POP PUSH1 0x20 PUSH2 0x3EBF DUP6 DUP3 DUP7 ADD PUSH2 0x3B2C JUMP JUMPDEST SWAP2 POP POP SWAP3 POP SWAP3 SWAP1 POP JUMP JUMPDEST PUSH1 0x0 PUSH1 0x60 DUP3 ADD SWAP1 POP PUSH2 0x3EDE PUSH1 0x0 DUP4 ADD DUP7 PUSH2 0x3B6E JUMP JUMPDEST PUSH2 0x3EEB PUSH1 0x20 DUP4 ADD DUP6 PUSH2 0x3B6E JUMP JUMPDEST PUSH2 0x3EF8 PUSH1 0x40 DUP4 ADD DUP5 PUSH2 0x3B6E JUMP JUMPDEST SWAP5 SWAP4 POP POP POP POP JUMP JUMPDEST PUSH1 0x4 DUP2 LT PUSH2 0x3F0D JUMPI PUSH1 0x0 DUP1 REVERT JUMPDEST POP JUMP JUMPDEST PUSH1 0x0 DUP2 CALLDATALOAD SWAP1 POP PUSH2 0x3F1F DUP2 PUSH2 0x3F00 JUMP JUMPDEST SWAP3 SWAP2 POP POP JUMP JUMPDEST PUSH1 0x0 DUP1 PUSH1 0x40 DUP4 DUP6 SUB SLT ISZERO PUSH2 0x3F3C JUMPI PUSH2 0x3F3B PUSH2 0x3B06 JUMP JUMPDEST JUMPDEST PUSH1 0x0 PUSH2 0x3F4A DUP6 DUP3 DUP7 ADD PUSH2 0x3B2C JUMP JUMPDEST SWAP3 POP POP PUSH1 0x20 PUSH2 0x3F5B DUP6 DUP3 DUP7 ADD PUSH2 0x3F10 JUMP JUMPDEST SWAP2 POP POP SWAP3 POP SWAP3 SWAP1 POP JUMP JUMPDEST PUSH1 0x0 PUSH1 0x20 DUP3 ADD SWAP1 POP PUSH2 0x3F7A PUSH1 0x0 DUP4 ADD DUP5 PUSH2 0x3D4C JUMP JUMPDEST SWAP3 SWAP2 POP POP JUMP JUMPDEST PUSH1 0x0 DUP1 PUSH1 0x0 PUSH1 0x60 DUP5 DUP7 SUB SLT ISZERO PUSH2 0x3F99 JUMPI PUSH2 0x3F98 PUSH2 0x3B06 JUMP JUMPDEST JUMPDEST PUSH1 0x0 PUSH2 0x3FA7 DUP7 DUP3 DUP8 ADD PUSH2 0x3CEB JUMP JUMPDEST SWAP4 POP POP PUSH1 0x20 PUSH2 0x3FB8 DUP7 DUP3 DUP8 ADD PUSH2 0x3B2C JUMP JUMPDEST SWAP3 POP POP PUSH1 0x40 PUSH2 0x3FC9 DUP7 DUP3 DUP8 ADD PUSH2 0x3B2C JUMP JUMPDEST SWAP2 POP POP SWAP3 POP SWAP3 POP SWAP3 JUMP JUMPDEST PUSH1 0x0 DUP1 PUSH1 0x40 DUP4 DUP6 SUB SLT ISZERO PUSH2 0x3FEA JUMPI PUSH2 0x3FE9 PUSH2 0x3B06 JUMP JUMPDEST JUMPDEST PUSH1 0x0 PUSH2 0x3FF8 DUP6 DUP3 DUP7 ADD PUSH2 0x3CEB JUMP JUMPDEST SWAP3 POP POP PUSH1 0x20 PUSH2 0x4009 DUP6 DUP3 DUP7 ADD PUSH2 0x3B2C JUMP JUMPDEST SWAP2 POP POP SWAP3 POP SWAP3 SWAP1 POP JUMP JUMPDEST PUSH2 0x401C DUP2 PUSH2 0x3D40 JUMP JUMPDEST DUP2 EQ PUSH2 0x4027 JUMPI PUSH1 0x0 DUP1 REVERT JUMPDEST POP JUMP JUMPDEST PUSH1 0x0 DUP2 CALLDATALOAD SWAP1 POP PUSH2 0x4039 DUP2 PUSH2 0x4013 JUMP JUMPDEST SWAP3 SWAP2 POP POP JUMP JUMPDEST PUSH1 0x0 DUP1 PUSH1 0x40 DUP4 DUP6 SUB SLT ISZERO PUSH2 0x4056 JUMPI PUSH2 0x4055 PUSH2 0x3B06 JUMP JUMPDEST JUMPDEST PUSH1 0x0 PUSH2 0x4064 DUP6 DUP3 DUP7 ADD PUSH2 0x3B2C JUMP JUMPDEST SWAP3 POP POP PUSH1 0x20 PUSH2 0x4075 DUP6 DUP3 DUP7 ADD PUSH2 0x402A JUMP JUMPDEST SWAP2 POP POP SWAP3 POP SWAP3 SWAP1 POP JUMP JUMPDEST PUSH1 0x0 PUSH2 0x120 DUP3 ADD SWAP1 POP PUSH2 0x4095 PUSH1 0x0 DUP4 ADD DUP13 PUSH2 0x3BCA JUMP JUMPDEST PUSH2 0x40A2 PUSH1 0x20 DUP4 ADD DUP12 PUSH2 0x3BCA JUMP JUMPDEST PUSH2 0x40AF PUSH1 0x40 DUP4 ADD DUP11 PUSH2 0x3B6E JUMP JUMPDEST PUSH2 0x40BC PUSH1 0x60 DUP4 ADD DUP10 PUSH2 0x3B6E JUMP JUMPDEST PUSH2 0x40C9 PUSH1 0x80 DUP4 ADD DUP9 PUSH2 0x3B6E JUMP JUMPDEST PUSH2 0x40D6 PUSH1 0xA0 DUP4 ADD DUP8 PUSH2 0x3B6E JUMP JUMPDEST PUSH2 0x40E3 PUSH1 0xC0 DUP4 ADD DUP7 PUSH2 0x3B6E JUMP JUMPDEST PUSH2 0x40F0 PUSH1 0xE0 DUP4 ADD DUP6 PUSH2 0x3D4C JUMP JUMPDEST PUSH2 0x40FE PUSH2 0x100 DUP4 ADD DUP5 PUSH2 0x3B6E JUMP JUMPDEST SWAP11 SWAP10 POP POP POP POP POP POP POP POP POP POP JUMP JUMPDEST PUSH1 0x0 DUP3 DUP3 MSTORE PUSH1 0x20 DUP3 ADD SWAP1 POP SWAP3 SWAP2 POP POP JUMP JUMPDEST PUSH32 0x50726F706F73616C20646F6573206E6F74206578697374000000000000000000 PUSH1 0x0 DUP3 ADD MSTORE POP JUMP JUMPDEST PUSH1 0x0 PUSH2 0x4153 PUSH1 0x17 DUP4 PUSH2 0x410C JUMP JUMPDEST SWAP2 POP PUSH2 0x415E DUP3 PUSH2 0x411D JUMP JUMPDEST PUSH1 0x20 DUP3 ADD SWAP1 POP SWAP2 SWAP1 POP JUMP JUMPDEST PUSH1 0x0 PUSH1 0x20 DUP3 ADD SWAP1 POP DUP2 DUP2 SUB PUSH1 0x0 DUP4 ADD MSTORE PUSH2 0x4182 DUP2 PUSH2 0x4146 JUMP JUMPDEST SWAP1 POP SWAP2 SWAP1 POP JUMP JUMPDEST PUSH32 0x566F74696E67206E6F7420656E64656400000000000000000000000000000000 PUSH1 0x0 DUP3 ADD MSTORE POP JUMP JUMPDEST PUSH1 0x0 PUSH2 0x41BF PUSH1 0x10 DUP4 PUSH2 0x410C JUMP JUMPDEST SWAP2 POP PUSH2 0x41CA DUP3 PUSH2 0x4189 JUMP JUMPDEST PUSH1 0x20 DUP3 ADD SWAP1 POP SWAP2 SWAP1 POP JUMP JUMPDEST PUSH1 0x0 PUSH1 0x20 DUP3 ADD SWAP1 POP DUP2 DUP2 SUB PUSH1 0x0 DUP4 ADD MSTORE PUSH2 0x41EE DUP2 PUSH2 0x41B2 JUMP JUMPDEST SWAP1 POP SWAP2 SWAP1 POP JUMP JUMPDEST PUSH32 0x50726F706F73616C20616C726561647920657865637574656400000000000000 PUSH1 0x0 DUP3 ADD MSTORE POP JUMP JUMPDEST PUSH1 0x0 PUSH2 0x422B PUSH1 0x19 DUP4 PUSH2 0x410C JUMP JUMPDEST SWAP2 POP PUSH2 0x4236 DUP3 PUSH2 0x41F5 JUMP JUMPDEST PUSH1 0x20 DUP3 ADD SWAP1 POP SWAP2 SWAP1 POP JUMP JUMPDEST PUSH1 0x0 PUSH1 0x20 DUP3 ADD SWAP1 POP DUP2 DUP2 SUB PUSH1 0x0 DUP4 ADD MSTORE PUSH2 0x425A DUP2 PUSH2 0x421E JUMP JUMPDEST SWAP1 POP SWAP2 SWAP1 POP JUMP JUMPDEST PUSH32 0x4E487B7100000000000000000000000000000000000000000000000000000000 PUSH1 0x0 MSTORE PUSH1 0x11 PUSH1 0x4 MSTORE PUSH1 0x24 PUSH1 0x0 REVERT JUMPDEST PUSH1 0x0 PUSH2 0x429B DUP3 PUSH2 0x3B0B JUMP JUMPDEST SWAP2 POP PUSH2 0x42A6 DUP4 PUSH2 0x3B0B JUMP JUMPDEST SWAP3 POP DUP3 DUP3 ADD SWAP1 POP DUP1 DUP3 GT ISZERO PUSH2 0x42BE JUMPI PUSH2 0x42BD PUSH2 0x4261 JUMP JUMPDEST JUMPDEST SWAP3 SWAP2 POP POP JUMP JUMPDEST PUSH32 0x4E6F20766F746573206361737400000000000000000000000000000000000000 PUSH1 0x0 DUP3 ADD MSTORE POP JUMP JUMPDEST PUSH1 0x0 PUSH2 0x42FA PUSH1 0xD DUP4 PUSH2 0x410C JUMP JUMPDEST SWAP2 POP PUSH2 0x4305 DUP3 PUSH2 0x42C4 JUMP JUMPDEST PUSH1 0x20 DUP3 ADD SWAP1 POP SWAP2 SWAP1 POP JUMP JUMPDEST PUSH1 0x0 PUSH1 0x20 DUP3 ADD SWAP1 POP DUP2 DUP2 SUB PUSH1 0x0 DUP4 ADD MSTORE PUSH2 0x4329 DUP2 PUSH2 0x42ED JUMP JUMPDEST SWAP1 POP SWAP2 SWAP1 POP JUMP JUMPDEST PUSH1 0x0 PUSH2 0x433B DUP3 PUSH2 0x3B0B JUMP JUMPDEST SWAP2 POP PUSH2 0x4346 DUP4 PUSH2 0x3B0B JUMP JUMPDEST SWAP3 POP DUP3 DUP3 MUL PUSH2 0x4354 DUP2 PUSH2 0x3B0B JUMP JUMPDEST SWAP2 POP DUP3 DUP3 DIV DUP5 EQ DUP4 ISZERO OR PUSH2 0x436B JUMPI PUSH2 0x436A PUSH2 0x4261 JUMP JUMPDEST JUMPDEST POP SWAP3 SWAP2 POP POP JUMP JUMPDEST PUSH32 0x4E487B7100000000000000000000000000000000000000000000000000000000 PUSH1 0x0 MSTORE PUSH1 0x12 PUSH1 0x4 MSTORE PUSH1 0x24 PUSH1 0x0 REVERT JUMPDEST PUSH1 0x0 PUSH2 0x43AC DUP3 PUSH2 0x3B0B JUMP JUMPDEST SWAP2 POP PUSH2 0x43B7 DUP4 PUSH2 0x3B0B JUMP JUMPDEST SWAP3 POP DUP3 PUSH2 0x43C7 JUMPI PUSH2 0x43C6 PUSH2 0x4372 JUMP JUMPDEST JUMPDEST DUP3 DUP3 DIV SWAP1 POP SWAP3 SWAP2 POP POP JUMP JUMPDEST PUSH32 0x496E73756666696369656E7420737570706F7274000000000000000000000000 PUSH1 0x0 DUP3 ADD MSTORE POP JUMP JUMPDEST PUSH1 0x0 PUSH2 0x4408 PUSH1 0x14 DUP4 PUSH2 0x410C JUMP JUMPDEST SWAP2 POP PUSH2 0x4413 DUP3 PUSH2 0x43D2 JUMP JUMPDEST PUSH1 0x20 DUP3 ADD SWAP1 POP SWAP2 SWAP1 POP JUMP JUMPDEST PUSH1 0x0 PUSH1 0x20 DUP3 ADD SWAP1 POP DUP2 DUP2 SUB PUSH1 0x0 DUP4 ADD MSTORE PUSH2 0x4437 DUP2 PUSH2 0x43FB JUMP JUMPDEST SWAP1 POP SWAP2 SWAP1 POP JUMP JUMPDEST PUSH32 0x4D696E7420696E74657276616C206E6F74207265616368656400000000000000 PUSH1 0x0 DUP3 ADD MSTORE POP JUMP JUMPDEST PUSH1 0x0 PUSH2 0x4474 PUSH1 0x19 DUP4 PUSH2 0x410C JUMP JUMPDEST SWAP2 POP PUSH2 0x447F DUP3 PUSH2 0x443E JUMP JUMPDEST PUSH1 0x20 DUP3 ADD SWAP1 POP SWAP2 SWAP1 POP JUMP JUMPDEST PUSH1 0x0 PUSH1 0x20 DUP3 ADD SWAP1 POP DUP2 DUP2 SUB PUSH1 0x0 DUP4 ADD MSTORE PUSH2 0x44A3 DUP2 PUSH2 0x4467 JUMP JUMPDEST SWAP1 POP SWAP2 SWAP1 POP JUMP JUMPDEST PUSH1 0x0 PUSH2 0x44B5 DUP3 PUSH2 0x3B0B JUMP JUMPDEST SWAP2 POP PUSH32 0xFFFFFFFFFFFFFFFFFFFFFFFFFFFFFFFFFFFFFFFFFFFFFFFFFFFFFFFFFFFFFFFF DUP3 SUB PUSH2 0x44E7 JUMPI PUSH2 0x44E6 PUSH2 0x4261 JUMP JUMPDEST JUMPDEST PUSH1 0x1 DUP3 ADD SWAP1 POP SWAP2 SWAP1 POP JUMP JUMPDEST PUSH1 0x0 PUSH1 0x40 DUP3 ADD SWAP1 POP PUSH2 0x4507 PUSH1 0x0 DUP4 ADD DUP6 PUSH2 0x3B6E JUMP JUMPDEST PUSH2 0x4514 PUSH1 0x20 DUP4 ADD DUP5 PUSH2 0x3BCA JUMP JUMPDEST SWAP4 SWAP3 POP POP POP JUMP JUMPDEST PUSH32 0x41756374696F6E207374696C6C206F6E676F696E670000000000000000000000 PUSH1 0x0 DUP3 ADD MSTORE POP JUMP JUMPDEST PUSH1 0x0 PUSH2 0x4551 PUSH1 0x15 DUP4 PUSH2 0x410C JUMP JUMPDEST SWAP2 POP PUSH2 0x455C DUP3 PUSH2 0x451B JUMP JUMPDEST PUSH1 0x20 DUP3 ADD SWAP1 POP SWAP2 SWAP1 POP JUMP JUMPDEST PUSH1 0x0 PUSH1 0x20 DUP3 ADD SWAP1 POP DUP2 DUP2 SUB PUSH1 0x0 DUP4 ADD MSTORE PUSH2 0x4580 DUP2 PUSH2 0x4544 JUMP JUMPDEST SWAP1 POP SWAP2 SWAP1 POP JUMP JUMPDEST PUSH32 0x41756374696F6E20616C726561647920736574746C6564000000000000000000 PUSH1 0x0 DUP3 ADD MSTORE POP JUMP JUMPDEST PUSH1 0x0 PUSH2 0x45BD PUSH1 0x17 DUP4 PUSH2 0x410C JUMP JUMPDEST SWAP2 POP PUSH2 0x45C8 DUP3 PUSH2 0x4587 JUMP JUMPDEST PUSH1 0x20 DUP3 ADD SWAP1 POP SWAP2 SWAP1 POP JUMP JUMPDEST PUSH1 0x0 PUSH1 0x20 DUP3 ADD SWAP1 POP DUP2 DUP2 SUB PUSH1 0x0 DUP4 ADD MSTORE PUSH2 0x45EC DUP2 PUSH2 0x45B0 JUMP JUMPDEST SWAP1 POP SWAP2 SWAP1 POP JUMP JUMPDEST PUSH1 0x0 PUSH1 0x60 DUP3 ADD SWAP1 POP PUSH2 0x4608 PUSH1 0x0 DUP4 ADD DUP7 PUSH2 0x3B6E JUMP JUMPDEST PUSH2 0x4615 PUSH1 0x20 DUP4 ADD DUP6 PUSH2 0x3BCA JUMP JUMPDEST PUSH2 0x4622 PUSH1 0x40 DUP4 ADD DUP5 PUSH2 0x3B6E JUMP JUMPDEST SWAP5 SWAP4 POP POP POP POP JUMP JUMPDEST PUSH1 0x0 DUP2 SWAP1 POP SWAP2 SWAP1 POP JUMP JUMPDEST PUSH1 0x0 DUP2 SWAP1 POP SWAP2 SWAP1 POP JUMP JUMPDEST PUSH1 0x0 PUSH2 0x4659 PUSH2 0x4654 PUSH2 0x464F DUP5 PUSH2 0x462A JUMP JUMPDEST PUSH2 0x4634 JUMP JUMPDEST PUSH2 0x3B0B JUMP JUMPDEST SWAP1 POP SWAP2 SWAP1 POP JUMP JUMPDEST PUSH2 0x4669 DUP2 PUSH2 0x463E JUMP JUMPDEST DUP3 MSTORE POP POP JUMP JUMPDEST PUSH1 0x0 PUSH1 0x60 DUP3 ADD SWAP1 POP PUSH2 0x4684 PUSH1 0x0 DUP4 ADD DUP7 PUSH2 0x3B6E JUMP JUMPDEST PUSH2 0x4691 PUSH1 0x20 DUP4 ADD DUP6 PUSH2 0x3BCA JUMP JUMPDEST PUSH2 0x469E PUSH1 0x40 DUP4 ADD DUP5 PUSH2 0x4660 JUMP JUMPDEST SWAP5 SWAP4 POP POP POP POP JUMP JUMPDEST PUSH32 0x41756374696F6E206E6F74207374617274656400000000000000000000000000 PUSH1 0x0 DUP3 ADD MSTORE POP JUMP JUMPDEST PUSH1 0x0 PUSH2 0x46DC PUSH1 0x13 DUP4 PUSH2 0x410C JUMP JUMPDEST SWAP2 POP PUSH2 0x46E7 DUP3 PUSH2 0x46A6 JUMP JUMPDEST PUSH1 0x20 DUP3 ADD SWAP1 POP SWAP2 SWAP1 POP JUMP JUMPDEST PUSH1 0x0 PUSH1 0x20 DUP3 ADD SWAP1 POP DUP2 DUP2 SUB PUSH1 0x0 DUP4 ADD MSTORE PUSH2 0x470B DUP2 PUSH2 0x46CF JUMP JUMPDEST SWAP1 POP SWAP2 SWAP1 POP JUMP JUMPDEST PUSH32 0x41756374696F6E20656E64656400000000000000000000000000000000000000 PUSH1 0x0 DUP3 ADD MSTORE POP JUMP JUMPDEST PUSH1 0x0 PUSH2 0x4748 PUSH1 0xD DUP4 PUSH2 0x410C JUMP JUMPDEST SWAP2 POP PUSH2 0x4753 DUP3 PUSH2 0x4712 JUMP JUMPDEST PUSH1 0x20 DUP3 ADD SWAP1 POP SWAP2 SWAP1 POP JUMP JUMPDEST PUSH1 0x0 PUSH1 0x20 DUP3 ADD SWAP1 POP DUP2 DUP2 SUB PUSH1 0x0 DUP4 ADD MSTORE PUSH2 0x4777 DUP2 PUSH2 0x473B JUMP JUMPDEST SWAP1 POP SWAP2 SWAP1 POP JUMP JUMPDEST PUSH32 0x42696420746F6F206C6F77000000000000000000000000000000000000000000 PUSH1 0x0 DUP3 ADD MSTORE POP JUMP JUMPDEST PUSH1 0x0 PUSH2 0x47B4 PUSH1 0xB DUP4 PUSH2 0x410C JUMP JUMPDEST SWAP2 POP PUSH2 0x47BF DUP3 PUSH2 0x477E JUMP JUMPDEST PUSH1 0x20 DUP3 ADD SWAP1 POP SWAP2 SWAP1 POP JUMP JUMPDEST PUSH1 0x0 PUSH1 0x20 DUP3 ADD SWAP1 POP DUP2 DUP2 SUB PUSH1 0x0 DUP4 ADD MSTORE PUSH2 0x47E3 DUP2 PUSH2 0x47A7 JUMP JUMPDEST SWAP1 POP SWAP2 SWAP1 POP JUMP JUMPDEST PUSH32 0x4469737075746520646F6573206E6F7420657869737400000000000000000000 PUSH1 0x0 DUP3 ADD MSTORE POP JUMP JUMPDEST PUSH1 0x0 PUSH2 0x4820 PUSH1 0x16 DUP4 PUSH2 0x410C JUMP JUMPDEST SWAP2 POP PUSH2 0x482B DUP3 PUSH2 0x47EA JUMP JUMPDEST PUSH1 0x20 DUP3 ADD SWAP1 POP SWAP2 SWAP1 POP JUMP JUMPDEST PUSH1 0x0 PUSH1 0x20 DUP3 ADD SWAP1 POP DUP2 DUP2 SUB PUSH1 0x0 DUP4 ADD MSTORE PUSH2 0x484F DUP2 PUSH2 0x4813 JUMP JUMPDEST SWAP1 POP SWAP2 SWAP1 POP JUMP JUMPDEST PUSH32 0x50616E656C20616C72656164792073656C656374656400000000000000000000 PUSH1 0x0 DUP3 ADD MSTORE POP JUMP JUMPDEST PUSH1 0x0 PUSH2 0x488C PUSH1 0x16 DUP4 PUSH2 0x410C JUMP JUMPDEST SWAP2 POP PUSH2 0x4897 DUP3 PUSH2 0x4856 JUMP JUMPDEST PUSH1 0x20 DUP3 ADD SWAP1 POP SWAP2 SWAP1 POP JUMP JUMPDEST PUSH1 0x0 PUSH1 0x20 DUP3 ADD SWAP1 POP DUP2 DUP2 SUB PUSH1 0x0 DUP4 ADD MSTORE PUSH2 0x48BB DUP2 PUSH2 0x487F JUMP JUMPDEST SWAP1 POP SWAP2 SWAP1 POP JUMP JUMPDEST PUSH32 0x4469737075746520616C7265616479207265736F6C7665640000000000000000 PUSH1 0x0 DUP3 ADD MSTORE POP JUMP JUMPDEST PUSH1 0x0 PUSH2 0x48F8 PUSH1 0x18 DUP4 PUSH2 0x410C JUMP JUMPDEST SWAP2 POP PUSH2 0x4903 DUP3 PUSH2 0x48C2 JUMP JUMPDEST PUSH1 0x20 DUP3 ADD SWAP1 POP SWAP2 SWAP1 POP JUMP JUMPDEST PUSH1 0x0 PUSH1 0x20 DUP3 ADD SWAP1 POP DUP2 DUP2 SUB PUSH1 0x0 DUP4 ADD MSTORE PUSH2 0x4927 DUP2 PUSH2 0x48EB JUMP JUMPDEST SWAP1 POP SWAP2 SWAP1 POP JUMP JUMPDEST PUSH32 0x566F74696E67206475726174696F6E206D757374206265203E20300000000000 PUSH1 0x0 DUP3 ADD MSTORE POP JUMP JUMPDEST PUSH1 0x0 PUSH2 0x4964 PUSH1 0x1B DUP4 PUSH2 0x410C JUMP JUMPDEST SWAP2 POP PUSH2 0x496F DUP3 PUSH2 0x492E JUMP JUMPDEST PUSH1 0x20 DUP3 ADD SWAP1 POP SWAP2 SWAP1 POP JUMP JUMPDEST PUSH1 0x0 PUSH1 0x20 DUP3 ADD SWAP1 POP DUP2 DUP2 SUB PUSH1 0x0 DUP4 ADD MSTORE PUSH2 0x4993 DUP2 PUSH2 0x4957 JUMP JUMPDEST SWAP1 POP SWAP2 SWAP1 POP JUMP JUMPDEST PUSH1 0x0 DUP2 MLOAD SWAP1 POP PUSH2 0x49A9 DUP2 PUSH2 0x3CD4 JUMP JUMPDEST SWAP3 SWAP2 POP POP JUMP JUMPDEST PUSH1 0x0 PUSH1 0x20 DUP3 DUP5 SUB SLT ISZERO PUSH2 0x49C5 JUMPI PUSH2 0x49C4 PUSH2 0x3B06 JUMP JUMPDEST JUMPDEST PUSH1 0x0 PUSH2 0x49D3 DUP5 DUP3 DUP6 ADD PUSH2 0x499A JUMP JUMPDEST SWAP2 POP POP SWAP3 SWAP2 POP POP JUMP JUMPDEST PUSH32 0x4E6F7420656E6F75676820656C696769626C6520686F6C646572730000000000 PUSH1 0x0 DUP3 ADD MSTORE POP JUMP JUMPDEST PUSH1 0x0 PUSH2 0x4A12 PUSH1 0x1B DUP4 PUSH2 0x410C JUMP JUMPDEST SWAP2 POP PUSH2 0x4A1D DUP3 PUSH2 0x49DC JUMP JUMPDEST PUSH1 0x20 DUP3 ADD SWAP1 POP SWAP2 SWAP1 POP JUMP JUMPDEST PUSH1 0x0 PUSH1 0x20 DUP3 ADD SWAP1 POP DUP2 DUP2 SUB PUSH1 0x0 DUP4 ADD MSTORE PUSH2 0x4A41 DUP2 PUSH2 0x4A05 JUMP JUMPDEST SWAP1 POP SWAP2 SWAP1 POP JUMP JUMPDEST PUSH32 0x4E6F20656C696769626C6520686F6C6465727300000000000000000000000000 PUSH1 0x0 DUP3 ADD MSTORE POP JUMP JUMPDEST PUSH1 0x0 PUSH2 0x4A7E PUSH1 0x13 DUP4 PUSH2 0x410C JUMP JUMPDEST SWAP2 POP PUSH2 0x4A89 DUP3 PUSH2 0x4A48 JUMP JUMPDEST PUSH1 0x20 DUP3 ADD SWAP1 POP SWAP2 SWAP1 POP JUMP JUMPDEST PUSH1 0x0 PUSH1 0x20 DUP3 ADD SWAP1 POP DUP2 DUP2 SUB PUSH1 0x0 DUP4 ADD MSTORE PUSH2 0x4AAD DUP2 PUSH2 0x4A71 JUMP JUMPDEST SWAP1 POP SWAP2 SWAP1 POP JUMP JUMPDEST PUSH32 0x4E487B7100000000000000000000000000000000000000000000000000000000 PUSH1 0x0 MSTORE PUSH1 0x41 PUSH1 0x4 MSTORE PUSH1 0x24 PUSH1 0x0 REVERT JUMPDEST PUSH1 0x0 DUP2 SWAP1 POP SWAP2 SWAP1 POP JUMP JUMPDEST PUSH2 0x4AFE PUSH2 0x4AF9 DUP3 PUSH2 0x3B0B JUMP JUMPDEST PUSH2 0x4AE3 JUMP JUMPDEST DUP3 MSTORE POP POP JUMP JUMPDEST PUSH1 0x0 PUSH2 0x4B10 DUP3 DUP9 PUSH2 0x4AED JUMP JUMPDEST PUSH1 0x20 DUP3 ADD SWAP2 POP PUSH2 0x4B20 DUP3 DUP8 PUSH2 0x4AED JUMP JUMPDEST PUSH1 0x20 DUP3 ADD SWAP2 POP PUSH2 0x4B30 DUP3 DUP7 PUSH2 0x4AED JUMP JUMPDEST PUSH1 0x20 DUP3 ADD SWAP2 POP PUSH2 0x4B40 DUP3 DUP6 PUSH2 0x4AED JUMP JUMPDEST PUSH1 0x20 DUP3 ADD SWAP2 POP PUSH2 0x4B50 DUP3 DUP5 PUSH2 0x4AED JUMP JUMPDEST PUSH1 0x20 DUP3 ADD SWAP2 POP DUP2 SWAP1 POP SWAP7 SWAP6 POP POP POP POP POP POP JUMP JUMPDEST PUSH1 0x0 PUSH2 0x4B6E DUP3 PUSH2 0x3B0B JUMP JUMPDEST SWAP2 POP PUSH2 0x4B79 DUP4 PUSH2 0x3B0B JUMP JUMPDEST SWAP3 POP DUP3 PUSH2 0x4B89 JUMPI PUSH2 0x4B88 PUSH2 0x4372 JUMP JUMPDEST JUMPDEST DUP3 DUP3 MOD SWAP1 POP SWAP3 SWAP2 POP POP JUMP JUMPDEST PUSH32 0x4E487B7100000000000000000000000000000000000000000000000000000000 PUSH1 0x0 MSTORE PUSH1 0x32 PUSH1 0x4 MSTORE PUSH1 0x24 PUSH1 0x0 REVERT JUMPDEST PUSH32 0x4A75726F722073656C656374696F6E206661696C656400000000000000000000 PUSH1 0x0 DUP3 ADD MSTORE POP JUMP JUMPDEST PUSH1 0x0 PUSH2 0x4BF9 PUSH1 0x16 DUP4 PUSH2 0x410C JUMP JUMPDEST SWAP2 POP PUSH2 0x4C04 DUP3 PUSH2 0x4BC3 JUMP JUMPDEST PUSH1 0x20 DUP3 ADD SWAP1 POP SWAP2 SWAP1 POP JUMP JUMPDEST PUSH1 0x0 PUSH1 0x20 DUP3 ADD SWAP1 POP DUP2 DUP2 SUB PUSH1 0x0 DUP4 ADD MSTORE PUSH2 0x4C28 DUP2 PUSH2 0x4BEC JUMP JUMPDEST SWAP1 POP SWAP2 SWAP1 POP JUMP JUMPDEST PUSH1 0x0 PUSH2 0x4C3A DUP3 PUSH2 0x3B0B JUMP JUMPDEST SWAP2 POP PUSH2 0x4C45 DUP4 PUSH2 0x3B0B JUMP JUMPDEST SWAP3 POP DUP3 DUP3 SUB SWAP1 POP DUP2 DUP2 GT ISZERO PUSH2 0x4C5D JUMPI PUSH2 0x4C5C PUSH2 0x4261 JUMP JUMPDEST JUMPDEST SWAP3 SWAP2 POP POP JUMP JUMPDEST PUSH32 0x50616E656C206E6F742073656C65637465640000000000000000000000000000 PUSH1 0x0 DUP3 ADD MSTORE POP JUMP JUMPDEST PUSH1 0x0 PUSH2 0x4C99 PUSH1 0x12 DUP4 PUSH2 0x410C JUMP JUMPDEST SWAP2 POP PUSH2 0x4CA4 DUP3 PUSH2 0x4C63 JUMP JUMPDEST PUSH1 0x20 DUP3 ADD SWAP1 POP SWAP2 SWAP1 POP JUMP JUMPDEST PUSH1 0x0 PUSH1 0x20 DUP3 ADD SWAP1 POP DUP2 DUP2 SUB PUSH1 0x0 DUP4 ADD MSTORE PUSH2 0x4CC8 DUP2 PUSH2 0x4C8C JUMP JUMPDEST SWAP1 POP SWAP2 SWAP1 POP JUMP JUMPDEST PUSH32 0x566F74696E6720656E6465640000000000000000000000000000000000000000 PUSH1 0x0 DUP3 ADD MSTORE POP JUMP JUMPDEST PUSH1 0x0 PUSH2 0x4D05 PUSH1 0xC DUP4 PUSH2 0x410C JUMP JUMPDEST SWAP2 POP PUSH2 0x4D10 DUP3 PUSH2 0x4CCF JUMP JUMPDEST PUSH1 0x20 DUP3 ADD SWAP1 POP SWAP2 SWAP1 POP JUMP JUMPDEST PUSH1 0x0 PUSH1 0x20 DUP3 ADD SWAP1 POP DUP2 DUP2 SUB PUSH1 0x0 DUP4 ADD MSTORE PUSH2 0x4D34 DUP2 PUSH2 0x4CF8 JUMP JUMPDEST SWAP1 POP SWAP2 SWAP1 POP JUMP JUMPDEST PUSH32 0x496E76616C696420766F74650000000000000000000000000000000000000000 PUSH1 0x0 DUP3 ADD MSTORE POP JUMP JUMPDEST PUSH1 0x0 PUSH2 0x4D71 PUSH1 0xC DUP4 PUSH2 0x410C JUMP JUMPDEST SWAP2 POP PUSH2 0x4D7C DUP3 PUSH2 0x4D3B JUMP JUMPDEST PUSH1 0x20 DUP3 ADD SWAP1 POP SWAP2 SWAP1 POP JUMP JUMPDEST PUSH1 0x0 PUSH1 0x20 DUP3 ADD SWAP1 POP DUP2 DUP2 SUB PUSH1 0x0 DUP4 ADD MSTORE PUSH2 0x4DA0 DUP2 PUSH2 0x4D64 JUMP JUMPDEST SWAP1 POP SWAP2 SWAP1 POP JUMP JUMPDEST PUSH32 0x4E6F742073656C6563746564206A75726F720000000000000000000000000000 PUSH1 0x0 DUP3 ADD MSTORE POP JUMP JUMPDEST PUSH1 0x0 PUSH2 0x4DDD PUSH1 0x12 DUP4 PUSH2 0x410C JUMP JUMPDEST SWAP2 POP PUSH2 0x4DE8 DUP3 PUSH2 0x4DA7 JUMP JUMPDEST PUSH1 0x20 DUP3 ADD SWAP1 POP SWAP2 SWAP1 POP JUMP JUMPDEST PUSH1 0x0 PUSH1 0x20 DUP3 ADD SWAP1 POP DUP2 DUP2 SUB PUSH1 0x0 DUP4 ADD MSTORE PUSH2 0x4E0C DUP2 PUSH2 0x4DD0 JUMP JUMPDEST SWAP1 POP SWAP2 SWAP1 POP JUMP JUMPDEST PUSH32 0x416C726561647920766F74656400000000000000000000000000000000000000 PUSH1 0x0 DUP3 ADD MSTORE POP JUMP JUMPDEST PUSH1 0x0 PUSH2 0x4E49 PUSH1 0xD DUP4 PUSH2 0x410C JUMP JUMPDEST SWAP2 POP PUSH2 0x4E54 DUP3 PUSH2 0x4E13 JUMP JUMPDEST PUSH1 0x20 DUP3 ADD SWAP1 POP SWAP2 SWAP1 POP JUMP JUMPDEST PUSH1 0x0 PUSH1 0x20 DUP3 ADD SWAP1 POP DUP2 DUP2 SUB PUSH1 0x0 DUP4 ADD MSTORE PUSH2 0x4E78 DUP2 PUSH2 0x4E3C JUMP JUMPDEST SWAP1 POP SWAP2 SWAP1 POP JUMP JUMPDEST PUSH32 0x4E6F20766F74696E6720706F7765720000000000000000000000000000000000 PUSH1 0x0 DUP3 ADD MSTORE POP JUMP JUMPDEST PUSH1 0x0 PUSH2 0x4EB5 PUSH1 0xF DUP4 PUSH2 0x410C JUMP JUMPDEST SWAP2 POP PUSH2 0x4EC0 DUP3 PUSH2 0x4E7F JUMP JUMPDEST PUSH1 0x20 DUP3 ADD SWAP1 POP SWAP2 SWAP1 POP JUMP JUMPDEST PUSH1 0x0 PUSH1 0x20 DUP3 ADD SWAP1 POP DUP2 DUP2 SUB PUSH1 0x0 DUP4 ADD MSTORE PUSH2 0x4EE4 DUP2 PUSH2 0x4EA8 JUMP JUMPDEST SWAP1 POP SWAP2 SWAP1 POP JUMP JUMPDEST PUSH1 0x0 PUSH1 0x60 DUP3 ADD SWAP1 POP PUSH2 0x4F00 PUSH1 0x0 DUP4 ADD DUP7 PUSH2 0x3B6E JUMP JUMPDEST PUSH2 0x4F0D PUSH1 0x20 DUP4 ADD DUP6 PUSH2 0x3BCA JUMP JUMPDEST PUSH2 0x4F1A PUSH1 0x40 DUP4 ADD DUP5 PUSH2 0x3DC3 JUMP JUMPDEST SWAP5 SWAP4 POP POP POP POP JUMP JUMPDEST PUSH32 0x496E76616C696420636F6D6D697373696F6E0000000000000000000000000000 PUSH1 0x0 DUP3 ADD MSTORE POP JUMP JUMPDEST PUSH1 0x0 PUSH2 0x4F58 PUSH1 0x12 DUP4 PUSH2 0x410C JUMP JUMPDEST SWAP2 POP PUSH2 0x4F63 DUP3 PUSH2 0x4F22 JUMP JUMPDEST PUSH1 0x20 DUP3 ADD SWAP1 POP SWAP2 SWAP1 POP JUMP JUMPDEST PUSH1 0x0 PUSH1 0x20 DUP3 ADD SWAP1 POP DUP2 DUP2 SUB PUSH1 0x0 DUP4 ADD MSTORE PUSH2 0x4F87 DUP2 PUSH2 0x4F4B JUMP JUMPDEST SWAP1 POP SWAP2 SWAP1 POP JUMP JUMPDEST PUSH32 0x50616E656C2073697A65206D757374206265203E203000000000000000000000 PUSH1 0x0 DUP3 ADD MSTORE POP JUMP JUMPDEST PUSH1 0x0 PUSH2 0x4FC4 PUSH1 0x16 DUP4 PUSH2 0x410C JUMP JUMPDEST SWAP2 POP PUSH2 0x4FCF DUP3 PUSH2 0x4F8E JUMP JUMPDEST PUSH1 0x20 DUP3 ADD SWAP1 POP SWAP2 SWAP1 POP JUMP JUMPDEST PUSH1 0x0 PUSH1 0x20 DUP3 ADD SWAP1 POP DUP2 DUP2 SUB PUSH1 0x0 DUP4 ADD MSTORE PUSH2 0x4FF3 DUP2 PUSH2 0x4FB7 JUMP JUMPDEST SWAP1 POP SWAP2 SWAP1 POP JUMP JUMPDEST PUSH32 0x436F6D6D697373696F6E20616C72656164792068617320616374697665206469 PUSH1 0x0 DUP3 ADD MSTORE PUSH32 0x7370757465000000000000000000000000000000000000000000000000000000 PUSH1 0x20 DUP3 ADD MSTORE POP JUMP JUMPDEST PUSH1 0x0 PUSH2 0x5056 PUSH1 0x25 DUP4 PUSH2 0x410C JUMP JUMPDEST SWAP2 POP PUSH2 0x5061 DUP3 PUSH2 0x4FFA JUMP JUMPDEST PUSH1 0x40 DUP3 ADD SWAP1 POP SWAP2 SWAP1 POP JUMP JUMPDEST PUSH1 0x0 PUSH1 0x20 DUP3 ADD SWAP1 POP DUP2 DUP2 SUB PUSH1 0x0 DUP4 ADD MSTORE PUSH2 0x5085 DUP2 PUSH2 0x5049 JUMP JUMPDEST SWAP1 POP SWAP2 SWAP1 POP JUMP JUMPDEST PUSH32 0x4E6F74206F776E65720000000000000000000000000000000000000000000000 PUSH1 0x0 DUP3 ADD MSTORE POP JUMP JUMPDEST PUSH1 0x0 PUSH2 0x50C2 PUSH1 0x9 DUP4 PUSH2 0x410C JUMP JUMPDEST SWAP2 POP PUSH2 0x50CD DUP3 PUSH2 0x508C JUMP JUMPDEST PUSH1 0x20 DUP3 ADD SWAP1 POP SWAP2 SWAP1 POP JUMP JUMPDEST PUSH1 0x0 PUSH1 0x20 DUP3 ADD SWAP1 POP DUP2 DUP2 SUB PUSH1 0x0 DUP4 ADD MSTORE PUSH2 0x50F1 DUP2 PUSH2 0x50B5 JUMP JUMPDEST SWAP1 POP SWAP2 SWAP1 POP JUMP JUMPDEST PUSH32 0x496E76616C696420726563697069656E74000000000000000000000000000000 PUSH1 0x0 DUP3 ADD MSTORE POP JUMP JUMPDEST PUSH1 0x0 PUSH2 0x512E PUSH1 0x11 DUP4 PUSH2 0x410C JUMP JUMPDEST SWAP2 POP PUSH2 0x5139 DUP3 PUSH2 0x50F8 JUMP JUMPDEST PUSH1 0x20 DUP3 ADD SWAP1 POP SWAP2 SWAP1 POP JUMP JUMPDEST PUSH1 0x0 PUSH1 0x20 DUP3 ADD SWAP1 POP DUP2 DUP2 SUB PUSH1 0x0 DUP4 ADD MSTORE PUSH2 0x515D DUP2 PUSH2 0x5121 JUMP JUMPDEST SWAP1 POP SWAP2 SWAP1 POP JUMP JUMPDEST PUSH1 0x0 PUSH1 0x80 DUP3 ADD SWAP1 POP PUSH2 0x5179 PUSH1 0x0 DUP4 ADD DUP8 PUSH2 0x3B6E JUMP JUMPDEST PUSH2 0x5186 PUSH1 0x20 DUP4 ADD DUP7 PUSH2 0x3BCA JUMP JUMPDEST PUSH2 0x5193 PUSH1 0x40 DUP4 ADD DUP6 PUSH2 0x3D4C JUMP JUMPDEST PUSH2 0x51A0 PUSH1 0x60 DUP4 ADD DUP5 PUSH2 0x3B6E JUMP JUMPDEST SWAP6 SWAP5 POP POP POP POP POP JUMP JUMPDEST PUSH32 0x416C7265616479207265736F6C76656400000000000000000000000000000000 PUSH1 0x0 DUP3 ADD MSTORE POP JUMP JUMPDEST PUSH1 0x0 PUSH2 0x51DF PUSH1 0x10 DUP4 PUSH2 0x410C JUMP JUMPDEST SWAP2 POP PUSH2 0x51EA DUP3 PUSH2 0x51A9 JUMP JUMPDEST PUSH1 0x20 DUP3 ADD SWAP1 POP SWAP2 SWAP1 POP JUMP JUMPDEST PUSH1 0x0 PUSH1 0x20 DUP3 ADD SWAP1 POP DUP2 DUP2 SUB PUSH1 0x0 DUP4 ADD MSTORE PUSH2 0x520E DUP2 PUSH2 0x51D2 JUMP JUMPDEST SWAP1 POP SWAP2 SWAP1 POP JUMP JUMPDEST PUSH32 0x566F74696E67207374696C6C2061637469766500000000000000000000000000 PUSH1 0x0 DUP3 ADD MSTORE POP JUMP JUMPDEST PUSH1 0x0 PUSH2 0x524B PUSH1 0x13 DUP4 PUSH2 0x410C JUMP JUMPDEST SWAP2 POP PUSH2 0x5256 DUP3 PUSH2 0x5215 JUMP JUMPDEST PUSH1 0x20 DUP3 ADD SWAP1 POP SWAP2 SWAP1 POP JUMP JUMPDEST PUSH1 0x0 PUSH1 0x20 DUP3 ADD SWAP1 POP DUP2 DUP2 SUB PUSH1 0x0 DUP4 ADD MSTORE PUSH2 0x527A DUP2 PUSH2 0x523E JUMP JUMPDEST SWAP1 POP SWAP2 SWAP1 POP JUMP JUMPDEST PUSH1 0x0 PUSH1 0x40 DUP3 ADD SWAP1 POP PUSH2 0x5296 PUSH1 0x0 DUP4 ADD DUP6 PUSH2 0x3B6E JUMP JUMPDEST PUSH2 0x52A3 PUSH1 0x20 DUP4 ADD DUP5 PUSH2 0x3DC3 JUMP JUMPDEST SWAP4 SWAP3 POP POP POP JUMP JUMPDEST PUSH32 0x4E6F7420612044414F206D656D62657200000000000000000000000000000000 PUSH1 0x0 DUP3 ADD MSTORE POP JUMP JUMPDEST PUSH1 0x0 PUSH2 0x52E0 PUSH1 0x10 DUP4 PUSH2 0x410C JUMP JUMPDEST SWAP2 POP PUSH2 0x52EB DUP3 PUSH2 0x52AA JUMP JUMPDEST PUSH1 0x20 DUP3 ADD SWAP1 POP SWAP2 SWAP1 POP JUMP JUMPDEST PUSH1 0x0 PUSH1 0x20 DUP3 ADD SWAP1 POP DUP2 DUP2 SUB PUSH1 0x0 DUP4 ADD MSTORE PUSH2 0x530F DUP2 PUSH2 0x52D3 JUMP JUMPDEST SWAP1 POP SWAP2 SWAP1 POP JUMP JUMPDEST PUSH32 0x416D6F756E74206D75737420626520706F736974697665000000000000000000 PUSH1 0x0 DUP3 ADD MSTORE POP JUMP JUMPDEST PUSH1 0x0 PUSH2 0x534C PUSH1 0x17 DUP4 PUSH2 0x410C JUMP JUMPDEST SWAP2 POP PUSH2 0x5357 DUP3 PUSH2 0x5316 JUMP JUMPDEST PUSH1 0x20 DUP3 ADD SWAP1 POP SWAP2 SWAP1 POP JUMP JUMPDEST PUSH1 0x0 PUSH1 0x20 DUP3 ADD SWAP1 POP DUP2 DUP2 SUB PUSH1 0x0 DUP4 ADD MSTORE PUSH2 0x537B DUP2 PUSH2 0x533F JUMP JUMPDEST SWAP1 POP SWAP2 SWAP1 POP JUMP JUMPDEST PUSH1 0x0 PUSH1 0xA0 DUP3 ADD SWAP1 POP PUSH2 0x5397 PUSH1 0x0 DUP4 ADD DUP9 PUSH2 0x3B6E JUMP JUMPDEST PUSH2 0x53A4 PUSH1 0x20 DUP4 ADD DUP8 PUSH2 0x3BCA JUMP JUMPDEST PUSH2 0x53B1 PUSH1 0x40 DUP4 ADD DUP7 PUSH2 0x3BCA JUMP JUMPDEST PUSH2 0x53BE PUSH1 0x60 DUP4 ADD DUP6 PUSH2 0x3B6E JUMP JUMPDEST PUSH2 0x53CB PUSH1 0x80 DUP4 ADD DUP5 PUSH2 0x3B6E JUMP JUMPDEST SWAP7 SWAP6 POP POP POP POP POP POP JUMP JUMPDEST PUSH32 0x496E636F7272656374206F776E65720000000000000000000000000000000000 PUSH1 0x0 DUP3 ADD MSTORE POP JUMP JUMPDEST PUSH1 0x0 PUSH2 0x540B PUSH1 0xF DUP4 PUSH2 0x410C JUMP JUMPDEST SWAP2 POP PUSH2 0x5416 DUP3 PUSH2 0x53D5 JUMP JUMPDEST PUSH1 0x20 DUP3 ADD SWAP1 POP SWAP2 SWAP1 POP JUMP JUMPDEST PUSH1 0x0 PUSH1 0x20 DUP3 ADD SWAP1 POP DUP2 DUP2 SUB PUSH1 0x0 DUP4 ADD MSTORE PUSH2 0x543A DUP2 PUSH2 0x53FE JUMP JUMPDEST SWAP1 POP SWAP2 SWAP1 POP JUMP JUMPDEST PUSH32 0x496E73756666696369656E7420686F6C6465722062616C616E63650000000000 PUSH1 0x0 DUP3 ADD MSTORE POP JUMP JUMPDEST PUSH1 0x0 PUSH2 0x5477 PUSH1 0x1B DUP4 PUSH2 0x410C JUMP JUMPDEST SWAP2 POP PUSH2 0x5482 DUP3 PUSH2 0x5441 JUMP JUMPDEST PUSH1 0x20 DUP3 ADD SWAP1 POP SWAP2 SWAP1 POP JUMP JUMPDEST PUSH1 0x0 PUSH1 0x20 DUP3 ADD SWAP1 POP DUP2 DUP2 SUB PUSH1 0x0 DUP4 ADD MSTORE PUSH2 0x54A6 DUP2 PUSH2 0x546A JUMP JUMPDEST SWAP1 POP SWAP2 SWAP1 POP JUMP JUMPDEST PUSH1 0x0 PUSH2 0x54B8 DUP3 PUSH2 0x3B0B JUMP JUMPDEST SWAP2 POP PUSH1 0x0 DUP3 SUB PUSH2 0x54CB JUMPI PUSH2 0x54CA PUSH2 0x4261 JUMP JUMPDEST JUMPDEST PUSH1 0x1 DUP3 SUB SWAP1 POP SWAP2 SWAP1 POP JUMP JUMPDEST PUSH32 0x546F6B656E206E6F74206F776E656420627920636F6E74726163740000000000 PUSH1 0x0 DUP3 ADD MSTORE POP JUMP JUMPDEST PUSH1 0x0 PUSH2 0x550C PUSH1 0x1B DUP4 PUSH2 0x410C JUMP JUMPDEST SWAP2 POP PUSH2 0x5517 DUP3 PUSH2 0x54D6 JUMP JUMPDEST PUSH1 0x20 DUP3 ADD SWAP1 POP SWAP2 SWAP1 POP JUMP JUMPDEST PUSH1 0x0 PUSH1 0x20 DUP3 ADD SWAP1 POP DUP2 DUP2 SUB PUSH1 0x0 DUP4 ADD MSTORE PUSH2 0x553B DUP2 PUSH2 0x54FF JUMP JUMPDEST SWAP1 POP SWAP2 SWAP1 POP JUMP INVALID LOG2 PUSH5 0x6970667358 0x22 SLT KECCAK256 0xD4 0xD7 0xE 0xEE DUP15 MLOAD 0xEE JUMP 0x21 DUP4 0xAF 0xB6 0xB5 STOP PC PUSH29 0x36A23EC9AE8396754600FD7F3E7B893564736F6C634300081C00330000 "},"methodIdentifiers":{"AUCTION_DURATION()":"a271e525","JURY_REWARD()":"6be6258b","MINT_INTERVAL()":"84e7e3d3","auctions(uint256)":"571a26a0","balanceOf(address)":"70a08231","bid(uint256)":"454a2ab3","commissionHasActiveDispute(address)":"de86b419","createDisputeCase(address,uint256,uint256)":"a5bc3636","createProposal(address,uint256)":"dfc51a25","executeProposal(uint256)":"0d61b519","getAllHolders()":"1d92f25e","getJurorVote(uint256,address)":"3af7f4f7","getJurors(uint256)":"6d8acf45","getProposal(uint256)":"c7f758a8","getVoteCounts(uint256)":"8a241f4c","holderBalance(address)":"ab6ddfa8","holderExists(address)":"9f9b1048","holders(uint256)":"2a11ced0","lastMintTime()":"9d463520","mint()":"1249c58b","nextDisputeId()":"0db39934","nextProposalId()":"2ab09d14","nextTokenId()":"75794a3c","ownerOf(uint256)":"6352211e","resolveDispute(uint256)":"c2b7b868","selectJurors(uint256,uint256)":"74f376d4","settleAuction(uint256)":"2e993611","tokenOwner(uint256)":"1caaa487","totalSupply()":"18160ddd","transfer(address,uint256)":"a9059cbb","treasuryBalance()":"313dab20","vote(uint256,uint8)":"943e8216","voteProposal(uint256,bool)":"bcfb9b61"}}}}}