{"contracts/test/EvilJuror.sol":{"EvilJuror":{"abi":[{"inputs":[{"internalType":"address","name":"dao","type":"address"}],"stateMutability":"payable","type":"constructor"},{"inputs":[{"internalType":"uint256","name":"id","type":"uint256"}],"name":"justvote","outputs":[],"stateMutability":"nonpayable","type":"function"},{"inputs":[{"internalType":"uint256","name":"val","type":"uint256"}],"name":"makebid","outputs":[],"stateMutability":"payable","type":"function"},{"inputs":[{"internalType":"address","name":"","type":"address"},{"internalType":"address","name":"","type":"address"},{"internalType":"uint256","name":"","type":"uint256"},{"internalType":"bytes","name":"","type":"bytes"}],"name":"onERC721Received","outputs":[{"internalType":"bytes4","name":"","type":"bytes4"}],"stateMutability":"pure","type":"function"},{"stateMutability":"payable","type":"receive"}],"evm":{"bytecode":{"linkReferences":{},"object":"60806040526040516107ac3803806107ac833981810160405281019061002591906100ce565b806000806101000a81548173ffffffffffffffffffffffffffffffffffffffff021916908373ffffffffffffffffffffffffffffffffffffffff160217905550506100fb565b600080fd5b600073ffffffffffffffffffffffffffffffffffffffff82169050919050565b600061009b82610070565b9050919050565b6100ab81610090565b81146100b657600080fd5b50565b6000815190506100c8816100a2565b92915050565b6000602082840312156100e4576100e361006b565b5b60006100f2848285016100b9565b91505092915050565b6106a28061010a6000396000f3fe6080604052600436106100385760003560e01c8063150b7a021461007d5780636e7118ae146100ba578063fa727522146100e357610078565b36610078576040517f08c379a000000000000000000000000000000000000000000000000000000000815260040161006f9061031e565b60405180910390fd5b600080fd5b34801561008957600080fd5b506100a4600480360381019061009f9190610441565b6100ff565b6040516100b19190610504565b60405180910390f35b3480156100c657600080fd5b506100e160048036038101906100dc919061051f565b610114565b005b6100fd60048036038101906100f8919061051f565b6101a5565b005b600063150b7a0260e01b905095945050505050565b60008054906101000a900473ffffffffffffffffffffffffffffffffffffffff1673ffffffffffffffffffffffffffffffffffffffff1663b384abef8260026040518363ffffffff1660e01b81526004016101709291906105a0565b600060405180830381600087803b15801561018a57600080fd5b505af115801561019e573d6000803e3d6000fd5b5050505050565b60008054906101000a900473ffffffffffffffffffffffffffffffffffffffff1673ffffffffffffffffffffffffffffffffffffffff166064826040516024016101ef91906105c9565b6040516020818303038152906040527f454a2ab3000000000000000000000000000000000000000000000000000000007bffffffffffffffffffffffffffffffffffffffffffffffffffffffff19166020820180517bffffffffffffffffffffffffffffffffffffffffffffffffffffffff83818316178352505050506040516102799190610655565b60006040518083038185875af1925050503d80600081146102b6576040519150601f19603f3d011682016040523d82523d6000602084013e6102bb565b606091505b50505050565b600082825260208201905092915050565b7f69276d206576696c000000000000000000000000000000000000000000000000600082015250565b60006103086008836102c1565b9150610313826102d2565b602082019050919050565b60006020820190508181036000830152610337816102fb565b9050919050565b600080fd5b600080fd5b600073ffffffffffffffffffffffffffffffffffffffff82169050919050565b600061037382610348565b9050919050565b61038381610368565b811461038e57600080fd5b50565b6000813590506103a08161037a565b92915050565b6000819050919050565b6103b9816103a6565b81146103c457600080fd5b50565b6000813590506103d6816103b0565b92915050565b600080fd5b600080fd5b600080fd5b60008083601f840112610401576104006103dc565b5b8235905067ffffffffffffffff81111561041e5761041d6103e1565b5b60208301915083600182028301111561043a576104396103e6565b5b9250929050565b60008060008060006080868803121561045d5761045c61033e565b5b600061046b88828901610391565b955050602061047c88828901610391565b945050604061048d888289016103c7565b935050606086013567ffffffffffffffff8111156104ae576104ad610343565b5b6104ba888289016103eb565b92509250509295509295909350565b60007fffffffff0000000000000000000000000000000000000000000000000000000082169050919050565b6104fe816104c9565b82525050565b600060208201905061051960008301846104f5565b92915050565b6000602082840312156105355761053461033e565b5b6000610543848285016103c7565b91505092915050565b610555816103a6565b82525050565b6000819050919050565b6000819050919050565b600061058a6105856105808461055b565b610565565b6103a6565b9050919050565b61059a8161056f565b82525050565b60006040820190506105b5600083018561054c565b6105c26020830184610591565b9392505050565b60006020820190506105de600083018461054c565b92915050565b600081519050919050565b600081905092915050565b60005b838110156106185780820151818401526020810190506105fd565b60008484015250505050565b600061062f826105e4565b61063981856105ef565b93506106498185602086016105fa565b80840191505092915050565b60006106618284610624565b91508190509291505056fea2646970667358221220a3711c5da6a570ca42949566b2abbe69294f3c494813e7112587934018e4208e64736f6c634300081c0033","opcodes":"PUSH1 0x80 PUSH1 0x40 MSTORE PUSH1 0x40 MLOAD PUSH2 0x7AC CODESIZE SUB DUP1 PUSH2 0x7AC DUP4 CODECOPY DUP2 DUP2 ADD PUSH1 0x40 MSTORE DUP2 ADD SWAP1 PUSH2 0x25 SWAP2 SWAP1 PUSH2 0xCE JUMP JUMPDEST DUP1 PUSH1 0x0 DUP1 PUSH2 0x100 EXP DUP2 SLOAD DUP2 PUSH20 0xFFFFFFFFFFFFFFFFFFFFFFFFFFFFFFFFFFFFFFFF MUL NOT AND SWAP1 DUP4 PUSH20 0xFFFFFFFFFFFFFFFFFFFFFFFFFFFFFFFFFFFFFFFF AND MUL OR SWAP1 SSTORE POP POP PUSH2 0xFB JUMP JUMPDEST PUSH1 0x0 DUP1 REVERT JUMPDEST PUSH1 0x0 PUSH20 0xFFFFFFFFFFFFFFFFFFFFFFFFFFFFFFFFFFFFFFFF DUP3 AND SWAP1 POP SWAP2 SWAP1 POP JUMP JUMPDEST PUSH1 0x0 PUSH2 0x9B DUP3 PUSH2 0x70 JUMP JUMPDEST SWAP1 POP SWAP2 SWAP1 POP JUMP JUMPDEST PUSH2 0xAB DUP2 PUSH2 0x90 JUMP JUMPDEST DUP2 EQ PUSH2 0xB6 JUMPI PUSH1 0x0 DUP1 REVERT JUMPDEST POP JUMP JUMPDEST PUSH1 0x0 DUP2 MLOAD SWAP1 POP PUSH2 0xC8 DUP2 PUSH2 0xA2 JUMP JUMPDEST SWAP3 SWAP2 POP POP JUMP JUMPDEST PUSH1 0x0 PUSH1 0x20 DUP3 DUP5 SUB SLT ISZERO PUSH2 0xE4 JUMPI PUSH2 0xE3 PUSH2 0x6B JUMP JUMPDEST JUMPDEST PUSH1 0x0 PUSH2 0xF2 DUP5 DUP3 DUP6 ADD PUSH2 0xB9 JUMP JUMPDEST SWAP2 POP POP SWAP3 SWAP2 POP POP JUMP JUMPDEST PUSH2 0x6A2 DUP1 PUSH2 0x10A PUSH1 0x0 CODECOPY PUSH1 0x0 RETURN INVALID PUSH1 0x80 PUSH1 0x40 MSTORE PUSH1 0x4 CALLDATASIZE LT PUSH2 0x38 JUMPI PUSH1 0x0 CALLDATALOAD PUSH1 0xE0 SHR DUP1 PUSH4 0x150B7A02 EQ PUSH2 0x7D JUMPI DUP1 PUSH4 0x6E7118AE EQ PUSH2 0xBA JUMPI DUP1 PUSH4 0xFA727522 EQ PUSH2 0xE3 JUMPI PUSH2 0x78 JUMP JUMPDEST CALLDATASIZE PUSH2 0x78 JUMPI PUSH1 0x40 MLOAD PUSH32 0x8C379A000000000000000000000000000000000000000000000000000000000 DUP2 MSTORE PUSH1 0x4 ADD PUSH2 0x6F SWAP1 PUSH2 0x31E JUMP JUMPDEST PUSH1 0x40 MLOAD DUP1 SWAP2 SUB SWAP1 REVERT JUMPDEST PUSH1 0x0 DUP1 REVERT JUMPDEST CALLVALUE DUP1 ISZERO PUSH2 0x89 JUMPI PUSH1 0x0 DUP1 REVERT JUMPDEST POP PUSH2 0xA4 PUSH1 0x4 DUP1 CALLDATASIZE SUB DUP2 ADD SWAP1 PUSH2 0x9F SWAP2 SWAP1 PUSH2 0x441 JUMP JUMPDEST PUSH2 0xFF JUMP JUMPDEST PUSH1 0x40 MLOAD PUSH2 0xB1 SWAP2 SWAP1 PUSH2 0x504 JUMP JUMPDEST PUSH1 0x40 MLOAD DUP1 SWAP2 SUB SWAP1 RETURN JUMPDEST CALLVALUE DUP1 ISZERO PUSH2 0xC6 JUMPI PUSH1 0x0 DUP1 REVERT JUMPDEST POP PUSH2 0xE1 PUSH1 0x4 DUP1 CALLDATASIZE SUB DUP2 ADD SWAP1 PUSH2 0xDC SWAP2 SWAP1 PUSH2 0x51F JUMP JUMPDEST PUSH2 0x114 JUMP JUMPDEST STOP JUMPDEST PUSH2 0xFD PUSH1 0x4 DUP1 CALLDATASIZE SUB DUP2 ADD SWAP1 PUSH2 0xF8 SWAP2 SWAP1 PUSH2 0x51F JUMP JUMPDEST PUSH2 0x1A5 JUMP JUMPDEST STOP JUMPDEST PUSH1 0x0 PUSH4 0x150B7A02 PUSH1 0xE0 SHL SWAP1 POP SWAP6 SWAP5 POP POP POP POP POP JUMP JUMPDEST PUSH1 0x0 DUP1 SLOAD SWAP1 PUSH2 0x100 EXP SWAP1 DIV PUSH20 0xFFFFFFFFFFFFFFFFFFFFFFFFFFFFFFFFFFFFFFFF AND PUSH20 0xFFFFFFFFFFFFFFFFFFFFFFFFFFFFFFFFFFFFFFFF AND PUSH4 0xB384ABEF DUP3 PUSH1 0x2 PUSH1 0x40 MLOAD DUP4 PUSH4 0xFFFFFFFF AND PUSH1 0xE0 SHL DUP2 MSTORE PUSH1 0x4 ADD PUSH2 0x170 SWAP3 SWAP2 SWAP1 PUSH2 0x5A0 JUMP JUMPDEST PUSH1 0x0 PUSH1 0x40 MLOAD DUP1 DUP4 SUB DUP2 PUSH1 0x0 DUP8 DUP1 EXTCODESIZE ISZERO DUP1 ISZERO PUSH2 0x18A JUMPI PUSH1 0x0 DUP1 REVERT JUMPDEST POP GAS CALL ISZERO DUP1 ISZERO PUSH2 0x19E JUMPI RETURNDATASIZE PUSH1 0x0 DUP1 RETURNDATACOPY RETURNDATASIZE PUSH1 0x0 REVERT JUMPDEST POP POP POP POP POP JUMP JUMPDEST PUSH1 0x0 DUP1 SLOAD SWAP1 PUSH2 0x100 EXP SWAP1 DIV PUSH20 0xFFFFFFFFFFFFFFFFFFFFFFFFFFFFFFFFFFFFFFFF AND PUSH20 0xFFFFFFFFFFFFFFFFFFFFFFFFFFFFFFFFFFFFFFFF AND PUSH1 0x64 DUP3 PUSH1 0x40 MLOAD PUSH1 0x24 ADD PUSH2 0x1EF SWAP2 SWAP1 PUSH2 0x5C9 JUMP JUMPDEST PUSH1 0x40 MLOAD PUSH1 0x20 DUP2 DUP4 SUB SUB DUP2 MSTORE SWAP1 PUSH1 0x40 MSTORE PUSH32 0x454A2AB300000000000000000000000000000000000000000000000000000000 PUSH28 0xFFFFFFFFFFFFFFFFFFFFFFFFFFFFFFFFFFFFFFFFFFFFFFFFFFFFFFFF NOT AND PUSH1 0x20 DUP3 ADD DUP1 MLOAD PUSH28 0xFFFFFFFFFFFFFFFFFFFFFFFFFFFFFFFFFFFFFFFFFFFFFFFFFFFFFFFF DUP4 DUP2 DUP4 AND OR DUP4 MSTORE POP POP POP POP PUSH1 0x40 MLOAD PUSH2 0x279 SWAP2 SWAP1 PUSH2 0x655 JUMP JUMPDEST PUSH1 0x0 PUSH1 0x40 MLOAD DUP1 DUP4 SUB DUP2 DUP6 DUP8 GAS CALL SWAP3 POP POP POP RETURNDATASIZE DUP1 PUSH1 0x0 DUP2 EQ PUSH2 0x2B6 JUMPI PUSH1 0x40 MLOAD SWAP2 POP PUSH1 0x1F NOT PUSH1 0x3F RETURNDATASIZE ADD AND DUP3 ADD PUSH1 0x40 MSTORE RETURNDATASIZE DUP3 MSTORE RETURNDATASIZE PUSH1 0x0 PUSH1 0x20 DUP5 ADD RETURNDATACOPY PUSH2 0x2BB JUMP JUMPDEST PUSH1 0x60 SWAP2 POP JUMPDEST POP POP POP POP JUMP JUMPDEST PUSH1 0x0 DUP3 DUP3 MSTORE PUSH1 0x20 DUP3 ADD SWAP1 POP SWAP3 SWAP2 POP POP JUMP JUMPDEST PUSH32 0x69276D206576696C000000000000000000000000000000000000000000000000 PUSH1 0x0 DUP3 ADD MSTORE POP JUMP JUMPDEST PUSH1 0x0 PUSH2 0x308 PUSH1 0x8 DUP4 PUSH2 0x2C1 JUMP JUMPDEST SWAP2 POP PUSH2 0x313 DUP3 PUSH2 0x2D2 JUMP JUMPDEST PUSH1 0x20 DUP3 ADD SWAP1 POP SWAP2 SWAP1 POP JUMP JUMPDEST PUSH1 0x0 PUSH1 0x20 DUP3 ADD SWAP1 POP DUP2 DUP2 SUB PUSH1 0x0 DUP4 ADD MSTORE PUSH2 0x337 DUP2 PUSH2 0x2FB JUMP JUMPDEST SWAP1 POP SWAP2 SWAP1 POP JUMP JUMPDEST PUSH1 0x0 DUP1 REVERT JUMPDEST PUSH1 0x0 DUP1 REVERT JUMPDEST PUSH1 0x0 PUSH20 0xFFFFFFFFFFFFFFFFFFFFFFFFFFFFFFFFFFFFFFFF DUP3 AND SWAP1 POP SWAP2 SWAP1 POP JUMP JUMPDEST PUSH1 0x0 PUSH2 0x373 DUP3 PUSH2 0x348 JUMP JUMPDEST SWAP1 POP SWAP2 SWAP1 POP JUMP JUMPDEST PUSH2 0x383 DUP2 PUSH2 0x368 JUMP JUMPDEST DUP2 EQ PUSH2 0x38E JUMPI PUSH1 0x0 DUP1 REVERT JUMPDEST POP JUMP JUMPDEST PUSH1 0x0 DUP2 CALLDATALOAD SWAP1 POP PUSH2 0x3A0 DUP2 PUSH2 0x37A JUMP JUMPDEST SWAP3 SWAP2 POP POP JUMP JUMPDEST PUSH1 0x0 DUP2 SWAP1 POP SWAP2 SWAP1 POP JUMP JUMPDEST PUSH2 0x3B9 DUP2 PUSH2 0x3A6 JUMP JUMPDEST DUP2 EQ PUSH2 0x3C4 JUMPI PUSH1 0x0 DUP1 REVERT JUMPDEST POP JUMP JUMPDEST PUSH1 0x0 DUP2 CALLDATALOAD SWAP1 POP PUSH2 0x3D6 DUP2 PUSH2 0x3B0 JUMP JUMPDEST SWAP3 SWAP2 POP POP JUMP JUMPDEST PUSH1 0x0 DUP1 REVERT JUMPDEST PUSH1 0x0 DUP1 REVERT JUMPDEST PUSH1 0x0 DUP1 REVERT JUMPDEST PUSH1 0x0 DUP1 DUP4 PUSH1 0x1F DUP5 ADD SLT PUSH2 0x401 JUMPI PUSH2 0x400 PUSH2 0x3DC JUMP JUMPDEST JUMPDEST DUP3 CALLDATALOAD SWAP1 POP PUSH8 0xFFFFFFFFFFFFFFFF DUP2 GT ISZERO PUSH2 0x41E JUMPI PUSH2 0x41D PUSH2 0x3E1 JUMP JUMPDEST JUMPDEST PUSH1 0x20 DUP4 ADD SWAP2 POP DUP4 PUSH1 0x1 DUP3 MUL DUP4 ADD GT ISZERO PUSH2 0x43A JUMPI PUSH2 0x439 PUSH2 0x3E6 JUMP JUMPDEST JUMPDEST SWAP3 POP SWAP3 SWAP1 POP JUMP JUMPDEST PUSH1 0x0 DUP1 PUSH1 0x0 DUP1 PUSH1 0x0 PUSH1 0x80 DUP7 DUP9 SUB SLT ISZERO PUSH2 0x45D JUMPI PUSH2 0x45C PUSH2 0x33E JUMP JUMPDEST JUMPDEST PUSH1 0x0 PUSH2 0x46B DUP9 DUP3 DUP10 ADD PUSH2 0x391 JUMP JUMPDEST SWAP6 POP POP PUSH1 0x20 PUSH2 0x47C DUP9 DUP3 DUP10 ADD PUSH2 0x391 JUMP JUMPDEST SWAP5 POP POP PUSH1 0x40 PUSH2 0x48D DUP9 DUP3 DUP10 ADD PUSH2 0x3C7 JUMP JUMPDEST SWAP4 POP POP PUSH1 0x60 DUP7 ADD CALLDATALOAD PUSH8 0xFFFFFFFFFFFFFFFF DUP2 GT ISZERO PUSH2 0x4AE JUMPI PUSH2 0x4AD PUSH2 0x343 JUMP JUMPDEST JUMPDEST PUSH2 0x4BA DUP9 DUP3 DUP10 ADD PUSH2 0x3EB JUMP JUMPDEST SWAP3 POP SWAP3 POP POP SWAP3 SWAP6 POP SWAP3 SWAP6 SWAP1 SWAP4 POP JUMP JUMPDEST PUSH1 0x0 PUSH32 0xFFFFFFFF00000000000000000000000000000000000000000000000000000000 DUP3 AND SWAP1 POP SWAP2 SWAP1 POP JUMP JUMPDEST PUSH2 0x4FE DUP2 PUSH2 0x4C9 JUMP JUMPDEST DUP3 MSTORE POP POP JUMP JUMPDEST PUSH1 0x0 PUSH1 0x20 DUP3 ADD SWAP1 POP PUSH2 0x519 PUSH1 0x0 DUP4 ADD DUP5 PUSH2 0x4F5 JUMP JUMPDEST SWAP3 SWAP2 POP POP JUMP JUMPDEST PUSH1 0x0 PUSH1 0x20 DUP3 DUP5 SUB SLT ISZERO PUSH2 0x535 JUMPI PUSH2 0x534 PUSH2 0x33E JUMP JUMPDEST JUMPDEST PUSH1 0x0 PUSH2 0x543 DUP5 DUP3 DUP6 ADD PUSH2 0x3C7 JUMP JUMPDEST SWAP2 POP POP SWAP3 SWAP2 POP POP JUMP JUMPDEST PUSH2 0x555 DUP2 PUSH2 0x3A6 JUMP JUMPDEST DUP3 MSTORE POP POP JUMP JUMPDEST PUSH1 0x0 DUP2 SWAP1 POP SWAP2 SWAP1 POP JUMP JUMPDEST PUSH1 0x0 DUP2 SWAP1 POP SWAP2 SWAP1 POP JUMP JUMPDEST PUSH1 0x0 PUSH2 0x58A PUSH2 0x585 PUSH2 0x580 DUP5 PUSH2 0x55B JUMP JUMPDEST PUSH2 0x565 JUMP JUMPDEST PUSH2 0x3A6 JUMP JUMPDEST SWAP1 POP SWAP2 SWAP1 POP JUMP JUMPDEST PUSH2 0x59A DUP2 PUSH2 0x56F JUMP JUMPDEST DUP3 MSTORE POP POP JUMP JUMPDEST PUSH1 0x0 PUSH1 0x40 DUP3 ADD SWAP1 POP PUSH2 0x5B5 PUSH1 0x0 DUP4 ADD DUP6 PUSH2 0x54C JUMP JUMPDEST PUSH2 0x5C2 PUSH1 0x20 DUP4 ADD DUP5 PUSH2 0x591 JUMP JUMPDEST SWAP4 SWAP3 POP POP POP JUMP JUMPDEST PUSH1 0x0 PUSH1 0x20 DUP3 ADD SWAP1 POP PUSH2 0x5DE PUSH1 0x0 DUP4 ADD DUP5 PUSH2 0x54C JUMP JUMPDEST SWAP3 SWAP2 POP POP JUMP JUMPDEST PUSH1 0x0 DUP2 MLOAD SWAP1 POP SWAP2 SWAP1 POP JUMP JUMPDEST PUSH1 0x0 DUP2 SWAP1 POP SWAP3 SWAP2 POP POP JUMP JUMPDEST PUSH1 0x0 JUMPDEST DUP4 DUP2 LT ISZERO PUSH2 0x618 JUMPI DUP1 DUP3 ADD MLOAD DUP2 DUP5 ADD MSTORE PUSH1 0x20 DUP2 ADD SWAP1 POP PUSH2 0x5FD JUMP JUMPDEST PUSH1 0x0 DUP5 DUP5 ADD MSTORE POP POP POP POP JUMP JUMPDEST PUSH1 0x0 PUSH2 0x62F DUP3 PUSH2 0x5E4 JUMP JUMPDEST PUSH2 0x639 DUP2 DUP6 PUSH2 0x5EF JUMP JUMPDEST SWAP4 POP PUSH2 0x649 DUP2 DUP6 PUSH1 0x20 DUP7 ADD PUSH2 0x5FA JUMP JUMPDEST DUP1 DUP5 ADD SWAP2 POP POP SWAP3 SWAP2 POP POP JUMP JUMPDEST PUSH1 0x0 PUSH2 0x661 DUP3 DUP5 PUSH2 0x624 JUMP JUMPDEST SWAP2 POP DUP2 SWAP1 POP SWAP3 SWAP2 POP POP JUMP INVALID LOG2 PUSH5 0x6970667358 0x22 SLT KECCAK256 LOG3 PUSH18 0x1C5DA6A570CA42949566B2ABBE69294F3C49 BASEFEE SGT 0xE7 GT 0x25 DUP8 SWAP4 BLOCKHASH XOR 0xE4 KECCAK256 DUP15 PUSH5 0x736F6C6343 STOP ADDMOD SHR STOP CALLER "},"methodIdentifiers":{"justvote(uint256)":"6e7118ae","makebid(uint256)":"fa727522","onERC721Received(address,address,uint256,bytes)":"150b7a02"}}}}}